{
	"contracts/Pasanaku.sol": {
		"Pasanaku": {
			"abi": [
				{
					"inputs": [],
					"name": "MontoIncorrecto",
					"type": "error"
				},
				{
					"inputs": [],
					"name": "NoInvitado",
					"type": "error"
				},
				{
					"inputs": [],
					"name": "SalaFinalizada",
					"type": "error"
				},
				{
					"inputs": [],
					"name": "SalaLlena",
					"type": "error"
				},
				{
					"inputs": [],
					"name": "SalaNoExiste",
					"type": "error"
				},
				{
					"inputs": [],
					"name": "SalaYaExiste",
					"type": "error"
				},
				{
					"inputs": [],
					"name": "SoloOrganizador",
					"type": "error"
				},
				{
					"inputs": [],
					"name": "SorteoNoRealizado",
					"type": "error"
				},
				{
					"inputs": [],
					"name": "SorteoYaRealizado",
					"type": "error"
				},
				{
					"inputs": [],
					"name": "TransferenciaFallida",
					"type": "error"
				},
				{
					"inputs": [],
					"name": "YaAporto",
					"type": "error"
				},
				{
					"inputs": [],
					"name": "YaEsParticipante",
					"type": "error"
				},
				{
					"inputs": [],
					"name": "YaRecibio",
					"type": "error"
				},
				{
					"anonymous": false,
					"inputs": [
						{
							"indexed": true,
							"internalType": "string",
							"name": "hashId",
							"type": "string"
						},
						{
							"indexed": true,
							"internalType": "address",
							"name": "participante",
							"type": "address"
						},
						{
							"indexed": false,
							"internalType": "uint256",
							"name": "monto",
							"type": "uint256"
						}
					],
					"name": "AporteRealizado",
					"type": "event"
				},
				{
					"anonymous": false,
					"inputs": [
						{
							"indexed": true,
							"internalType": "string",
							"name": "hashId",
							"type": "string"
						},
						{
							"indexed": true,
							"internalType": "address",
							"name": "beneficiario",
							"type": "address"
						},
						{
							"indexed": false,
							"internalType": "uint256",
							"name": "monto",
							"type": "uint256"
						}
					],
					"name": "PagoDisponible",
					"type": "event"
				},
				{
					"anonymous": false,
					"inputs": [
						{
							"indexed": true,
							"internalType": "string",
							"name": "hashId",
							"type": "string"
						},
						{
							"indexed": true,
							"internalType": "address",
							"name": "participante",
							"type": "address"
						}
					],
					"name": "ParticipanteUnido",
					"type": "event"
				},
				{
					"anonymous": false,
					"inputs": [
						{
							"indexed": true,
							"internalType": "string",
							"name": "hashId",
							"type": "string"
						},
						{
							"indexed": true,
							"internalType": "address",
							"name": "organizador",
							"type": "address"
						}
					],
					"name": "SalaCreada",
					"type": "event"
				},
				{
					"anonymous": false,
					"inputs": [
						{
							"indexed": true,
							"internalType": "string",
							"name": "hashId",
							"type": "string"
						}
					],
					"name": "SorteoRealizado",
					"type": "event"
				},
				{
					"inputs": [
						{
							"internalType": "string",
							"name": "hashId",
							"type": "string"
						},
						{
							"internalType": "uint8",
							"name": "numeroParticipantes",
							"type": "uint8"
						},
						{
							"internalType": "uint256",
							"name": "montoAportar",
							"type": "uint256"
						},
						{
							"internalType": "uint32",
							"name": "fechaInicio",
							"type": "uint32"
						}
					],
					"name": "crearSala",
					"outputs": [],
					"stateMutability": "nonpayable",
					"type": "function"
				},
				{
					"inputs": [
						{
							"internalType": "string",
							"name": "hashId",
							"type": "string"
						},
						{
							"internalType": "address",
							"name": "usuario",
							"type": "address"
						}
					],
					"name": "esInvitado",
					"outputs": [
						{
							"internalType": "bool",
							"name": "",
							"type": "bool"
						}
					],
					"stateMutability": "view",
					"type": "function"
				},
				{
					"inputs": [
						{
							"internalType": "string",
							"name": "hashId",
							"type": "string"
						},
						{
							"internalType": "address[]",
							"name": "participantesInvitados",
							"type": "address[]"
						}
					],
					"name": "invitarParticipantes",
					"outputs": [],
					"stateMutability": "nonpayable",
					"type": "function"
				},
				{
					"inputs": [
						{
							"internalType": "string",
							"name": "hashId",
							"type": "string"
						}
					],
					"name": "obtenerParticipantes",
					"outputs": [
						{
							"components": [
								{
									"internalType": "address",
									"name": "wallet",
									"type": "address"
								},
								{
									"internalType": "uint8",
									"name": "numTurno",
									"type": "uint8"
								},
								{
									"internalType": "bool",
									"name": "haRecibido",
									"type": "bool"
								},
								{
									"internalType": "bool",
									"name": "haAportadoRondaActual",
									"type": "bool"
								}
							],
							"internalType": "struct Pasanaku.Participante[]",
							"name": "",
							"type": "tuple[]"
						}
					],
					"stateMutability": "view",
					"type": "function"
				},
				{
					"inputs": [
						{
							"internalType": "string",
							"name": "hashId",
							"type": "string"
						},
						{
							"internalType": "address",
							"name": "usuario",
							"type": "address"
						}
					],
					"name": "obtenerPendienteRetiro",
					"outputs": [
						{
							"internalType": "uint256",
							"name": "",
							"type": "uint256"
						}
					],
					"stateMutability": "view",
					"type": "function"
				},
				{
					"inputs": [
						{
							"internalType": "string",
							"name": "hashId",
							"type": "string"
						}
					],
					"name": "obtenerSala",
					"outputs": [
						{
							"internalType": "address",
							"name": "",
							"type": "address"
						},
						{
							"internalType": "uint256",
							"name": "",
							"type": "uint256"
						},
						{
							"internalType": "uint8",
							"name": "",
							"type": "uint8"
						},
						{
							"internalType": "uint8",
							"name": "",
							"type": "uint8"
						},
						{
							"internalType": "bool",
							"name": "",
							"type": "bool"
						},
						{
							"internalType": "bool",
							"name": "",
							"type": "bool"
						}
					],
					"stateMutability": "view",
					"type": "function"
				},
				{
					"inputs": [
						{
							"internalType": "address",
							"name": "usuario",
							"type": "address"
						}
					],
					"name": "obtenerSalasUsuario",
					"outputs": [
						{
							"internalType": "string[]",
							"name": "",
							"type": "string[]"
						}
					],
					"stateMutability": "view",
					"type": "function"
				},
				{
					"inputs": [
						{
							"internalType": "string",
							"name": "hashId",
							"type": "string"
						}
					],
					"name": "obtenerTransacciones",
					"outputs": [
						{
							"components": [
								{
									"internalType": "address",
									"name": "from",
									"type": "address"
								},
								{
									"internalType": "address",
									"name": "to",
									"type": "address"
								},
								{
									"internalType": "uint256",
									"name": "monto",
									"type": "uint256"
								},
								{
									"internalType": "uint32",
									"name": "fecha",
									"type": "uint32"
								},
								{
									"internalType": "uint8",
									"name": "ronda",
									"type": "uint8"
								},
								{
									"internalType": "bool",
									"name": "esPago",
									"type": "bool"
								}
							],
							"internalType": "struct Pasanaku.Transaccion[]",
							"name": "",
							"type": "tuple[]"
						}
					],
					"stateMutability": "view",
					"type": "function"
				},
				{
					"inputs": [
						{
							"internalType": "string",
							"name": "hashId",
							"type": "string"
						},
						{
							"internalType": "address",
							"name": "usuario",
							"type": "address"
						}
					],
					"name": "obtenerTurnoUsuario",
					"outputs": [
						{
							"internalType": "uint8",
							"name": "",
							"type": "uint8"
						}
					],
					"stateMutability": "view",
					"type": "function"
				},
				{
					"inputs": [
						{
							"internalType": "string",
							"name": "hashId",
							"type": "string"
						}
					],
					"name": "realizarAporte",
					"outputs": [],
					"stateMutability": "payable",
					"type": "function"
				},
				{
					"inputs": [
						{
							"internalType": "string",
							"name": "hashId",
							"type": "string"
						}
					],
					"name": "realizarSorteo",
					"outputs": [],
					"stateMutability": "nonpayable",
					"type": "function"
				},
				{
					"inputs": [
						{
							"internalType": "string",
							"name": "hashId",
							"type": "string"
						}
					],
					"name": "retirarFondos",
					"outputs": [],
					"stateMutability": "nonpayable",
					"type": "function"
				},
				{
					"inputs": [
						{
							"internalType": "string",
							"name": "hashId",
							"type": "string"
						}
					],
					"name": "unirseASala",
					"outputs": [],
					"stateMutability": "nonpayable",
					"type": "function"
				}
			],
			"devdoc": {
				"kind": "dev",
				"methods": {},
				"version": 1
			},
			"evm": {
				"assembly": "    /* \"contracts/Pasanaku.sol\":60:10738  contract Pasanaku {... */\n  mstore(0x40, 0x80)\n  callvalue\n  dup1\n  iszero\n  tag_1\n  jumpi\n  revert(0x00, 0x00)\ntag_1:\n  pop\n  dataSize(sub_0)\n  dup1\n  dataOffset(sub_0)\n  0x00\n  codecopy\n  0x00\n  return\nstop\n\nsub_0: assembly {\n        /* \"contracts/Pasanaku.sol\":60:10738  contract Pasanaku {... */\n      mstore(0x40, 0x80)\n      jumpi(tag_1, lt(calldatasize, 0x04))\n      shr(0xe0, calldataload(0x00))\n      dup1\n      0x76dd1305\n      gt\n      tag_15\n      jumpi\n      dup1\n      0x9267bfdc\n      gt\n      tag_16\n      jumpi\n      dup1\n      0x9267bfdc\n      eq\n      tag_11\n      jumpi\n      dup1\n      0x927c368d\n      eq\n      tag_12\n      jumpi\n      dup1\n      0xbd89d4d8\n      eq\n      tag_13\n      jumpi\n      dup1\n      0xcdb2000d\n      eq\n      tag_14\n      jumpi\n      revert(0x00, 0x00)\n    tag_16:\n      dup1\n      0x76dd1305\n      eq\n      tag_8\n      jumpi\n      dup1\n      0x7c5e107f\n      eq\n      tag_9\n      jumpi\n      dup1\n      0x8c7d0624\n      eq\n      tag_10\n      jumpi\n      revert(0x00, 0x00)\n    tag_15:\n      dup1\n      0x071b3902\n      eq\n      tag_2\n      jumpi\n      dup1\n      0x28b89be7\n      eq\n      tag_3\n      jumpi\n      dup1\n      0x2b798c0f\n      eq\n      tag_4\n      jumpi\n      dup1\n      0x2d74801d\n      eq\n      tag_5\n      jumpi\n      dup1\n      0x2eac249c\n      eq\n      tag_6\n      jumpi\n      dup1\n      0x4d0c1b98\n      eq\n      tag_7\n      jumpi\n    tag_1:\n      revert(0x00, 0x00)\n        /* \"contracts/Pasanaku.sol\":2891:3360  function invitarParticipantes(... */\n    tag_2:\n      callvalue\n      dup1\n      iszero\n      tag_17\n      jumpi\n      revert(0x00, 0x00)\n    tag_17:\n      pop\n      tag_18\n      tag_19\n      calldatasize\n      0x04\n      tag_20\n      jump\t// in\n    tag_19:\n      tag_21\n      jump\t// in\n    tag_18:\n      stop\n        /* \"contracts/Pasanaku.sol\":8903:9036  function obtenerSalasUsuario(address usuario) external view returns (string[] memory) {... */\n    tag_3:\n      callvalue\n      dup1\n      iszero\n      tag_22\n      jumpi\n      revert(0x00, 0x00)\n    tag_22:\n      pop\n      tag_23\n      tag_24\n      calldatasize\n      0x04\n      tag_25\n      jump\t// in\n    tag_24:\n      tag_26\n      jump\t// in\n    tag_23:\n      mload(0x40)\n      tag_27\n      swap2\n      swap1\n      tag_28\n      jump\t// in\n    tag_27:\n      mload(0x40)\n      dup1\n      swap2\n      sub\n      swap1\n      return\n        /* \"contracts/Pasanaku.sol\":7259:7741  function retirarFondos(string calldata hashId) external salaExiste(hashId) {... */\n    tag_4:\n      callvalue\n      dup1\n      iszero\n      tag_29\n      jumpi\n      revert(0x00, 0x00)\n    tag_29:\n      pop\n      tag_18\n      tag_31\n      calldatasize\n      0x04\n      tag_32\n      jump\t// in\n    tag_31:\n      tag_33\n      jump\t// in\n        /* \"contracts/Pasanaku.sol\":8544:8716  function obtenerParticipantes(string calldata hashId) external view salaExiste(hashId) returns (Participante[] memory) {... */\n    tag_5:\n      callvalue\n      dup1\n      iszero\n      tag_34\n      jumpi\n      revert(0x00, 0x00)\n    tag_34:\n      pop\n      tag_35\n      tag_36\n      calldatasize\n      0x04\n      tag_32\n      jump\t// in\n    tag_36:\n      tag_37\n      jump\t// in\n    tag_35:\n      mload(0x40)\n      tag_27\n      swap2\n      swap1\n      tag_39\n      jump\t// in\n        /* \"contracts/Pasanaku.sol\":5065:6088  function realizarAporte(string calldata hashId) external payable salaExiste(hashId) salaActiva(hashId) {... */\n    tag_6:\n      tag_18\n      tag_41\n      calldatasize\n      0x04\n      tag_32\n      jump\t// in\n    tag_41:\n      tag_42\n      jump\t// in\n        /* \"contracts/Pasanaku.sol\":9412:9667  function obtenerTurnoUsuario(string calldata hashId, address usuario) external view salaExiste(hashId) returns (uint8) {... */\n    tag_7:\n      callvalue\n      dup1\n      iszero\n      tag_43\n      jumpi\n      revert(0x00, 0x00)\n    tag_43:\n      pop\n      tag_44\n      tag_45\n      calldatasize\n      0x04\n      tag_46\n      jump\t// in\n    tag_45:\n      tag_47\n      jump\t// in\n    tag_44:\n      mload(0x40)\n        /* \"#utility.yul\":4695:4699   */\n      0xff\n        /* \"#utility.yul\":4683:4700   */\n      swap1\n      swap2\n      and\n        /* \"#utility.yul\":4665:4701   */\n      dup2\n      mstore\n        /* \"#utility.yul\":4653:4655   */\n      0x20\n        /* \"#utility.yul\":4638:4656   */\n      add\n        /* \"contracts/Pasanaku.sol\":9412:9667  function obtenerTurnoUsuario(string calldata hashId, address usuario) external view salaExiste(hashId) returns (uint8) {... */\n      tag_27\n        /* \"#utility.yul\":4523:4707   */\n      jump\n        /* \"contracts/Pasanaku.sol\":4111:5057  function realizarSorteo(string calldata hashId) external salaExiste(hashId) salaActiva(hashId) soloOrganizador(hashId) {... */\n    tag_8:\n      callvalue\n      dup1\n      iszero\n      tag_50\n      jumpi\n      revert(0x00, 0x00)\n    tag_50:\n      pop\n      tag_18\n      tag_52\n      calldatasize\n      0x04\n      tag_32\n      jump\t// in\n    tag_52:\n      tag_53\n      jump\t// in\n        /* \"contracts/Pasanaku.sol\":9237:9404  function esInvitado(string calldata hashId, address usuario) external view salaExiste(hashId) returns (bool) {... */\n    tag_9:\n      callvalue\n      dup1\n      iszero\n      tag_54\n      jumpi\n      revert(0x00, 0x00)\n    tag_54:\n      pop\n      tag_55\n      tag_56\n      calldatasize\n      0x04\n      tag_46\n      jump\t// in\n    tag_56:\n      tag_57\n      jump\t// in\n    tag_55:\n      mload(0x40)\n        /* \"#utility.yul\":4877:4891   */\n      swap1\n      iszero\n        /* \"#utility.yul\":4870:4892   */\n      iszero\n        /* \"#utility.yul\":4852:4893   */\n      dup2\n      mstore\n        /* \"#utility.yul\":4840:4842   */\n      0x20\n        /* \"#utility.yul\":4825:4843   */\n      add\n        /* \"contracts/Pasanaku.sol\":9237:9404  function esInvitado(string calldata hashId, address usuario) external view salaExiste(hashId) returns (bool) {... */\n      tag_27\n        /* \"#utility.yul\":4712:4899   */\n      jump\n        /* \"contracts/Pasanaku.sol\":2196:2883  function crearSala(... */\n    tag_10:\n      callvalue\n      dup1\n      iszero\n      tag_60\n      jumpi\n      revert(0x00, 0x00)\n    tag_60:\n      pop\n      tag_18\n      tag_62\n      calldatasize\n      0x04\n      tag_63\n      jump\t// in\n    tag_62:\n      tag_64\n      jump\t// in\n        /* \"contracts/Pasanaku.sol\":8724:8895  function obtenerTransacciones(string calldata hashId) external view salaExiste(hashId) returns (Transaccion[] memory) {... */\n    tag_11:\n      callvalue\n      dup1\n      iszero\n      tag_65\n      jumpi\n      revert(0x00, 0x00)\n    tag_65:\n      pop\n      tag_66\n      tag_67\n      calldatasize\n      0x04\n      tag_32\n      jump\t// in\n    tag_67:\n      tag_68\n      jump\t// in\n    tag_66:\n      mload(0x40)\n      tag_27\n      swap2\n      swap1\n      tag_70\n      jump\t// in\n        /* \"contracts/Pasanaku.sol\":3368:4103  function unirseASala(string calldata hashId) external salaExiste(hashId) salaActiva(hashId) {... */\n    tag_12:\n      callvalue\n      dup1\n      iszero\n      tag_71\n      jumpi\n      revert(0x00, 0x00)\n    tag_71:\n      pop\n      tag_18\n      tag_73\n      calldatasize\n      0x04\n      tag_32\n      jump\t// in\n    tag_73:\n      tag_74\n      jump\t// in\n        /* \"contracts/Pasanaku.sol\":9044:9229  function obtenerPendienteRetiro(string calldata hashId, address usuario) external view salaExiste(hashId) returns (uint) {... */\n    tag_13:\n      callvalue\n      dup1\n      iszero\n      tag_75\n      jumpi\n      revert(0x00, 0x00)\n    tag_75:\n      pop\n      tag_76\n      tag_77\n      calldatasize\n      0x04\n      tag_46\n      jump\t// in\n    tag_77:\n      tag_78\n      jump\t// in\n    tag_76:\n      mload(0x40)\n        /* \"#utility.yul\":6941:6966   */\n      swap1\n      dup2\n      mstore\n        /* \"#utility.yul\":6929:6931   */\n      0x20\n        /* \"#utility.yul\":6914:6932   */\n      add\n        /* \"contracts/Pasanaku.sol\":9044:9229  function obtenerPendienteRetiro(string calldata hashId, address usuario) external view salaExiste(hashId) returns (uint) {... */\n      tag_27\n        /* \"#utility.yul\":6795:6972   */\n      jump\n        /* \"contracts/Pasanaku.sol\":8219:8536  function obtenerSala(string calldata hashId) external view salaExiste(hashId) returns (... */\n    tag_14:\n      callvalue\n      dup1\n      iszero\n      tag_81\n      jumpi\n      revert(0x00, 0x00)\n    tag_81:\n      pop\n      tag_82\n      tag_83\n      calldatasize\n      0x04\n      tag_32\n      jump\t// in\n    tag_83:\n      tag_84\n      jump\t// in\n    tag_82:\n      0x40\n      dup1\n      mload\n      sub(shl(0xa0, 0x01), 0x01)\n        /* \"#utility.yul\":7262:7294   */\n      swap1\n      swap8\n      and\n        /* \"#utility.yul\":7244:7295   */\n      dup8\n      mstore\n        /* \"#utility.yul\":7326:7328   */\n      0x20\n        /* \"#utility.yul\":7311:7329   */\n      dup8\n      add\n        /* \"#utility.yul\":7304:7338   */\n      swap6\n      swap1\n      swap6\n      mstore\n        /* \"#utility.yul\":7386:7390   */\n      0xff\n        /* \"#utility.yul\":7374:7391   */\n      swap4\n      dup5\n      and\n        /* \"#utility.yul\":7354:7372   */\n      swap5\n      dup7\n      add\n        /* \"#utility.yul\":7347:7392   */\n      swap5\n      swap1\n      swap5\n      mstore\n        /* \"#utility.yul\":7428:7445   */\n      swap2\n      and\n        /* \"#utility.yul\":7423:7425   */\n      0x60\n        /* \"#utility.yul\":7408:7426   */\n      dup5\n      add\n        /* \"#utility.yul\":7401:7446   */\n      mstore\n        /* \"#utility.yul\":7490:7504   */\n      iszero\n        /* \"#utility.yul\":7483:7505   */\n      iszero\n        /* \"#utility.yul\":7477:7480   */\n      0x80\n        /* \"#utility.yul\":7462:7481   */\n      dup4\n      add\n        /* \"#utility.yul\":7455:7506   */\n      mstore\n        /* \"#utility.yul\":7550:7564   */\n      iszero\n        /* \"#utility.yul\":7543:7565   */\n      iszero\n        /* \"#utility.yul\":7282:7285   */\n      0xa0\n        /* \"#utility.yul\":7522:7541   */\n      dup3\n      add\n        /* \"#utility.yul\":7515:7566   */\n      mstore\n        /* \"#utility.yul\":7231:7234   */\n      0xc0\n        /* \"#utility.yul\":7216:7235   */\n      add\n        /* \"contracts/Pasanaku.sol\":8219:8536  function obtenerSala(string calldata hashId) external view salaExiste(hashId) returns (... */\n      tag_27\n        /* \"#utility.yul\":6977:7572   */\n      jump\n        /* \"contracts/Pasanaku.sol\":2891:3360  function invitarParticipantes(... */\n    tag_21:\n        /* \"contracts/Pasanaku.sol\":3033:3039  hashId */\n      dup4\n      dup4\n        /* \"contracts/Pasanaku.sol\":2003:2004  0 */\n      0x00\n      sub(shl(0xa0, 0x01), 0x01)\n        /* \"contracts/Pasanaku.sol\":1966:2005  salas[hashId].organizador == address(0) */\n      and\n        /* \"contracts/Pasanaku.sol\":1966:1971  salas */\n      0x00\n        /* \"contracts/Pasanaku.sol\":1972:1978  hashId */\n      dup4\n      dup4\n        /* \"contracts/Pasanaku.sol\":1966:1979  salas[hashId] */\n      mload(0x40)\n      tag_88\n      swap3\n      swap2\n      swap1\n      tag_89\n      jump\t// in\n    tag_88:\n      swap1\n      dup2\n      mstore\n      mload(0x40)\n      swap1\n      dup2\n      swap1\n      sub\n      0x20\n      add\n      swap1\n      keccak256\n        /* \"contracts/Pasanaku.sol\":1966:1991  salas[hashId].organizador */\n      sload\n      sub(shl(0xa0, 0x01), 0x01)\n      and\n        /* \"contracts/Pasanaku.sol\":1966:2005  salas[hashId].organizador == address(0) */\n      sub\n        /* \"contracts/Pasanaku.sol\":1962:2028  if (salas[hashId].organizador == address(0)) revert SalaNoExiste() */\n      tag_90\n      jumpi\n        /* \"contracts/Pasanaku.sol\":2014:2028  SalaNoExiste() */\n      mload(0x40)\n      shl(0xe1, 0x05e3033b)\n      dup2\n      mstore\n      0x04\n      add\n      mload(0x40)\n      dup1\n      swap2\n      sub\n      swap1\n      revert\n        /* \"contracts/Pasanaku.sol\":1962:2028  if (salas[hashId].organizador == address(0)) revert SalaNoExiste() */\n    tag_90:\n        /* \"contracts/Pasanaku.sol\":3052:3058  hashId */\n      dup6\n      dup6\n        /* \"contracts/Pasanaku.sol\":2115:2120  salas */\n      0x00\n        /* \"contracts/Pasanaku.sol\":2121:2127  hashId */\n      dup3\n      dup3\n        /* \"contracts/Pasanaku.sol\":2115:2128  salas[hashId] */\n      mload(0x40)\n      tag_92\n      swap3\n      swap2\n      swap1\n      tag_89\n      jump\t// in\n    tag_92:\n      swap1\n      dup2\n      mstore\n      mload(0x40)\n      swap1\n      dup2\n      swap1\n      sub\n      0x20\n      add\n      swap1\n      keccak256\n        /* \"contracts/Pasanaku.sol\":2115:2143  salas[hashId].salaFinalizada */\n      0x02\n      add\n      sload\n      0xff\n      shl(0x30, 0x01)\n      swap1\n      swap2\n      div\n      and\n        /* \"contracts/Pasanaku.sol\":2111:2168  if (salas[hashId].salaFinalizada) revert SalaFinalizada() */\n      iszero\n      tag_93\n      jumpi\n        /* \"contracts/Pasanaku.sol\":2152:2168  SalaFinalizada() */\n      mload(0x40)\n      shl(0xe0, 0x82d4e1db)\n      dup2\n      mstore\n      0x04\n      add\n      mload(0x40)\n      dup1\n      swap2\n      sub\n      swap1\n      revert\n        /* \"contracts/Pasanaku.sol\":2111:2168  if (salas[hashId].salaFinalizada) revert SalaFinalizada() */\n    tag_93:\n        /* \"contracts/Pasanaku.sol\":3076:3082  hashId */\n      dup8\n      dup8\n        /* \"contracts/Pasanaku.sol\":1843:1853  msg.sender */\n      caller\n      sub(shl(0xa0, 0x01), 0x01)\n        /* \"contracts/Pasanaku.sol\":1814:1853  salas[hashId].organizador != msg.sender */\n      and\n        /* \"contracts/Pasanaku.sol\":1814:1819  salas */\n      0x00\n        /* \"contracts/Pasanaku.sol\":1820:1826  hashId */\n      dup4\n      dup4\n        /* \"contracts/Pasanaku.sol\":1814:1827  salas[hashId] */\n      mload(0x40)\n      tag_95\n      swap3\n      swap2\n      swap1\n      tag_89\n      jump\t// in\n    tag_95:\n      swap1\n      dup2\n      mstore\n      mload(0x40)\n      swap1\n      dup2\n      swap1\n      sub\n      0x20\n      add\n      swap1\n      keccak256\n        /* \"contracts/Pasanaku.sol\":1814:1839  salas[hashId].organizador */\n      sload\n      sub(shl(0xa0, 0x01), 0x01)\n      and\n        /* \"contracts/Pasanaku.sol\":1814:1853  salas[hashId].organizador != msg.sender */\n      eq\n        /* \"contracts/Pasanaku.sol\":1810:1879  if (salas[hashId].organizador != msg.sender) revert SoloOrganizador() */\n      tag_96\n      jumpi\n        /* \"contracts/Pasanaku.sol\":1862:1879  SoloOrganizador() */\n      mload(0x40)\n      shl(0xe0, 0x3580c865)\n      dup2\n      mstore\n      0x04\n      add\n      mload(0x40)\n      dup1\n      swap2\n      sub\n      swap1\n      revert\n        /* \"contracts/Pasanaku.sol\":1810:1879  if (salas[hashId].organizador != msg.sender) revert SoloOrganizador() */\n    tag_96:\n        /* \"contracts/Pasanaku.sol\":3099:3104  salas */\n      0x00\n        /* \"contracts/Pasanaku.sol\":3105:3111  hashId */\n      dup11\n      dup11\n        /* \"contracts/Pasanaku.sol\":3099:3112  salas[hashId] */\n      mload(0x40)\n      tag_98\n      swap3\n      swap2\n      swap1\n      tag_89\n      jump\t// in\n    tag_98:\n      swap1\n      dup2\n      mstore\n      mload(0x40)\n      swap1\n      dup2\n      swap1\n      sub\n      0x20\n      add\n      swap1\n      keccak256\n        /* \"contracts/Pasanaku.sol\":3099:3128  salas[hashId].sorteoRealizado */\n      0x02\n      add\n      sload\n      0xff\n      shl(0x38, 0x01)\n      swap1\n      swap2\n      div\n      and\n        /* \"contracts/Pasanaku.sol\":3095:3156  if (salas[hashId].sorteoRealizado) revert SorteoYaRealizado() */\n      iszero\n      tag_99\n      jumpi\n        /* \"contracts/Pasanaku.sol\":3137:3156  SorteoYaRealizado() */\n      mload(0x40)\n      shl(0xe0, 0x4f992b6f)\n      dup2\n      mstore\n      0x04\n      add\n      mload(0x40)\n      dup1\n      swap2\n      sub\n      swap1\n      revert\n        /* \"contracts/Pasanaku.sol\":3095:3156  if (salas[hashId].sorteoRealizado) revert SorteoYaRealizado() */\n    tag_99:\n        /* \"contracts/Pasanaku.sol\":3177:3194  Sala storage sala */\n      0x00\n        /* \"contracts/Pasanaku.sol\":3197:3202  salas */\n      0x00\n        /* \"contracts/Pasanaku.sol\":3203:3209  hashId */\n      dup12\n      dup12\n        /* \"contracts/Pasanaku.sol\":3197:3210  salas[hashId] */\n      mload(0x40)\n      tag_100\n      swap3\n      swap2\n      swap1\n      tag_89\n      jump\t// in\n    tag_100:\n      swap1\n      dup2\n      mstore\n      mload(0x40)\n      swap1\n      dup2\n      swap1\n      sub\n      0x20\n      add\n      swap1\n      keccak256\n      swap1\n      pop\n        /* \"contracts/Pasanaku.sol\":3226:3232  uint i */\n      0x00\n        /* \"contracts/Pasanaku.sol\":3221:3353  for (uint i = 0; i < participantesInvitados.length; i++) {... */\n    tag_101:\n        /* \"contracts/Pasanaku.sol\":3238:3271  i < participantesInvitados.length */\n      dup9\n      dup2\n      lt\n        /* \"contracts/Pasanaku.sol\":3221:3353  for (uint i = 0; i < participantesInvitados.length; i++) {... */\n      iszero\n      tag_102\n      jumpi\n        /* \"contracts/Pasanaku.sol\":3337:3341  true */\n      0x01\n        /* \"contracts/Pasanaku.sol\":3293:3297  sala */\n      dup3\n        /* \"contracts/Pasanaku.sol\":3293:3307  sala.invitados */\n      0x04\n      add\n        /* \"contracts/Pasanaku.sol\":3293:3334  sala.invitados[participantesInvitados[i]] */\n      0x00\n        /* \"contracts/Pasanaku.sol\":3308:3330  participantesInvitados */\n      dup13\n      dup13\n        /* \"contracts/Pasanaku.sol\":3331:3332  i */\n      dup6\n        /* \"contracts/Pasanaku.sol\":3308:3333  participantesInvitados[i] */\n      dup2\n      dup2\n      lt\n      tag_105\n      jumpi\n      tag_105\n      tag_106\n      jump\t// in\n    tag_105:\n      swap1\n      pop\n      0x20\n      mul\n      add\n      0x20\n      dup2\n      add\n      swap1\n      tag_107\n      swap2\n      swap1\n      tag_25\n      jump\t// in\n    tag_107:\n      sub(shl(0xa0, 0x01), 0x01)\n        /* \"contracts/Pasanaku.sol\":3293:3334  sala.invitados[participantesInvitados[i]] */\n      and\n      dup2\n      mstore\n      0x20\n      dup2\n      add\n      swap2\n      swap1\n      swap2\n      mstore\n      0x40\n      add\n      0x00\n      keccak256\n        /* \"contracts/Pasanaku.sol\":3293:3341  sala.invitados[participantesInvitados[i]] = true */\n      dup1\n      sload\n      not(0xff)\n      and\n      swap2\n      iszero\n      iszero\n      swap2\n      swap1\n      swap2\n      or\n      swap1\n      sstore\n      0x01\n        /* \"contracts/Pasanaku.sol\":3273:3276  i++ */\n      add\n        /* \"contracts/Pasanaku.sol\":3221:3353  for (uint i = 0; i < participantesInvitados.length; i++) {... */\n      jump(tag_101)\n    tag_102:\n      pop\n        /* \"contracts/Pasanaku.sol\":3084:3360  {... */\n      pop\n        /* \"contracts/Pasanaku.sol\":2179:2180  _ */\n      pop\n      pop\n        /* \"contracts/Pasanaku.sol\":2039:2040  _ */\n      pop\n      pop\n        /* \"contracts/Pasanaku.sol\":2891:3360  function invitarParticipantes(... */\n      pop\n      pop\n      pop\n      pop\n      pop\n      pop\n      jump\t// out\n        /* \"contracts/Pasanaku.sol\":8903:9036  function obtenerSalasUsuario(address usuario) external view returns (string[] memory) {... */\n    tag_26:\n      sub(shl(0xa0, 0x01), 0x01)\n        /* \"contracts/Pasanaku.sol\":9007:9028  salasUsuario[usuario] */\n      dup2\n      and\n      0x00\n      swap1\n      dup2\n      mstore\n        /* \"contracts/Pasanaku.sol\":9007:9019  salasUsuario */\n      0x01\n        /* \"contracts/Pasanaku.sol\":9007:9028  salasUsuario[usuario] */\n      0x20\n      swap1\n      dup2\n      mstore\n      0x40\n      dup1\n      dup4\n      keccak256\n        /* \"contracts/Pasanaku.sol\":9000:9028  return salasUsuario[usuario] */\n      dup1\n      sload\n      dup3\n      mload\n      dup2\n      dup6\n      mul\n      dup2\n      add\n      dup6\n      add\n      swap1\n      swap4\n      mstore\n      dup1\n      dup4\n      mstore\n        /* \"contracts/Pasanaku.sol\":8972:8987  string[] memory */\n      0x60\n      swap5\n        /* \"contracts/Pasanaku.sol\":9000:9028  return salasUsuario[usuario] */\n      swap3\n      swap4\n        /* \"contracts/Pasanaku.sol\":9007:9028  salasUsuario[usuario] */\n      swap2\n      swap3\n        /* \"contracts/Pasanaku.sol\":9000:9028  return salasUsuario[usuario] */\n      swap1\n      swap2\n      dup5\n      add\n    tag_109:\n      dup3\n      dup3\n      lt\n      iszero\n      tag_110\n      jumpi\n      dup4\n      dup3\n      swap1\n      0x00\n      mstore\n      keccak256(0x00, 0x20)\n      add\n      dup1\n      sload\n      tag_112\n      swap1\n      tag_113\n      jump\t// in\n    tag_112:\n      dup1\n      0x1f\n      add\n      0x20\n      dup1\n      swap2\n      div\n      mul\n      0x20\n      add\n      mload(0x40)\n      swap1\n      dup2\n      add\n      0x40\n      mstore\n      dup1\n      swap3\n      swap2\n      swap1\n      dup2\n      dup2\n      mstore\n      0x20\n      add\n      dup3\n      dup1\n      sload\n      tag_114\n      swap1\n      tag_113\n      jump\t// in\n    tag_114:\n      dup1\n      iszero\n      tag_115\n      jumpi\n      dup1\n      0x1f\n      lt\n      tag_116\n      jumpi\n      0x0100\n      dup1\n      dup4\n      sload\n      div\n      mul\n      dup4\n      mstore\n      swap2\n      0x20\n      add\n      swap2\n      jump(tag_115)\n    tag_116:\n      dup3\n      add\n      swap2\n      swap1\n      0x00\n      mstore\n      keccak256(0x00, 0x20)\n      swap1\n    tag_117:\n      dup2\n      sload\n      dup2\n      mstore\n      swap1\n      0x01\n      add\n      swap1\n      0x20\n      add\n      dup1\n      dup4\n      gt\n      tag_117\n      jumpi\n      dup3\n      swap1\n      sub\n      0x1f\n      and\n      dup3\n      add\n      swap2\n    tag_115:\n      pop\n      pop\n      pop\n      pop\n      pop\n      dup2\n      mstore\n      0x20\n      add\n      swap1\n      0x01\n      add\n      swap1\n      jump(tag_109)\n    tag_110:\n      pop\n      pop\n      pop\n      pop\n      swap1\n      pop\n        /* \"contracts/Pasanaku.sol\":8903:9036  function obtenerSalasUsuario(address usuario) external view returns (string[] memory) {... */\n      swap2\n      swap1\n      pop\n      jump\t// out\n        /* \"contracts/Pasanaku.sol\":7259:7741  function retirarFondos(string calldata hashId) external salaExiste(hashId) {... */\n    tag_33:\n        /* \"contracts/Pasanaku.sol\":7326:7332  hashId */\n      dup2\n      dup2\n        /* \"contracts/Pasanaku.sol\":2003:2004  0 */\n      0x00\n      sub(shl(0xa0, 0x01), 0x01)\n        /* \"contracts/Pasanaku.sol\":1966:2005  salas[hashId].organizador == address(0) */\n      and\n        /* \"contracts/Pasanaku.sol\":1966:1971  salas */\n      0x00\n        /* \"contracts/Pasanaku.sol\":1972:1978  hashId */\n      dup4\n      dup4\n        /* \"contracts/Pasanaku.sol\":1966:1979  salas[hashId] */\n      mload(0x40)\n      tag_119\n      swap3\n      swap2\n      swap1\n      tag_89\n      jump\t// in\n    tag_119:\n      swap1\n      dup2\n      mstore\n      mload(0x40)\n      swap1\n      dup2\n      swap1\n      sub\n      0x20\n      add\n      swap1\n      keccak256\n        /* \"contracts/Pasanaku.sol\":1966:1991  salas[hashId].organizador */\n      sload\n      sub(shl(0xa0, 0x01), 0x01)\n      and\n        /* \"contracts/Pasanaku.sol\":1966:2005  salas[hashId].organizador == address(0) */\n      sub\n        /* \"contracts/Pasanaku.sol\":1962:2028  if (salas[hashId].organizador == address(0)) revert SalaNoExiste() */\n      tag_120\n      jumpi\n        /* \"contracts/Pasanaku.sol\":2014:2028  SalaNoExiste() */\n      mload(0x40)\n      shl(0xe1, 0x05e3033b)\n      dup2\n      mstore\n      0x04\n      add\n      mload(0x40)\n      dup1\n      swap2\n      sub\n      swap1\n      revert\n        /* \"contracts/Pasanaku.sol\":1962:2028  if (salas[hashId].organizador == address(0)) revert SalaNoExiste() */\n    tag_120:\n        /* \"contracts/Pasanaku.sol\":7345:7362  Sala storage sala */\n      0x00\n        /* \"contracts/Pasanaku.sol\":7365:7370  salas */\n      0x00\n        /* \"contracts/Pasanaku.sol\":7371:7377  hashId */\n      dup6\n      dup6\n        /* \"contracts/Pasanaku.sol\":7365:7378  salas[hashId] */\n      mload(0x40)\n      tag_122\n      swap3\n      swap2\n      swap1\n      tag_89\n      jump\t// in\n    tag_122:\n      swap1\n      dup2\n      mstore\n      0x40\n      dup1\n      mload\n      0x20\n      swap3\n      dup2\n      swap1\n      sub\n      dup4\n      add\n      swap1\n      keccak256\n        /* \"contracts/Pasanaku.sol\":7423:7433  msg.sender */\n      caller\n        /* \"contracts/Pasanaku.sol\":7389:7399  uint monto */\n      0x00\n        /* \"contracts/Pasanaku.sol\":7402:7434  sala.pendienteRetiro[msg.sender] */\n      swap1\n      dup2\n      mstore\n        /* \"contracts/Pasanaku.sol\":7402:7422  sala.pendienteRetiro */\n      0x07\n      dup3\n      add\n        /* \"contracts/Pasanaku.sol\":7402:7434  sala.pendienteRetiro[msg.sender] */\n      swap1\n      swap4\n      mstore\n      swap1\n      dup3\n      keccak256\n      sload\n        /* \"contracts/Pasanaku.sol\":7365:7378  salas[hashId] */\n      swap1\n      swap3\n      pop\n        /* \"contracts/Pasanaku.sol\":7402:7434  sala.pendienteRetiro[msg.sender] */\n      swap1\n        /* \"contracts/Pasanaku.sol\":7449:7459  monto == 0 */\n      dup2\n      swap1\n      sub\n        /* \"contracts/Pasanaku.sol\":7445:7468  if (monto == 0) return; */\n      tag_123\n      jumpi\n        /* \"contracts/Pasanaku.sol\":7461:7468  return; */\n      pop\n      pop\n      jump(tag_121)\n        /* \"contracts/Pasanaku.sol\":7445:7468  if (monto == 0) return; */\n    tag_123:\n        /* \"contracts/Pasanaku.sol\":7501:7511  msg.sender */\n      caller\n        /* \"contracts/Pasanaku.sol\":7515:7516  0 */\n      0x00\n        /* \"contracts/Pasanaku.sol\":7480:7512  sala.pendienteRetiro[msg.sender] */\n      dup2\n      dup2\n      mstore\n        /* \"contracts/Pasanaku.sol\":7480:7500  sala.pendienteRetiro */\n      0x07\n      dup5\n      add\n        /* \"contracts/Pasanaku.sol\":7480:7512  sala.pendienteRetiro[msg.sender] */\n      0x20\n      mstore\n      0x40\n      dup1\n      dup3\n      keccak256\n        /* \"contracts/Pasanaku.sol\":7480:7516  sala.pendienteRetiro[msg.sender] = 0 */\n      dup3\n      swap1\n      sstore\n        /* \"contracts/Pasanaku.sol\":7556:7598  payable(msg.sender).call{value: monto}(\"\") */\n      mload\n        /* \"contracts/Pasanaku.sol\":7515:7516  0 */\n      swap1\n      swap2\n        /* \"contracts/Pasanaku.sol\":7501:7511  msg.sender */\n      swap1\n        /* \"contracts/Pasanaku.sol\":7588:7593  monto */\n      dup4\n      swap1\n        /* \"contracts/Pasanaku.sol\":7515:7516  0 */\n      dup4\n        /* \"contracts/Pasanaku.sol\":7556:7598  payable(msg.sender).call{value: monto}(\"\") */\n      dup2\n        /* \"contracts/Pasanaku.sol\":7515:7516  0 */\n      dup2\n        /* \"contracts/Pasanaku.sol\":7556:7598  payable(msg.sender).call{value: monto}(\"\") */\n      dup2\n        /* \"contracts/Pasanaku.sol\":7588:7593  monto */\n      dup6\n        /* \"contracts/Pasanaku.sol\":7501:7511  msg.sender */\n      dup8\n        /* \"contracts/Pasanaku.sol\":7556:7598  payable(msg.sender).call{value: monto}(\"\") */\n      gas\n      call\n      swap3\n      pop\n      pop\n      pop\n      returndatasize\n      dup1\n      0x00\n      dup2\n      eq\n      tag_128\n      jumpi\n      mload(0x40)\n      swap2\n      pop\n      and(add(returndatasize, 0x3f), not(0x1f))\n      dup3\n      add\n      0x40\n      mstore\n      returndatasize\n      dup3\n      mstore\n      returndatasize\n      0x00\n      0x20\n      dup5\n      add\n      returndatacopy\n      jump(tag_127)\n    tag_128:\n      0x60\n      swap2\n      pop\n    tag_127:\n      pop\n        /* \"contracts/Pasanaku.sol\":7537:7598  (bool success, ) = payable(msg.sender).call{value: monto}(\"\") */\n      pop\n      swap1\n      pop\n        /* \"contracts/Pasanaku.sol\":7614:7621  success */\n      dup1\n        /* \"contracts/Pasanaku.sol\":7609:7734  if (!success) {... */\n      tag_129\n      jumpi\n        /* \"contracts/Pasanaku.sol\":7659:7669  msg.sender */\n      caller\n        /* \"contracts/Pasanaku.sol\":7638:7670  sala.pendienteRetiro[msg.sender] */\n      0x00\n      swap1\n      dup2\n      mstore\n        /* \"contracts/Pasanaku.sol\":7638:7658  sala.pendienteRetiro */\n      0x07\n      dup5\n      add\n        /* \"contracts/Pasanaku.sol\":7638:7670  sala.pendienteRetiro[msg.sender] */\n      0x20\n      mstore\n      0x40\n      swap1\n      dup2\n      swap1\n      keccak256\n        /* \"contracts/Pasanaku.sol\":7638:7678  sala.pendienteRetiro[msg.sender] = monto */\n      dup4\n      swap1\n      sstore\n        /* \"contracts/Pasanaku.sol\":7700:7722  TransferenciaFallida() */\n      dup1\n      mload\n      shl(0xe0, 0x8a6c6677)\n      dup2\n      mstore\n      swap1\n      mload\n      swap1\n      dup2\n      swap1\n      sub\n      0x04\n      add\n      swap1\n      revert\n        /* \"contracts/Pasanaku.sol\":7609:7734  if (!success) {... */\n    tag_129:\n        /* \"contracts/Pasanaku.sol\":7334:7741  {... */\n      pop\n      pop\n      pop\n        /* \"contracts/Pasanaku.sol\":2039:2040  _ */\n    tag_121:\n        /* \"contracts/Pasanaku.sol\":7259:7741  function retirarFondos(string calldata hashId) external salaExiste(hashId) {... */\n      pop\n      pop\n      pop\n      pop\n      jump\t// out\n        /* \"contracts/Pasanaku.sol\":8544:8716  function obtenerParticipantes(string calldata hashId) external view salaExiste(hashId) returns (Participante[] memory) {... */\n    tag_37:\n        /* \"contracts/Pasanaku.sol\":8640:8661  Participante[] memory */\n      0x60\n        /* \"contracts/Pasanaku.sol\":8623:8629  hashId */\n      dup3\n      dup3\n        /* \"contracts/Pasanaku.sol\":2003:2004  0 */\n      0x00\n      sub(shl(0xa0, 0x01), 0x01)\n        /* \"contracts/Pasanaku.sol\":1966:2005  salas[hashId].organizador == address(0) */\n      and\n        /* \"contracts/Pasanaku.sol\":1966:1971  salas */\n      0x00\n        /* \"contracts/Pasanaku.sol\":1972:1978  hashId */\n      dup4\n      dup4\n        /* \"contracts/Pasanaku.sol\":1966:1979  salas[hashId] */\n      mload(0x40)\n      tag_131\n      swap3\n      swap2\n      swap1\n      tag_89\n      jump\t// in\n    tag_131:\n      swap1\n      dup2\n      mstore\n      mload(0x40)\n      swap1\n      dup2\n      swap1\n      sub\n      0x20\n      add\n      swap1\n      keccak256\n        /* \"contracts/Pasanaku.sol\":1966:1991  salas[hashId].organizador */\n      sload\n      sub(shl(0xa0, 0x01), 0x01)\n      and\n        /* \"contracts/Pasanaku.sol\":1966:2005  salas[hashId].organizador == address(0) */\n      sub\n        /* \"contracts/Pasanaku.sol\":1962:2028  if (salas[hashId].organizador == address(0)) revert SalaNoExiste() */\n      tag_132\n      jumpi\n        /* \"contracts/Pasanaku.sol\":2014:2028  SalaNoExiste() */\n      mload(0x40)\n      shl(0xe1, 0x05e3033b)\n      dup2\n      mstore\n      0x04\n      add\n      mload(0x40)\n      dup1\n      swap2\n      sub\n      swap1\n      revert\n        /* \"contracts/Pasanaku.sol\":1962:2028  if (salas[hashId].organizador == address(0)) revert SalaNoExiste() */\n    tag_132:\n        /* \"contracts/Pasanaku.sol\":8681:8686  salas */\n      0x00\n        /* \"contracts/Pasanaku.sol\":8687:8693  hashId */\n      dup6\n      dup6\n        /* \"contracts/Pasanaku.sol\":8681:8694  salas[hashId] */\n      mload(0x40)\n      tag_134\n      swap3\n      swap2\n      swap1\n      tag_89\n      jump\t// in\n    tag_134:\n      swap1\n      dup2\n      mstore\n      0x20\n      add\n      mload(0x40)\n      dup1\n      swap2\n      sub\n      swap1\n      keccak256\n        /* \"contracts/Pasanaku.sol\":8681:8708  salas[hashId].participantes */\n      0x05\n      add\n        /* \"contracts/Pasanaku.sol\":8674:8708  return salas[hashId].participantes */\n      dup1\n      sload\n      dup1\n      0x20\n      mul\n      0x20\n      add\n      mload(0x40)\n      swap1\n      dup2\n      add\n      0x40\n      mstore\n      dup1\n      swap3\n      swap2\n      swap1\n      dup2\n      dup2\n      mstore\n      0x20\n      add\n      0x00\n      swap1\n    tag_135:\n      dup3\n      dup3\n      lt\n      iszero\n      tag_136\n      jumpi\n      0x00\n      dup5\n      dup2\n      mstore\n      0x20\n      swap1\n      dup2\n      swap1\n      keccak256\n      0x40\n      dup1\n      mload\n      0x80\n      dup2\n      add\n      dup3\n      mstore\n      swap2\n      dup6\n      add\n      sload\n      sub(shl(0xa0, 0x01), 0x01)\n      dup2\n      and\n      dup4\n      mstore\n      0xff\n      shl(0xa0, 0x01)\n      dup3\n      div\n      dup2\n      and\n      dup5\n      dup7\n      add\n      mstore\n      shl(0xa8, 0x01)\n      dup3\n      div\n      dup2\n      and\n      iszero\n      iszero\n      swap3\n      dup5\n      add\n      swap3\n      swap1\n      swap3\n      mstore\n      shl(0xb0, 0x01)\n      swap1\n      div\n      and\n      iszero\n      iszero\n      0x60\n      dup3\n      add\n      mstore\n      dup3\n      mstore\n      0x01\n      swap1\n      swap3\n      add\n      swap2\n      add\n      jump(tag_135)\n    tag_136:\n      pop\n      pop\n      pop\n      pop\n      swap3\n      pop\n        /* \"contracts/Pasanaku.sol\":8544:8716  function obtenerParticipantes(string calldata hashId) external view salaExiste(hashId) returns (Participante[] memory) {... */\n      pop\n      pop\n      swap3\n      swap2\n      pop\n      pop\n      jump\t// out\n        /* \"contracts/Pasanaku.sol\":5065:6088  function realizarAporte(string calldata hashId) external payable salaExiste(hashId) salaActiva(hashId) {... */\n    tag_42:\n        /* \"contracts/Pasanaku.sol\":5141:5147  hashId */\n      dup2\n      dup2\n        /* \"contracts/Pasanaku.sol\":2003:2004  0 */\n      0x00\n      sub(shl(0xa0, 0x01), 0x01)\n        /* \"contracts/Pasanaku.sol\":1966:2005  salas[hashId].organizador == address(0) */\n      and\n        /* \"contracts/Pasanaku.sol\":1966:1971  salas */\n      0x00\n        /* \"contracts/Pasanaku.sol\":1972:1978  hashId */\n      dup4\n      dup4\n        /* \"contracts/Pasanaku.sol\":1966:1979  salas[hashId] */\n      mload(0x40)\n      tag_139\n      swap3\n      swap2\n      swap1\n      tag_89\n      jump\t// in\n    tag_139:\n      swap1\n      dup2\n      mstore\n      mload(0x40)\n      swap1\n      dup2\n      swap1\n      sub\n      0x20\n      add\n      swap1\n      keccak256\n        /* \"contracts/Pasanaku.sol\":1966:1991  salas[hashId].organizador */\n      sload\n      sub(shl(0xa0, 0x01), 0x01)\n      and\n        /* \"contracts/Pasanaku.sol\":1966:2005  salas[hashId].organizador == address(0) */\n      sub\n        /* \"contracts/Pasanaku.sol\":1962:2028  if (salas[hashId].organizador == address(0)) revert SalaNoExiste() */\n      tag_140\n      jumpi\n        /* \"contracts/Pasanaku.sol\":2014:2028  SalaNoExiste() */\n      mload(0x40)\n      shl(0xe1, 0x05e3033b)\n      dup2\n      mstore\n      0x04\n      add\n      mload(0x40)\n      dup1\n      swap2\n      sub\n      swap1\n      revert\n        /* \"contracts/Pasanaku.sol\":1962:2028  if (salas[hashId].organizador == address(0)) revert SalaNoExiste() */\n    tag_140:\n        /* \"contracts/Pasanaku.sol\":5160:5166  hashId */\n      dup4\n      dup4\n        /* \"contracts/Pasanaku.sol\":2115:2120  salas */\n      0x00\n        /* \"contracts/Pasanaku.sol\":2121:2127  hashId */\n      dup3\n      dup3\n        /* \"contracts/Pasanaku.sol\":2115:2128  salas[hashId] */\n      mload(0x40)\n      tag_142\n      swap3\n      swap2\n      swap1\n      tag_89\n      jump\t// in\n    tag_142:\n      swap1\n      dup2\n      mstore\n      mload(0x40)\n      swap1\n      dup2\n      swap1\n      sub\n      0x20\n      add\n      swap1\n      keccak256\n        /* \"contracts/Pasanaku.sol\":2115:2143  salas[hashId].salaFinalizada */\n      0x02\n      add\n      sload\n      0xff\n      shl(0x30, 0x01)\n      swap1\n      swap2\n      div\n      and\n        /* \"contracts/Pasanaku.sol\":2111:2168  if (salas[hashId].salaFinalizada) revert SalaFinalizada() */\n      iszero\n      tag_143\n      jumpi\n        /* \"contracts/Pasanaku.sol\":2152:2168  SalaFinalizada() */\n      mload(0x40)\n      shl(0xe0, 0x82d4e1db)\n      dup2\n      mstore\n      0x04\n      add\n      mload(0x40)\n      dup1\n      swap2\n      sub\n      swap1\n      revert\n        /* \"contracts/Pasanaku.sol\":2111:2168  if (salas[hashId].salaFinalizada) revert SalaFinalizada() */\n    tag_143:\n        /* \"contracts/Pasanaku.sol\":5179:5196  Sala storage sala */\n      0x00\n        /* \"contracts/Pasanaku.sol\":5199:5204  salas */\n      0x00\n        /* \"contracts/Pasanaku.sol\":5205:5211  hashId */\n      dup8\n      dup8\n        /* \"contracts/Pasanaku.sol\":5199:5212  salas[hashId] */\n      mload(0x40)\n      tag_145\n      swap3\n      swap2\n      swap1\n      tag_89\n      jump\t// in\n    tag_145:\n      swap1\n      dup2\n      mstore\n      mload(0x40)\n      swap1\n      dup2\n      swap1\n      sub\n      0x20\n      add\n      swap1\n      keccak256\n        /* \"contracts/Pasanaku.sol\":5228:5248  sala.sorteoRealizado */\n      0x02\n      dup2\n      add\n      sload\n        /* \"contracts/Pasanaku.sol\":5199:5212  salas[hashId] */\n      swap1\n      swap2\n      pop\n        /* \"contracts/Pasanaku.sol\":5228:5248  sala.sorteoRealizado */\n      0xff\n      shl(0x38, 0x01)\n      swap1\n      swap2\n      div\n      and\n        /* \"contracts/Pasanaku.sol\":5223:5276  if (!sala.sorteoRealizado) revert SorteoNoRealizado() */\n      tag_146\n      jumpi\n        /* \"contracts/Pasanaku.sol\":5257:5276  SorteoNoRealizado() */\n      mload(0x40)\n      shl(0xe3, 0x037280ed)\n      dup2\n      mstore\n      0x04\n      add\n      mload(0x40)\n      dup1\n      swap2\n      sub\n      swap1\n      revert\n        /* \"contracts/Pasanaku.sol\":5223:5276  if (!sala.sorteoRealizado) revert SorteoNoRealizado() */\n    tag_146:\n        /* \"contracts/Pasanaku.sol\":5304:5308  sala */\n      dup1\n        /* \"contracts/Pasanaku.sol\":5304:5321  sala.montoAportar */\n      0x01\n      add\n      sload\n        /* \"contracts/Pasanaku.sol\":5291:5300  msg.value */\n      callvalue\n        /* \"contracts/Pasanaku.sol\":5291:5321  msg.value != sala.montoAportar */\n      eq\n        /* \"contracts/Pasanaku.sol\":5287:5347  if (msg.value != sala.montoAportar) revert MontoIncorrecto() */\n      tag_147\n      jumpi\n        /* \"contracts/Pasanaku.sol\":5330:5347  MontoIncorrecto() */\n      mload(0x40)\n      shl(0xe1, 0x683f0149)\n      dup2\n      mstore\n      0x04\n      add\n      mload(0x40)\n      dup1\n      swap2\n      sub\n      swap1\n      revert\n        /* \"contracts/Pasanaku.sol\":5287:5347  if (msg.value != sala.montoAportar) revert MontoIncorrecto() */\n    tag_147:\n        /* \"contracts/Pasanaku.sol\":5368:5390  uint participanteIndex */\n      0x00\n        /* \"contracts/Pasanaku.sol\":5393:5439  _obtenerIndiceParticipante(hashId, msg.sender) */\n      tag_148\n        /* \"contracts/Pasanaku.sol\":5420:5426  hashId */\n      dup9\n      dup9\n        /* \"contracts/Pasanaku.sol\":5428:5438  msg.sender */\n      caller\n        /* \"contracts/Pasanaku.sol\":5393:5419  _obtenerIndiceParticipante */\n      tag_149\n        /* \"contracts/Pasanaku.sol\":5393:5439  _obtenerIndiceParticipante(hashId, msg.sender) */\n      jump\t// in\n    tag_148:\n        /* \"contracts/Pasanaku.sol\":5368:5439  uint participanteIndex = _obtenerIndiceParticipante(hashId, msg.sender) */\n      swap1\n      pop\n        /* \"contracts/Pasanaku.sol\":5454:5458  sala */\n      dup2\n        /* \"contracts/Pasanaku.sol\":5454:5472  sala.participantes */\n      0x05\n      add\n        /* \"contracts/Pasanaku.sol\":5473:5490  participanteIndex */\n      dup2\n        /* \"contracts/Pasanaku.sol\":5454:5491  sala.participantes[participanteIndex] */\n      dup2\n      sload\n      dup2\n      lt\n      tag_151\n      jumpi\n      tag_151\n      tag_106\n      jump\t// in\n    tag_151:\n      0x00\n      swap2\n      dup3\n      mstore\n      0x20\n      swap1\n      swap2\n      keccak256\n      add\n        /* \"contracts/Pasanaku.sol\":5454:5513  sala.participantes[participanteIndex].haAportadoRondaActual */\n      sload\n      shl(0xb0, 0x01)\n      swap1\n      div\n      0xff\n      and\n        /* \"contracts/Pasanaku.sol\":5450:5532  if (sala.participantes[participanteIndex].haAportadoRondaActual) revert YaAporto() */\n      iszero\n      tag_153\n      jumpi\n        /* \"contracts/Pasanaku.sol\":5522:5532  YaAporto() */\n      mload(0x40)\n      not(sub(shl(0xe1, 0x608003), 0x01))\n      dup2\n      mstore\n      0x04\n      add\n      mload(0x40)\n      dup1\n      swap2\n      sub\n      swap1\n      revert\n        /* \"contracts/Pasanaku.sol\":5450:5532  if (sala.participantes[participanteIndex].haAportadoRondaActual) revert YaAporto() */\n    tag_153:\n        /* \"contracts/Pasanaku.sol\":5607:5611  true */\n      0x01\n        /* \"contracts/Pasanaku.sol\":5545:5549  sala */\n      dup3\n        /* \"contracts/Pasanaku.sol\":5545:5563  sala.participantes */\n      0x05\n      add\n        /* \"contracts/Pasanaku.sol\":5564:5581  participanteIndex */\n      dup3\n        /* \"contracts/Pasanaku.sol\":5545:5582  sala.participantes[participanteIndex] */\n      dup2\n      sload\n      dup2\n      lt\n      tag_155\n      jumpi\n      tag_155\n      tag_106\n      jump\t// in\n    tag_155:\n      0x00\n      swap2\n      dup3\n      mstore\n      0x20\n      dup3\n      keccak256\n      add\n        /* \"contracts/Pasanaku.sol\":5545:5611  sala.participantes[participanteIndex].haAportadoRondaActual = true */\n      dup1\n      sload\n      swap3\n      iszero\n      iszero\n      shl(0xb0, 0x01)\n      mul\n      not(shl(0xb0, 0xff))\n      swap1\n      swap4\n      and\n      swap3\n      swap1\n      swap3\n      or\n      swap1\n      swap2\n      sstore\n        /* \"contracts/Pasanaku.sol\":5622:5645  sala.balanceRondaActual */\n      0x03\n      dup4\n      add\n        /* \"contracts/Pasanaku.sol\":5622:5658  sala.balanceRondaActual += msg.value */\n      dup1\n      sload\n        /* \"contracts/Pasanaku.sol\":5649:5658  msg.value */\n      callvalue\n      swap3\n        /* \"contracts/Pasanaku.sol\":5545:5582  sala.participantes[participanteIndex] */\n      swap1\n        /* \"contracts/Pasanaku.sol\":5622:5658  sala.balanceRondaActual += msg.value */\n      tag_157\n      swap1\n        /* \"contracts/Pasanaku.sol\":5649:5658  msg.value */\n      dup5\n      swap1\n        /* \"contracts/Pasanaku.sol\":5622:5658  sala.balanceRondaActual += msg.value */\n      tag_158\n      jump\t// in\n    tag_157:\n      swap1\n      swap2\n      sstore\n      pop\n      pop\n        /* \"contracts/Pasanaku.sol\":5695:5924  Transaccion({... */\n      0x40\n      dup1\n      mload\n      0xc0\n      dup2\n      add\n      dup3\n      mstore\n        /* \"contracts/Pasanaku.sol\":5728:5738  msg.sender */\n      caller\n        /* \"contracts/Pasanaku.sol\":5695:5924  Transaccion({... */\n      dup1\n      dup3\n      mstore\n        /* \"contracts/Pasanaku.sol\":5765:5769  this */\n      address\n        /* \"contracts/Pasanaku.sol\":5695:5924  Transaccion({... */\n      0x20\n      dup1\n      dup5\n      add\n      swap2\n      dup3\n      mstore\n        /* \"contracts/Pasanaku.sol\":5792:5801  msg.value */\n      callvalue\n        /* \"contracts/Pasanaku.sol\":5695:5924  Transaccion({... */\n      dup5\n      dup7\n      add\n      swap1\n      dup2\n      mstore\n      0xffffffff\n        /* \"contracts/Pasanaku.sol\":5830:5845  block.timestamp */\n      timestamp\n        /* \"contracts/Pasanaku.sol\":5695:5924  Transaccion({... */\n      dup2\n      and\n      0x60\n      dup8\n      add\n      swap1\n      dup2\n      mstore\n        /* \"contracts/Pasanaku.sol\":5868:5884  sala.rondaActual */\n      0x02\n      dup1\n      dup12\n      add\n      sload\n      0xff\n      0x0100\n      swap1\n      swap2\n      div\n      dup2\n      and\n        /* \"contracts/Pasanaku.sol\":5695:5924  Transaccion({... */\n      0x80\n      dup11\n      add\n      swap1\n      dup2\n      mstore\n      0x00\n      0xa0\n      dup12\n      add\n      dup2\n      dup2\n      mstore\n        /* \"contracts/Pasanaku.sol\":5671:5689  sala.transacciones */\n      0x06\n      dup16\n      add\n        /* \"contracts/Pasanaku.sol\":5671:5925  sala.transacciones.push(Transaccion({... */\n      dup1\n      sload\n        /* \"contracts/Pasanaku.sol\":5868:5884  sala.rondaActual */\n      0x01\n        /* \"contracts/Pasanaku.sol\":5671:5925  sala.transacciones.push(Transaccion({... */\n      dup2\n      dup2\n      add\n      dup4\n      sstore\n      swap2\n      dup5\n      mstore\n      swap10\n      swap1\n      swap3\n      keccak256\n      swap12\n      mload\n      0x04\n      swap1\n      swap10\n      mul\n      swap1\n      swap12\n      add\n      dup1\n      sload\n      sub(shl(0xa0, 0x01), 0x01)\n      swap10\n      dup11\n      and\n      not(sub(shl(0xa0, 0x01), 0x01))\n      swap2\n      dup3\n      and\n      or\n      dup3\n      sstore\n      swap10\n      mload\n      swap2\n      dup2\n      add\n      dup1\n      sload\n      swap3\n      swap1\n      swap10\n      and\n      swap2\n      swap1\n      swap10\n      and\n      or\n      swap1\n      swap7\n      sstore\n      swap4\n      mload\n      swap1\n      dup7\n      add\n      sstore\n      mload\n      0x03\n      swap1\n      swap5\n      add\n      dup1\n      sload\n      swap4\n      mload\n      swap7\n      mload\n      iszero\n      iszero\n      0x010000000000\n      mul\n      not(0xff0000000000)\n      swap8\n      swap1\n      swap4\n      and\n      0x0100000000\n      mul\n      not(0xffffffffff)\n      swap1\n      swap5\n      and\n      swap5\n      swap1\n      swap2\n      and\n      swap4\n      swap1\n      swap4\n      or\n      swap2\n      swap1\n      swap2\n      or\n      swap4\n      swap1\n      swap4\n      and\n      swap3\n      swap1\n      swap3\n      or\n      swap1\n      swap2\n      sstore\n        /* \"contracts/Pasanaku.sol\":5943:5989  AporteRealizado(hashId, msg.sender, msg.value) */\n      swap1\n      mload\n      tag_160\n      swap1\n        /* \"contracts/Pasanaku.sol\":5959:5965  hashId */\n      dup11\n      swap1\n      dup11\n      swap1\n        /* \"contracts/Pasanaku.sol\":5943:5989  AporteRealizado(hashId, msg.sender, msg.value) */\n      tag_89\n      jump\t// in\n    tag_160:\n      mload(0x40)\n      swap1\n      dup2\n      swap1\n      sub\n      dup2\n      keccak256\n        /* \"contracts/Pasanaku.sol\":5979:5988  msg.value */\n      callvalue\n        /* \"#utility.yul\":6941:6966   */\n      dup3\n      mstore\n        /* \"contracts/Pasanaku.sol\":5943:5989  AporteRealizado(hashId, msg.sender, msg.value) */\n      swap1\n      0xc32ea7ed7629d43005f8151868025fa2572b1299c75f63049895fa7abf468104\n      swap1\n        /* \"#utility.yul\":6929:6931   */\n      0x20\n        /* \"#utility.yul\":6914:6932   */\n      add\n        /* \"contracts/Pasanaku.sol\":5943:5989  AporteRealizado(hashId, msg.sender, msg.value) */\n      mload(0x40)\n      dup1\n      swap2\n      sub\n      swap1\n      log3\n        /* \"contracts/Pasanaku.sol\":6006:6031  _todosHanAportado(hashId) */\n      tag_162\n        /* \"contracts/Pasanaku.sol\":6024:6030  hashId */\n      dup9\n      dup9\n        /* \"contracts/Pasanaku.sol\":6006:6023  _todosHanAportado */\n      tag_163\n        /* \"contracts/Pasanaku.sol\":6006:6031  _todosHanAportado(hashId) */\n      jump\t// in\n    tag_162:\n        /* \"contracts/Pasanaku.sol\":6002:6081  if (_todosHanAportado(hashId)) {... */\n      iszero\n      tag_165\n      jumpi\n        /* \"contracts/Pasanaku.sol\":6048:6069  _procesarPago(hashId) */\n      tag_165\n        /* \"contracts/Pasanaku.sol\":6062:6068  hashId */\n      dup9\n      dup9\n        /* \"contracts/Pasanaku.sol\":6048:6069  _procesarPago(hashId) */\n      dup1\n      dup1\n      0x1f\n      add\n      0x20\n      dup1\n      swap2\n      div\n      mul\n      0x20\n      add\n      mload(0x40)\n      swap1\n      dup2\n      add\n      0x40\n      mstore\n      dup1\n      swap4\n      swap3\n      swap2\n      swap1\n      dup2\n      dup2\n      mstore\n      0x20\n      add\n      dup4\n      dup4\n      dup1\n      dup3\n      dup5\n      calldatacopy\n      0x00\n      swap3\n      add\n      swap2\n      swap1\n      swap2\n      mstore\n      pop\n        /* \"contracts/Pasanaku.sol\":6048:6061  _procesarPago */\n      tag_166\n      swap3\n      pop\n      pop\n      pop\n        /* \"contracts/Pasanaku.sol\":6048:6069  _procesarPago(hashId) */\n      jump\t// in\n    tag_165:\n        /* \"contracts/Pasanaku.sol\":5168:6088  {... */\n      pop\n      pop\n        /* \"contracts/Pasanaku.sol\":2039:2040  _ */\n      pop\n      pop\n        /* \"contracts/Pasanaku.sol\":5065:6088  function realizarAporte(string calldata hashId) external payable salaExiste(hashId) salaActiva(hashId) {... */\n      pop\n      pop\n      pop\n      pop\n      jump\t// out\n        /* \"contracts/Pasanaku.sol\":9412:9667  function obtenerTurnoUsuario(string calldata hashId, address usuario) external view salaExiste(hashId) returns (uint8) {... */\n    tag_47:\n        /* \"contracts/Pasanaku.sol\":9524:9529  uint8 */\n      0x00\n        /* \"contracts/Pasanaku.sol\":9507:9513  hashId */\n      dup4\n      dup4\n        /* \"contracts/Pasanaku.sol\":2003:2004  0 */\n      0x00\n      sub(shl(0xa0, 0x01), 0x01)\n        /* \"contracts/Pasanaku.sol\":1966:2005  salas[hashId].organizador == address(0) */\n      and\n        /* \"contracts/Pasanaku.sol\":1966:1971  salas */\n      0x00\n        /* \"contracts/Pasanaku.sol\":1972:1978  hashId */\n      dup4\n      dup4\n        /* \"contracts/Pasanaku.sol\":1966:1979  salas[hashId] */\n      mload(0x40)\n      tag_168\n      swap3\n      swap2\n      swap1\n      tag_89\n      jump\t// in\n    tag_168:\n      swap1\n      dup2\n      mstore\n      mload(0x40)\n      swap1\n      dup2\n      swap1\n      sub\n      0x20\n      add\n      swap1\n      keccak256\n        /* \"contracts/Pasanaku.sol\":1966:1991  salas[hashId].organizador */\n      sload\n      sub(shl(0xa0, 0x01), 0x01)\n      and\n        /* \"contracts/Pasanaku.sol\":1966:2005  salas[hashId].organizador == address(0) */\n      sub\n        /* \"contracts/Pasanaku.sol\":1962:2028  if (salas[hashId].organizador == address(0)) revert SalaNoExiste() */\n      tag_169\n      jumpi\n        /* \"contracts/Pasanaku.sol\":2014:2028  SalaNoExiste() */\n      mload(0x40)\n      shl(0xe1, 0x05e3033b)\n      dup2\n      mstore\n      0x04\n      add\n      mload(0x40)\n      dup1\n      swap2\n      sub\n      swap1\n      revert\n        /* \"contracts/Pasanaku.sol\":1962:2028  if (salas[hashId].organizador == address(0)) revert SalaNoExiste() */\n    tag_169:\n        /* \"contracts/Pasanaku.sol\":9542:9552  uint index */\n      0x00\n        /* \"contracts/Pasanaku.sol\":9555:9598  _obtenerIndiceParticipante(hashId, usuario) */\n      tag_171\n        /* \"contracts/Pasanaku.sol\":9582:9588  hashId */\n      dup8\n      dup8\n        /* \"contracts/Pasanaku.sol\":9590:9597  usuario */\n      dup8\n        /* \"contracts/Pasanaku.sol\":9555:9581  _obtenerIndiceParticipante */\n      tag_149\n        /* \"contracts/Pasanaku.sol\":9555:9598  _obtenerIndiceParticipante(hashId, usuario) */\n      jump\t// in\n    tag_171:\n        /* \"contracts/Pasanaku.sol\":9542:9598  uint index = _obtenerIndiceParticipante(hashId, usuario) */\n      swap1\n      pop\n        /* \"contracts/Pasanaku.sol\":9616:9621  salas */\n      0x00\n        /* \"contracts/Pasanaku.sol\":9622:9628  hashId */\n      dup8\n      dup8\n        /* \"contracts/Pasanaku.sol\":9616:9629  salas[hashId] */\n      mload(0x40)\n      tag_172\n      swap3\n      swap2\n      swap1\n      tag_89\n      jump\t// in\n    tag_172:\n      swap1\n      dup2\n      mstore\n      0x20\n      add\n      mload(0x40)\n      dup1\n      swap2\n      sub\n      swap1\n      keccak256\n        /* \"contracts/Pasanaku.sol\":9616:9643  salas[hashId].participantes */\n      0x05\n      add\n        /* \"contracts/Pasanaku.sol\":9644:9649  index */\n      dup2\n        /* \"contracts/Pasanaku.sol\":9616:9650  salas[hashId].participantes[index] */\n      dup2\n      sload\n      dup2\n      lt\n      tag_174\n      jumpi\n      tag_174\n      tag_106\n      jump\t// in\n    tag_174:\n      0x00\n      swap2\n      dup3\n      mstore\n      0x20\n      swap1\n      swap2\n      keccak256\n      add\n        /* \"contracts/Pasanaku.sol\":9616:9659  salas[hashId].participantes[index].numTurno */\n      sload\n      shl(0xa0, 0x01)\n      swap1\n      div\n      0xff\n      and\n      swap8\n        /* \"contracts/Pasanaku.sol\":9412:9667  function obtenerTurnoUsuario(string calldata hashId, address usuario) external view salaExiste(hashId) returns (uint8) {... */\n      swap7\n      pop\n      pop\n      pop\n      pop\n      pop\n      pop\n      pop\n      jump\t// out\n        /* \"contracts/Pasanaku.sol\":4111:5057  function realizarSorteo(string calldata hashId) external salaExiste(hashId) salaActiva(hashId) soloOrganizador(hashId) {... */\n    tag_53:\n        /* \"contracts/Pasanaku.sol\":4179:4185  hashId */\n      dup2\n      dup2\n        /* \"contracts/Pasanaku.sol\":2003:2004  0 */\n      0x00\n      sub(shl(0xa0, 0x01), 0x01)\n        /* \"contracts/Pasanaku.sol\":1966:2005  salas[hashId].organizador == address(0) */\n      and\n        /* \"contracts/Pasanaku.sol\":1966:1971  salas */\n      0x00\n        /* \"contracts/Pasanaku.sol\":1972:1978  hashId */\n      dup4\n      dup4\n        /* \"contracts/Pasanaku.sol\":1966:1979  salas[hashId] */\n      mload(0x40)\n      tag_177\n      swap3\n      swap2\n      swap1\n      tag_89\n      jump\t// in\n    tag_177:\n      swap1\n      dup2\n      mstore\n      mload(0x40)\n      swap1\n      dup2\n      swap1\n      sub\n      0x20\n      add\n      swap1\n      keccak256\n        /* \"contracts/Pasanaku.sol\":1966:1991  salas[hashId].organizador */\n      sload\n      sub(shl(0xa0, 0x01), 0x01)\n      and\n        /* \"contracts/Pasanaku.sol\":1966:2005  salas[hashId].organizador == address(0) */\n      sub\n        /* \"contracts/Pasanaku.sol\":1962:2028  if (salas[hashId].organizador == address(0)) revert SalaNoExiste() */\n      tag_178\n      jumpi\n        /* \"contracts/Pasanaku.sol\":2014:2028  SalaNoExiste() */\n      mload(0x40)\n      shl(0xe1, 0x05e3033b)\n      dup2\n      mstore\n      0x04\n      add\n      mload(0x40)\n      dup1\n      swap2\n      sub\n      swap1\n      revert\n        /* \"contracts/Pasanaku.sol\":1962:2028  if (salas[hashId].organizador == address(0)) revert SalaNoExiste() */\n    tag_178:\n        /* \"contracts/Pasanaku.sol\":4198:4204  hashId */\n      dup4\n      dup4\n        /* \"contracts/Pasanaku.sol\":2115:2120  salas */\n      0x00\n        /* \"contracts/Pasanaku.sol\":2121:2127  hashId */\n      dup3\n      dup3\n        /* \"contracts/Pasanaku.sol\":2115:2128  salas[hashId] */\n      mload(0x40)\n      tag_180\n      swap3\n      swap2\n      swap1\n      tag_89\n      jump\t// in\n    tag_180:\n      swap1\n      dup2\n      mstore\n      mload(0x40)\n      swap1\n      dup2\n      swap1\n      sub\n      0x20\n      add\n      swap1\n      keccak256\n        /* \"contracts/Pasanaku.sol\":2115:2143  salas[hashId].salaFinalizada */\n      0x02\n      add\n      sload\n      0xff\n      shl(0x30, 0x01)\n      swap1\n      swap2\n      div\n      and\n        /* \"contracts/Pasanaku.sol\":2111:2168  if (salas[hashId].salaFinalizada) revert SalaFinalizada() */\n      iszero\n      tag_181\n      jumpi\n        /* \"contracts/Pasanaku.sol\":2152:2168  SalaFinalizada() */\n      mload(0x40)\n      shl(0xe0, 0x82d4e1db)\n      dup2\n      mstore\n      0x04\n      add\n      mload(0x40)\n      dup1\n      swap2\n      sub\n      swap1\n      revert\n        /* \"contracts/Pasanaku.sol\":2111:2168  if (salas[hashId].salaFinalizada) revert SalaFinalizada() */\n    tag_181:\n        /* \"contracts/Pasanaku.sol\":4222:4228  hashId */\n      dup6\n      dup6\n        /* \"contracts/Pasanaku.sol\":1843:1853  msg.sender */\n      caller\n      sub(shl(0xa0, 0x01), 0x01)\n        /* \"contracts/Pasanaku.sol\":1814:1853  salas[hashId].organizador != msg.sender */\n      and\n        /* \"contracts/Pasanaku.sol\":1814:1819  salas */\n      0x00\n        /* \"contracts/Pasanaku.sol\":1820:1826  hashId */\n      dup4\n      dup4\n        /* \"contracts/Pasanaku.sol\":1814:1827  salas[hashId] */\n      mload(0x40)\n      tag_183\n      swap3\n      swap2\n      swap1\n      tag_89\n      jump\t// in\n    tag_183:\n      swap1\n      dup2\n      mstore\n      mload(0x40)\n      swap1\n      dup2\n      swap1\n      sub\n      0x20\n      add\n      swap1\n      keccak256\n        /* \"contracts/Pasanaku.sol\":1814:1839  salas[hashId].organizador */\n      sload\n      sub(shl(0xa0, 0x01), 0x01)\n      and\n        /* \"contracts/Pasanaku.sol\":1814:1853  salas[hashId].organizador != msg.sender */\n      eq\n        /* \"contracts/Pasanaku.sol\":1810:1879  if (salas[hashId].organizador != msg.sender) revert SoloOrganizador() */\n      tag_184\n      jumpi\n        /* \"contracts/Pasanaku.sol\":1862:1879  SoloOrganizador() */\n      mload(0x40)\n      shl(0xe0, 0x3580c865)\n      dup2\n      mstore\n      0x04\n      add\n      mload(0x40)\n      dup1\n      swap2\n      sub\n      swap1\n      revert\n        /* \"contracts/Pasanaku.sol\":1810:1879  if (salas[hashId].organizador != msg.sender) revert SoloOrganizador() */\n    tag_184:\n        /* \"contracts/Pasanaku.sol\":4241:4258  Sala storage sala */\n      0x00\n        /* \"contracts/Pasanaku.sol\":4261:4266  salas */\n      0x00\n        /* \"contracts/Pasanaku.sol\":4267:4273  hashId */\n      dup10\n      dup10\n        /* \"contracts/Pasanaku.sol\":4261:4274  salas[hashId] */\n      mload(0x40)\n      tag_186\n      swap3\n      swap2\n      swap1\n      tag_89\n      jump\t// in\n    tag_186:\n      swap1\n      dup2\n      mstore\n      mload(0x40)\n      swap1\n      dup2\n      swap1\n      sub\n      0x20\n      add\n      swap1\n      keccak256\n        /* \"contracts/Pasanaku.sol\":4289:4309  sala.sorteoRealizado */\n      0x02\n      dup2\n      add\n      sload\n        /* \"contracts/Pasanaku.sol\":4261:4274  salas[hashId] */\n      swap1\n      swap2\n      pop\n        /* \"contracts/Pasanaku.sol\":4289:4309  sala.sorteoRealizado */\n      0xff\n      shl(0x38, 0x01)\n      swap1\n      swap2\n      div\n      and\n        /* \"contracts/Pasanaku.sol\":4285:4337  if (sala.sorteoRealizado) revert SorteoYaRealizado() */\n      iszero\n      tag_187\n      jumpi\n        /* \"contracts/Pasanaku.sol\":4318:4337  SorteoYaRealizado() */\n      mload(0x40)\n      shl(0xe0, 0x4f992b6f)\n      dup2\n      mstore\n      0x04\n      add\n      mload(0x40)\n      dup1\n      swap2\n      sub\n      swap1\n      revert\n        /* \"contracts/Pasanaku.sol\":4285:4337  if (sala.sorteoRealizado) revert SorteoYaRealizado() */\n    tag_187:\n        /* \"contracts/Pasanaku.sol\":4361:4379  sala.participantes */\n      0x05\n      dup2\n      add\n        /* \"contracts/Pasanaku.sol\":4361:4386  sala.participantes.length */\n      sload\n        /* \"contracts/Pasanaku.sol\":4350:4358  uint len */\n      0x00\n        /* \"contracts/Pasanaku.sol\":4431:4438  len + 1 */\n      tag_188\n        /* \"contracts/Pasanaku.sol\":4361:4386  sala.participantes.length */\n      dup3\n        /* \"contracts/Pasanaku.sol\":4437:4438  1 */\n      0x01\n        /* \"contracts/Pasanaku.sol\":4431:4438  len + 1 */\n      tag_158\n      jump\t// in\n    tag_188:\n        /* \"contracts/Pasanaku.sol\":4420:4439  new bool[](len + 1) */\n      0xffffffffffffffff\n      dup2\n      gt\n      iszero\n      tag_190\n      jumpi\n      tag_190\n      tag_191\n      jump\t// in\n    tag_190:\n      mload(0x40)\n      swap1\n      dup1\n      dup3\n      mstore\n      dup1\n      0x20\n      mul\n      0x20\n      add\n      dup3\n      add\n      0x40\n      mstore\n      dup1\n      iszero\n      tag_192\n      jumpi\n      dup2\n      0x20\n      add\n      0x20\n      dup3\n      mul\n      dup1\n      calldatasize\n      dup4\n      calldatacopy\n      add\n      swap1\n      pop\n    tag_192:\n      pop\n        /* \"contracts/Pasanaku.sol\":4397:4439  bool[] memory usados = new bool[](len + 1) */\n      swap1\n      pop\n        /* \"contracts/Pasanaku.sol\":4465:4471  uint i */\n      0x00\n        /* \"contracts/Pasanaku.sol\":4460:4971  for (uint i = 0; i < len; i++) {... */\n    tag_193:\n        /* \"contracts/Pasanaku.sol\":4481:4484  len */\n      dup3\n        /* \"contracts/Pasanaku.sol\":4477:4478  i */\n      dup2\n        /* \"contracts/Pasanaku.sol\":4477:4484  i < len */\n      lt\n        /* \"contracts/Pasanaku.sol\":4460:4971  for (uint i = 0; i < len; i++) {... */\n      iszero\n      tag_194\n      jumpi\n        /* \"contracts/Pasanaku.sol\":4506:4526  uint numeroAleatorio */\n      0x00\n        /* \"contracts/Pasanaku.sol\":4541:4831  do {... */\n    tag_196:\n        /* \"contracts/Pasanaku.sol\":4774:4777  len */\n      dup4\n        /* \"contracts/Pasanaku.sol\":4636:4651  block.timestamp */\n      timestamp\n        /* \"contracts/Pasanaku.sol\":4675:4691  block.prevrandao */\n      prevrandao\n        /* \"contracts/Pasanaku.sol\":4715:4725  msg.sender */\n      caller\n        /* \"contracts/Pasanaku.sol\":4749:4750  i */\n      dup6\n        /* \"contracts/Pasanaku.sol\":4597:4769  abi.encodePacked(... */\n      add(0x20, mload(0x40))\n      tag_199\n      swap5\n      swap4\n      swap3\n      swap2\n      swap1\n        /* \"#utility.yul\":9189:9208   */\n      swap4\n      dup5\n      mstore\n        /* \"#utility.yul\":9233:9235   */\n      0x20\n        /* \"#utility.yul\":9224:9236   */\n      dup5\n      add\n        /* \"#utility.yul\":9217:9245   */\n      swap3\n      swap1\n      swap3\n      mstore\n        /* \"#utility.yul\":9283:9285   */\n      0x60\n        /* \"#utility.yul\":9279:9294   */\n      shl\n      not(0xffffffffffffffffffffffff)\n        /* \"#utility.yul\":9275:9328   */\n      and\n        /* \"#utility.yul\":9270:9272   */\n      0x40\n        /* \"#utility.yul\":9261:9273   */\n      dup4\n      add\n        /* \"#utility.yul\":9254:9329   */\n      mstore\n        /* \"#utility.yul\":9354:9356   */\n      0x54\n        /* \"#utility.yul\":9345:9357   */\n      dup3\n      add\n        /* \"#utility.yul\":9338:9366   */\n      mstore\n        /* \"#utility.yul\":9391:9394   */\n      0x74\n        /* \"#utility.yul\":9382:9395   */\n      add\n      swap1\n        /* \"#utility.yul\":8976:9401   */\n      jump\n        /* \"contracts/Pasanaku.sol\":4597:4769  abi.encodePacked(... */\n    tag_199:\n      mload(0x40)\n      0x20\n      dup2\n      dup4\n      sub\n      sub\n      dup2\n      mstore\n      swap1\n      0x40\n      mstore\n        /* \"contracts/Pasanaku.sol\":4587:4770  keccak256(abi.encodePacked(... */\n      dup1\n      mload\n      swap1\n      0x20\n      add\n      keccak256\n        /* \"contracts/Pasanaku.sol\":4582:4771  uint(keccak256(abi.encodePacked(... */\n      0x00\n      shr\n        /* \"contracts/Pasanaku.sol\":4582:4777  uint(keccak256(abi.encodePacked(... */\n      tag_201\n      swap2\n      swap1\n      tag_202\n      jump\t// in\n    tag_201:\n        /* \"contracts/Pasanaku.sol\":4581:4782  (uint(keccak256(abi.encodePacked(... */\n      tag_203\n      swap1\n        /* \"contracts/Pasanaku.sol\":4781:4782  1 */\n      0x01\n        /* \"contracts/Pasanaku.sol\":4581:4782  (uint(keccak256(abi.encodePacked(... */\n      tag_158\n      jump\t// in\n    tag_203:\n        /* \"contracts/Pasanaku.sol\":4563:4782  numeroAleatorio = (uint(keccak256(abi.encodePacked(... */\n      swap1\n      pop\n        /* \"contracts/Pasanaku.sol\":4806:4812  usados */\n      dup3\n        /* \"contracts/Pasanaku.sol\":4813:4828  numeroAleatorio */\n      dup2\n        /* \"contracts/Pasanaku.sol\":4806:4829  usados[numeroAleatorio] */\n      dup2\n      mload\n      dup2\n      lt\n      tag_205\n      jumpi\n      tag_205\n      tag_106\n      jump\t// in\n    tag_205:\n      0x20\n      mul\n      0x20\n      add\n      add\n      mload\n        /* \"contracts/Pasanaku.sol\":4541:4831  do {... */\n      tag_196\n      jumpi\n        /* \"contracts/Pasanaku.sol\":4885:4889  true */\n      0x01\n        /* \"contracts/Pasanaku.sol\":4859:4865  usados */\n      dup4\n        /* \"contracts/Pasanaku.sol\":4866:4881  numeroAleatorio */\n      dup3\n        /* \"contracts/Pasanaku.sol\":4859:4882  usados[numeroAleatorio] */\n      dup2\n      mload\n      dup2\n      lt\n      tag_207\n      jumpi\n      tag_207\n      tag_106\n      jump\t// in\n    tag_207:\n      0x20\n      mul\n      0x20\n      add\n      add\n        /* \"contracts/Pasanaku.sol\":4859:4889  usados[numeroAleatorio] = true */\n      swap1\n      iszero\n      iszero\n      swap1\n      dup2\n      iszero\n      iszero\n      dup2\n      mstore\n      pop\n      pop\n        /* \"contracts/Pasanaku.sol\":4943:4958  numeroAleatorio */\n      dup1\n        /* \"contracts/Pasanaku.sol\":4904:4908  sala */\n      dup6\n        /* \"contracts/Pasanaku.sol\":4904:4922  sala.participantes */\n      0x05\n      add\n        /* \"contracts/Pasanaku.sol\":4923:4924  i */\n      dup4\n        /* \"contracts/Pasanaku.sol\":4904:4925  sala.participantes[i] */\n      dup2\n      sload\n      dup2\n      lt\n      tag_209\n      jumpi\n      tag_209\n      tag_106\n      jump\t// in\n    tag_209:\n      0x00\n      swap2\n      dup3\n      mstore\n      0x20\n      swap1\n      swap2\n      keccak256\n      add\n        /* \"contracts/Pasanaku.sol\":4904:4959  sala.participantes[i].numTurno = uint8(numeroAleatorio) */\n      dup1\n      sload\n      0xff\n      swap3\n      swap1\n      swap3\n      and\n      shl(0xa0, 0x01)\n      mul\n      not(shl(0xa0, 0xff))\n      swap1\n      swap3\n      and\n      swap2\n      swap1\n      swap2\n      or\n      swap1\n      sstore\n      pop\n      0x01\n        /* \"contracts/Pasanaku.sol\":4486:4489  i++ */\n      add\n        /* \"contracts/Pasanaku.sol\":4460:4971  for (uint i = 0; i < len; i++) {... */\n      jump(tag_193)\n    tag_194:\n      pop\n        /* \"contracts/Pasanaku.sol\":4983:5003  sala.sorteoRealizado */\n      0x02\n      dup4\n      add\n        /* \"contracts/Pasanaku.sol\":4983:5010  sala.sorteoRealizado = true */\n      dup1\n      sload\n      not(0xff00000000000000)\n      and\n      shl(0x38, 0x01)\n      or\n      swap1\n      sstore\n        /* \"contracts/Pasanaku.sol\":5026:5049  SorteoRealizado(hashId) */\n      mload(0x40)\n      tag_211\n      swap1\n        /* \"contracts/Pasanaku.sol\":5042:5048  hashId */\n      dup13\n      swap1\n      dup13\n      swap1\n        /* \"contracts/Pasanaku.sol\":5026:5049  SorteoRealizado(hashId) */\n      tag_89\n      jump\t// in\n    tag_211:\n      mload(0x40)\n      swap1\n      dup2\n      swap1\n      sub\n      dup2\n      keccak256\n      swap1\n      0x421589e4cd20383eafb22df9d4cf58f97cf473dac683d1194a2684012b343667\n      swap1\n      0x00\n      swap1\n      log2\n        /* \"contracts/Pasanaku.sol\":4230:5057  {... */\n      pop\n      pop\n      pop\n        /* \"contracts/Pasanaku.sol\":2179:2180  _ */\n      pop\n      pop\n        /* \"contracts/Pasanaku.sol\":2039:2040  _ */\n      pop\n      pop\n        /* \"contracts/Pasanaku.sol\":4111:5057  function realizarSorteo(string calldata hashId) external salaExiste(hashId) salaActiva(hashId) soloOrganizador(hashId) {... */\n      pop\n      pop\n      pop\n      pop\n      jump\t// out\n        /* \"contracts/Pasanaku.sol\":9237:9404  function esInvitado(string calldata hashId, address usuario) external view salaExiste(hashId) returns (bool) {... */\n    tag_57:\n        /* \"contracts/Pasanaku.sol\":9340:9344  bool */\n      0x00\n        /* \"contracts/Pasanaku.sol\":9323:9329  hashId */\n      dup4\n      dup4\n        /* \"contracts/Pasanaku.sol\":2003:2004  0 */\n      0x00\n      sub(shl(0xa0, 0x01), 0x01)\n        /* \"contracts/Pasanaku.sol\":1966:2005  salas[hashId].organizador == address(0) */\n      and\n        /* \"contracts/Pasanaku.sol\":1966:1971  salas */\n      0x00\n        /* \"contracts/Pasanaku.sol\":1972:1978  hashId */\n      dup4\n      dup4\n        /* \"contracts/Pasanaku.sol\":1966:1979  salas[hashId] */\n      mload(0x40)\n      tag_213\n      swap3\n      swap2\n      swap1\n      tag_89\n      jump\t// in\n    tag_213:\n      swap1\n      dup2\n      mstore\n      mload(0x40)\n      swap1\n      dup2\n      swap1\n      sub\n      0x20\n      add\n      swap1\n      keccak256\n        /* \"contracts/Pasanaku.sol\":1966:1991  salas[hashId].organizador */\n      sload\n      sub(shl(0xa0, 0x01), 0x01)\n      and\n        /* \"contracts/Pasanaku.sol\":1966:2005  salas[hashId].organizador == address(0) */\n      sub\n        /* \"contracts/Pasanaku.sol\":1962:2028  if (salas[hashId].organizador == address(0)) revert SalaNoExiste() */\n      tag_214\n      jumpi\n        /* \"contracts/Pasanaku.sol\":2014:2028  SalaNoExiste() */\n      mload(0x40)\n      shl(0xe1, 0x05e3033b)\n      dup2\n      mstore\n      0x04\n      add\n      mload(0x40)\n      dup1\n      swap2\n      sub\n      swap1\n      revert\n        /* \"contracts/Pasanaku.sol\":1962:2028  if (salas[hashId].organizador == address(0)) revert SalaNoExiste() */\n    tag_214:\n        /* \"contracts/Pasanaku.sol\":9364:9369  salas */\n      0x00\n        /* \"contracts/Pasanaku.sol\":9370:9376  hashId */\n      dup7\n      dup7\n        /* \"contracts/Pasanaku.sol\":9364:9377  salas[hashId] */\n      mload(0x40)\n      tag_216\n      swap3\n      swap2\n      swap1\n      tag_89\n      jump\t// in\n    tag_216:\n      swap1\n      dup2\n      mstore\n      0x40\n      dup1\n      mload\n      0x20\n      swap3\n      dup2\n      swap1\n      sub\n      dup4\n      add\n      swap1\n      keccak256\n      sub(shl(0xa0, 0x01), 0x01)\n        /* \"contracts/Pasanaku.sol\":9364:9396  salas[hashId].invitados[usuario] */\n      swap7\n      swap1\n      swap7\n      and\n      0x00\n      swap1\n      dup2\n      mstore\n        /* \"contracts/Pasanaku.sol\":9364:9387  salas[hashId].invitados */\n      0x04\n      swap1\n      swap7\n      add\n        /* \"contracts/Pasanaku.sol\":9364:9396  salas[hashId].invitados[usuario] */\n      swap1\n      swap2\n      mstore\n      swap1\n      swap4\n      keccak256\n      sload\n      0xff\n      and\n      swap6\n        /* \"contracts/Pasanaku.sol\":9237:9404  function esInvitado(string calldata hashId, address usuario) external view salaExiste(hashId) returns (bool) {... */\n      swap5\n      pop\n      pop\n      pop\n      pop\n      pop\n      jump\t// out\n        /* \"contracts/Pasanaku.sol\":2196:2883  function crearSala(... */\n    tag_64:\n        /* \"contracts/Pasanaku.sol\":2409:2410  0 */\n      0x00\n      sub(shl(0xa0, 0x01), 0x01)\n        /* \"contracts/Pasanaku.sol\":2372:2411  salas[hashId].organizador != address(0) */\n      and\n        /* \"contracts/Pasanaku.sol\":2372:2377  salas */\n      0x00\n        /* \"contracts/Pasanaku.sol\":2378:2384  hashId */\n      dup7\n      dup7\n        /* \"contracts/Pasanaku.sol\":2372:2385  salas[hashId] */\n      mload(0x40)\n      tag_218\n      swap3\n      swap2\n      swap1\n      tag_89\n      jump\t// in\n    tag_218:\n      swap1\n      dup2\n      mstore\n      mload(0x40)\n      swap1\n      dup2\n      swap1\n      sub\n      0x20\n      add\n      swap1\n      keccak256\n        /* \"contracts/Pasanaku.sol\":2372:2397  salas[hashId].organizador */\n      sload\n      sub(shl(0xa0, 0x01), 0x01)\n      and\n        /* \"contracts/Pasanaku.sol\":2372:2411  salas[hashId].organizador != address(0) */\n      eq\n        /* \"contracts/Pasanaku.sol\":2368:2434  if (salas[hashId].organizador != address(0)) revert SalaYaExiste() */\n      tag_219\n      jumpi\n        /* \"contracts/Pasanaku.sol\":2420:2434  SalaYaExiste() */\n      mload(0x40)\n      shl(0xe2, 0x36619919)\n      dup2\n      mstore\n      0x04\n      add\n      mload(0x40)\n      dup1\n      swap2\n      sub\n      swap1\n      revert\n        /* \"contracts/Pasanaku.sol\":2368:2434  if (salas[hashId].organizador != address(0)) revert SalaYaExiste() */\n    tag_219:\n        /* \"contracts/Pasanaku.sol\":2455:2477  Sala storage nuevaSala */\n      0x00\n        /* \"contracts/Pasanaku.sol\":2480:2485  salas */\n      0x00\n        /* \"contracts/Pasanaku.sol\":2486:2492  hashId */\n      dup7\n      dup7\n        /* \"contracts/Pasanaku.sol\":2480:2493  salas[hashId] */\n      mload(0x40)\n      tag_220\n      swap3\n      swap2\n      swap1\n      tag_89\n      jump\t// in\n    tag_220:\n      swap1\n      dup2\n      mstore\n      0x40\n      dup1\n      mload\n      0x20\n      swap3\n      dup2\n      swap1\n      sub\n      dup4\n      add\n      swap1\n      keccak256\n        /* \"contracts/Pasanaku.sol\":2504:2538  nuevaSala.organizador = msg.sender */\n      dup1\n      sload\n        /* \"contracts/Pasanaku.sol\":2528:2538  msg.sender */\n      caller\n      not(sub(shl(0xa0, 0x01), 0x01))\n        /* \"contracts/Pasanaku.sol\":2504:2538  nuevaSala.organizador = msg.sender */\n      swap1\n      swap2\n      and\n      dup2\n      or\n      dup3\n      sstore\n      0x01\n        /* \"contracts/Pasanaku.sol\":2549:2571  nuevaSala.montoAportar */\n      dup1\n      dup4\n      add\n        /* \"contracts/Pasanaku.sol\":2549:2586  nuevaSala.montoAportar = montoAportar */\n      dup9\n      swap1\n      sstore\n        /* \"contracts/Pasanaku.sol\":2597:2626  nuevaSala.numeroParticipantes */\n      0x02\n      dup4\n      add\n        /* \"contracts/Pasanaku.sol\":2597:2648  nuevaSala.numeroParticipantes = numeroParticipantes */\n      dup1\n      sload\n        /* \"contracts/Pasanaku.sol\":2504:2538  nuevaSala.organizador = msg.sender */\n      0x0100\n        /* \"contracts/Pasanaku.sol\":2597:2648  nuevaSala.numeroParticipantes = numeroParticipantes */\n      0xff\n      dup13\n      and\n      not(0xffffffff00ff)\n        /* \"contracts/Pasanaku.sol\":2659:2694  nuevaSala.fechaInicio = fechaInicio */\n      swap1\n      swap3\n      and\n      swap2\n      swap1\n      swap2\n      or\n      0x010000\n      0xffffffff\n      dup12\n      and\n      mul\n      or\n      not(0xff00)\n        /* \"contracts/Pasanaku.sol\":2705:2730  nuevaSala.rondaActual = 1 */\n      and\n      or\n      swap1\n      sstore\n      0x00\n        /* \"contracts/Pasanaku.sol\":2741:2772  nuevaSala.invitados[msg.sender] */\n      swap2\n      dup3\n      mstore\n        /* \"contracts/Pasanaku.sol\":2741:2760  nuevaSala.invitados */\n      0x04\n      dup4\n      add\n        /* \"contracts/Pasanaku.sol\":2741:2772  nuevaSala.invitados[msg.sender] */\n      dup6\n      mstore\n      dup4\n      dup3\n      keccak256\n        /* \"contracts/Pasanaku.sol\":2741:2779  nuevaSala.invitados[msg.sender] = true */\n      dup1\n      sload\n      not(0xff)\n      and\n      dup3\n      or\n      swap1\n      sstore\n        /* \"contracts/Pasanaku.sol\":2792:2816  salasUsuario[msg.sender] */\n      dup1\n      dup6\n      mstore\n      swap3\n      dup2\n      keccak256\n        /* \"contracts/Pasanaku.sol\":2792:2829  salasUsuario[msg.sender].push(hashId) */\n      dup1\n      sload\n      swap4\n      dup5\n      add\n      dup2\n      sstore\n      dup2\n      mstore\n      swap3\n      swap1\n      swap3\n      keccak256\n        /* \"contracts/Pasanaku.sol\":2480:2493  salas[hashId] */\n      swap2\n      swap3\n      pop\n        /* \"contracts/Pasanaku.sol\":2792:2829  salasUsuario[msg.sender].push(hashId) */\n      add\n      tag_222\n        /* \"contracts/Pasanaku.sol\":2822:2828  hashId */\n      dup7\n      dup9\n        /* \"contracts/Pasanaku.sol\":2792:2829  salasUsuario[msg.sender].push(hashId) */\n      dup4\n      tag_223\n      jump\t// in\n    tag_222:\n      pop\n        /* \"contracts/Pasanaku.sol\":2845:2875  SalaCreada(hashId, msg.sender) */\n      mload(0x40)\n        /* \"contracts/Pasanaku.sol\":2864:2874  msg.sender */\n      caller\n      swap1\n        /* \"contracts/Pasanaku.sol\":2845:2875  SalaCreada(hashId, msg.sender) */\n      tag_224\n      swap1\n        /* \"contracts/Pasanaku.sol\":2856:2862  hashId */\n      dup9\n      swap1\n      dup9\n      swap1\n        /* \"contracts/Pasanaku.sol\":2845:2875  SalaCreada(hashId, msg.sender) */\n      tag_89\n      jump\t// in\n    tag_224:\n      mload(0x40)\n      swap1\n      dup2\n      swap1\n      sub\n      dup2\n      keccak256\n      swap1\n      0xdc9655bdffa72541122a0c5c0863a88cd625f0215c7b168904e9d5a261728a12\n      swap1\n      0x00\n      swap1\n      log3\n        /* \"contracts/Pasanaku.sol\":2357:2883  {... */\n      pop\n        /* \"contracts/Pasanaku.sol\":2196:2883  function crearSala(... */\n      pop\n      pop\n      pop\n      pop\n      pop\n      jump\t// out\n        /* \"contracts/Pasanaku.sol\":8724:8895  function obtenerTransacciones(string calldata hashId) external view salaExiste(hashId) returns (Transaccion[] memory) {... */\n    tag_68:\n        /* \"contracts/Pasanaku.sol\":8820:8840  Transaccion[] memory */\n      0x60\n        /* \"contracts/Pasanaku.sol\":8803:8809  hashId */\n      dup3\n      dup3\n        /* \"contracts/Pasanaku.sol\":2003:2004  0 */\n      0x00\n      sub(shl(0xa0, 0x01), 0x01)\n        /* \"contracts/Pasanaku.sol\":1966:2005  salas[hashId].organizador == address(0) */\n      and\n        /* \"contracts/Pasanaku.sol\":1966:1971  salas */\n      0x00\n        /* \"contracts/Pasanaku.sol\":1972:1978  hashId */\n      dup4\n      dup4\n        /* \"contracts/Pasanaku.sol\":1966:1979  salas[hashId] */\n      mload(0x40)\n      tag_226\n      swap3\n      swap2\n      swap1\n      tag_89\n      jump\t// in\n    tag_226:\n      swap1\n      dup2\n      mstore\n      mload(0x40)\n      swap1\n      dup2\n      swap1\n      sub\n      0x20\n      add\n      swap1\n      keccak256\n        /* \"contracts/Pasanaku.sol\":1966:1991  salas[hashId].organizador */\n      sload\n      sub(shl(0xa0, 0x01), 0x01)\n      and\n        /* \"contracts/Pasanaku.sol\":1966:2005  salas[hashId].organizador == address(0) */\n      sub\n        /* \"contracts/Pasanaku.sol\":1962:2028  if (salas[hashId].organizador == address(0)) revert SalaNoExiste() */\n      tag_227\n      jumpi\n        /* \"contracts/Pasanaku.sol\":2014:2028  SalaNoExiste() */\n      mload(0x40)\n      shl(0xe1, 0x05e3033b)\n      dup2\n      mstore\n      0x04\n      add\n      mload(0x40)\n      dup1\n      swap2\n      sub\n      swap1\n      revert\n        /* \"contracts/Pasanaku.sol\":1962:2028  if (salas[hashId].organizador == address(0)) revert SalaNoExiste() */\n    tag_227:\n        /* \"contracts/Pasanaku.sol\":8860:8865  salas */\n      0x00\n        /* \"contracts/Pasanaku.sol\":8866:8872  hashId */\n      dup6\n      dup6\n        /* \"contracts/Pasanaku.sol\":8860:8873  salas[hashId] */\n      mload(0x40)\n      tag_229\n      swap3\n      swap2\n      swap1\n      tag_89\n      jump\t// in\n    tag_229:\n      swap1\n      dup2\n      mstore\n      0x20\n      add\n      mload(0x40)\n      dup1\n      swap2\n      sub\n      swap1\n      keccak256\n        /* \"contracts/Pasanaku.sol\":8860:8887  salas[hashId].transacciones */\n      0x06\n      add\n        /* \"contracts/Pasanaku.sol\":8853:8887  return salas[hashId].transacciones */\n      dup1\n      sload\n      dup1\n      0x20\n      mul\n      0x20\n      add\n      mload(0x40)\n      swap1\n      dup2\n      add\n      0x40\n      mstore\n      dup1\n      swap3\n      swap2\n      swap1\n      dup2\n      dup2\n      mstore\n      0x20\n      add\n      0x00\n      swap1\n    tag_230:\n      dup3\n      dup3\n      lt\n      iszero\n      tag_136\n      jumpi\n      0x00\n      dup5\n      dup2\n      mstore\n      0x20\n      swap1\n      dup2\n      swap1\n      keccak256\n      0x40\n      dup1\n      mload\n      0xc0\n      dup2\n      add\n      dup3\n      mstore\n      0x04\n      dup7\n      mul\n      swap1\n      swap3\n      add\n      dup1\n      sload\n      sub(shl(0xa0, 0x01), 0x01)\n      swap1\n      dup2\n      and\n      dup5\n      mstore\n      0x01\n      dup1\n      dup4\n      add\n      sload\n      swap1\n      swap2\n      and\n      dup5\n      dup7\n      add\n      mstore\n      0x02\n      dup3\n      add\n      sload\n      swap3\n      dup5\n      add\n      swap3\n      swap1\n      swap3\n      mstore\n      0x03\n      add\n      sload\n      0xffffffff\n      dup2\n      and\n      0x60\n      dup5\n      add\n      mstore\n      0xff\n      0x0100000000\n      dup3\n      div\n      dup2\n      and\n      0x80\n      dup6\n      add\n      mstore\n      0x010000000000\n      swap1\n      swap2\n      div\n      and\n      iszero\n      iszero\n      0xa0\n      dup4\n      add\n      mstore\n      swap1\n      dup4\n      mstore\n      swap1\n      swap3\n      add\n      swap2\n      add\n      jump(tag_230)\n        /* \"contracts/Pasanaku.sol\":3368:4103  function unirseASala(string calldata hashId) external salaExiste(hashId) salaActiva(hashId) {... */\n    tag_74:\n        /* \"contracts/Pasanaku.sol\":3433:3439  hashId */\n      dup2\n      dup2\n        /* \"contracts/Pasanaku.sol\":2003:2004  0 */\n      0x00\n      sub(shl(0xa0, 0x01), 0x01)\n        /* \"contracts/Pasanaku.sol\":1966:2005  salas[hashId].organizador == address(0) */\n      and\n        /* \"contracts/Pasanaku.sol\":1966:1971  salas */\n      0x00\n        /* \"contracts/Pasanaku.sol\":1972:1978  hashId */\n      dup4\n      dup4\n        /* \"contracts/Pasanaku.sol\":1966:1979  salas[hashId] */\n      mload(0x40)\n      tag_234\n      swap3\n      swap2\n      swap1\n      tag_89\n      jump\t// in\n    tag_234:\n      swap1\n      dup2\n      mstore\n      mload(0x40)\n      swap1\n      dup2\n      swap1\n      sub\n      0x20\n      add\n      swap1\n      keccak256\n        /* \"contracts/Pasanaku.sol\":1966:1991  salas[hashId].organizador */\n      sload\n      sub(shl(0xa0, 0x01), 0x01)\n      and\n        /* \"contracts/Pasanaku.sol\":1966:2005  salas[hashId].organizador == address(0) */\n      sub\n        /* \"contracts/Pasanaku.sol\":1962:2028  if (salas[hashId].organizador == address(0)) revert SalaNoExiste() */\n      tag_235\n      jumpi\n        /* \"contracts/Pasanaku.sol\":2014:2028  SalaNoExiste() */\n      mload(0x40)\n      shl(0xe1, 0x05e3033b)\n      dup2\n      mstore\n      0x04\n      add\n      mload(0x40)\n      dup1\n      swap2\n      sub\n      swap1\n      revert\n        /* \"contracts/Pasanaku.sol\":1962:2028  if (salas[hashId].organizador == address(0)) revert SalaNoExiste() */\n    tag_235:\n        /* \"contracts/Pasanaku.sol\":3452:3458  hashId */\n      dup4\n      dup4\n        /* \"contracts/Pasanaku.sol\":2115:2120  salas */\n      0x00\n        /* \"contracts/Pasanaku.sol\":2121:2127  hashId */\n      dup3\n      dup3\n        /* \"contracts/Pasanaku.sol\":2115:2128  salas[hashId] */\n      mload(0x40)\n      tag_237\n      swap3\n      swap2\n      swap1\n      tag_89\n      jump\t// in\n    tag_237:\n      swap1\n      dup2\n      mstore\n      mload(0x40)\n      swap1\n      dup2\n      swap1\n      sub\n      0x20\n      add\n      swap1\n      keccak256\n        /* \"contracts/Pasanaku.sol\":2115:2143  salas[hashId].salaFinalizada */\n      0x02\n      add\n      sload\n      0xff\n      shl(0x30, 0x01)\n      swap1\n      swap2\n      div\n      and\n        /* \"contracts/Pasanaku.sol\":2111:2168  if (salas[hashId].salaFinalizada) revert SalaFinalizada() */\n      iszero\n      tag_238\n      jumpi\n        /* \"contracts/Pasanaku.sol\":2152:2168  SalaFinalizada() */\n      mload(0x40)\n      shl(0xe0, 0x82d4e1db)\n      dup2\n      mstore\n      0x04\n      add\n      mload(0x40)\n      dup1\n      swap2\n      sub\n      swap1\n      revert\n        /* \"contracts/Pasanaku.sol\":2111:2168  if (salas[hashId].salaFinalizada) revert SalaFinalizada() */\n    tag_238:\n        /* \"contracts/Pasanaku.sol\":3471:3488  Sala storage sala */\n      0x00\n        /* \"contracts/Pasanaku.sol\":3491:3496  salas */\n      0x00\n        /* \"contracts/Pasanaku.sol\":3497:3503  hashId */\n      dup8\n      dup8\n        /* \"contracts/Pasanaku.sol\":3491:3504  salas[hashId] */\n      mload(0x40)\n      tag_240\n      swap3\n      swap2\n      swap1\n      tag_89\n      jump\t// in\n    tag_240:\n      swap1\n      dup2\n      mstore\n      0x40\n      dup1\n      mload\n      0x20\n      swap3\n      dup2\n      swap1\n      sub\n      dup4\n      add\n      swap1\n      keccak256\n        /* \"contracts/Pasanaku.sol\":3535:3545  msg.sender */\n      caller\n        /* \"contracts/Pasanaku.sol\":3520:3546  sala.invitados[msg.sender] */\n      0x00\n      swap1\n      dup2\n      mstore\n        /* \"contracts/Pasanaku.sol\":3520:3534  sala.invitados */\n      0x04\n      dup3\n      add\n        /* \"contracts/Pasanaku.sol\":3520:3546  sala.invitados[msg.sender] */\n      swap1\n      swap4\n      mstore\n      swap2\n      keccak256\n      sload\n        /* \"contracts/Pasanaku.sol\":3491:3504  salas[hashId] */\n      swap1\n      swap2\n      pop\n        /* \"contracts/Pasanaku.sol\":3520:3546  sala.invitados[msg.sender] */\n      0xff\n      and\n        /* \"contracts/Pasanaku.sol\":3515:3567  if (!sala.invitados[msg.sender]) revert NoInvitado() */\n      tag_241\n      jumpi\n        /* \"contracts/Pasanaku.sol\":3555:3567  NoInvitado() */\n      mload(0x40)\n      shl(0xe1, 0x7b41a587)\n      dup2\n      mstore\n      0x04\n      add\n      mload(0x40)\n      dup1\n      swap2\n      sub\n      swap1\n      revert\n        /* \"contracts/Pasanaku.sol\":3515:3567  if (!sala.invitados[msg.sender]) revert NoInvitado() */\n    tag_241:\n        /* \"contracts/Pasanaku.sol\":3611:3635  sala.numeroParticipantes */\n      0x02\n      dup2\n      add\n      sload\n        /* \"contracts/Pasanaku.sol\":3582:3600  sala.participantes */\n      0x05\n      dup3\n      add\n        /* \"contracts/Pasanaku.sol\":3582:3607  sala.participantes.length */\n      sload\n        /* \"contracts/Pasanaku.sol\":3611:3635  sala.numeroParticipantes */\n      0xff\n      swap1\n      swap2\n      and\n      gt\n        /* \"contracts/Pasanaku.sol\":3578:3655  if (sala.participantes.length >= sala.numeroParticipantes) revert SalaLlena() */\n      tag_242\n      jumpi\n        /* \"contracts/Pasanaku.sol\":3644:3655  SalaLlena() */\n      mload(0x40)\n      shl(0xe1, 0x09d05a93)\n      dup2\n      mstore\n      0x04\n      add\n      mload(0x40)\n      dup1\n      swap2\n      sub\n      swap1\n      revert\n        /* \"contracts/Pasanaku.sol\":3578:3655  if (sala.participantes.length >= sala.numeroParticipantes) revert SalaLlena() */\n    tag_242:\n        /* \"contracts/Pasanaku.sol\":3670:3690  sala.sorteoRealizado */\n      0x02\n      dup2\n      add\n      sload\n      shl(0x38, 0x01)\n      swap1\n      div\n      0xff\n      and\n        /* \"contracts/Pasanaku.sol\":3666:3718  if (sala.sorteoRealizado) revert SorteoYaRealizado() */\n      iszero\n      tag_243\n      jumpi\n        /* \"contracts/Pasanaku.sol\":3699:3718  SorteoYaRealizado() */\n      mload(0x40)\n      shl(0xe0, 0x4f992b6f)\n      dup2\n      mstore\n      0x04\n      add\n      mload(0x40)\n      dup1\n      swap2\n      sub\n      swap1\n      revert\n        /* \"contracts/Pasanaku.sol\":3666:3718  if (sala.sorteoRealizado) revert SorteoYaRealizado() */\n    tag_243:\n        /* \"contracts/Pasanaku.sol\":3733:3768  _esParticipante(hashId, msg.sender) */\n      tag_244\n        /* \"contracts/Pasanaku.sol\":3749:3755  hashId */\n      dup8\n      dup8\n        /* \"contracts/Pasanaku.sol\":3757:3767  msg.sender */\n      caller\n        /* \"contracts/Pasanaku.sol\":3733:3748  _esParticipante */\n      tag_245\n        /* \"contracts/Pasanaku.sol\":3733:3768  _esParticipante(hashId, msg.sender) */\n      jump\t// in\n    tag_244:\n        /* \"contracts/Pasanaku.sol\":3729:3795  if (_esParticipante(hashId, msg.sender)) revert YaEsParticipante() */\n      iszero\n      tag_246\n      jumpi\n        /* \"contracts/Pasanaku.sol\":3777:3795  YaEsParticipante() */\n      mload(0x40)\n      shl(0xe0, 0x95cc7033)\n      dup2\n      mstore\n      0x04\n      add\n      mload(0x40)\n      dup1\n      swap2\n      sub\n      swap1\n      revert\n        /* \"contracts/Pasanaku.sol\":3729:3795  if (_esParticipante(hashId, msg.sender)) revert YaEsParticipante() */\n    tag_246:\n        /* \"contracts/Pasanaku.sol\":3832:3991  Participante({... */\n      0x40\n      dup1\n      mload\n      0x80\n      dup2\n      add\n      dup3\n      mstore\n        /* \"contracts/Pasanaku.sol\":3868:3878  msg.sender */\n      caller\n        /* \"contracts/Pasanaku.sol\":3832:3991  Participante({... */\n      dup1\n      dup3\n      mstore\n      0x00\n      0x20\n      dup1\n      dup5\n      add\n      dup3\n      dup2\n      mstore\n      dup5\n      dup7\n      add\n      dup4\n      dup2\n      mstore\n      0x60\n      dup7\n      add\n      dup5\n      dup2\n      mstore\n        /* \"contracts/Pasanaku.sol\":3808:3826  sala.participantes */\n      0x05\n      dup10\n      add\n        /* \"contracts/Pasanaku.sol\":3808:3992  sala.participantes.push(Participante({... */\n      dup1\n      sload\n        /* \"contracts/Pasanaku.sol\":3832:3991  Participante({... */\n      0x01\n        /* \"contracts/Pasanaku.sol\":3808:3992  sala.participantes.push(Participante({... */\n      dup1\n      dup3\n      add\n      dup4\n      sstore\n      swap2\n      dup8\n      mstore\n      dup6\n      dup8\n      keccak256\n      swap9\n      mload\n      swap9\n      add\n      dup1\n      sload\n      swap5\n      mload\n      swap4\n      mload\n      swap3\n      mload\n      iszero\n      iszero\n      shl(0xb0, 0x01)\n      mul\n      not(shl(0xb0, 0xff))\n      swap4\n      iszero\n      iszero\n      shl(0xa8, 0x01)\n      mul\n      swap4\n      swap1\n      swap4\n      and\n      not(shl(0xa8, 0xffff))\n        /* \"contracts/Pasanaku.sol\":3832:3991  Participante({... */\n      0xff\n        /* \"contracts/Pasanaku.sol\":3808:3992  sala.participantes.push(Participante({... */\n      swap1\n      swap6\n      and\n      shl(0xa0, 0x01)\n      mul\n      not(sub(shl(0xa8, 0x01), 0x01))\n      swap1\n      swap7\n      and\n      sub(shl(0xa0, 0x01), 0x01)\n      swap1\n      swap11\n      and\n      swap10\n      swap1\n      swap10\n      or\n      swap5\n      swap1\n      swap5\n      or\n      swap3\n      swap1\n      swap3\n      and\n      swap7\n      swap1\n      swap7\n      or\n      swap6\n      swap1\n      swap6\n      or\n      swap1\n      sstore\n        /* \"contracts/Pasanaku.sol\":4005:4029  salasUsuario[msg.sender] */\n      swap2\n      dup2\n      mstore\n      dup3\n      dup3\n      mstore\n      swap3\n      dup4\n      keccak256\n        /* \"contracts/Pasanaku.sol\":4005:4042  salasUsuario[msg.sender].push(hashId) */\n      dup1\n      sload\n      swap3\n      dup4\n      add\n      dup2\n      sstore\n      dup4\n      mstore\n      swap1\n      swap2\n      keccak256\n      add\n      tag_249\n        /* \"contracts/Pasanaku.sol\":4035:4041  hashId */\n      dup8\n      dup10\n        /* \"contracts/Pasanaku.sol\":4005:4042  salasUsuario[msg.sender].push(hashId) */\n      dup4\n      tag_223\n      jump\t// in\n    tag_249:\n      pop\n        /* \"contracts/Pasanaku.sol\":4058:4095  ParticipanteUnido(hashId, msg.sender) */\n      mload(0x40)\n        /* \"contracts/Pasanaku.sol\":4084:4094  msg.sender */\n      caller\n      swap1\n        /* \"contracts/Pasanaku.sol\":4058:4095  ParticipanteUnido(hashId, msg.sender) */\n      tag_250\n      swap1\n        /* \"contracts/Pasanaku.sol\":4076:4082  hashId */\n      dup10\n      swap1\n      dup10\n      swap1\n        /* \"contracts/Pasanaku.sol\":4058:4095  ParticipanteUnido(hashId, msg.sender) */\n      tag_89\n      jump\t// in\n    tag_250:\n      mload(0x40)\n      swap1\n      dup2\n      swap1\n      sub\n      dup2\n      keccak256\n      swap1\n      0xff26e55e4141a40652551f6deb99ad6a479802fea36b667695053604b4550461\n      swap1\n      0x00\n      swap1\n      log3\n        /* \"contracts/Pasanaku.sol\":3460:4103  {... */\n      pop\n        /* \"contracts/Pasanaku.sol\":2039:2040  _ */\n      pop\n      pop\n        /* \"contracts/Pasanaku.sol\":3368:4103  function unirseASala(string calldata hashId) external salaExiste(hashId) salaActiva(hashId) {... */\n      pop\n      pop\n      pop\n      pop\n      jump\t// out\n        /* \"contracts/Pasanaku.sol\":9044:9229  function obtenerPendienteRetiro(string calldata hashId, address usuario) external view salaExiste(hashId) returns (uint) {... */\n    tag_78:\n        /* \"contracts/Pasanaku.sol\":9159:9163  uint */\n      0x00\n        /* \"contracts/Pasanaku.sol\":9142:9148  hashId */\n      dup4\n      dup4\n        /* \"contracts/Pasanaku.sol\":2003:2004  0 */\n      0x00\n      sub(shl(0xa0, 0x01), 0x01)\n        /* \"contracts/Pasanaku.sol\":1966:2005  salas[hashId].organizador == address(0) */\n      and\n        /* \"contracts/Pasanaku.sol\":1966:1971  salas */\n      0x00\n        /* \"contracts/Pasanaku.sol\":1972:1978  hashId */\n      dup4\n      dup4\n        /* \"contracts/Pasanaku.sol\":1966:1979  salas[hashId] */\n      mload(0x40)\n      tag_252\n      swap3\n      swap2\n      swap1\n      tag_89\n      jump\t// in\n    tag_252:\n      swap1\n      dup2\n      mstore\n      mload(0x40)\n      swap1\n      dup2\n      swap1\n      sub\n      0x20\n      add\n      swap1\n      keccak256\n        /* \"contracts/Pasanaku.sol\":1966:1991  salas[hashId].organizador */\n      sload\n      sub(shl(0xa0, 0x01), 0x01)\n      and\n        /* \"contracts/Pasanaku.sol\":1966:2005  salas[hashId].organizador == address(0) */\n      sub\n        /* \"contracts/Pasanaku.sol\":1962:2028  if (salas[hashId].organizador == address(0)) revert SalaNoExiste() */\n      tag_253\n      jumpi\n        /* \"contracts/Pasanaku.sol\":2014:2028  SalaNoExiste() */\n      mload(0x40)\n      shl(0xe1, 0x05e3033b)\n      dup2\n      mstore\n      0x04\n      add\n      mload(0x40)\n      dup1\n      swap2\n      sub\n      swap1\n      revert\n        /* \"contracts/Pasanaku.sol\":1962:2028  if (salas[hashId].organizador == address(0)) revert SalaNoExiste() */\n    tag_253:\n        /* \"contracts/Pasanaku.sol\":9183:9188  salas */\n      0x00\n        /* \"contracts/Pasanaku.sol\":9189:9195  hashId */\n      dup7\n      dup7\n        /* \"contracts/Pasanaku.sol\":9183:9196  salas[hashId] */\n      mload(0x40)\n      tag_255\n      swap3\n      swap2\n      swap1\n      tag_89\n      jump\t// in\n    tag_255:\n      swap1\n      dup2\n      mstore\n      0x20\n      add\n      mload(0x40)\n      dup1\n      swap2\n      sub\n      swap1\n      keccak256\n        /* \"contracts/Pasanaku.sol\":9183:9212  salas[hashId].pendienteRetiro */\n      0x07\n      add\n        /* \"contracts/Pasanaku.sol\":9183:9221  salas[hashId].pendienteRetiro[usuario] */\n      0x00\n        /* \"contracts/Pasanaku.sol\":9213:9220  usuario */\n      dup6\n      sub(shl(0xa0, 0x01), 0x01)\n        /* \"contracts/Pasanaku.sol\":9183:9221  salas[hashId].pendienteRetiro[usuario] */\n      and\n      sub(shl(0xa0, 0x01), 0x01)\n      and\n      dup2\n      mstore\n      0x20\n      add\n      swap1\n      dup2\n      mstore\n      0x20\n      add\n      0x00\n      keccak256\n      sload\n        /* \"contracts/Pasanaku.sol\":9176:9221  return salas[hashId].pendienteRetiro[usuario] */\n      swap3\n      pop\n        /* \"contracts/Pasanaku.sol\":9044:9229  function obtenerPendienteRetiro(string calldata hashId, address usuario) external view salaExiste(hashId) returns (uint) {... */\n      pop\n      pop\n      swap4\n      swap3\n      pop\n      pop\n      pop\n      jump\t// out\n        /* \"contracts/Pasanaku.sol\":8219:8536  function obtenerSala(string calldata hashId) external view salaExiste(hashId) returns (... */\n    tag_84:\n        /* \"contracts/Pasanaku.sol\":8316:8323  address */\n      0x00\n        /* \"contracts/Pasanaku.sol\":8325:8329  uint */\n      0x00\n        /* \"contracts/Pasanaku.sol\":8331:8336  uint8 */\n      0x00\n        /* \"contracts/Pasanaku.sol\":8338:8343  uint8 */\n      0x00\n        /* \"contracts/Pasanaku.sol\":8345:8349  bool */\n      0x00\n        /* \"contracts/Pasanaku.sol\":8351:8355  bool */\n      0x00\n        /* \"contracts/Pasanaku.sol\":8289:8295  hashId */\n      dup8\n      dup8\n        /* \"contracts/Pasanaku.sol\":2003:2004  0 */\n      0x00\n      sub(shl(0xa0, 0x01), 0x01)\n        /* \"contracts/Pasanaku.sol\":1966:2005  salas[hashId].organizador == address(0) */\n      and\n        /* \"contracts/Pasanaku.sol\":1966:1971  salas */\n      0x00\n        /* \"contracts/Pasanaku.sol\":1972:1978  hashId */\n      dup4\n      dup4\n        /* \"contracts/Pasanaku.sol\":1966:1979  salas[hashId] */\n      mload(0x40)\n      tag_257\n      swap3\n      swap2\n      swap1\n      tag_89\n      jump\t// in\n    tag_257:\n      swap1\n      dup2\n      mstore\n      mload(0x40)\n      swap1\n      dup2\n      swap1\n      sub\n      0x20\n      add\n      swap1\n      keccak256\n        /* \"contracts/Pasanaku.sol\":1966:1991  salas[hashId].organizador */\n      sload\n      sub(shl(0xa0, 0x01), 0x01)\n      and\n        /* \"contracts/Pasanaku.sol\":1966:2005  salas[hashId].organizador == address(0) */\n      sub\n        /* \"contracts/Pasanaku.sol\":1962:2028  if (salas[hashId].organizador == address(0)) revert SalaNoExiste() */\n      tag_258\n      jumpi\n        /* \"contracts/Pasanaku.sol\":2014:2028  SalaNoExiste() */\n      mload(0x40)\n      shl(0xe1, 0x05e3033b)\n      dup2\n      mstore\n      0x04\n      add\n      mload(0x40)\n      dup1\n      swap2\n      sub\n      swap1\n      revert\n        /* \"contracts/Pasanaku.sol\":1962:2028  if (salas[hashId].organizador == address(0)) revert SalaNoExiste() */\n    tag_258:\n        /* \"contracts/Pasanaku.sol\":8374:8388  Sala storage s */\n      0x00\n        /* \"contracts/Pasanaku.sol\":8391:8396  salas */\n      0x00\n        /* \"contracts/Pasanaku.sol\":8397:8403  hashId */\n      dup12\n      dup12\n        /* \"contracts/Pasanaku.sol\":8391:8404  salas[hashId] */\n      mload(0x40)\n      tag_260\n      swap3\n      swap2\n      swap1\n      tag_89\n      jump\t// in\n    tag_260:\n      swap1\n      dup2\n      mstore\n      mload(0x40)\n      swap1\n      dup2\n      swap1\n      sub\n      0x20\n      add\n      swap1\n      keccak256\n        /* \"contracts/Pasanaku.sol\":8423:8436  s.organizador */\n      dup1\n      sload\n      0x01\n        /* \"contracts/Pasanaku.sol\":8438:8452  s.montoAportar */\n      dup3\n      add\n      sload\n        /* \"contracts/Pasanaku.sol\":8454:8475  s.numeroParticipantes */\n      0x02\n      swap1\n      swap3\n      add\n      sload\n      sub(shl(0xa0, 0x01), 0x01)\n        /* \"contracts/Pasanaku.sol\":8423:8436  s.organizador */\n      swap1\n      swap2\n      and\n      swap14\n        /* \"contracts/Pasanaku.sol\":8438:8452  s.montoAportar */\n      swap2\n      swap13\n      pop\n        /* \"contracts/Pasanaku.sol\":8454:8475  s.numeroParticipantes */\n      0xff\n      dup1\n      dup3\n      and\n      swap13\n      pop\n        /* \"contracts/Pasanaku.sol\":8423:8436  s.organizador */\n      0x0100\n        /* \"contracts/Pasanaku.sol\":8477:8490  s.rondaActual */\n      dup3\n      div\n      dup2\n      and\n      swap12\n      pop\n      shl(0x30, 0x01)\n        /* \"contracts/Pasanaku.sol\":8492:8508  s.salaFinalizada */\n      dup3\n      div\n      dup2\n      and\n      swap11\n      pop\n      shl(0x38, 0x01)\n        /* \"contracts/Pasanaku.sol\":8510:8527  s.sorteoRealizado */\n      swap1\n      swap2\n      div\n      and\n      swap8\n      pop\n        /* \"contracts/Pasanaku.sol\":8423:8436  s.organizador */\n      swap6\n      pop\n      pop\n      pop\n      pop\n      pop\n      pop\n        /* \"contracts/Pasanaku.sol\":8219:8536  function obtenerSala(string calldata hashId) external view salaExiste(hashId) returns (... */\n      jump\t// out\n        /* \"contracts/Pasanaku.sol\":10048:10399  function _obtenerIndiceParticipante(string calldata hashId, address wallet) private view returns (uint) {... */\n    tag_149:\n        /* \"contracts/Pasanaku.sol\":10146:10150  uint */\n      0x00\n        /* \"contracts/Pasanaku.sol\":10163:10199  Participante[] storage participantes */\n      0x00\n        /* \"contracts/Pasanaku.sol\":10202:10207  salas */\n      0x00\n        /* \"contracts/Pasanaku.sol\":10208:10214  hashId */\n      dup6\n      dup6\n        /* \"contracts/Pasanaku.sol\":10202:10215  salas[hashId] */\n      mload(0x40)\n      tag_262\n      swap3\n      swap2\n      swap1\n      tag_89\n      jump\t// in\n    tag_262:\n      swap1\n      dup2\n      mstore\n      mload(0x40)\n      swap1\n      dup2\n      swap1\n      sub\n      0x20\n      add\n      swap1\n      keccak256\n        /* \"contracts/Pasanaku.sol\":10202:10229  salas[hashId].participantes */\n      0x05\n      add\n      swap1\n      pop\n        /* \"contracts/Pasanaku.sol\":10245:10251  uint i */\n      0x00\n        /* \"contracts/Pasanaku.sol\":10240:10362  for (uint i = 0; i < participantes.length; i++) {... */\n    tag_263:\n        /* \"contracts/Pasanaku.sol\":10261:10281  participantes.length */\n      dup2\n      sload\n        /* \"contracts/Pasanaku.sol\":10257:10281  i < participantes.length */\n      dup2\n      lt\n        /* \"contracts/Pasanaku.sol\":10240:10362  for (uint i = 0; i < participantes.length; i++) {... */\n      iszero\n      tag_264\n      jumpi\n        /* \"contracts/Pasanaku.sol\":10334:10340  wallet */\n      dup4\n      sub(shl(0xa0, 0x01), 0x01)\n        /* \"contracts/Pasanaku.sol\":10307:10340  participantes[i].wallet == wallet */\n      and\n        /* \"contracts/Pasanaku.sol\":10307:10320  participantes */\n      dup3\n        /* \"contracts/Pasanaku.sol\":10321:10322  i */\n      dup3\n        /* \"contracts/Pasanaku.sol\":10307:10323  participantes[i] */\n      dup2\n      sload\n      dup2\n      lt\n      tag_267\n      jumpi\n      tag_267\n      tag_106\n      jump\t// in\n    tag_267:\n      0x00\n      swap2\n      dup3\n      mstore\n      0x20\n      swap1\n      swap2\n      keccak256\n      add\n        /* \"contracts/Pasanaku.sol\":10307:10330  participantes[i].wallet */\n      sload\n      sub(shl(0xa0, 0x01), 0x01)\n      and\n        /* \"contracts/Pasanaku.sol\":10307:10340  participantes[i].wallet == wallet */\n      sub\n        /* \"contracts/Pasanaku.sol\":10303:10350  if (participantes[i].wallet == wallet) return i */\n      tag_269\n      jumpi\n        /* \"contracts/Pasanaku.sol\":10349:10350  i */\n      swap2\n      pop\n        /* \"contracts/Pasanaku.sol\":10342:10350  return i */\n      tag_261\n      swap1\n      pop\n      jump\n        /* \"contracts/Pasanaku.sol\":10303:10350  if (participantes[i].wallet == wallet) return i */\n    tag_269:\n        /* \"contracts/Pasanaku.sol\":10283:10286  i++ */\n      0x01\n      add\n        /* \"contracts/Pasanaku.sol\":10240:10362  for (uint i = 0; i < participantes.length; i++) {... */\n      jump(tag_263)\n    tag_264:\n      pop\n        /* \"contracts/Pasanaku.sol\":10379:10391  NoInvitado() */\n      mload(0x40)\n      shl(0xe1, 0x7b41a587)\n      dup2\n      mstore\n      0x04\n      add\n      mload(0x40)\n      dup1\n      swap2\n      sub\n      swap1\n      revert\n        /* \"contracts/Pasanaku.sol\":10048:10399  function _obtenerIndiceParticipante(string calldata hashId, address wallet) private view returns (uint) {... */\n    tag_261:\n      swap4\n      swap3\n      pop\n      pop\n      pop\n      jump\t// out\n        /* \"contracts/Pasanaku.sol\":10407:10735  function _todosHanAportado(string calldata hashId) private view returns (bool) {... */\n    tag_163:\n        /* \"contracts/Pasanaku.sol\":10480:10484  bool */\n      0x00\n        /* \"contracts/Pasanaku.sol\":10497:10533  Participante[] storage participantes */\n      0x00\n        /* \"contracts/Pasanaku.sol\":10536:10541  salas */\n      0x00\n        /* \"contracts/Pasanaku.sol\":10542:10548  hashId */\n      dup5\n      dup5\n        /* \"contracts/Pasanaku.sol\":10536:10549  salas[hashId] */\n      mload(0x40)\n      tag_271\n      swap3\n      swap2\n      swap1\n      tag_89\n      jump\t// in\n    tag_271:\n      swap1\n      dup2\n      mstore\n      mload(0x40)\n      swap1\n      dup2\n      swap1\n      sub\n      0x20\n      add\n      swap1\n      keccak256\n        /* \"contracts/Pasanaku.sol\":10536:10563  salas[hashId].participantes */\n      0x05\n      add\n      swap1\n      pop\n        /* \"contracts/Pasanaku.sol\":10579:10585  uint i */\n      0x00\n        /* \"contracts/Pasanaku.sol\":10574:10706  for (uint i = 0; i < participantes.length; i++) {... */\n    tag_272:\n        /* \"contracts/Pasanaku.sol\":10595:10615  participantes.length */\n      dup2\n      sload\n        /* \"contracts/Pasanaku.sol\":10591:10615  i < participantes.length */\n      dup2\n      lt\n        /* \"contracts/Pasanaku.sol\":10574:10706  for (uint i = 0; i < participantes.length; i++) {... */\n      iszero\n      tag_273\n      jumpi\n        /* \"contracts/Pasanaku.sol\":10642:10655  participantes */\n      dup2\n        /* \"contracts/Pasanaku.sol\":10656:10657  i */\n      dup2\n        /* \"contracts/Pasanaku.sol\":10642:10658  participantes[i] */\n      dup2\n      sload\n      dup2\n      lt\n      tag_276\n      jumpi\n      tag_276\n      tag_106\n      jump\t// in\n    tag_276:\n      0x00\n      swap2\n      dup3\n      mstore\n      0x20\n      swap1\n      swap2\n      keccak256\n      add\n        /* \"contracts/Pasanaku.sol\":10642:10680  participantes[i].haAportadoRondaActual */\n      sload\n      shl(0xb0, 0x01)\n      swap1\n      div\n      0xff\n      and\n        /* \"contracts/Pasanaku.sol\":10637:10694  if (!participantes[i].haAportadoRondaActual) return false */\n      tag_278\n      jumpi\n        /* \"contracts/Pasanaku.sol\":10689:10694  false */\n      0x00\n        /* \"contracts/Pasanaku.sol\":10682:10694  return false */\n      swap3\n      pop\n      pop\n      pop\n      jump(tag_270)\n        /* \"contracts/Pasanaku.sol\":10637:10694  if (!participantes[i].haAportadoRondaActual) return false */\n    tag_278:\n        /* \"contracts/Pasanaku.sol\":10617:10620  i++ */\n      0x01\n      add\n        /* \"contracts/Pasanaku.sol\":10574:10706  for (uint i = 0; i < participantes.length; i++) {... */\n      jump(tag_272)\n    tag_273:\n      pop\n        /* \"contracts/Pasanaku.sol\":10723:10727  true */\n      0x01\n        /* \"contracts/Pasanaku.sol\":10716:10727  return true */\n      swap2\n      pop\n      pop\n        /* \"contracts/Pasanaku.sol\":10407:10735  function _todosHanAportado(string calldata hashId) private view returns (bool) {... */\n    tag_270:\n      swap3\n      swap2\n      pop\n      pop\n      jump\t// out\n        /* \"contracts/Pasanaku.sol\":6096:7251  function _procesarPago(string memory hashId) private {... */\n    tag_166:\n        /* \"contracts/Pasanaku.sol\":6160:6177  Sala storage sala */\n      0x00\n        /* \"contracts/Pasanaku.sol\":6180:6185  salas */\n      0x00\n        /* \"contracts/Pasanaku.sol\":6186:6192  hashId */\n      dup3\n        /* \"contracts/Pasanaku.sol\":6180:6193  salas[hashId] */\n      mload(0x40)\n      tag_280\n      swap2\n      swap1\n      tag_281\n      jump\t// in\n    tag_280:\n      swap1\n      dup2\n      mstore\n      mload(0x40)\n      swap1\n      dup2\n      swap1\n      sub\n      0x20\n      add\n      swap1\n      keccak256\n      swap1\n      pop\n        /* \"contracts/Pasanaku.sol\":6214:6234  address beneficiario */\n      0x00\n      dup1\n      dup1\n        /* \"contracts/Pasanaku.sol\":6278:6555  for (uint i = 0; i < sala.participantes.length; i++) {... */\n    tag_282:\n        /* \"contracts/Pasanaku.sol\":6299:6317  sala.participantes */\n      0x05\n      dup5\n      add\n        /* \"contracts/Pasanaku.sol\":6299:6324  sala.participantes.length */\n      sload\n        /* \"contracts/Pasanaku.sol\":6295:6324  i < sala.participantes.length */\n      dup2\n      lt\n        /* \"contracts/Pasanaku.sol\":6278:6555  for (uint i = 0; i < sala.participantes.length; i++) {... */\n      iszero\n      tag_283\n      jumpi\n        /* \"contracts/Pasanaku.sol\":6384:6388  sala */\n      dup4\n        /* \"contracts/Pasanaku.sol\":6384:6400  sala.rondaActual */\n      0x02\n      add\n      0x01\n      swap1\n      sload\n      swap1\n      0x0100\n      exp\n      swap1\n      div\n      0xff\n      and\n        /* \"contracts/Pasanaku.sol\":6350:6400  sala.participantes[i].numTurno == sala.rondaActual */\n      0xff\n      and\n        /* \"contracts/Pasanaku.sol\":6350:6354  sala */\n      dup5\n        /* \"contracts/Pasanaku.sol\":6350:6368  sala.participantes */\n      0x05\n      add\n        /* \"contracts/Pasanaku.sol\":6369:6370  i */\n      dup3\n        /* \"contracts/Pasanaku.sol\":6350:6371  sala.participantes[i] */\n      dup2\n      sload\n      dup2\n      lt\n      tag_286\n      jumpi\n      tag_286\n      tag_106\n      jump\t// in\n    tag_286:\n      0x00\n      swap2\n      dup3\n      mstore\n      0x20\n      swap1\n      swap2\n      keccak256\n      add\n        /* \"contracts/Pasanaku.sol\":6350:6380  sala.participantes[i].numTurno */\n      sload\n      shl(0xa0, 0x01)\n      swap1\n      div\n      0xff\n      and\n        /* \"contracts/Pasanaku.sol\":6350:6400  sala.participantes[i].numTurno == sala.rondaActual */\n      sub\n        /* \"contracts/Pasanaku.sol\":6346:6544  if (sala.participantes[i].numTurno == sala.rondaActual) {... */\n      tag_288\n      jumpi\n        /* \"contracts/Pasanaku.sol\":6436:6440  sala */\n      dup4\n        /* \"contracts/Pasanaku.sol\":6436:6454  sala.participantes */\n      0x05\n      add\n        /* \"contracts/Pasanaku.sol\":6455:6456  i */\n      dup2\n        /* \"contracts/Pasanaku.sol\":6436:6457  sala.participantes[i] */\n      dup2\n      sload\n      dup2\n      lt\n      tag_290\n      jumpi\n      tag_290\n      tag_106\n      jump\t// in\n    tag_290:\n      0x00\n      swap2\n      dup3\n      mstore\n      0x20\n      swap1\n      swap2\n      keccak256\n      add\n        /* \"contracts/Pasanaku.sol\":6436:6464  sala.participantes[i].wallet */\n      sload\n      sub(shl(0xa0, 0x01), 0x01)\n      and\n      swap3\n      pop\n        /* \"contracts/Pasanaku.sol\":6503:6504  i */\n      swap1\n      pop\n      dup1\n        /* \"contracts/Pasanaku.sol\":6523:6528  break */\n      jump(tag_283)\n        /* \"contracts/Pasanaku.sol\":6346:6544  if (sala.participantes[i].numTurno == sala.rondaActual) {... */\n    tag_288:\n        /* \"contracts/Pasanaku.sol\":6326:6329  i++ */\n      0x01\n      add\n        /* \"contracts/Pasanaku.sol\":6278:6555  for (uint i = 0; i < sala.participantes.length; i++) {... */\n      jump(tag_282)\n    tag_283:\n      pop\n        /* \"contracts/Pasanaku.sol\":6571:6575  sala */\n      dup3\n        /* \"contracts/Pasanaku.sol\":6571:6589  sala.participantes */\n      0x05\n      add\n        /* \"contracts/Pasanaku.sol\":6590:6607  beneficiarioIndex */\n      dup2\n        /* \"contracts/Pasanaku.sol\":6571:6608  sala.participantes[beneficiarioIndex] */\n      dup2\n      sload\n      dup2\n      lt\n      tag_293\n      jumpi\n      tag_293\n      tag_106\n      jump\t// in\n    tag_293:\n      0x00\n      swap2\n      dup3\n      mstore\n      0x20\n      swap1\n      swap2\n      keccak256\n      add\n        /* \"contracts/Pasanaku.sol\":6571:6619  sala.participantes[beneficiarioIndex].haRecibido */\n      sload\n      shl(0xa8, 0x01)\n      swap1\n      div\n      0xff\n      and\n        /* \"contracts/Pasanaku.sol\":6567:6639  if (sala.participantes[beneficiarioIndex].haRecibido) revert YaRecibio() */\n      iszero\n      tag_295\n      jumpi\n        /* \"contracts/Pasanaku.sol\":6628:6639  YaRecibio() */\n      mload(0x40)\n      shl(0xe0, 0x482590e5)\n      dup2\n      mstore\n      0x04\n      add\n      mload(0x40)\n      dup1\n      swap2\n      sub\n      swap1\n      revert\n        /* \"contracts/Pasanaku.sol\":6567:6639  if (sala.participantes[beneficiarioIndex].haRecibido) revert YaRecibio() */\n    tag_295:\n        /* \"contracts/Pasanaku.sol\":6652:6667  uint montoTotal */\n      0x00\n        /* \"contracts/Pasanaku.sol\":6670:6674  sala */\n      dup4\n        /* \"contracts/Pasanaku.sol\":6670:6693  sala.balanceRondaActual */\n      0x03\n      add\n      sload\n        /* \"contracts/Pasanaku.sol\":6652:6693  uint montoTotal = sala.balanceRondaActual */\n      swap1\n      pop\n        /* \"contracts/Pasanaku.sol\":6755:6759  true */\n      0x01\n        /* \"contracts/Pasanaku.sol\":6704:6708  sala */\n      dup5\n        /* \"contracts/Pasanaku.sol\":6704:6722  sala.participantes */\n      0x05\n      add\n        /* \"contracts/Pasanaku.sol\":6723:6740  beneficiarioIndex */\n      dup4\n        /* \"contracts/Pasanaku.sol\":6704:6741  sala.participantes[beneficiarioIndex] */\n      dup2\n      sload\n      dup2\n      lt\n      tag_297\n      jumpi\n      tag_297\n      tag_106\n      jump\t// in\n    tag_297:\n      0x00\n      swap2\n      dup3\n      mstore\n      0x20\n      dup1\n      dup4\n      keccak256\n      swap1\n      swap2\n      add\n        /* \"contracts/Pasanaku.sol\":6704:6759  sala.participantes[beneficiarioIndex].haRecibido = true */\n      dup1\n      sload\n      swap4\n      iszero\n      iszero\n      shl(0xa8, 0x01)\n      mul\n      not(shl(0xa8, 0xff))\n      swap1\n      swap5\n      and\n      swap4\n      swap1\n      swap4\n      or\n      swap1\n      swap3\n      sstore\n        /* \"contracts/Pasanaku.sol\":6770:6793  sala.balanceRondaActual */\n      0x03\n      dup7\n      add\n        /* \"contracts/Pasanaku.sol\":6770:6797  sala.balanceRondaActual = 0 */\n      dup2\n      swap1\n      sstore\n      sub(shl(0xa0, 0x01), 0x01)\n        /* \"contracts/Pasanaku.sol\":6818:6852  sala.pendienteRetiro[beneficiario] */\n      dup6\n      and\n      dup2\n      mstore\n        /* \"contracts/Pasanaku.sol\":6818:6838  sala.pendienteRetiro */\n      0x07\n      dup7\n      add\n        /* \"contracts/Pasanaku.sol\":6818:6852  sala.pendienteRetiro[beneficiario] */\n      swap1\n      swap2\n      mstore\n      0x40\n      dup2\n      keccak256\n        /* \"contracts/Pasanaku.sol\":6818:6866  sala.pendienteRetiro[beneficiario] += montoTotal */\n      dup1\n      sload\n        /* \"contracts/Pasanaku.sol\":6856:6866  montoTotal */\n      dup4\n      swap3\n        /* \"contracts/Pasanaku.sol\":6704:6741  sala.participantes[beneficiarioIndex] */\n      swap1\n        /* \"contracts/Pasanaku.sol\":6818:6866  sala.pendienteRetiro[beneficiario] += montoTotal */\n      tag_299\n      swap1\n        /* \"contracts/Pasanaku.sol\":6856:6866  montoTotal */\n      dup5\n      swap1\n        /* \"contracts/Pasanaku.sol\":6818:6866  sala.pendienteRetiro[beneficiario] += montoTotal */\n      tag_158\n      jump\t// in\n    tag_299:\n      swap3\n      pop\n      pop\n      dup2\n      swap1\n      sstore\n      pop\n        /* \"contracts/Pasanaku.sol\":6879:6883  sala */\n      dup4\n        /* \"contracts/Pasanaku.sol\":6879:6897  sala.transacciones */\n      0x06\n      add\n        /* \"contracts/Pasanaku.sol\":6903:7134  Transaccion({... */\n      mload(0x40)\n      dup1\n      0xc0\n      add\n      0x40\n      mstore\n      dup1\n        /* \"contracts/Pasanaku.sol\":6944:6948  this */\n      address\n      sub(shl(0xa0, 0x01), 0x01)\n        /* \"contracts/Pasanaku.sol\":6903:7134  Transaccion({... */\n      and\n      dup2\n      mstore\n      0x20\n      add\n        /* \"contracts/Pasanaku.sol\":6968:6980  beneficiario */\n      dup6\n      sub(shl(0xa0, 0x01), 0x01)\n        /* \"contracts/Pasanaku.sol\":6903:7134  Transaccion({... */\n      and\n      dup2\n      mstore\n      0x20\n      add\n        /* \"contracts/Pasanaku.sol\":7002:7012  montoTotal */\n      dup4\n        /* \"contracts/Pasanaku.sol\":6903:7134  Transaccion({... */\n      dup2\n      mstore\n      0x20\n      add\n        /* \"contracts/Pasanaku.sol\":7041:7056  block.timestamp */\n      timestamp\n        /* \"contracts/Pasanaku.sol\":6903:7134  Transaccion({... */\n      0xffffffff\n      and\n      dup2\n      mstore\n      0x20\n      add\n        /* \"contracts/Pasanaku.sol\":7079:7083  sala */\n      dup7\n        /* \"contracts/Pasanaku.sol\":7079:7095  sala.rondaActual */\n      0x02\n      add\n      0x01\n      swap1\n      sload\n      swap1\n      0x0100\n      exp\n      swap1\n      div\n      0xff\n      and\n        /* \"contracts/Pasanaku.sol\":6903:7134  Transaccion({... */\n      0xff\n      and\n      dup2\n      mstore\n      0x20\n      add\n        /* \"contracts/Pasanaku.sol\":7118:7122  true */\n      0x01\n        /* \"contracts/Pasanaku.sol\":6903:7134  Transaccion({... */\n      iszero\n      iszero\n      dup2\n      mstore\n      pop\n        /* \"contracts/Pasanaku.sol\":6879:7135  sala.transacciones.push(Transaccion({... */\n      swap1\n      dup1\n      0x01\n      dup2\n      sload\n      add\n      dup1\n      dup3\n      sstore\n      dup1\n      swap2\n      pop\n      pop\n      0x01\n      swap1\n      sub\n      swap1\n      0x00\n      mstore\n      keccak256(0x00, 0x20)\n      swap1\n      0x04\n      mul\n      add\n      0x00\n      swap1\n      swap2\n      swap1\n      swap2\n      swap1\n      swap2\n      pop\n      0x00\n      dup3\n      add\n      mload\n      dup2\n      0x00\n      add\n      exp(0x0100, 0x00)\n      dup2\n      sload\n      dup2\n      sub(shl(0xa0, 0x01), 0x01)\n      mul\n      not\n      and\n      swap1\n      dup4\n      sub(shl(0xa0, 0x01), 0x01)\n      and\n      mul\n      or\n      swap1\n      sstore\n      pop\n      0x20\n      dup3\n      add\n      mload\n      dup2\n      0x01\n      add\n      exp(0x0100, 0x00)\n      dup2\n      sload\n      dup2\n      sub(shl(0xa0, 0x01), 0x01)\n      mul\n      not\n      and\n      swap1\n      dup4\n      sub(shl(0xa0, 0x01), 0x01)\n      and\n      mul\n      or\n      swap1\n      sstore\n      pop\n      0x40\n      dup3\n      add\n      mload\n      dup2\n      0x02\n      add\n      sstore\n      0x60\n      dup3\n      add\n      mload\n      dup2\n      0x03\n      add\n      exp(0x0100, 0x00)\n      dup2\n      sload\n      dup2\n      0xffffffff\n      mul\n      not\n      and\n      swap1\n      dup4\n      0xffffffff\n      and\n      mul\n      or\n      swap1\n      sstore\n      pop\n      0x80\n      dup3\n      add\n      mload\n      dup2\n      0x03\n      add\n      exp(0x0100, 0x04)\n      dup2\n      sload\n      dup2\n      0xff\n      mul\n      not\n      and\n      swap1\n      dup4\n      0xff\n      and\n      mul\n      or\n      swap1\n      sstore\n      pop\n      0xa0\n      dup3\n      add\n      mload\n      dup2\n      0x03\n      add\n      exp(0x0100, 0x05)\n      dup2\n      sload\n      dup2\n      0xff\n      mul\n      not\n      and\n      swap1\n      dup4\n      iszero\n      iszero\n      mul\n      or\n      swap1\n      sstore\n      pop\n      pop\n      pop\n        /* \"contracts/Pasanaku.sol\":7176:7188  beneficiario */\n      dup3\n      sub(shl(0xa0, 0x01), 0x01)\n        /* \"contracts/Pasanaku.sol\":7153:7201  PagoDisponible(hashId, beneficiario, montoTotal) */\n      and\n        /* \"contracts/Pasanaku.sol\":7168:7174  hashId */\n      dup6\n        /* \"contracts/Pasanaku.sol\":7153:7201  PagoDisponible(hashId, beneficiario, montoTotal) */\n      mload(0x40)\n      tag_301\n      swap2\n      swap1\n      tag_281\n      jump\t// in\n    tag_301:\n      mload(0x40)\n      swap1\n      dup2\n      swap1\n      sub\n      dup2\n      keccak256\n        /* \"#utility.yul\":6941:6966   */\n      dup4\n      dup3\n      mstore\n        /* \"contracts/Pasanaku.sol\":7153:7201  PagoDisponible(hashId, beneficiario, montoTotal) */\n      swap1\n      0x218ced6c72c30727cfef716340083e153116147ccb1a6e4c57a923dc87577af5\n      swap1\n        /* \"#utility.yul\":6929:6931   */\n      0x20\n        /* \"#utility.yul\":6914:6932   */\n      add\n        /* \"contracts/Pasanaku.sol\":7153:7201  PagoDisponible(hashId, beneficiario, montoTotal) */\n      mload(0x40)\n      dup1\n      swap2\n      sub\n      swap1\n      log3\n        /* \"contracts/Pasanaku.sol\":7212:7243  _prepararSiguienteRonda(hashId) */\n      tag_303\n        /* \"contracts/Pasanaku.sol\":7236:7242  hashId */\n      dup6\n        /* \"contracts/Pasanaku.sol\":7212:7235  _prepararSiguienteRonda */\n      tag_304\n        /* \"contracts/Pasanaku.sol\":7212:7243  _prepararSiguienteRonda(hashId) */\n      jump\t// in\n    tag_303:\n        /* \"contracts/Pasanaku.sol\":6149:7251  {... */\n      pop\n      pop\n      pop\n      pop\n        /* \"contracts/Pasanaku.sol\":6096:7251  function _procesarPago(string memory hashId) private {... */\n      pop\n      jump\t// out\n        /* \"contracts/Pasanaku.sol\":9704:10040  function _esParticipante(string calldata hashId, address wallet) private view returns (bool) {... */\n    tag_245:\n        /* \"contracts/Pasanaku.sol\":9791:9795  bool */\n      0x00\n        /* \"contracts/Pasanaku.sol\":9808:9844  Participante[] storage participantes */\n      0x00\n        /* \"contracts/Pasanaku.sol\":9847:9852  salas */\n      0x00\n        /* \"contracts/Pasanaku.sol\":9853:9859  hashId */\n      dup6\n      dup6\n        /* \"contracts/Pasanaku.sol\":9847:9860  salas[hashId] */\n      mload(0x40)\n      tag_306\n      swap3\n      swap2\n      swap1\n      tag_89\n      jump\t// in\n    tag_306:\n      swap1\n      dup2\n      mstore\n      mload(0x40)\n      swap1\n      dup2\n      swap1\n      sub\n      0x20\n      add\n      swap1\n      keccak256\n        /* \"contracts/Pasanaku.sol\":9847:9874  salas[hashId].participantes */\n      0x05\n      add\n      swap1\n      pop\n        /* \"contracts/Pasanaku.sol\":9890:9896  uint i */\n      0x00\n        /* \"contracts/Pasanaku.sol\":9885:10010  for (uint i = 0; i < participantes.length; i++) {... */\n    tag_307:\n        /* \"contracts/Pasanaku.sol\":9906:9926  participantes.length */\n      dup2\n      sload\n        /* \"contracts/Pasanaku.sol\":9902:9926  i < participantes.length */\n      dup2\n      lt\n        /* \"contracts/Pasanaku.sol\":9885:10010  for (uint i = 0; i < participantes.length; i++) {... */\n      iszero\n      tag_308\n      jumpi\n        /* \"contracts/Pasanaku.sol\":9979:9985  wallet */\n      dup4\n      sub(shl(0xa0, 0x01), 0x01)\n        /* \"contracts/Pasanaku.sol\":9952:9985  participantes[i].wallet == wallet */\n      and\n        /* \"contracts/Pasanaku.sol\":9952:9965  participantes */\n      dup3\n        /* \"contracts/Pasanaku.sol\":9966:9967  i */\n      dup3\n        /* \"contracts/Pasanaku.sol\":9952:9968  participantes[i] */\n      dup2\n      sload\n      dup2\n      lt\n      tag_311\n      jumpi\n      tag_311\n      tag_106\n      jump\t// in\n    tag_311:\n      0x00\n      swap2\n      dup3\n      mstore\n      0x20\n      swap1\n      swap2\n      keccak256\n      add\n        /* \"contracts/Pasanaku.sol\":9952:9975  participantes[i].wallet */\n      sload\n      sub(shl(0xa0, 0x01), 0x01)\n      and\n        /* \"contracts/Pasanaku.sol\":9952:9985  participantes[i].wallet == wallet */\n      sub\n        /* \"contracts/Pasanaku.sol\":9948:9998  if (participantes[i].wallet == wallet) return true */\n      tag_313\n      jumpi\n        /* \"contracts/Pasanaku.sol\":9994:9998  true */\n      0x01\n        /* \"contracts/Pasanaku.sol\":9987:9998  return true */\n      swap3\n      pop\n      pop\n      pop\n      jump(tag_261)\n        /* \"contracts/Pasanaku.sol\":9948:9998  if (participantes[i].wallet == wallet) return true */\n    tag_313:\n        /* \"contracts/Pasanaku.sol\":9928:9931  i++ */\n      0x01\n      add\n        /* \"contracts/Pasanaku.sol\":9885:10010  for (uint i = 0; i < participantes.length; i++) {... */\n      jump(tag_307)\n    tag_308:\n      pop\n        /* \"contracts/Pasanaku.sol\":10027:10032  false */\n      0x00\n      swap6\n        /* \"contracts/Pasanaku.sol\":9704:10040  function _esParticipante(string calldata hashId, address wallet) private view returns (bool) {... */\n      swap5\n      pop\n      pop\n      pop\n      pop\n      pop\n      jump\t// out\n        /* \"contracts/Pasanaku.sol\":7749:8181  function _prepararSiguienteRonda(string memory hashId) private {... */\n    tag_304:\n        /* \"contracts/Pasanaku.sol\":7823:7840  Sala storage sala */\n      0x00\n        /* \"contracts/Pasanaku.sol\":7843:7848  salas */\n      0x00\n        /* \"contracts/Pasanaku.sol\":7849:7855  hashId */\n      dup3\n        /* \"contracts/Pasanaku.sol\":7843:7856  salas[hashId] */\n      mload(0x40)\n      tag_315\n      swap2\n      swap1\n      tag_281\n      jump\t// in\n    tag_315:\n      swap1\n      dup2\n      mstore\n      mload(0x40)\n      swap1\n      dup2\n      swap1\n      sub\n      0x20\n      add\n      swap1\n      keccak256\n      swap1\n      pop\n        /* \"contracts/Pasanaku.sol\":7882:7888  uint i */\n      0x00\n        /* \"contracts/Pasanaku.sol\":7877:8008  for (uint i = 0; i < sala.participantes.length; i++) {... */\n    tag_316:\n        /* \"contracts/Pasanaku.sol\":7898:7916  sala.participantes */\n      0x05\n      dup3\n      add\n        /* \"contracts/Pasanaku.sol\":7898:7923  sala.participantes.length */\n      sload\n        /* \"contracts/Pasanaku.sol\":7894:7923  i < sala.participantes.length */\n      dup2\n      lt\n        /* \"contracts/Pasanaku.sol\":7877:8008  for (uint i = 0; i < sala.participantes.length; i++) {... */\n      iszero\n      tag_317\n      jumpi\n        /* \"contracts/Pasanaku.sol\":7991:7996  false */\n      0x00\n        /* \"contracts/Pasanaku.sol\":7945:7949  sala */\n      dup3\n        /* \"contracts/Pasanaku.sol\":7945:7963  sala.participantes */\n      0x05\n      add\n        /* \"contracts/Pasanaku.sol\":7964:7965  i */\n      dup3\n        /* \"contracts/Pasanaku.sol\":7945:7966  sala.participantes[i] */\n      dup2\n      sload\n      dup2\n      lt\n      tag_320\n      jumpi\n      tag_320\n      tag_106\n      jump\t// in\n    tag_320:\n      0x00\n      swap2\n      dup3\n      mstore\n      0x20\n      swap1\n      swap2\n      keccak256\n      add\n        /* \"contracts/Pasanaku.sol\":7945:7996  sala.participantes[i].haAportadoRondaActual = false */\n      dup1\n      sload\n      swap2\n      iszero\n      iszero\n      shl(0xb0, 0x01)\n      mul\n      not(shl(0xb0, 0xff))\n      swap1\n      swap3\n      and\n      swap2\n      swap1\n      swap2\n      or\n      swap1\n      sstore\n      0x01\n        /* \"contracts/Pasanaku.sol\":7925:7928  i++ */\n      add\n        /* \"contracts/Pasanaku.sol\":7877:8008  for (uint i = 0; i < sala.participantes.length; i++) {... */\n      jump(tag_316)\n    tag_317:\n      pop\n        /* \"contracts/Pasanaku.sol\":8044:8068  sala.numeroParticipantes */\n      0x02\n      dup2\n      add\n      sload\n      0xff\n      dup1\n      dup3\n      and\n      0x0100\n        /* \"contracts/Pasanaku.sol\":8024:8040  sala.rondaActual */\n      swap1\n      swap3\n      div\n      and\n        /* \"contracts/Pasanaku.sol\":8024:8068  sala.rondaActual >= sala.numeroParticipantes */\n      lt\n        /* \"contracts/Pasanaku.sol\":8020:8174  if (sala.rondaActual >= sala.numeroParticipantes) {... */\n      tag_322\n      jumpi\n        /* \"contracts/Pasanaku.sol\":8085:8104  sala.salaFinalizada */\n      0x02\n      dup2\n      add\n        /* \"contracts/Pasanaku.sol\":8085:8111  sala.salaFinalizada = true */\n      dup1\n      sload\n      not(0xff000000000000)\n      and\n      shl(0x30, 0x01)\n      or\n      swap1\n      sstore\n        /* \"contracts/Pasanaku.sol\":7812:8181  {... */\n      pop\n        /* \"contracts/Pasanaku.sol\":7749:8181  function _prepararSiguienteRonda(string memory hashId) private {... */\n      pop\n      jump\t// out\n        /* \"contracts/Pasanaku.sol\":8020:8174  if (sala.rondaActual >= sala.numeroParticipantes) {... */\n    tag_322:\n        /* \"contracts/Pasanaku.sol\":8144:8160  sala.rondaActual */\n      0x02\n      dup2\n      add\n        /* \"contracts/Pasanaku.sol\":8144:8162  sala.rondaActual++ */\n      dup1\n      sload\n      0x0100\n      swap1\n      div\n      0xff\n      and\n      swap1\n        /* \"contracts/Pasanaku.sol\":8144:8160  sala.rondaActual */\n      0x01\n        /* \"contracts/Pasanaku.sol\":8144:8162  sala.rondaActual++ */\n      tag_324\n      dup4\n      tag_325\n      jump\t// in\n    tag_324:\n      swap2\n      swap1\n      0x0100\n      exp\n      dup2\n      sload\n      dup2\n      0xff\n      mul\n      not\n      and\n      swap1\n      dup4\n      0xff\n      and\n      mul\n      or\n      swap1\n      sstore\n      pop\n      pop\n        /* \"contracts/Pasanaku.sol\":7812:8181  {... */\n      pop\n        /* \"contracts/Pasanaku.sol\":7749:8181  function _prepararSiguienteRonda(string memory hashId) private {... */\n      pop\n      jump\t// out\n        /* \"#utility.yul\":14:362   */\n    tag_326:\n        /* \"#utility.yul\":66:74   */\n      0x00\n        /* \"#utility.yul\":76:82   */\n      0x00\n        /* \"#utility.yul\":130:133   */\n      dup4\n        /* \"#utility.yul\":123:127   */\n      0x1f\n        /* \"#utility.yul\":115:121   */\n      dup5\n        /* \"#utility.yul\":111:128   */\n      add\n        /* \"#utility.yul\":107:134   */\n      slt\n        /* \"#utility.yul\":97:152   */\n      tag_334\n      jumpi\n        /* \"#utility.yul\":148:149   */\n      0x00\n        /* \"#utility.yul\":145:146   */\n      0x00\n        /* \"#utility.yul\":138:150   */\n      revert\n        /* \"#utility.yul\":97:152   */\n    tag_334:\n      pop\n        /* \"#utility.yul\":171:191   */\n      dup2\n      calldataload\n        /* \"#utility.yul\":214:232   */\n      0xffffffffffffffff\n        /* \"#utility.yul\":203:233   */\n      dup2\n      gt\n        /* \"#utility.yul\":200:250   */\n      iszero\n      tag_335\n      jumpi\n        /* \"#utility.yul\":246:247   */\n      0x00\n        /* \"#utility.yul\":243:244   */\n      0x00\n        /* \"#utility.yul\":236:248   */\n      revert\n        /* \"#utility.yul\":200:250   */\n    tag_335:\n        /* \"#utility.yul\":283:287   */\n      0x20\n        /* \"#utility.yul\":275:281   */\n      dup4\n        /* \"#utility.yul\":271:288   */\n      add\n        /* \"#utility.yul\":259:288   */\n      swap2\n      pop\n        /* \"#utility.yul\":335:338   */\n      dup4\n        /* \"#utility.yul\":328:332   */\n      0x20\n        /* \"#utility.yul\":319:325   */\n      dup3\n        /* \"#utility.yul\":311:317   */\n      dup6\n        /* \"#utility.yul\":307:326   */\n      add\n        /* \"#utility.yul\":303:333   */\n      add\n        /* \"#utility.yul\":300:339   */\n      gt\n        /* \"#utility.yul\":297:356   */\n      iszero\n      tag_336\n      jumpi\n        /* \"#utility.yul\":352:353   */\n      0x00\n        /* \"#utility.yul\":349:350   */\n      0x00\n        /* \"#utility.yul\":342:354   */\n      revert\n        /* \"#utility.yul\":297:356   */\n    tag_336:\n        /* \"#utility.yul\":14:362   */\n      swap3\n      pop\n      swap3\n      swap1\n      pop\n      jump\t// out\n        /* \"#utility.yul\":367:1282   */\n    tag_20:\n        /* \"#utility.yul\":474:480   */\n      0x00\n        /* \"#utility.yul\":482:488   */\n      0x00\n        /* \"#utility.yul\":490:496   */\n      0x00\n        /* \"#utility.yul\":498:504   */\n      0x00\n        /* \"#utility.yul\":551:553   */\n      0x40\n        /* \"#utility.yul\":539:548   */\n      dup6\n        /* \"#utility.yul\":530:537   */\n      dup8\n        /* \"#utility.yul\":526:549   */\n      sub\n        /* \"#utility.yul\":522:554   */\n      slt\n        /* \"#utility.yul\":519:571   */\n      iszero\n      tag_338\n      jumpi\n        /* \"#utility.yul\":567:568   */\n      0x00\n        /* \"#utility.yul\":564:565   */\n      0x00\n        /* \"#utility.yul\":557:569   */\n      revert\n        /* \"#utility.yul\":519:571   */\n    tag_338:\n        /* \"#utility.yul\":607:616   */\n      dup5\n        /* \"#utility.yul\":594:617   */\n      calldataload\n        /* \"#utility.yul\":640:658   */\n      0xffffffffffffffff\n        /* \"#utility.yul\":632:638   */\n      dup2\n        /* \"#utility.yul\":629:659   */\n      gt\n        /* \"#utility.yul\":626:676   */\n      iszero\n      tag_339\n      jumpi\n        /* \"#utility.yul\":672:673   */\n      0x00\n        /* \"#utility.yul\":669:670   */\n      0x00\n        /* \"#utility.yul\":662:674   */\n      revert\n        /* \"#utility.yul\":626:676   */\n    tag_339:\n        /* \"#utility.yul\":711:770   */\n      tag_340\n        /* \"#utility.yul\":762:769   */\n      dup8\n        /* \"#utility.yul\":753:759   */\n      dup3\n        /* \"#utility.yul\":742:751   */\n      dup9\n        /* \"#utility.yul\":738:760   */\n      add\n        /* \"#utility.yul\":711:770   */\n      tag_326\n      jump\t// in\n    tag_340:\n        /* \"#utility.yul\":789:797   */\n      swap1\n      swap6\n      pop\n        /* \"#utility.yul\":685:770   */\n      swap4\n      pop\n      pop\n        /* \"#utility.yul\":877:879   */\n      0x20\n        /* \"#utility.yul\":862:880   */\n      dup6\n      add\n        /* \"#utility.yul\":849:881   */\n      calldataload\n        /* \"#utility.yul\":906:924   */\n      0xffffffffffffffff\n        /* \"#utility.yul\":893:925   */\n      dup2\n      gt\n        /* \"#utility.yul\":890:942   */\n      iszero\n      tag_341\n      jumpi\n        /* \"#utility.yul\":938:939   */\n      0x00\n        /* \"#utility.yul\":935:936   */\n      0x00\n        /* \"#utility.yul\":928:940   */\n      revert\n        /* \"#utility.yul\":890:942   */\n    tag_341:\n        /* \"#utility.yul\":961:985   */\n      dup6\n      add\n        /* \"#utility.yul\":1016:1020   */\n      0x1f\n        /* \"#utility.yul\":1008:1021   */\n      dup2\n      add\n        /* \"#utility.yul\":1004:1031   */\n      dup8\n      sgt\n        /* \"#utility.yul\":994:1049   */\n      tag_342\n      jumpi\n        /* \"#utility.yul\":1045:1046   */\n      0x00\n        /* \"#utility.yul\":1042:1043   */\n      0x00\n        /* \"#utility.yul\":1035:1047   */\n      revert\n        /* \"#utility.yul\":994:1049   */\n    tag_342:\n        /* \"#utility.yul\":1085:1087   */\n      dup1\n        /* \"#utility.yul\":1072:1088   */\n      calldataload\n        /* \"#utility.yul\":1111:1129   */\n      0xffffffffffffffff\n        /* \"#utility.yul\":1103:1109   */\n      dup2\n        /* \"#utility.yul\":1100:1130   */\n      gt\n        /* \"#utility.yul\":1097:1147   */\n      iszero\n      tag_343\n      jumpi\n        /* \"#utility.yul\":1143:1144   */\n      0x00\n        /* \"#utility.yul\":1140:1141   */\n      0x00\n        /* \"#utility.yul\":1133:1145   */\n      revert\n        /* \"#utility.yul\":1097:1147   */\n    tag_343:\n        /* \"#utility.yul\":1196:1203   */\n      dup8\n        /* \"#utility.yul\":1191:1193   */\n      0x20\n        /* \"#utility.yul\":1181:1187   */\n      dup3\n        /* \"#utility.yul\":1178:1179   */\n      0x05\n        /* \"#utility.yul\":1174:1188   */\n      shl\n        /* \"#utility.yul\":1170:1172   */\n      dup5\n        /* \"#utility.yul\":1166:1189   */\n      add\n        /* \"#utility.yul\":1162:1194   */\n      add\n        /* \"#utility.yul\":1159:1204   */\n      gt\n        /* \"#utility.yul\":1156:1221   */\n      iszero\n      tag_344\n      jumpi\n        /* \"#utility.yul\":1217:1218   */\n      0x00\n        /* \"#utility.yul\":1214:1215   */\n      0x00\n        /* \"#utility.yul\":1207:1219   */\n      revert\n        /* \"#utility.yul\":1156:1221   */\n    tag_344:\n        /* \"#utility.yul\":367:1282   */\n      swap5\n      swap8\n      swap4\n      swap7\n      pop\n        /* \"#utility.yul\":1248:1250   */\n      0x20\n        /* \"#utility.yul\":1240:1251   */\n      add\n      swap5\n      pop\n      pop\n      pop\n        /* \"#utility.yul\":367:1282   */\n      jump\t// out\n        /* \"#utility.yul\":1287:1460   */\n    tag_327:\n        /* \"#utility.yul\":1355:1375   */\n      dup1\n      calldataload\n      sub(shl(0xa0, 0x01), 0x01)\n        /* \"#utility.yul\":1404:1435   */\n      dup2\n      and\n        /* \"#utility.yul\":1394:1436   */\n      dup2\n      eq\n        /* \"#utility.yul\":1384:1454   */\n      tag_346\n      jumpi\n        /* \"#utility.yul\":1450:1451   */\n      0x00\n        /* \"#utility.yul\":1447:1448   */\n      0x00\n        /* \"#utility.yul\":1440:1452   */\n      revert\n        /* \"#utility.yul\":1384:1454   */\n    tag_346:\n        /* \"#utility.yul\":1287:1460   */\n      swap2\n      swap1\n      pop\n      jump\t// out\n        /* \"#utility.yul\":1465:1651   */\n    tag_25:\n        /* \"#utility.yul\":1524:1530   */\n      0x00\n        /* \"#utility.yul\":1577:1579   */\n      0x20\n        /* \"#utility.yul\":1565:1574   */\n      dup3\n        /* \"#utility.yul\":1556:1563   */\n      dup5\n        /* \"#utility.yul\":1552:1575   */\n      sub\n        /* \"#utility.yul\":1548:1580   */\n      slt\n        /* \"#utility.yul\":1545:1597   */\n      iszero\n      tag_348\n      jumpi\n        /* \"#utility.yul\":1593:1594   */\n      0x00\n        /* \"#utility.yul\":1590:1591   */\n      0x00\n        /* \"#utility.yul\":1583:1595   */\n      revert\n        /* \"#utility.yul\":1545:1597   */\n    tag_348:\n        /* \"#utility.yul\":1616:1645   */\n      tag_261\n        /* \"#utility.yul\":1635:1644   */\n      dup3\n        /* \"#utility.yul\":1616:1645   */\n      tag_327\n      jump\t// in\n        /* \"#utility.yul\":1656:2674   */\n    tag_28:\n        /* \"#utility.yul\":1818:1822   */\n      0x00\n        /* \"#utility.yul\":1866:1868   */\n      0x20\n        /* \"#utility.yul\":1855:1864   */\n      dup3\n        /* \"#utility.yul\":1851:1869   */\n      add\n        /* \"#utility.yul\":1896:1898   */\n      0x20\n        /* \"#utility.yul\":1885:1894   */\n      dup4\n        /* \"#utility.yul\":1878:1899   */\n      mstore\n        /* \"#utility.yul\":1919:1925   */\n      dup1\n        /* \"#utility.yul\":1954:1960   */\n      dup5\n        /* \"#utility.yul\":1948:1961   */\n      mload\n        /* \"#utility.yul\":1985:1991   */\n      dup1\n        /* \"#utility.yul\":1977:1983   */\n      dup4\n        /* \"#utility.yul\":1970:1992   */\n      mstore\n        /* \"#utility.yul\":2023:2025   */\n      0x40\n        /* \"#utility.yul\":2012:2021   */\n      dup6\n        /* \"#utility.yul\":2008:2026   */\n      add\n        /* \"#utility.yul\":2001:2026   */\n      swap2\n      pop\n        /* \"#utility.yul\":2085:2087   */\n      0x40\n        /* \"#utility.yul\":2075:2081   */\n      dup2\n        /* \"#utility.yul\":2072:2073   */\n      0x05\n        /* \"#utility.yul\":2068:2082   */\n      shl\n        /* \"#utility.yul\":2057:2066   */\n      dup7\n        /* \"#utility.yul\":2053:2083   */\n      add\n        /* \"#utility.yul\":2049:2088   */\n      add\n        /* \"#utility.yul\":2035:2088   */\n      swap3\n      pop\n        /* \"#utility.yul\":2123:2125   */\n      0x20\n        /* \"#utility.yul\":2115:2121   */\n      dup7\n        /* \"#utility.yul\":2111:2126   */\n      add\n        /* \"#utility.yul\":2144:2145   */\n      0x00\n        /* \"#utility.yul\":2154:2645   */\n    tag_351:\n        /* \"#utility.yul\":2168:2174   */\n      dup3\n        /* \"#utility.yul\":2165:2166   */\n      dup2\n        /* \"#utility.yul\":2162:2175   */\n      lt\n        /* \"#utility.yul\":2154:2645   */\n      iszero\n      tag_353\n      jumpi\n        /* \"#utility.yul\":2261:2263   */\n      0x3f\n        /* \"#utility.yul\":2257:2264   */\n      not\n        /* \"#utility.yul\":2245:2254   */\n      dup8\n        /* \"#utility.yul\":2237:2243   */\n      dup7\n        /* \"#utility.yul\":2233:2255   */\n      sub\n        /* \"#utility.yul\":2229:2265   */\n      add\n        /* \"#utility.yul\":2224:2227   */\n      dup5\n        /* \"#utility.yul\":2217:2266   */\n      mstore\n        /* \"#utility.yul\":2295:2301   */\n      dup2\n        /* \"#utility.yul\":2289:2302   */\n      mload\n        /* \"#utility.yul\":2337:2339   */\n      dup1\n        /* \"#utility.yul\":2331:2340   */\n      mload\n        /* \"#utility.yul\":2368:2376   */\n      dup1\n        /* \"#utility.yul\":2360:2366   */\n      dup8\n        /* \"#utility.yul\":2353:2377   */\n      mstore\n        /* \"#utility.yul\":2426:2434   */\n      dup1\n        /* \"#utility.yul\":2421:2423   */\n      0x20\n        /* \"#utility.yul\":2417:2419   */\n      dup4\n        /* \"#utility.yul\":2413:2424   */\n      add\n        /* \"#utility.yul\":2408:2410   */\n      0x20\n        /* \"#utility.yul\":2400:2406   */\n      dup10\n        /* \"#utility.yul\":2396:2411   */\n      add\n        /* \"#utility.yul\":2390:2435   */\n      mcopy\n        /* \"#utility.yul\":2487:2488   */\n      0x00\n        /* \"#utility.yul\":2482:2484   */\n      0x20\n        /* \"#utility.yul\":2471:2479   */\n      dup3\n        /* \"#utility.yul\":2463:2469   */\n      dup10\n        /* \"#utility.yul\":2459:2480   */\n      add\n        /* \"#utility.yul\":2455:2485   */\n      add\n        /* \"#utility.yul\":2448:2489   */\n      mstore\n        /* \"#utility.yul\":2562:2564   */\n      0x20\n        /* \"#utility.yul\":2555:2557   */\n      0x1f\n        /* \"#utility.yul\":2551:2558   */\n      not\n        /* \"#utility.yul\":2546:2548   */\n      0x1f\n        /* \"#utility.yul\":2536:2544   */\n      dup4\n        /* \"#utility.yul\":2532:2549   */\n      add\n        /* \"#utility.yul\":2528:2559   */\n      and\n        /* \"#utility.yul\":2520:2526   */\n      dup9\n        /* \"#utility.yul\":2516:2560   */\n      add\n        /* \"#utility.yul\":2512:2565   */\n      add\n        /* \"#utility.yul\":2502:2565   */\n      swap7\n      pop\n      pop\n      pop\n        /* \"#utility.yul\":2600:2602   */\n      0x20\n        /* \"#utility.yul\":2592:2598   */\n      dup3\n        /* \"#utility.yul\":2588:2603   */\n      add\n        /* \"#utility.yul\":2578:2603   */\n      swap2\n      pop\n        /* \"#utility.yul\":2632:2634   */\n      0x20\n        /* \"#utility.yul\":2627:2630   */\n      dup5\n        /* \"#utility.yul\":2623:2635   */\n      add\n        /* \"#utility.yul\":2616:2635   */\n      swap4\n      pop\n        /* \"#utility.yul\":2190:2191   */\n      0x01\n        /* \"#utility.yul\":2187:2188   */\n      dup2\n        /* \"#utility.yul\":2183:2192   */\n      add\n        /* \"#utility.yul\":2178:2192   */\n      swap1\n      pop\n        /* \"#utility.yul\":2154:2645   */\n      jump(tag_351)\n    tag_353:\n      pop\n        /* \"#utility.yul\":2662:2668   */\n      swap3\n      swap7\n        /* \"#utility.yul\":1656:2674   */\n      swap6\n      pop\n      pop\n      pop\n      pop\n      pop\n      pop\n      jump\t// out\n        /* \"#utility.yul\":2679:3090   */\n    tag_32:\n        /* \"#utility.yul\":2750:2756   */\n      0x00\n        /* \"#utility.yul\":2758:2764   */\n      0x00\n        /* \"#utility.yul\":2811:2813   */\n      0x20\n        /* \"#utility.yul\":2799:2808   */\n      dup4\n        /* \"#utility.yul\":2790:2797   */\n      dup6\n        /* \"#utility.yul\":2786:2809   */\n      sub\n        /* \"#utility.yul\":2782:2814   */\n      slt\n        /* \"#utility.yul\":2779:2831   */\n      iszero\n      tag_355\n      jumpi\n        /* \"#utility.yul\":2827:2828   */\n      0x00\n        /* \"#utility.yul\":2824:2825   */\n      0x00\n        /* \"#utility.yul\":2817:2829   */\n      revert\n        /* \"#utility.yul\":2779:2831   */\n    tag_355:\n        /* \"#utility.yul\":2867:2876   */\n      dup3\n        /* \"#utility.yul\":2854:2877   */\n      calldataload\n        /* \"#utility.yul\":2900:2918   */\n      0xffffffffffffffff\n        /* \"#utility.yul\":2892:2898   */\n      dup2\n        /* \"#utility.yul\":2889:2919   */\n      gt\n        /* \"#utility.yul\":2886:2936   */\n      iszero\n      tag_356\n      jumpi\n        /* \"#utility.yul\":2932:2933   */\n      0x00\n        /* \"#utility.yul\":2929:2930   */\n      0x00\n        /* \"#utility.yul\":2922:2934   */\n      revert\n        /* \"#utility.yul\":2886:2936   */\n    tag_356:\n        /* \"#utility.yul\":2971:3030   */\n      tag_357\n        /* \"#utility.yul\":3022:3029   */\n      dup6\n        /* \"#utility.yul\":3013:3019   */\n      dup3\n        /* \"#utility.yul\":3002:3011   */\n      dup7\n        /* \"#utility.yul\":2998:3020   */\n      add\n        /* \"#utility.yul\":2971:3030   */\n      tag_326\n      jump\t// in\n    tag_357:\n        /* \"#utility.yul\":3049:3057   */\n      swap1\n      swap7\n        /* \"#utility.yul\":2945:3030   */\n      swap1\n      swap6\n      pop\n        /* \"#utility.yul\":2679:3090   */\n      swap4\n      pop\n      pop\n      pop\n      pop\n      jump\t// out\n        /* \"#utility.yul\":3095:4028   */\n    tag_39:\n        /* \"#utility.yul\":3341:3343   */\n      0x20\n        /* \"#utility.yul\":3353:3374   */\n      dup1\n      dup3\n      mstore\n        /* \"#utility.yul\":3423:3436   */\n      dup3\n      mload\n        /* \"#utility.yul\":3326:3344   */\n      dup3\n      dup3\n      add\n        /* \"#utility.yul\":3445:3467   */\n      dup2\n      swap1\n      mstore\n        /* \"#utility.yul\":3293:3297   */\n      0x00\n      swap2\n        /* \"#utility.yul\":3524:3539   */\n      dup5\n      add\n      swap1\n        /* \"#utility.yul\":3498:3500   */\n      0x40\n        /* \"#utility.yul\":3483:3501   */\n      dup5\n      add\n      swap1\n        /* \"#utility.yul\":3293:3297   */\n      dup4\n        /* \"#utility.yul\":3567:4002   */\n    tag_359:\n        /* \"#utility.yul\":3581:3587   */\n      dup2\n        /* \"#utility.yul\":3578:3579   */\n      dup2\n        /* \"#utility.yul\":3575:3588   */\n      lt\n        /* \"#utility.yul\":3567:4002   */\n      iszero\n      tag_361\n      jumpi\n        /* \"#utility.yul\":3640:3653   */\n      dup4\n      mload\n        /* \"#utility.yul\":3682:3691   */\n      dup1\n      mload\n      sub(shl(0xa0, 0x01), 0x01)\n        /* \"#utility.yul\":3678:3713   */\n      and\n        /* \"#utility.yul\":3666:3714   */\n      dup5\n      mstore\n        /* \"#utility.yul\":3766:3768   */\n      0x20\n        /* \"#utility.yul\":3758:3769   */\n      dup1\n      dup3\n      add\n        /* \"#utility.yul\":3752:3770   */\n      mload\n        /* \"#utility.yul\":3772:3776   */\n      0xff\n        /* \"#utility.yul\":3748:3777   */\n      and\n        /* \"#utility.yul\":3734:3746   */\n      dup2\n      dup7\n      add\n        /* \"#utility.yul\":3727:3778   */\n      mstore\n        /* \"#utility.yul\":3840:3842   */\n      0x40\n        /* \"#utility.yul\":3832:3843   */\n      dup1\n      dup4\n      add\n        /* \"#utility.yul\":3826:3844   */\n      mload\n        /* \"#utility.yul\":3819:3845   */\n      iszero\n        /* \"#utility.yul\":3812:3846   */\n      iszero\n        /* \"#utility.yul\":3798:3810   */\n      swap1\n      dup7\n      add\n        /* \"#utility.yul\":3791:3847   */\n      mstore\n        /* \"#utility.yul\":3911:3915   */\n      0x60\n        /* \"#utility.yul\":3903:3916   */\n      swap2\n      dup3\n      add\n        /* \"#utility.yul\":3897:3917   */\n      mload\n        /* \"#utility.yul\":3890:3918   */\n      iszero\n        /* \"#utility.yul\":3883:3919   */\n      iszero\n        /* \"#utility.yul\":3867:3881   */\n      swap2\n      dup6\n      add\n        /* \"#utility.yul\":3860:3920   */\n      swap2\n      swap1\n      swap2\n      mstore\n        /* \"#utility.yul\":3977:3992   */\n      swap1\n      swap4\n      add\n      swap3\n        /* \"#utility.yul\":3949:3953   */\n      0x80\n        /* \"#utility.yul\":3940:3954   */\n      swap1\n      swap3\n      add\n      swap2\n        /* \"#utility.yul\":3710:3711   */\n      0x01\n        /* \"#utility.yul\":3596:3605   */\n      add\n        /* \"#utility.yul\":3567:4002   */\n      jump(tag_359)\n    tag_361:\n      pop\n        /* \"#utility.yul\":4019:4022   */\n      swap1\n      swap6\n        /* \"#utility.yul\":3095:4028   */\n      swap5\n      pop\n      pop\n      pop\n      pop\n      pop\n      jump\t// out\n        /* \"#utility.yul\":4033:4518   */\n    tag_46:\n        /* \"#utility.yul\":4113:4119   */\n      0x00\n        /* \"#utility.yul\":4121:4127   */\n      0x00\n        /* \"#utility.yul\":4129:4135   */\n      0x00\n        /* \"#utility.yul\":4182:4184   */\n      0x40\n        /* \"#utility.yul\":4170:4179   */\n      dup5\n        /* \"#utility.yul\":4161:4168   */\n      dup7\n        /* \"#utility.yul\":4157:4180   */\n      sub\n        /* \"#utility.yul\":4153:4185   */\n      slt\n        /* \"#utility.yul\":4150:4202   */\n      iszero\n      tag_363\n      jumpi\n        /* \"#utility.yul\":4198:4199   */\n      0x00\n        /* \"#utility.yul\":4195:4196   */\n      0x00\n        /* \"#utility.yul\":4188:4200   */\n      revert\n        /* \"#utility.yul\":4150:4202   */\n    tag_363:\n        /* \"#utility.yul\":4238:4247   */\n      dup4\n        /* \"#utility.yul\":4225:4248   */\n      calldataload\n        /* \"#utility.yul\":4271:4289   */\n      0xffffffffffffffff\n        /* \"#utility.yul\":4263:4269   */\n      dup2\n        /* \"#utility.yul\":4260:4290   */\n      gt\n        /* \"#utility.yul\":4257:4307   */\n      iszero\n      tag_364\n      jumpi\n        /* \"#utility.yul\":4303:4304   */\n      0x00\n        /* \"#utility.yul\":4300:4301   */\n      0x00\n        /* \"#utility.yul\":4293:4305   */\n      revert\n        /* \"#utility.yul\":4257:4307   */\n    tag_364:\n        /* \"#utility.yul\":4342:4401   */\n      tag_365\n        /* \"#utility.yul\":4393:4400   */\n      dup7\n        /* \"#utility.yul\":4384:4390   */\n      dup3\n        /* \"#utility.yul\":4373:4382   */\n      dup8\n        /* \"#utility.yul\":4369:4391   */\n      add\n        /* \"#utility.yul\":4342:4401   */\n      tag_326\n      jump\t// in\n    tag_365:\n        /* \"#utility.yul\":4420:4428   */\n      swap1\n      swap5\n      pop\n        /* \"#utility.yul\":4316:4401   */\n      swap3\n      pop\n        /* \"#utility.yul\":4474:4512   */\n      tag_366\n      swap1\n      pop\n        /* \"#utility.yul\":4508:4510   */\n      0x20\n        /* \"#utility.yul\":4493:4511   */\n      dup6\n      add\n        /* \"#utility.yul\":4474:4512   */\n      tag_327\n      jump\t// in\n    tag_366:\n        /* \"#utility.yul\":4464:4512   */\n      swap1\n      pop\n        /* \"#utility.yul\":4033:4518   */\n      swap3\n      pop\n      swap3\n      pop\n      swap3\n      jump\t// out\n        /* \"#utility.yul\":4904:5713   */\n    tag_63:\n        /* \"#utility.yul\":4999:5005   */\n      0x00\n        /* \"#utility.yul\":5007:5013   */\n      0x00\n        /* \"#utility.yul\":5015:5021   */\n      0x00\n        /* \"#utility.yul\":5023:5029   */\n      0x00\n        /* \"#utility.yul\":5031:5037   */\n      0x00\n        /* \"#utility.yul\":5084:5087   */\n      0x80\n        /* \"#utility.yul\":5072:5081   */\n      dup7\n        /* \"#utility.yul\":5063:5070   */\n      dup9\n        /* \"#utility.yul\":5059:5082   */\n      sub\n        /* \"#utility.yul\":5055:5088   */\n      slt\n        /* \"#utility.yul\":5052:5105   */\n      iszero\n      tag_370\n      jumpi\n        /* \"#utility.yul\":5101:5102   */\n      0x00\n        /* \"#utility.yul\":5098:5099   */\n      0x00\n        /* \"#utility.yul\":5091:5103   */\n      revert\n        /* \"#utility.yul\":5052:5105   */\n    tag_370:\n        /* \"#utility.yul\":5141:5150   */\n      dup6\n        /* \"#utility.yul\":5128:5151   */\n      calldataload\n        /* \"#utility.yul\":5174:5192   */\n      0xffffffffffffffff\n        /* \"#utility.yul\":5166:5172   */\n      dup2\n        /* \"#utility.yul\":5163:5193   */\n      gt\n        /* \"#utility.yul\":5160:5210   */\n      iszero\n      tag_371\n      jumpi\n        /* \"#utility.yul\":5206:5207   */\n      0x00\n        /* \"#utility.yul\":5203:5204   */\n      0x00\n        /* \"#utility.yul\":5196:5208   */\n      revert\n        /* \"#utility.yul\":5160:5210   */\n    tag_371:\n        /* \"#utility.yul\":5245:5304   */\n      tag_372\n        /* \"#utility.yul\":5296:5303   */\n      dup9\n        /* \"#utility.yul\":5287:5293   */\n      dup3\n        /* \"#utility.yul\":5276:5285   */\n      dup10\n        /* \"#utility.yul\":5272:5294   */\n      add\n        /* \"#utility.yul\":5245:5304   */\n      tag_326\n      jump\t// in\n    tag_372:\n        /* \"#utility.yul\":5323:5331   */\n      swap1\n      swap7\n      pop\n        /* \"#utility.yul\":5219:5304   */\n      swap5\n      pop\n      pop\n        /* \"#utility.yul\":5408:5410   */\n      0x20\n        /* \"#utility.yul\":5393:5411   */\n      dup7\n      add\n        /* \"#utility.yul\":5380:5412   */\n      calldataload\n        /* \"#utility.yul\":5452:5456   */\n      0xff\n        /* \"#utility.yul\":5441:5457   */\n      dup2\n      and\n        /* \"#utility.yul\":5431:5458   */\n      dup2\n      eq\n        /* \"#utility.yul\":5421:5476   */\n      tag_373\n      jumpi\n        /* \"#utility.yul\":5472:5473   */\n      0x00\n        /* \"#utility.yul\":5469:5470   */\n      0x00\n        /* \"#utility.yul\":5462:5474   */\n      revert\n        /* \"#utility.yul\":5421:5476   */\n    tag_373:\n        /* \"#utility.yul\":5495:5500   */\n      swap3\n      pop\n        /* \"#utility.yul\":5547:5549   */\n      0x40\n        /* \"#utility.yul\":5532:5550   */\n      dup7\n      add\n        /* \"#utility.yul\":5519:5551   */\n      calldataload\n      swap2\n      pop\n        /* \"#utility.yul\":5603:5605   */\n      0x60\n        /* \"#utility.yul\":5588:5606   */\n      dup7\n      add\n        /* \"#utility.yul\":5575:5607   */\n      calldataload\n        /* \"#utility.yul\":5651:5661   */\n      0xffffffff\n        /* \"#utility.yul\":5638:5662   */\n      dup2\n      and\n        /* \"#utility.yul\":5626:5663   */\n      dup2\n      eq\n        /* \"#utility.yul\":5616:5681   */\n      tag_374\n      jumpi\n        /* \"#utility.yul\":5677:5678   */\n      0x00\n        /* \"#utility.yul\":5674:5675   */\n      0x00\n        /* \"#utility.yul\":5667:5679   */\n      revert\n        /* \"#utility.yul\":5616:5681   */\n    tag_374:\n        /* \"#utility.yul\":5700:5707   */\n      dup1\n        /* \"#utility.yul\":5690:5707   */\n      swap2\n      pop\n      pop\n        /* \"#utility.yul\":4904:5713   */\n      swap3\n      swap6\n      pop\n      swap3\n      swap6\n      swap1\n      swap4\n      pop\n      jump\t// out\n        /* \"#utility.yul\":5718:6790   */\n    tag_70:\n        /* \"#utility.yul\":5962:5964   */\n      0x20\n        /* \"#utility.yul\":5974:5995   */\n      dup1\n      dup3\n      mstore\n        /* \"#utility.yul\":6044:6057   */\n      dup3\n      mload\n        /* \"#utility.yul\":5947:5965   */\n      dup3\n      dup3\n      add\n        /* \"#utility.yul\":6066:6088   */\n      dup2\n      swap1\n      mstore\n        /* \"#utility.yul\":5914:5918   */\n      0x00\n      swap2\n        /* \"#utility.yul\":6145:6160   */\n      dup5\n      add\n      swap1\n        /* \"#utility.yul\":6119:6121   */\n      0x40\n        /* \"#utility.yul\":6104:6122   */\n      dup5\n      add\n      swap1\n        /* \"#utility.yul\":5914:5918   */\n      dup4\n        /* \"#utility.yul\":6188:6764   */\n    tag_376:\n        /* \"#utility.yul\":6202:6208   */\n      dup2\n        /* \"#utility.yul\":6199:6200   */\n      dup2\n        /* \"#utility.yul\":6196:6209   */\n      lt\n        /* \"#utility.yul\":6188:6764   */\n      iszero\n      tag_361\n      jumpi\n        /* \"#utility.yul\":6261:6274   */\n      dup4\n      mload\n        /* \"#utility.yul\":6303:6312   */\n      dup1\n      mload\n      sub(shl(0xa0, 0x01), 0x01)\n        /* \"#utility.yul\":6299:6334   */\n      swap1\n      dup2\n      and\n        /* \"#utility.yul\":6287:6335   */\n      dup6\n      mstore\n        /* \"#utility.yul\":6387:6389   */\n      0x20\n        /* \"#utility.yul\":6379:6390   */\n      dup1\n      dup4\n      add\n        /* \"#utility.yul\":6373:6391   */\n      mload\n        /* \"#utility.yul\":6369:6413   */\n      swap1\n      swap2\n      and\n        /* \"#utility.yul\":6355:6367   */\n      dup2\n      dup7\n      add\n        /* \"#utility.yul\":6348:6414   */\n      mstore\n        /* \"#utility.yul\":6462:6464   */\n      0x40\n        /* \"#utility.yul\":6454:6465   */\n      dup1\n      dup4\n      add\n        /* \"#utility.yul\":6448:6466   */\n      mload\n        /* \"#utility.yul\":6434:6446   */\n      swap1\n      dup7\n      add\n        /* \"#utility.yul\":6427:6467   */\n      mstore\n        /* \"#utility.yul\":6521:6525   */\n      0x60\n        /* \"#utility.yul\":6513:6526   */\n      dup1\n      dup4\n      add\n        /* \"#utility.yul\":6507:6527   */\n      mload\n        /* \"#utility.yul\":6529:6539   */\n      0xffffffff\n        /* \"#utility.yul\":6503:6540   */\n      and\n        /* \"#utility.yul\":6487:6501   */\n      swap1\n      dup7\n      add\n        /* \"#utility.yul\":6480:6541   */\n      mstore\n        /* \"#utility.yul\":6595:6599   */\n      0x80\n        /* \"#utility.yul\":6587:6600   */\n      dup1\n      dup4\n      add\n        /* \"#utility.yul\":6581:6601   */\n      mload\n        /* \"#utility.yul\":6603:6607   */\n      0xff\n        /* \"#utility.yul\":6577:6608   */\n      and\n        /* \"#utility.yul\":6561:6575   */\n      swap1\n      dup7\n      add\n        /* \"#utility.yul\":6554:6609   */\n      mstore\n        /* \"#utility.yul\":6322:6325   */\n      0xa0\n        /* \"#utility.yul\":6665:6678   */\n      swap2\n      dup3\n      add\n        /* \"#utility.yul\":6659:6679   */\n      mload\n        /* \"#utility.yul\":6652:6680   */\n      iszero\n        /* \"#utility.yul\":6645:6681   */\n      iszero\n        /* \"#utility.yul\":6629:6643   */\n      swap2\n      dup6\n      add\n        /* \"#utility.yul\":6622:6682   */\n      swap2\n      swap1\n      swap2\n      mstore\n        /* \"#utility.yul\":6739:6754   */\n      swap1\n      swap4\n      add\n      swap3\n        /* \"#utility.yul\":6711:6715   */\n      0xc0\n        /* \"#utility.yul\":6702:6716   */\n      swap1\n      swap3\n      add\n      swap2\n        /* \"#utility.yul\":6331:6332   */\n      0x01\n        /* \"#utility.yul\":6217:6226   */\n      add\n        /* \"#utility.yul\":6188:6764   */\n      jump(tag_376)\n        /* \"#utility.yul\":7577:7850   */\n    tag_89:\n        /* \"#utility.yul\":7762:7768   */\n      dup2\n        /* \"#utility.yul\":7754:7760   */\n      dup4\n        /* \"#utility.yul\":7749:7752   */\n      dup3\n        /* \"#utility.yul\":7736:7769   */\n      calldatacopy\n        /* \"#utility.yul\":7718:7721   */\n      0x00\n        /* \"#utility.yul\":7788:7804   */\n      swap2\n      add\n        /* \"#utility.yul\":7813:7826   */\n      swap1\n      dup2\n      mstore\n        /* \"#utility.yul\":7788:7804   */\n      swap2\n        /* \"#utility.yul\":7577:7850   */\n      swap1\n      pop\n      jump\t// out\n        /* \"#utility.yul\":7855:7982   */\n    tag_106:\n        /* \"#utility.yul\":7916:7926   */\n      0x4e487b71\n        /* \"#utility.yul\":7911:7914   */\n      0xe0\n        /* \"#utility.yul\":7907:7927   */\n      shl\n        /* \"#utility.yul\":7904:7905   */\n      0x00\n        /* \"#utility.yul\":7897:7928   */\n      mstore\n        /* \"#utility.yul\":7947:7951   */\n      0x32\n        /* \"#utility.yul\":7944:7945   */\n      0x04\n        /* \"#utility.yul\":7937:7952   */\n      mstore\n        /* \"#utility.yul\":7971:7975   */\n      0x24\n        /* \"#utility.yul\":7968:7969   */\n      0x00\n        /* \"#utility.yul\":7961:7976   */\n      revert\n        /* \"#utility.yul\":7987:8367   */\n    tag_113:\n        /* \"#utility.yul\":8066:8067   */\n      0x01\n        /* \"#utility.yul\":8062:8074   */\n      dup2\n      dup2\n      shr\n      swap1\n        /* \"#utility.yul\":8109:8121   */\n      dup3\n      and\n      dup1\n        /* \"#utility.yul\":8130:8191   */\n      tag_384\n      jumpi\n        /* \"#utility.yul\":8184:8188   */\n      0x7f\n        /* \"#utility.yul\":8176:8182   */\n      dup3\n        /* \"#utility.yul\":8172:8189   */\n      and\n        /* \"#utility.yul\":8162:8189   */\n      swap2\n      pop\n        /* \"#utility.yul\":8130:8191   */\n    tag_384:\n        /* \"#utility.yul\":8237:8239   */\n      0x20\n        /* \"#utility.yul\":8229:8235   */\n      dup3\n        /* \"#utility.yul\":8226:8240   */\n      lt\n        /* \"#utility.yul\":8206:8224   */\n      dup2\n        /* \"#utility.yul\":8203:8241   */\n      sub\n        /* \"#utility.yul\":8200:8361   */\n      tag_385\n      jumpi\n        /* \"#utility.yul\":8283:8293   */\n      0x4e487b71\n        /* \"#utility.yul\":8278:8281   */\n      0xe0\n        /* \"#utility.yul\":8274:8294   */\n      shl\n        /* \"#utility.yul\":8271:8272   */\n      0x00\n        /* \"#utility.yul\":8264:8295   */\n      mstore\n        /* \"#utility.yul\":8318:8322   */\n      0x22\n        /* \"#utility.yul\":8315:8316   */\n      0x04\n        /* \"#utility.yul\":8308:8323   */\n      mstore\n        /* \"#utility.yul\":8346:8350   */\n      0x24\n        /* \"#utility.yul\":8343:8344   */\n      0x00\n        /* \"#utility.yul\":8336:8351   */\n      revert\n        /* \"#utility.yul\":8200:8361   */\n    tag_385:\n      pop\n        /* \"#utility.yul\":7987:8367   */\n      swap2\n      swap1\n      pop\n      jump\t// out\n        /* \"#utility.yul\":8582:8709   */\n    tag_328:\n        /* \"#utility.yul\":8643:8653   */\n      0x4e487b71\n        /* \"#utility.yul\":8638:8641   */\n      0xe0\n        /* \"#utility.yul\":8634:8654   */\n      shl\n        /* \"#utility.yul\":8631:8632   */\n      0x00\n        /* \"#utility.yul\":8624:8655   */\n      mstore\n        /* \"#utility.yul\":8674:8678   */\n      0x11\n        /* \"#utility.yul\":8671:8672   */\n      0x04\n        /* \"#utility.yul\":8664:8679   */\n      mstore\n        /* \"#utility.yul\":8698:8702   */\n      0x24\n        /* \"#utility.yul\":8695:8696   */\n      0x00\n        /* \"#utility.yul\":8688:8703   */\n      revert\n        /* \"#utility.yul\":8714:8839   */\n    tag_158:\n        /* \"#utility.yul\":8779:8788   */\n      dup1\n      dup3\n      add\n        /* \"#utility.yul\":8800:8810   */\n      dup1\n      dup3\n      gt\n        /* \"#utility.yul\":8797:8833   */\n      iszero\n      tag_270\n      jumpi\n        /* \"#utility.yul\":8813:8831   */\n      tag_270\n      tag_328\n      jump\t// in\n        /* \"#utility.yul\":8844:8971   */\n    tag_191:\n        /* \"#utility.yul\":8905:8915   */\n      0x4e487b71\n        /* \"#utility.yul\":8900:8903   */\n      0xe0\n        /* \"#utility.yul\":8896:8916   */\n      shl\n        /* \"#utility.yul\":8893:8894   */\n      0x00\n        /* \"#utility.yul\":8886:8917   */\n      mstore\n        /* \"#utility.yul\":8936:8940   */\n      0x41\n        /* \"#utility.yul\":8933:8934   */\n      0x04\n        /* \"#utility.yul\":8926:8941   */\n      mstore\n        /* \"#utility.yul\":8960:8964   */\n      0x24\n        /* \"#utility.yul\":8957:8958   */\n      0x00\n        /* \"#utility.yul\":8950:8965   */\n      revert\n        /* \"#utility.yul\":9406:9615   */\n    tag_202:\n        /* \"#utility.yul\":9438:9439   */\n      0x00\n        /* \"#utility.yul\":9464:9465   */\n      dup3\n        /* \"#utility.yul\":9454:9586   */\n      tag_394\n      jumpi\n        /* \"#utility.yul\":9508:9518   */\n      0x4e487b71\n        /* \"#utility.yul\":9503:9506   */\n      0xe0\n        /* \"#utility.yul\":9499:9519   */\n      shl\n        /* \"#utility.yul\":9496:9497   */\n      0x00\n        /* \"#utility.yul\":9489:9520   */\n      mstore\n        /* \"#utility.yul\":9543:9547   */\n      0x12\n        /* \"#utility.yul\":9540:9541   */\n      0x04\n        /* \"#utility.yul\":9533:9548   */\n      mstore\n        /* \"#utility.yul\":9571:9575   */\n      0x24\n        /* \"#utility.yul\":9568:9569   */\n      0x00\n        /* \"#utility.yul\":9561:9576   */\n      revert\n        /* \"#utility.yul\":9454:9586   */\n    tag_394:\n      pop\n        /* \"#utility.yul\":9600:9609   */\n      mod\n      swap1\n        /* \"#utility.yul\":9406:9615   */\n      jump\t// out\n        /* \"#utility.yul\":9746:10264   */\n    tag_330:\n        /* \"#utility.yul\":9848:9850   */\n      0x1f\n        /* \"#utility.yul\":9843:9846   */\n      dup3\n        /* \"#utility.yul\":9840:9851   */\n      gt\n        /* \"#utility.yul\":9837:10258   */\n      iszero\n      tag_397\n      jumpi\n        /* \"#utility.yul\":9884:9889   */\n      dup1\n        /* \"#utility.yul\":9881:9882   */\n      0x00\n        /* \"#utility.yul\":9874:9890   */\n      mstore\n        /* \"#utility.yul\":9928:9932   */\n      0x20\n        /* \"#utility.yul\":9925:9926   */\n      0x00\n        /* \"#utility.yul\":9915:9933   */\n      keccak256\n        /* \"#utility.yul\":9998:10000   */\n      0x1f\n        /* \"#utility.yul\":9986:9996   */\n      dup5\n        /* \"#utility.yul\":9982:10001   */\n      add\n        /* \"#utility.yul\":9979:9980   */\n      0x05\n        /* \"#utility.yul\":9975:10002   */\n      shr\n        /* \"#utility.yul\":9969:9973   */\n      dup2\n        /* \"#utility.yul\":9965:10003   */\n      add\n        /* \"#utility.yul\":10034:10038   */\n      0x20\n        /* \"#utility.yul\":10022:10032   */\n      dup6\n        /* \"#utility.yul\":10019:10039   */\n      lt\n        /* \"#utility.yul\":10016:10063   */\n      iszero\n      tag_398\n      jumpi\n      pop\n        /* \"#utility.yul\":10057:10061   */\n      dup1\n        /* \"#utility.yul\":10016:10063   */\n    tag_398:\n        /* \"#utility.yul\":10112:10114   */\n      0x1f\n        /* \"#utility.yul\":10107:10110   */\n      dup5\n        /* \"#utility.yul\":10103:10115   */\n      add\n        /* \"#utility.yul\":10100:10101   */\n      0x05\n        /* \"#utility.yul\":10096:10116   */\n      shr\n        /* \"#utility.yul\":10090:10094   */\n      dup3\n        /* \"#utility.yul\":10086:10117   */\n      add\n        /* \"#utility.yul\":10076:10117   */\n      swap2\n      pop\n        /* \"#utility.yul\":10167:10248   */\n    tag_399:\n        /* \"#utility.yul\":10185:10187   */\n      dup2\n        /* \"#utility.yul\":10178:10183   */\n      dup2\n        /* \"#utility.yul\":10175:10188   */\n      lt\n        /* \"#utility.yul\":10167:10248   */\n      iszero\n      tag_303\n      jumpi\n        /* \"#utility.yul\":10244:10245   */\n      0x00\n        /* \"#utility.yul\":10230:10246   */\n      dup2\n      sstore\n        /* \"#utility.yul\":10211:10212   */\n      0x01\n        /* \"#utility.yul\":10200:10213   */\n      add\n        /* \"#utility.yul\":10167:10248   */\n      jump(tag_399)\n        /* \"#utility.yul\":9837:10258   */\n    tag_397:\n        /* \"#utility.yul\":9746:10264   */\n      pop\n      pop\n      pop\n      jump\t// out\n        /* \"#utility.yul\":10440:11638   */\n    tag_223:\n        /* \"#utility.yul\":10564:10582   */\n      0xffffffffffffffff\n        /* \"#utility.yul\":10559:10562   */\n      dup4\n        /* \"#utility.yul\":10556:10583   */\n      gt\n        /* \"#utility.yul\":10553:10606   */\n      iszero\n      tag_405\n      jumpi\n        /* \"#utility.yul\":10586:10604   */\n      tag_405\n      tag_191\n      jump\t// in\n    tag_405:\n        /* \"#utility.yul\":10615:10709   */\n      tag_406\n        /* \"#utility.yul\":10705:10708   */\n      dup4\n        /* \"#utility.yul\":10665:10703   */\n      tag_407\n        /* \"#utility.yul\":10697:10701   */\n      dup4\n        /* \"#utility.yul\":10691:10702   */\n      sload\n        /* \"#utility.yul\":10665:10703   */\n      tag_113\n      jump\t// in\n    tag_407:\n        /* \"#utility.yul\":10659:10663   */\n      dup4\n        /* \"#utility.yul\":10615:10709   */\n      tag_330\n      jump\t// in\n    tag_406:\n        /* \"#utility.yul\":10735:10736   */\n      0x00\n        /* \"#utility.yul\":10760:10762   */\n      0x1f\n        /* \"#utility.yul\":10755:10758   */\n      dup5\n        /* \"#utility.yul\":10752:10763   */\n      gt\n        /* \"#utility.yul\":10777:10778   */\n      0x01\n        /* \"#utility.yul\":10772:11380   */\n      dup2\n      eq\n      tag_409\n      jumpi\n        /* \"#utility.yul\":11424:11425   */\n      0x00\n        /* \"#utility.yul\":11441:11444   */\n      dup6\n        /* \"#utility.yul\":11438:11531   */\n      iszero\n      tag_410\n      jumpi\n      pop\n        /* \"#utility.yul\":11497:11516   */\n      dup4\n      dup3\n      add\n        /* \"#utility.yul\":11484:11517   */\n      calldataload\n        /* \"#utility.yul\":11438:11531   */\n    tag_410:\n      not(0x00)\n        /* \"#utility.yul\":10397:10398   */\n      0x03\n        /* \"#utility.yul\":10393:10404   */\n      dup8\n      swap1\n      shl\n        /* \"#utility.yul\":10389:10413   */\n      shr\n        /* \"#utility.yul\":10385:10414   */\n      not\n        /* \"#utility.yul\":10375:10415   */\n      and\n        /* \"#utility.yul\":10421:10422   */\n      0x01\n        /* \"#utility.yul\":10417:10428   */\n      dup7\n      swap1\n      shl\n        /* \"#utility.yul\":10372:10429   */\n      or\n        /* \"#utility.yul\":11544:11622   */\n      dup4\n      sstore\n        /* \"#utility.yul\":10745:11632   */\n      jump(tag_303)\n        /* \"#utility.yul\":10772:11380   */\n    tag_409:\n        /* \"#utility.yul\":9693:9694   */\n      0x00\n        /* \"#utility.yul\":9686:9700   */\n      dup4\n      dup2\n      mstore\n        /* \"#utility.yul\":9730:9734   */\n      0x20\n        /* \"#utility.yul\":9717:9735   */\n      dup2\n      keccak256\n      not(0x1f)\n        /* \"#utility.yul\":10808:10825   */\n      dup8\n      and\n      swap2\n        /* \"#utility.yul\":10923:11152   */\n    tag_413:\n        /* \"#utility.yul\":10937:10944   */\n      dup3\n        /* \"#utility.yul\":10934:10935   */\n      dup2\n        /* \"#utility.yul\":10931:10945   */\n      lt\n        /* \"#utility.yul\":10923:11152   */\n      iszero\n      tag_415\n      jumpi\n        /* \"#utility.yul\":11026:11045   */\n      dup7\n      dup6\n      add\n        /* \"#utility.yul\":11013:11046   */\n      calldataload\n        /* \"#utility.yul\":10998:11047   */\n      dup3\n      sstore\n        /* \"#utility.yul\":11133:11137   */\n      0x20\n        /* \"#utility.yul\":11118:11138   */\n      swap5\n      dup6\n      add\n      swap5\n        /* \"#utility.yul\":11086:11087   */\n      0x01\n        /* \"#utility.yul\":11074:11088   */\n      swap1\n      swap3\n      add\n      swap2\n        /* \"#utility.yul\":10953:10965   */\n      add\n        /* \"#utility.yul\":10923:11152   */\n      jump(tag_413)\n    tag_415:\n        /* \"#utility.yul\":10927:10930   */\n      pop\n        /* \"#utility.yul\":11180:11183   */\n      dup7\n        /* \"#utility.yul\":11171:11178   */\n      dup3\n        /* \"#utility.yul\":11168:11184   */\n      lt\n        /* \"#utility.yul\":11165:11324   */\n      iszero\n      tag_416\n      jumpi\n        /* \"#utility.yul\":11304:11305   */\n      0x00\n        /* \"#utility.yul\":11300:11306   */\n      not\n        /* \"#utility.yul\":11294:11297   */\n      0xf8\n        /* \"#utility.yul\":11288:11291   */\n      dup9\n        /* \"#utility.yul\":11285:11286   */\n      0x03\n        /* \"#utility.yul\":11281:11292   */\n      shl\n        /* \"#utility.yul\":11277:11298   */\n      and\n        /* \"#utility.yul\":11273:11307   */\n      shr\n        /* \"#utility.yul\":11269:11308   */\n      not\n        /* \"#utility.yul\":11256:11265   */\n      dup5\n        /* \"#utility.yul\":11251:11254   */\n      dup8\n        /* \"#utility.yul\":11247:11266   */\n      add\n        /* \"#utility.yul\":11234:11267   */\n      calldataload\n        /* \"#utility.yul\":11230:11309   */\n      and\n        /* \"#utility.yul\":11222:11228   */\n      dup2\n        /* \"#utility.yul\":11215:11310   */\n      sstore\n        /* \"#utility.yul\":11165:11324   */\n    tag_416:\n      pop\n      pop\n        /* \"#utility.yul\":11367:11368   */\n      0x01\n        /* \"#utility.yul\":11361:11364   */\n      dup6\n        /* \"#utility.yul\":11358:11359   */\n      0x01\n        /* \"#utility.yul\":11354:11365   */\n      shl\n        /* \"#utility.yul\":11350:11369   */\n      add\n        /* \"#utility.yul\":11344:11348   */\n      dup4\n        /* \"#utility.yul\":11337:11370   */\n      sstore\n        /* \"#utility.yul\":10745:11632   */\n      pop\n      pop\n        /* \"#utility.yul\":10440:11638   */\n      pop\n      pop\n      pop\n      jump\t// out\n        /* \"#utility.yul\":11643:11946   */\n    tag_281:\n        /* \"#utility.yul\":11774:11777   */\n      0x00\n        /* \"#utility.yul\":11812:11818   */\n      dup3\n        /* \"#utility.yul\":11806:11819   */\n      mload\n        /* \"#utility.yul\":11858:11864   */\n      dup1\n        /* \"#utility.yul\":11851:11855   */\n      0x20\n        /* \"#utility.yul\":11843:11849   */\n      dup6\n        /* \"#utility.yul\":11839:11856   */\n      add\n        /* \"#utility.yul\":11834:11837   */\n      dup5\n        /* \"#utility.yul\":11828:11865   */\n      mcopy\n        /* \"#utility.yul\":11920:11921   */\n      0x00\n        /* \"#utility.yul\":11884:11900   */\n      swap3\n      add\n        /* \"#utility.yul\":11909:11922   */\n      swap2\n      dup3\n      mstore\n      pop\n        /* \"#utility.yul\":11884:11900   */\n      swap2\n        /* \"#utility.yul\":11643:11946   */\n      swap1\n      pop\n      jump\t// out\n        /* \"#utility.yul\":11951:12126   */\n    tag_325:\n        /* \"#utility.yul\":11988:11991   */\n      0x00\n        /* \"#utility.yul\":12032:12036   */\n      0xff\n        /* \"#utility.yul\":12025:12030   */\n      dup3\n        /* \"#utility.yul\":12021:12037   */\n      and\n        /* \"#utility.yul\":12061:12065   */\n      0xff\n        /* \"#utility.yul\":12052:12059   */\n      dup2\n        /* \"#utility.yul\":12049:12066   */\n      sub\n        /* \"#utility.yul\":12046:12089   */\n      tag_420\n      jumpi\n        /* \"#utility.yul\":12069:12087   */\n      tag_420\n      tag_328\n      jump\t// in\n    tag_420:\n        /* \"#utility.yul\":12118:12119   */\n      0x01\n        /* \"#utility.yul\":12105:12120   */\n      add\n      swap3\n        /* \"#utility.yul\":11951:12126   */\n      swap2\n      pop\n      pop\n      jump\t// out\n\n    auxdata: 0xa2646970667358221220645169c05020f300c586467516e17dbd2446f32a347b05d867977bac1de6abbc64736f6c634300081e0033\n}\n",
				"bytecode": {
					"linkReferences": {},
					"object": "6080604052348015600e575f5ffd5b5061214d8061001c5f395ff3fe6080604052600436106100bf575f3560e01c806376dd13051161007c5780639267bfdc116100575780639267bfdc14610215578063927c368d14610241578063bd89d4d814610260578063cdb2000d1461028d575f5ffd5b806376dd1305146101a85780637c5e107f146101c75780638c7d0624146101f6575f5ffd5b8063071b3902146100c357806328b89be7146100e45780632b798c0f146101195780632d74801d146101385780632eac249c146101645780634d0c1b9814610177575b5f5ffd5b3480156100ce575f5ffd5b506100e26100dd366004611bd0565b6102ee565b005b3480156100ef575f5ffd5b506101036100fe366004611c87565b6104ca565b6040516101109190611ca0565b60405180910390f35b348015610124575f5ffd5b506100e2610133366004611d24565b6105b4565b348015610143575f5ffd5b50610157610152366004611d24565b6106e2565b6040516101109190611d63565b6100e2610172366004611d24565b6107f1565b348015610182575f5ffd5b50610196610191366004611dd8565b610b3f565b60405160ff9091168152602001610110565b3480156101b3575f5ffd5b506100e26101c2366004611d24565b610bf5565b3480156101d2575f5ffd5b506101e66101e1366004611dd8565b610efe565b6040519015158152602001610110565b348015610201575f5ffd5b506100e2610210366004611e28565b610f9d565b348015610220575f5ffd5b5061023461022f366004611d24565b6110e1565b6040516101109190611ea4565b34801561024c575f5ffd5b506100e261025b366004611d24565b611203565b34801561026b575f5ffd5b5061027f61027a366004611dd8565b611487565b604051908152602001610110565b348015610298575f5ffd5b506102ac6102a7366004611d24565b61152b565b604080516001600160a01b039097168752602087019590955260ff938416948601949094529116606084015215156080830152151560a082015260c001610110565b83835f6001600160a01b03165f838360405161030b929190611f2b565b908152604051908190036020019020546001600160a01b031603610342576040516305e3033b60e11b815260040160405180910390fd5b85855f8282604051610355929190611f2b565b9081526040519081900360200190206002015460ff600160301b9091041615610391576040516382d4e1db60e01b815260040160405180910390fd5b8787336001600160a01b03165f83836040516103ae929190611f2b565b908152604051908190036020019020546001600160a01b0316146103e557604051633580c86560e01b815260040160405180910390fd5b5f8a8a6040516103f6929190611f2b565b9081526040519081900360200190206002015460ff600160381b909104161561043257604051634f992b6f60e01b815260040160405180910390fd5b5f5f8b8b604051610444929190611f2b565b90815260405190819003602001902090505f5b888110156104bc576001826004015f8c8c8581811061047857610478611f3a565b905060200201602081019061048d9190611c87565b6001600160a01b0316815260208101919091526040015f20805460ff1916911515919091179055600101610457565b505050505050505050505050565b6001600160a01b0381165f908152600160209081526040808320805482518185028101850190935280835260609492939192909184015b828210156105a9578382905f5260205f2001805461051e90611f4e565b80601f016020809104026020016040519081016040528092919081815260200182805461054a90611f4e565b80156105955780601f1061056c57610100808354040283529160200191610595565b820191905f5260205f20905b81548152906001019060200180831161057857829003601f168201915b505050505081526020019060010190610501565b505050509050919050565b81815f6001600160a01b03165f83836040516105d1929190611f2b565b908152604051908190036020019020546001600160a01b031603610608576040516305e3033b60e11b815260040160405180910390fd5b5f5f858560405161061a929190611f2b565b9081526040805160209281900383019020335f90815260078201909352908220549092509081900361064d5750506106dc565b335f8181526007840160205260408082208290555190919083908381818185875af1925050503d805f811461069d576040519150601f19603f3d011682016040523d82523d5f602084013e6106a2565b606091505b50509050806106d857335f908152600784016020526040908190208390558051638a6c667760e01b815290519081900360040190fd5b5050505b50505050565b606082825f6001600160a01b03165f8383604051610701929190611f2b565b908152604051908190036020019020546001600160a01b031603610738576040516305e3033b60e11b815260040160405180910390fd5b5f8585604051610749929190611f2b565b9081526020016040518091039020600501805480602002602001604051908101604052809291908181526020015f905b828210156107e3575f84815260209081902060408051608081018252918501546001600160a01b038116835260ff600160a01b8204811684860152600160a81b82048116151592840192909252600160b01b90041615156060820152825260019092019101610779565b505050509250505092915050565b81815f6001600160a01b03165f838360405161080e929190611f2b565b908152604051908190036020019020546001600160a01b031603610845576040516305e3033b60e11b815260040160405180910390fd5b83835f8282604051610858929190611f2b565b9081526040519081900360200190206002015460ff600160301b9091041615610894576040516382d4e1db60e01b815260040160405180910390fd5b5f5f87876040516108a6929190611f2b565b908152604051908190036020019020600281015490915060ff600160381b909104166108e55760405163037280ed60e31b815260040160405180910390fd5b806001015434146109095760405163683f014960e11b815260040160405180910390fd5b5f6109158888336115f1565b905081600501818154811061092c5761092c611f3a565b5f91825260209091200154600160b01b900460ff16156109625760405160016260800360e11b0319815260040160405180910390fd5b600182600501828154811061097957610979611f3a565b5f91825260208220018054921515600160b01b0260ff60b01b19909316929092179091556003830180543492906109b1908490611f9a565b90915550506040805160c081018252338082523060208084019182523484860190815263ffffffff428116606087019081526002808b015460ff610100909104811660808a019081525f60a08b0181815260068f01805460018181018355918452999092209b516004909902909b0180546001600160a01b03998a166001600160a01b0319918216178255995191810180549290991691909916179096559351908601555160039094018054935196511515650100000000000265ff000000000019979093166401000000000264ffffffffff1990941694909116939093179190911793909316929092179091559051610aae908a908a90611f2b565b604051908190038120348252907fc32ea7ed7629d43005f8151868025fa2572b1299c75f63049895fa7abf4681049060200160405180910390a3610af2888861168a565b15610b3557610b3588888080601f0160208091040260200160405190810160405280939291908181526020018383808284375f9201919091525061170692505050565b5050505050505050565b5f83835f6001600160a01b03165f8383604051610b5d929190611f2b565b908152604051908190036020019020546001600160a01b031603610b94576040516305e3033b60e11b815260040160405180910390fd5b5f610ba08787876115f1565b90505f8787604051610bb3929190611f2b565b90815260200160405180910390206005018181548110610bd557610bd5611f3a565b5f91825260209091200154600160a01b900460ff16979650505050505050565b81815f6001600160a01b03165f8383604051610c12929190611f2b565b908152604051908190036020019020546001600160a01b031603610c49576040516305e3033b60e11b815260040160405180910390fd5b83835f8282604051610c5c929190611f2b565b9081526040519081900360200190206002015460ff600160301b9091041615610c98576040516382d4e1db60e01b815260040160405180910390fd5b8585336001600160a01b03165f8383604051610cb5929190611f2b565b908152604051908190036020019020546001600160a01b031614610cec57604051633580c86560e01b815260040160405180910390fd5b5f5f8989604051610cfe929190611f2b565b908152604051908190036020019020600281015490915060ff600160381b9091041615610d3e57604051634f992b6f60e01b815260040160405180910390fd5b60058101545f610d4f826001611f9a565b67ffffffffffffffff811115610d6757610d67611fad565b604051908082528060200260200182016040528015610d90578160200160208202803683370190505b5090505f5b82811015610e98575f5b8342443385604051602001610ddf9493929190938452602084019290925260601b6bffffffffffffffffffffffff19166040830152605482015260740190565b604051602081830303815290604052805190602001205f1c610e019190611fc1565b610e0c906001611f9a565b9050828181518110610e2057610e20611f3a565b6020026020010151610d9f576001838281518110610e4057610e40611f3a565b60200260200101901515908115158152505080856005018381548110610e6857610e68611f3a565b5f918252602090912001805460ff92909216600160a01b0260ff60a01b1990921691909117905550600101610d95565b5060028301805467ff000000000000001916600160381b179055604051610ec2908c908c90611f2b565b604051908190038120907f421589e4cd20383eafb22df9d4cf58f97cf473dac683d1194a2684012b343667905f90a25050505050505050505050565b5f83835f6001600160a01b03165f8383604051610f1c929190611f2b565b908152604051908190036020019020546001600160a01b031603610f53576040516305e3033b60e11b815260040160405180910390fd5b5f8686604051610f64929190611f2b565b90815260408051602092819003830190206001600160a01b03969096165f90815260049096019091529093205460ff1695945050505050565b5f6001600160a01b03165f8686604051610fb8929190611f2b565b908152604051908190036020019020546001600160a01b031614610fef57604051633661991960e21b815260040160405180910390fd5b5f5f8686604051611001929190611f2b565b90815260408051602092819003830190208054336001600160a01b031990911681178255600180830188905560028301805461010060ff8c1665ffffffff00ff19909216919091176201000063ffffffff8b16021761ff0019161790555f918252600483018552838220805460ff1916821790558085529281208054938401815581529290922091925001611097868883612029565b5060405133906110aa9088908890611f2b565b604051908190038120907fdc9655bdffa72541122a0c5c0863a88cd625f0215c7b168904e9d5a261728a12905f90a3505050505050565b606082825f6001600160a01b03165f8383604051611100929190611f2b565b908152604051908190036020019020546001600160a01b031603611137576040516305e3033b60e11b815260040160405180910390fd5b5f8585604051611148929190611f2b565b9081526020016040518091039020600601805480602002602001604051908101604052809291908181526020015f905b828210156107e3575f8481526020908190206040805160c0810182526004860290920180546001600160a01b039081168452600180830154909116848601526002820154928401929092526003015463ffffffff8116606084015260ff6401000000008204811660808501526501000000000090910416151560a08301529083529092019101611178565b81815f6001600160a01b03165f8383604051611220929190611f2b565b908152604051908190036020019020546001600160a01b031603611257576040516305e3033b60e11b815260040160405180910390fd5b83835f828260405161126a929190611f2b565b9081526040519081900360200190206002015460ff600160301b90910416156112a6576040516382d4e1db60e01b815260040160405180910390fd5b5f5f87876040516112b8929190611f2b565b9081526040805160209281900383019020335f9081526004820190935291205490915060ff166112fb57604051637b41a58760e11b815260040160405180910390fd5b6002810154600582015460ff90911611611328576040516309d05a9360e11b815260040160405180910390fd5b6002810154600160381b900460ff161561135557604051634f992b6f60e01b815260040160405180910390fd5b611360878733611a2b565b1561137e576040516395cc703360e01b815260040160405180910390fd5b60408051608081018252338082525f602080840182815284860183815260608601848152600589018054600180820183559187528587209851980180549451935192511515600160b01b0260ff60b01b19931515600160a81b029390931661ffff60a81b1960ff909516600160a01b026001600160a81b03199096166001600160a01b03909a16999099179490941792909216969096179590951790559181528282529283208054928301815583529091200161143c878983612029565b50604051339061144f9089908990611f2b565b604051908190038120907fff26e55e4141a40652551f6deb99ad6a479802fea36b667695053604b4550461905f90a350505050505050565b5f83835f6001600160a01b03165f83836040516114a5929190611f2b565b908152604051908190036020019020546001600160a01b0316036114dc576040516305e3033b60e11b815260040160405180910390fd5b5f86866040516114ed929190611f2b565b90815260200160405180910390206007015f856001600160a01b03166001600160a01b031681526020019081526020015f2054925050509392505050565b5f5f5f5f5f5f87875f6001600160a01b03165f838360405161154e929190611f2b565b908152604051908190036020019020546001600160a01b031603611585576040516305e3033b60e11b815260040160405180910390fd5b5f5f8b8b604051611597929190611f2b565b908152604051908190036020019020805460018201546002909201546001600160a01b039091169d919c5060ff8082169c50610100820481169b50600160301b820481169a50600160381b90910416975095505050505050565b5f5f5f8585604051611604929190611f2b565b90815260405190819003602001902060050190505f5b815481101561166957836001600160a01b031682828154811061163f5761163f611f3a565b5f918252602090912001546001600160a01b0316036116615791506116839050565b60010161161a565b50604051637b41a58760e11b815260040160405180910390fd5b9392505050565b5f5f5f848460405161169d929190611f2b565b90815260405190819003602001902060050190505f5b81548110156116f9578181815481106116ce576116ce611f3a565b5f91825260209091200154600160b01b900460ff166116f1575f92505050611700565b6001016116b3565b5060019150505b92915050565b5f5f8260405161171691906120e3565b90815260405190819003602001902090505f80805b60058401548110156117b6578360020160019054906101000a900460ff1660ff1684600501828154811061176157611761611f3a565b5f91825260209091200154600160a01b900460ff16036117ae5783600501818154811061179057611790611f3a565b5f918252602090912001546001600160a01b031692509050806117b6565b60010161172b565b508260050181815481106117cc576117cc611f3a565b5f91825260209091200154600160a81b900460ff16156117ff5760405163482590e560e01b815260040160405180910390fd5b5f83600301549050600184600501838154811061181e5761181e611f3a565b5f91825260208083209091018054931515600160a81b0260ff60a81b1990941693909317909255600386018190556001600160a01b038516815260078601909152604081208054839290611873908490611f9a565b92505081905550836006016040518060c00160405280306001600160a01b03168152602001856001600160a01b031681526020018381526020014263ffffffff1681526020018660020160019054906101000a900460ff1660ff16815260200160011515815250908060018154018082558091505060019003905f5260205f2090600402015f909190919091505f820151815f015f6101000a8154816001600160a01b0302191690836001600160a01b031602179055506020820151816001015f6101000a8154816001600160a01b0302191690836001600160a01b03160217905550604082015181600201556060820151816003015f6101000a81548163ffffffff021916908363ffffffff16021790555060808201518160030160046101000a81548160ff021916908360ff16021790555060a08201518160030160056101000a81548160ff0219169083151502179055505050826001600160a01b0316856040516119e191906120e3565b604051908190038120838252907f218ced6c72c30727cfef716340083e153116147ccb1a6e4c57a923dc87577af59060200160405180910390a3611a2485611ab0565b5050505050565b5f5f5f8585604051611a3e929190611f2b565b90815260405190819003602001902060050190505f5b8154811015611aa557836001600160a01b0316828281548110611a7957611a79611f3a565b5f918252602090912001546001600160a01b031603611a9d57600192505050611683565b600101611a54565b505f95945050505050565b5f5f82604051611ac091906120e3565b90815260405190819003602001902090505f5b6005820154811015611b21575f826005018281548110611af557611af5611f3a565b5f9182526020909120018054911515600160b01b0260ff60b01b19909216919091179055600101611ad3565b50600281015460ff8082166101009092041610611b545760028101805466ff0000000000001916600160301b1790555050565b600281018054610100900460ff16906001611b6e836120f9565b91906101000a81548160ff021916908360ff160217905550505050565b5f5f83601f840112611b9b575f5ffd5b50813567ffffffffffffffff811115611bb2575f5ffd5b602083019150836020828501011115611bc9575f5ffd5b9250929050565b5f5f5f5f60408587031215611be3575f5ffd5b843567ffffffffffffffff811115611bf9575f5ffd5b611c0587828801611b8b565b909550935050602085013567ffffffffffffffff811115611c24575f5ffd5b8501601f81018713611c34575f5ffd5b803567ffffffffffffffff811115611c4a575f5ffd5b8760208260051b8401011115611c5e575f5ffd5b949793965060200194505050565b80356001600160a01b0381168114611c82575f5ffd5b919050565b5f60208284031215611c97575f5ffd5b61168382611c6c565b5f602082016020835280845180835260408501915060408160051b8601019250602086015f5b82811015611d1857603f19878603018452815180518087528060208301602089015e5f602082890101526020601f19601f83011688010196505050602082019150602084019350600181019050611cc6565b50929695505050505050565b5f5f60208385031215611d35575f5ffd5b823567ffffffffffffffff811115611d4b575f5ffd5b611d5785828601611b8b565b90969095509350505050565b602080825282518282018190525f918401906040840190835b81811015611dcd57835180516001600160a01b0316845260208082015160ff168186015260408083015115159086015260609182015115159185019190915290930192608090920191600101611d7c565b509095945050505050565b5f5f5f60408486031215611dea575f5ffd5b833567ffffffffffffffff811115611e00575f5ffd5b611e0c86828701611b8b565b9094509250611e1f905060208501611c6c565b90509250925092565b5f5f5f5f5f60808688031215611e3c575f5ffd5b853567ffffffffffffffff811115611e52575f5ffd5b611e5e88828901611b8b565b909650945050602086013560ff81168114611e77575f5ffd5b925060408601359150606086013563ffffffff81168114611e96575f5ffd5b809150509295509295909350565b602080825282518282018190525f918401906040840190835b81811015611dcd57835180516001600160a01b039081168552602080830151909116818601526040808301519086015260608083015163ffffffff169086015260808083015160ff169086015260a0918201511515918501919091529093019260c090920191600101611ebd565b818382375f9101908152919050565b634e487b7160e01b5f52603260045260245ffd5b600181811c90821680611f6257607f821691505b602082108103611f8057634e487b7160e01b5f52602260045260245ffd5b50919050565b634e487b7160e01b5f52601160045260245ffd5b8082018082111561170057611700611f86565b634e487b7160e01b5f52604160045260245ffd5b5f82611fdb57634e487b7160e01b5f52601260045260245ffd5b500690565b601f82111561202457805f5260205f20601f840160051c810160208510156120055750805b601f840160051c820191505b81811015611a24575f8155600101612011565b505050565b67ffffffffffffffff83111561204157612041611fad565b6120558361204f8354611f4e565b83611fe0565b5f601f841160018114612086575f851561206f5750838201355b5f19600387901b1c1916600186901b178355611a24565b5f83815260208120601f198716915b828110156120b55786850135825560209485019460019092019101612095565b50868210156120d1575f1960f88860031b161c19848701351681555b505060018560011b0183555050505050565b5f82518060208501845e5f920191825250919050565b5f60ff821660ff810361210e5761210e611f86565b6001019291505056fea2646970667358221220645169c05020f300c586467516e17dbd2446f32a347b05d867977bac1de6abbc64736f6c634300081e0033",
					"opcodes": "PUSH1 0x80 PUSH1 0x40 MSTORE CALLVALUE DUP1 ISZERO PUSH1 0xE JUMPI PUSH0 PUSH0 REVERT JUMPDEST POP PUSH2 0x214D DUP1 PUSH2 0x1C PUSH0 CODECOPY PUSH0 RETURN INVALID PUSH1 0x80 PUSH1 0x40 MSTORE PUSH1 0x4 CALLDATASIZE LT PUSH2 0xBF JUMPI PUSH0 CALLDATALOAD PUSH1 0xE0 SHR DUP1 PUSH4 0x76DD1305 GT PUSH2 0x7C JUMPI DUP1 PUSH4 0x9267BFDC GT PUSH2 0x57 JUMPI DUP1 PUSH4 0x9267BFDC EQ PUSH2 0x215 JUMPI DUP1 PUSH4 0x927C368D EQ PUSH2 0x241 JUMPI DUP1 PUSH4 0xBD89D4D8 EQ PUSH2 0x260 JUMPI DUP1 PUSH4 0xCDB2000D EQ PUSH2 0x28D JUMPI PUSH0 PUSH0 REVERT JUMPDEST DUP1 PUSH4 0x76DD1305 EQ PUSH2 0x1A8 JUMPI DUP1 PUSH4 0x7C5E107F EQ PUSH2 0x1C7 JUMPI DUP1 PUSH4 0x8C7D0624 EQ PUSH2 0x1F6 JUMPI PUSH0 PUSH0 REVERT JUMPDEST DUP1 PUSH4 0x71B3902 EQ PUSH2 0xC3 JUMPI DUP1 PUSH4 0x28B89BE7 EQ PUSH2 0xE4 JUMPI DUP1 PUSH4 0x2B798C0F EQ PUSH2 0x119 JUMPI DUP1 PUSH4 0x2D74801D EQ PUSH2 0x138 JUMPI DUP1 PUSH4 0x2EAC249C EQ PUSH2 0x164 JUMPI DUP1 PUSH4 0x4D0C1B98 EQ PUSH2 0x177 JUMPI JUMPDEST PUSH0 PUSH0 REVERT JUMPDEST CALLVALUE DUP1 ISZERO PUSH2 0xCE JUMPI PUSH0 PUSH0 REVERT JUMPDEST POP PUSH2 0xE2 PUSH2 0xDD CALLDATASIZE PUSH1 0x4 PUSH2 0x1BD0 JUMP JUMPDEST PUSH2 0x2EE JUMP JUMPDEST STOP JUMPDEST CALLVALUE DUP1 ISZERO PUSH2 0xEF JUMPI PUSH0 PUSH0 REVERT JUMPDEST POP PUSH2 0x103 PUSH2 0xFE CALLDATASIZE PUSH1 0x4 PUSH2 0x1C87 JUMP JUMPDEST PUSH2 0x4CA JUMP JUMPDEST PUSH1 0x40 MLOAD PUSH2 0x110 SWAP2 SWAP1 PUSH2 0x1CA0 JUMP JUMPDEST PUSH1 0x40 MLOAD DUP1 SWAP2 SUB SWAP1 RETURN JUMPDEST CALLVALUE DUP1 ISZERO PUSH2 0x124 JUMPI PUSH0 PUSH0 REVERT JUMPDEST POP PUSH2 0xE2 PUSH2 0x133 CALLDATASIZE PUSH1 0x4 PUSH2 0x1D24 JUMP JUMPDEST PUSH2 0x5B4 JUMP JUMPDEST CALLVALUE DUP1 ISZERO PUSH2 0x143 JUMPI PUSH0 PUSH0 REVERT JUMPDEST POP PUSH2 0x157 PUSH2 0x152 CALLDATASIZE PUSH1 0x4 PUSH2 0x1D24 JUMP JUMPDEST PUSH2 0x6E2 JUMP JUMPDEST PUSH1 0x40 MLOAD PUSH2 0x110 SWAP2 SWAP1 PUSH2 0x1D63 JUMP JUMPDEST PUSH2 0xE2 PUSH2 0x172 CALLDATASIZE PUSH1 0x4 PUSH2 0x1D24 JUMP JUMPDEST PUSH2 0x7F1 JUMP JUMPDEST CALLVALUE DUP1 ISZERO PUSH2 0x182 JUMPI PUSH0 PUSH0 REVERT JUMPDEST POP PUSH2 0x196 PUSH2 0x191 CALLDATASIZE PUSH1 0x4 PUSH2 0x1DD8 JUMP JUMPDEST PUSH2 0xB3F JUMP JUMPDEST PUSH1 0x40 MLOAD PUSH1 0xFF SWAP1 SWAP2 AND DUP2 MSTORE PUSH1 0x20 ADD PUSH2 0x110 JUMP JUMPDEST CALLVALUE DUP1 ISZERO PUSH2 0x1B3 JUMPI PUSH0 PUSH0 REVERT JUMPDEST POP PUSH2 0xE2 PUSH2 0x1C2 CALLDATASIZE PUSH1 0x4 PUSH2 0x1D24 JUMP JUMPDEST PUSH2 0xBF5 JUMP JUMPDEST CALLVALUE DUP1 ISZERO PUSH2 0x1D2 JUMPI PUSH0 PUSH0 REVERT JUMPDEST POP PUSH2 0x1E6 PUSH2 0x1E1 CALLDATASIZE PUSH1 0x4 PUSH2 0x1DD8 JUMP JUMPDEST PUSH2 0xEFE JUMP JUMPDEST PUSH1 0x40 MLOAD SWAP1 ISZERO ISZERO DUP2 MSTORE PUSH1 0x20 ADD PUSH2 0x110 JUMP JUMPDEST CALLVALUE DUP1 ISZERO PUSH2 0x201 JUMPI PUSH0 PUSH0 REVERT JUMPDEST POP PUSH2 0xE2 PUSH2 0x210 CALLDATASIZE PUSH1 0x4 PUSH2 0x1E28 JUMP JUMPDEST PUSH2 0xF9D JUMP JUMPDEST CALLVALUE DUP1 ISZERO PUSH2 0x220 JUMPI PUSH0 PUSH0 REVERT JUMPDEST POP PUSH2 0x234 PUSH2 0x22F CALLDATASIZE PUSH1 0x4 PUSH2 0x1D24 JUMP JUMPDEST PUSH2 0x10E1 JUMP JUMPDEST PUSH1 0x40 MLOAD PUSH2 0x110 SWAP2 SWAP1 PUSH2 0x1EA4 JUMP JUMPDEST CALLVALUE DUP1 ISZERO PUSH2 0x24C JUMPI PUSH0 PUSH0 REVERT JUMPDEST POP PUSH2 0xE2 PUSH2 0x25B CALLDATASIZE PUSH1 0x4 PUSH2 0x1D24 JUMP JUMPDEST PUSH2 0x1203 JUMP JUMPDEST CALLVALUE DUP1 ISZERO PUSH2 0x26B JUMPI PUSH0 PUSH0 REVERT JUMPDEST POP PUSH2 0x27F PUSH2 0x27A CALLDATASIZE PUSH1 0x4 PUSH2 0x1DD8 JUMP JUMPDEST PUSH2 0x1487 JUMP JUMPDEST PUSH1 0x40 MLOAD SWAP1 DUP2 MSTORE PUSH1 0x20 ADD PUSH2 0x110 JUMP JUMPDEST CALLVALUE DUP1 ISZERO PUSH2 0x298 JUMPI PUSH0 PUSH0 REVERT JUMPDEST POP PUSH2 0x2AC PUSH2 0x2A7 CALLDATASIZE PUSH1 0x4 PUSH2 0x1D24 JUMP JUMPDEST PUSH2 0x152B JUMP JUMPDEST PUSH1 0x40 DUP1 MLOAD PUSH1 0x1 PUSH1 0x1 PUSH1 0xA0 SHL SUB SWAP1 SWAP8 AND DUP8 MSTORE PUSH1 0x20 DUP8 ADD SWAP6 SWAP1 SWAP6 MSTORE PUSH1 0xFF SWAP4 DUP5 AND SWAP5 DUP7 ADD SWAP5 SWAP1 SWAP5 MSTORE SWAP2 AND PUSH1 0x60 DUP5 ADD MSTORE ISZERO ISZERO PUSH1 0x80 DUP4 ADD MSTORE ISZERO ISZERO PUSH1 0xA0 DUP3 ADD MSTORE PUSH1 0xC0 ADD PUSH2 0x110 JUMP JUMPDEST DUP4 DUP4 PUSH0 PUSH1 0x1 PUSH1 0x1 PUSH1 0xA0 SHL SUB AND PUSH0 DUP4 DUP4 PUSH1 0x40 MLOAD PUSH2 0x30B SWAP3 SWAP2 SWAP1 PUSH2 0x1F2B JUMP JUMPDEST SWAP1 DUP2 MSTORE PUSH1 0x40 MLOAD SWAP1 DUP2 SWAP1 SUB PUSH1 0x20 ADD SWAP1 KECCAK256 SLOAD PUSH1 0x1 PUSH1 0x1 PUSH1 0xA0 SHL SUB AND SUB PUSH2 0x342 JUMPI PUSH1 0x40 MLOAD PUSH4 0x5E3033B PUSH1 0xE1 SHL DUP2 MSTORE PUSH1 0x4 ADD PUSH1 0x40 MLOAD DUP1 SWAP2 SUB SWAP1 REVERT JUMPDEST DUP6 DUP6 PUSH0 DUP3 DUP3 PUSH1 0x40 MLOAD PUSH2 0x355 SWAP3 SWAP2 SWAP1 PUSH2 0x1F2B JUMP JUMPDEST SWAP1 DUP2 MSTORE PUSH1 0x40 MLOAD SWAP1 DUP2 SWAP1 SUB PUSH1 0x20 ADD SWAP1 KECCAK256 PUSH1 0x2 ADD SLOAD PUSH1 0xFF PUSH1 0x1 PUSH1 0x30 SHL SWAP1 SWAP2 DIV AND ISZERO PUSH2 0x391 JUMPI PUSH1 0x40 MLOAD PUSH4 0x82D4E1DB PUSH1 0xE0 SHL DUP2 MSTORE PUSH1 0x4 ADD PUSH1 0x40 MLOAD DUP1 SWAP2 SUB SWAP1 REVERT JUMPDEST DUP8 DUP8 CALLER PUSH1 0x1 PUSH1 0x1 PUSH1 0xA0 SHL SUB AND PUSH0 DUP4 DUP4 PUSH1 0x40 MLOAD PUSH2 0x3AE SWAP3 SWAP2 SWAP1 PUSH2 0x1F2B JUMP JUMPDEST SWAP1 DUP2 MSTORE PUSH1 0x40 MLOAD SWAP1 DUP2 SWAP1 SUB PUSH1 0x20 ADD SWAP1 KECCAK256 SLOAD PUSH1 0x1 PUSH1 0x1 PUSH1 0xA0 SHL SUB AND EQ PUSH2 0x3E5 JUMPI PUSH1 0x40 MLOAD PUSH4 0x3580C865 PUSH1 0xE0 SHL DUP2 MSTORE PUSH1 0x4 ADD PUSH1 0x40 MLOAD DUP1 SWAP2 SUB SWAP1 REVERT JUMPDEST PUSH0 DUP11 DUP11 PUSH1 0x40 MLOAD PUSH2 0x3F6 SWAP3 SWAP2 SWAP1 PUSH2 0x1F2B JUMP JUMPDEST SWAP1 DUP2 MSTORE PUSH1 0x40 MLOAD SWAP1 DUP2 SWAP1 SUB PUSH1 0x20 ADD SWAP1 KECCAK256 PUSH1 0x2 ADD SLOAD PUSH1 0xFF PUSH1 0x1 PUSH1 0x38 SHL SWAP1 SWAP2 DIV AND ISZERO PUSH2 0x432 JUMPI PUSH1 0x40 MLOAD PUSH4 0x4F992B6F PUSH1 0xE0 SHL DUP2 MSTORE PUSH1 0x4 ADD PUSH1 0x40 MLOAD DUP1 SWAP2 SUB SWAP1 REVERT JUMPDEST PUSH0 PUSH0 DUP12 DUP12 PUSH1 0x40 MLOAD PUSH2 0x444 SWAP3 SWAP2 SWAP1 PUSH2 0x1F2B JUMP JUMPDEST SWAP1 DUP2 MSTORE PUSH1 0x40 MLOAD SWAP1 DUP2 SWAP1 SUB PUSH1 0x20 ADD SWAP1 KECCAK256 SWAP1 POP PUSH0 JUMPDEST DUP9 DUP2 LT ISZERO PUSH2 0x4BC JUMPI PUSH1 0x1 DUP3 PUSH1 0x4 ADD PUSH0 DUP13 DUP13 DUP6 DUP2 DUP2 LT PUSH2 0x478 JUMPI PUSH2 0x478 PUSH2 0x1F3A JUMP JUMPDEST SWAP1 POP PUSH1 0x20 MUL ADD PUSH1 0x20 DUP2 ADD SWAP1 PUSH2 0x48D SWAP2 SWAP1 PUSH2 0x1C87 JUMP JUMPDEST PUSH1 0x1 PUSH1 0x1 PUSH1 0xA0 SHL SUB AND DUP2 MSTORE PUSH1 0x20 DUP2 ADD SWAP2 SWAP1 SWAP2 MSTORE PUSH1 0x40 ADD PUSH0 KECCAK256 DUP1 SLOAD PUSH1 0xFF NOT AND SWAP2 ISZERO ISZERO SWAP2 SWAP1 SWAP2 OR SWAP1 SSTORE PUSH1 0x1 ADD PUSH2 0x457 JUMP JUMPDEST POP POP POP POP POP POP POP POP POP POP POP POP JUMP JUMPDEST PUSH1 0x1 PUSH1 0x1 PUSH1 0xA0 SHL SUB DUP2 AND PUSH0 SWAP1 DUP2 MSTORE PUSH1 0x1 PUSH1 0x20 SWAP1 DUP2 MSTORE PUSH1 0x40 DUP1 DUP4 KECCAK256 DUP1 SLOAD DUP3 MLOAD DUP2 DUP6 MUL DUP2 ADD DUP6 ADD SWAP1 SWAP4 MSTORE DUP1 DUP4 MSTORE PUSH1 0x60 SWAP5 SWAP3 SWAP4 SWAP2 SWAP3 SWAP1 SWAP2 DUP5 ADD JUMPDEST DUP3 DUP3 LT ISZERO PUSH2 0x5A9 JUMPI DUP4 DUP3 SWAP1 PUSH0 MSTORE PUSH1 0x20 PUSH0 KECCAK256 ADD DUP1 SLOAD PUSH2 0x51E SWAP1 PUSH2 0x1F4E JUMP JUMPDEST DUP1 PUSH1 0x1F ADD PUSH1 0x20 DUP1 SWAP2 DIV MUL PUSH1 0x20 ADD PUSH1 0x40 MLOAD SWAP1 DUP2 ADD PUSH1 0x40 MSTORE DUP1 SWAP3 SWAP2 SWAP1 DUP2 DUP2 MSTORE PUSH1 0x20 ADD DUP3 DUP1 SLOAD PUSH2 0x54A SWAP1 PUSH2 0x1F4E JUMP JUMPDEST DUP1 ISZERO PUSH2 0x595 JUMPI DUP1 PUSH1 0x1F LT PUSH2 0x56C JUMPI PUSH2 0x100 DUP1 DUP4 SLOAD DIV MUL DUP4 MSTORE SWAP2 PUSH1 0x20 ADD SWAP2 PUSH2 0x595 JUMP JUMPDEST DUP3 ADD SWAP2 SWAP1 PUSH0 MSTORE PUSH1 0x20 PUSH0 KECCAK256 SWAP1 JUMPDEST DUP2 SLOAD DUP2 MSTORE SWAP1 PUSH1 0x1 ADD SWAP1 PUSH1 0x20 ADD DUP1 DUP4 GT PUSH2 0x578 JUMPI DUP3 SWAP1 SUB PUSH1 0x1F AND DUP3 ADD SWAP2 JUMPDEST POP POP POP POP POP DUP2 MSTORE PUSH1 0x20 ADD SWAP1 PUSH1 0x1 ADD SWAP1 PUSH2 0x501 JUMP JUMPDEST POP POP POP POP SWAP1 POP SWAP2 SWAP1 POP JUMP JUMPDEST DUP2 DUP2 PUSH0 PUSH1 0x1 PUSH1 0x1 PUSH1 0xA0 SHL SUB AND PUSH0 DUP4 DUP4 PUSH1 0x40 MLOAD PUSH2 0x5D1 SWAP3 SWAP2 SWAP1 PUSH2 0x1F2B JUMP JUMPDEST SWAP1 DUP2 MSTORE PUSH1 0x40 MLOAD SWAP1 DUP2 SWAP1 SUB PUSH1 0x20 ADD SWAP1 KECCAK256 SLOAD PUSH1 0x1 PUSH1 0x1 PUSH1 0xA0 SHL SUB AND SUB PUSH2 0x608 JUMPI PUSH1 0x40 MLOAD PUSH4 0x5E3033B PUSH1 0xE1 SHL DUP2 MSTORE PUSH1 0x4 ADD PUSH1 0x40 MLOAD DUP1 SWAP2 SUB SWAP1 REVERT JUMPDEST PUSH0 PUSH0 DUP6 DUP6 PUSH1 0x40 MLOAD PUSH2 0x61A SWAP3 SWAP2 SWAP1 PUSH2 0x1F2B JUMP JUMPDEST SWAP1 DUP2 MSTORE PUSH1 0x40 DUP1 MLOAD PUSH1 0x20 SWAP3 DUP2 SWAP1 SUB DUP4 ADD SWAP1 KECCAK256 CALLER PUSH0 SWAP1 DUP2 MSTORE PUSH1 0x7 DUP3 ADD SWAP1 SWAP4 MSTORE SWAP1 DUP3 KECCAK256 SLOAD SWAP1 SWAP3 POP SWAP1 DUP2 SWAP1 SUB PUSH2 0x64D JUMPI POP POP PUSH2 0x6DC JUMP JUMPDEST CALLER PUSH0 DUP2 DUP2 MSTORE PUSH1 0x7 DUP5 ADD PUSH1 0x20 MSTORE PUSH1 0x40 DUP1 DUP3 KECCAK256 DUP3 SWAP1 SSTORE MLOAD SWAP1 SWAP2 SWAP1 DUP4 SWAP1 DUP4 DUP2 DUP2 DUP2 DUP6 DUP8 GAS CALL SWAP3 POP POP POP RETURNDATASIZE DUP1 PUSH0 DUP2 EQ PUSH2 0x69D JUMPI PUSH1 0x40 MLOAD SWAP2 POP PUSH1 0x1F NOT PUSH1 0x3F RETURNDATASIZE ADD AND DUP3 ADD PUSH1 0x40 MSTORE RETURNDATASIZE DUP3 MSTORE RETURNDATASIZE PUSH0 PUSH1 0x20 DUP5 ADD RETURNDATACOPY PUSH2 0x6A2 JUMP JUMPDEST PUSH1 0x60 SWAP2 POP JUMPDEST POP POP SWAP1 POP DUP1 PUSH2 0x6D8 JUMPI CALLER PUSH0 SWAP1 DUP2 MSTORE PUSH1 0x7 DUP5 ADD PUSH1 0x20 MSTORE PUSH1 0x40 SWAP1 DUP2 SWAP1 KECCAK256 DUP4 SWAP1 SSTORE DUP1 MLOAD PUSH4 0x8A6C6677 PUSH1 0xE0 SHL DUP2 MSTORE SWAP1 MLOAD SWAP1 DUP2 SWAP1 SUB PUSH1 0x4 ADD SWAP1 REVERT JUMPDEST POP POP POP JUMPDEST POP POP POP POP JUMP JUMPDEST PUSH1 0x60 DUP3 DUP3 PUSH0 PUSH1 0x1 PUSH1 0x1 PUSH1 0xA0 SHL SUB AND PUSH0 DUP4 DUP4 PUSH1 0x40 MLOAD PUSH2 0x701 SWAP3 SWAP2 SWAP1 PUSH2 0x1F2B JUMP JUMPDEST SWAP1 DUP2 MSTORE PUSH1 0x40 MLOAD SWAP1 DUP2 SWAP1 SUB PUSH1 0x20 ADD SWAP1 KECCAK256 SLOAD PUSH1 0x1 PUSH1 0x1 PUSH1 0xA0 SHL SUB AND SUB PUSH2 0x738 JUMPI PUSH1 0x40 MLOAD PUSH4 0x5E3033B PUSH1 0xE1 SHL DUP2 MSTORE PUSH1 0x4 ADD PUSH1 0x40 MLOAD DUP1 SWAP2 SUB SWAP1 REVERT JUMPDEST PUSH0 DUP6 DUP6 PUSH1 0x40 MLOAD PUSH2 0x749 SWAP3 SWAP2 SWAP1 PUSH2 0x1F2B JUMP JUMPDEST SWAP1 DUP2 MSTORE PUSH1 0x20 ADD PUSH1 0x40 MLOAD DUP1 SWAP2 SUB SWAP1 KECCAK256 PUSH1 0x5 ADD DUP1 SLOAD DUP1 PUSH1 0x20 MUL PUSH1 0x20 ADD PUSH1 0x40 MLOAD SWAP1 DUP2 ADD PUSH1 0x40 MSTORE DUP1 SWAP3 SWAP2 SWAP1 DUP2 DUP2 MSTORE PUSH1 0x20 ADD PUSH0 SWAP1 JUMPDEST DUP3 DUP3 LT ISZERO PUSH2 0x7E3 JUMPI PUSH0 DUP5 DUP2 MSTORE PUSH1 0x20 SWAP1 DUP2 SWAP1 KECCAK256 PUSH1 0x40 DUP1 MLOAD PUSH1 0x80 DUP2 ADD DUP3 MSTORE SWAP2 DUP6 ADD SLOAD PUSH1 0x1 PUSH1 0x1 PUSH1 0xA0 SHL SUB DUP2 AND DUP4 MSTORE PUSH1 0xFF PUSH1 0x1 PUSH1 0xA0 SHL DUP3 DIV DUP2 AND DUP5 DUP7 ADD MSTORE PUSH1 0x1 PUSH1 0xA8 SHL DUP3 DIV DUP2 AND ISZERO ISZERO SWAP3 DUP5 ADD SWAP3 SWAP1 SWAP3 MSTORE PUSH1 0x1 PUSH1 0xB0 SHL SWAP1 DIV AND ISZERO ISZERO PUSH1 0x60 DUP3 ADD MSTORE DUP3 MSTORE PUSH1 0x1 SWAP1 SWAP3 ADD SWAP2 ADD PUSH2 0x779 JUMP JUMPDEST POP POP POP POP SWAP3 POP POP POP SWAP3 SWAP2 POP POP JUMP JUMPDEST DUP2 DUP2 PUSH0 PUSH1 0x1 PUSH1 0x1 PUSH1 0xA0 SHL SUB AND PUSH0 DUP4 DUP4 PUSH1 0x40 MLOAD PUSH2 0x80E SWAP3 SWAP2 SWAP1 PUSH2 0x1F2B JUMP JUMPDEST SWAP1 DUP2 MSTORE PUSH1 0x40 MLOAD SWAP1 DUP2 SWAP1 SUB PUSH1 0x20 ADD SWAP1 KECCAK256 SLOAD PUSH1 0x1 PUSH1 0x1 PUSH1 0xA0 SHL SUB AND SUB PUSH2 0x845 JUMPI PUSH1 0x40 MLOAD PUSH4 0x5E3033B PUSH1 0xE1 SHL DUP2 MSTORE PUSH1 0x4 ADD PUSH1 0x40 MLOAD DUP1 SWAP2 SUB SWAP1 REVERT JUMPDEST DUP4 DUP4 PUSH0 DUP3 DUP3 PUSH1 0x40 MLOAD PUSH2 0x858 SWAP3 SWAP2 SWAP1 PUSH2 0x1F2B JUMP JUMPDEST SWAP1 DUP2 MSTORE PUSH1 0x40 MLOAD SWAP1 DUP2 SWAP1 SUB PUSH1 0x20 ADD SWAP1 KECCAK256 PUSH1 0x2 ADD SLOAD PUSH1 0xFF PUSH1 0x1 PUSH1 0x30 SHL SWAP1 SWAP2 DIV AND ISZERO PUSH2 0x894 JUMPI PUSH1 0x40 MLOAD PUSH4 0x82D4E1DB PUSH1 0xE0 SHL DUP2 MSTORE PUSH1 0x4 ADD PUSH1 0x40 MLOAD DUP1 SWAP2 SUB SWAP1 REVERT JUMPDEST PUSH0 PUSH0 DUP8 DUP8 PUSH1 0x40 MLOAD PUSH2 0x8A6 SWAP3 SWAP2 SWAP1 PUSH2 0x1F2B JUMP JUMPDEST SWAP1 DUP2 MSTORE PUSH1 0x40 MLOAD SWAP1 DUP2 SWAP1 SUB PUSH1 0x20 ADD SWAP1 KECCAK256 PUSH1 0x2 DUP2 ADD SLOAD SWAP1 SWAP2 POP PUSH1 0xFF PUSH1 0x1 PUSH1 0x38 SHL SWAP1 SWAP2 DIV AND PUSH2 0x8E5 JUMPI PUSH1 0x40 MLOAD PUSH4 0x37280ED PUSH1 0xE3 SHL DUP2 MSTORE PUSH1 0x4 ADD PUSH1 0x40 MLOAD DUP1 SWAP2 SUB SWAP1 REVERT JUMPDEST DUP1 PUSH1 0x1 ADD SLOAD CALLVALUE EQ PUSH2 0x909 JUMPI PUSH1 0x40 MLOAD PUSH4 0x683F0149 PUSH1 0xE1 SHL DUP2 MSTORE PUSH1 0x4 ADD PUSH1 0x40 MLOAD DUP1 SWAP2 SUB SWAP1 REVERT JUMPDEST PUSH0 PUSH2 0x915 DUP9 DUP9 CALLER PUSH2 0x15F1 JUMP JUMPDEST SWAP1 POP DUP2 PUSH1 0x5 ADD DUP2 DUP2 SLOAD DUP2 LT PUSH2 0x92C JUMPI PUSH2 0x92C PUSH2 0x1F3A JUMP JUMPDEST PUSH0 SWAP2 DUP3 MSTORE PUSH1 0x20 SWAP1 SWAP2 KECCAK256 ADD SLOAD PUSH1 0x1 PUSH1 0xB0 SHL SWAP1 DIV PUSH1 0xFF AND ISZERO PUSH2 0x962 JUMPI PUSH1 0x40 MLOAD PUSH1 0x1 PUSH3 0x608003 PUSH1 0xE1 SHL SUB NOT DUP2 MSTORE PUSH1 0x4 ADD PUSH1 0x40 MLOAD DUP1 SWAP2 SUB SWAP1 REVERT JUMPDEST PUSH1 0x1 DUP3 PUSH1 0x5 ADD DUP3 DUP2 SLOAD DUP2 LT PUSH2 0x979 JUMPI PUSH2 0x979 PUSH2 0x1F3A JUMP JUMPDEST PUSH0 SWAP2 DUP3 MSTORE PUSH1 0x20 DUP3 KECCAK256 ADD DUP1 SLOAD SWAP3 ISZERO ISZERO PUSH1 0x1 PUSH1 0xB0 SHL MUL PUSH1 0xFF PUSH1 0xB0 SHL NOT SWAP1 SWAP4 AND SWAP3 SWAP1 SWAP3 OR SWAP1 SWAP2 SSTORE PUSH1 0x3 DUP4 ADD DUP1 SLOAD CALLVALUE SWAP3 SWAP1 PUSH2 0x9B1 SWAP1 DUP5 SWAP1 PUSH2 0x1F9A JUMP JUMPDEST SWAP1 SWAP2 SSTORE POP POP PUSH1 0x40 DUP1 MLOAD PUSH1 0xC0 DUP2 ADD DUP3 MSTORE CALLER DUP1 DUP3 MSTORE ADDRESS PUSH1 0x20 DUP1 DUP5 ADD SWAP2 DUP3 MSTORE CALLVALUE DUP5 DUP7 ADD SWAP1 DUP2 MSTORE PUSH4 0xFFFFFFFF TIMESTAMP DUP2 AND PUSH1 0x60 DUP8 ADD SWAP1 DUP2 MSTORE PUSH1 0x2 DUP1 DUP12 ADD SLOAD PUSH1 0xFF PUSH2 0x100 SWAP1 SWAP2 DIV DUP2 AND PUSH1 0x80 DUP11 ADD SWAP1 DUP2 MSTORE PUSH0 PUSH1 0xA0 DUP12 ADD DUP2 DUP2 MSTORE PUSH1 0x6 DUP16 ADD DUP1 SLOAD PUSH1 0x1 DUP2 DUP2 ADD DUP4 SSTORE SWAP2 DUP5 MSTORE SWAP10 SWAP1 SWAP3 KECCAK256 SWAP12 MLOAD PUSH1 0x4 SWAP1 SWAP10 MUL SWAP1 SWAP12 ADD DUP1 SLOAD PUSH1 0x1 PUSH1 0x1 PUSH1 0xA0 SHL SUB SWAP10 DUP11 AND PUSH1 0x1 PUSH1 0x1 PUSH1 0xA0 SHL SUB NOT SWAP2 DUP3 AND OR DUP3 SSTORE SWAP10 MLOAD SWAP2 DUP2 ADD DUP1 SLOAD SWAP3 SWAP1 SWAP10 AND SWAP2 SWAP1 SWAP10 AND OR SWAP1 SWAP7 SSTORE SWAP4 MLOAD SWAP1 DUP7 ADD SSTORE MLOAD PUSH1 0x3 SWAP1 SWAP5 ADD DUP1 SLOAD SWAP4 MLOAD SWAP7 MLOAD ISZERO ISZERO PUSH6 0x10000000000 MUL PUSH6 0xFF0000000000 NOT SWAP8 SWAP1 SWAP4 AND PUSH5 0x100000000 MUL PUSH5 0xFFFFFFFFFF NOT SWAP1 SWAP5 AND SWAP5 SWAP1 SWAP2 AND SWAP4 SWAP1 SWAP4 OR SWAP2 SWAP1 SWAP2 OR SWAP4 SWAP1 SWAP4 AND SWAP3 SWAP1 SWAP3 OR SWAP1 SWAP2 SSTORE SWAP1 MLOAD PUSH2 0xAAE SWAP1 DUP11 SWAP1 DUP11 SWAP1 PUSH2 0x1F2B JUMP JUMPDEST PUSH1 0x40 MLOAD SWAP1 DUP2 SWAP1 SUB DUP2 KECCAK256 CALLVALUE DUP3 MSTORE SWAP1 PUSH32 0xC32EA7ED7629D43005F8151868025FA2572B1299C75F63049895FA7ABF468104 SWAP1 PUSH1 0x20 ADD PUSH1 0x40 MLOAD DUP1 SWAP2 SUB SWAP1 LOG3 PUSH2 0xAF2 DUP9 DUP9 PUSH2 0x168A JUMP JUMPDEST ISZERO PUSH2 0xB35 JUMPI PUSH2 0xB35 DUP9 DUP9 DUP1 DUP1 PUSH1 0x1F ADD PUSH1 0x20 DUP1 SWAP2 DIV MUL PUSH1 0x20 ADD PUSH1 0x40 MLOAD SWAP1 DUP2 ADD PUSH1 0x40 MSTORE DUP1 SWAP4 SWAP3 SWAP2 SWAP1 DUP2 DUP2 MSTORE PUSH1 0x20 ADD DUP4 DUP4 DUP1 DUP3 DUP5 CALLDATACOPY PUSH0 SWAP3 ADD SWAP2 SWAP1 SWAP2 MSTORE POP PUSH2 0x1706 SWAP3 POP POP POP JUMP JUMPDEST POP POP POP POP POP POP POP POP JUMP JUMPDEST PUSH0 DUP4 DUP4 PUSH0 PUSH1 0x1 PUSH1 0x1 PUSH1 0xA0 SHL SUB AND PUSH0 DUP4 DUP4 PUSH1 0x40 MLOAD PUSH2 0xB5D SWAP3 SWAP2 SWAP1 PUSH2 0x1F2B JUMP JUMPDEST SWAP1 DUP2 MSTORE PUSH1 0x40 MLOAD SWAP1 DUP2 SWAP1 SUB PUSH1 0x20 ADD SWAP1 KECCAK256 SLOAD PUSH1 0x1 PUSH1 0x1 PUSH1 0xA0 SHL SUB AND SUB PUSH2 0xB94 JUMPI PUSH1 0x40 MLOAD PUSH4 0x5E3033B PUSH1 0xE1 SHL DUP2 MSTORE PUSH1 0x4 ADD PUSH1 0x40 MLOAD DUP1 SWAP2 SUB SWAP1 REVERT JUMPDEST PUSH0 PUSH2 0xBA0 DUP8 DUP8 DUP8 PUSH2 0x15F1 JUMP JUMPDEST SWAP1 POP PUSH0 DUP8 DUP8 PUSH1 0x40 MLOAD PUSH2 0xBB3 SWAP3 SWAP2 SWAP1 PUSH2 0x1F2B JUMP JUMPDEST SWAP1 DUP2 MSTORE PUSH1 0x20 ADD PUSH1 0x40 MLOAD DUP1 SWAP2 SUB SWAP1 KECCAK256 PUSH1 0x5 ADD DUP2 DUP2 SLOAD DUP2 LT PUSH2 0xBD5 JUMPI PUSH2 0xBD5 PUSH2 0x1F3A JUMP JUMPDEST PUSH0 SWAP2 DUP3 MSTORE PUSH1 0x20 SWAP1 SWAP2 KECCAK256 ADD SLOAD PUSH1 0x1 PUSH1 0xA0 SHL SWAP1 DIV PUSH1 0xFF AND SWAP8 SWAP7 POP POP POP POP POP POP POP JUMP JUMPDEST DUP2 DUP2 PUSH0 PUSH1 0x1 PUSH1 0x1 PUSH1 0xA0 SHL SUB AND PUSH0 DUP4 DUP4 PUSH1 0x40 MLOAD PUSH2 0xC12 SWAP3 SWAP2 SWAP1 PUSH2 0x1F2B JUMP JUMPDEST SWAP1 DUP2 MSTORE PUSH1 0x40 MLOAD SWAP1 DUP2 SWAP1 SUB PUSH1 0x20 ADD SWAP1 KECCAK256 SLOAD PUSH1 0x1 PUSH1 0x1 PUSH1 0xA0 SHL SUB AND SUB PUSH2 0xC49 JUMPI PUSH1 0x40 MLOAD PUSH4 0x5E3033B PUSH1 0xE1 SHL DUP2 MSTORE PUSH1 0x4 ADD PUSH1 0x40 MLOAD DUP1 SWAP2 SUB SWAP1 REVERT JUMPDEST DUP4 DUP4 PUSH0 DUP3 DUP3 PUSH1 0x40 MLOAD PUSH2 0xC5C SWAP3 SWAP2 SWAP1 PUSH2 0x1F2B JUMP JUMPDEST SWAP1 DUP2 MSTORE PUSH1 0x40 MLOAD SWAP1 DUP2 SWAP1 SUB PUSH1 0x20 ADD SWAP1 KECCAK256 PUSH1 0x2 ADD SLOAD PUSH1 0xFF PUSH1 0x1 PUSH1 0x30 SHL SWAP1 SWAP2 DIV AND ISZERO PUSH2 0xC98 JUMPI PUSH1 0x40 MLOAD PUSH4 0x82D4E1DB PUSH1 0xE0 SHL DUP2 MSTORE PUSH1 0x4 ADD PUSH1 0x40 MLOAD DUP1 SWAP2 SUB SWAP1 REVERT JUMPDEST DUP6 DUP6 CALLER PUSH1 0x1 PUSH1 0x1 PUSH1 0xA0 SHL SUB AND PUSH0 DUP4 DUP4 PUSH1 0x40 MLOAD PUSH2 0xCB5 SWAP3 SWAP2 SWAP1 PUSH2 0x1F2B JUMP JUMPDEST SWAP1 DUP2 MSTORE PUSH1 0x40 MLOAD SWAP1 DUP2 SWAP1 SUB PUSH1 0x20 ADD SWAP1 KECCAK256 SLOAD PUSH1 0x1 PUSH1 0x1 PUSH1 0xA0 SHL SUB AND EQ PUSH2 0xCEC JUMPI PUSH1 0x40 MLOAD PUSH4 0x3580C865 PUSH1 0xE0 SHL DUP2 MSTORE PUSH1 0x4 ADD PUSH1 0x40 MLOAD DUP1 SWAP2 SUB SWAP1 REVERT JUMPDEST PUSH0 PUSH0 DUP10 DUP10 PUSH1 0x40 MLOAD PUSH2 0xCFE SWAP3 SWAP2 SWAP1 PUSH2 0x1F2B JUMP JUMPDEST SWAP1 DUP2 MSTORE PUSH1 0x40 MLOAD SWAP1 DUP2 SWAP1 SUB PUSH1 0x20 ADD SWAP1 KECCAK256 PUSH1 0x2 DUP2 ADD SLOAD SWAP1 SWAP2 POP PUSH1 0xFF PUSH1 0x1 PUSH1 0x38 SHL SWAP1 SWAP2 DIV AND ISZERO PUSH2 0xD3E JUMPI PUSH1 0x40 MLOAD PUSH4 0x4F992B6F PUSH1 0xE0 SHL DUP2 MSTORE PUSH1 0x4 ADD PUSH1 0x40 MLOAD DUP1 SWAP2 SUB SWAP1 REVERT JUMPDEST PUSH1 0x5 DUP2 ADD SLOAD PUSH0 PUSH2 0xD4F DUP3 PUSH1 0x1 PUSH2 0x1F9A JUMP JUMPDEST PUSH8 0xFFFFFFFFFFFFFFFF DUP2 GT ISZERO PUSH2 0xD67 JUMPI PUSH2 0xD67 PUSH2 0x1FAD JUMP JUMPDEST PUSH1 0x40 MLOAD SWAP1 DUP1 DUP3 MSTORE DUP1 PUSH1 0x20 MUL PUSH1 0x20 ADD DUP3 ADD PUSH1 0x40 MSTORE DUP1 ISZERO PUSH2 0xD90 JUMPI DUP2 PUSH1 0x20 ADD PUSH1 0x20 DUP3 MUL DUP1 CALLDATASIZE DUP4 CALLDATACOPY ADD SWAP1 POP JUMPDEST POP SWAP1 POP PUSH0 JUMPDEST DUP3 DUP2 LT ISZERO PUSH2 0xE98 JUMPI PUSH0 JUMPDEST DUP4 TIMESTAMP PREVRANDAO CALLER DUP6 PUSH1 0x40 MLOAD PUSH1 0x20 ADD PUSH2 0xDDF SWAP5 SWAP4 SWAP3 SWAP2 SWAP1 SWAP4 DUP5 MSTORE PUSH1 0x20 DUP5 ADD SWAP3 SWAP1 SWAP3 MSTORE PUSH1 0x60 SHL PUSH12 0xFFFFFFFFFFFFFFFFFFFFFFFF NOT AND PUSH1 0x40 DUP4 ADD MSTORE PUSH1 0x54 DUP3 ADD MSTORE PUSH1 0x74 ADD SWAP1 JUMP JUMPDEST PUSH1 0x40 MLOAD PUSH1 0x20 DUP2 DUP4 SUB SUB DUP2 MSTORE SWAP1 PUSH1 0x40 MSTORE DUP1 MLOAD SWAP1 PUSH1 0x20 ADD KECCAK256 PUSH0 SHR PUSH2 0xE01 SWAP2 SWAP1 PUSH2 0x1FC1 JUMP JUMPDEST PUSH2 0xE0C SWAP1 PUSH1 0x1 PUSH2 0x1F9A JUMP JUMPDEST SWAP1 POP DUP3 DUP2 DUP2 MLOAD DUP2 LT PUSH2 0xE20 JUMPI PUSH2 0xE20 PUSH2 0x1F3A JUMP JUMPDEST PUSH1 0x20 MUL PUSH1 0x20 ADD ADD MLOAD PUSH2 0xD9F JUMPI PUSH1 0x1 DUP4 DUP3 DUP2 MLOAD DUP2 LT PUSH2 0xE40 JUMPI PUSH2 0xE40 PUSH2 0x1F3A JUMP JUMPDEST PUSH1 0x20 MUL PUSH1 0x20 ADD ADD SWAP1 ISZERO ISZERO SWAP1 DUP2 ISZERO ISZERO DUP2 MSTORE POP POP DUP1 DUP6 PUSH1 0x5 ADD DUP4 DUP2 SLOAD DUP2 LT PUSH2 0xE68 JUMPI PUSH2 0xE68 PUSH2 0x1F3A JUMP JUMPDEST PUSH0 SWAP2 DUP3 MSTORE PUSH1 0x20 SWAP1 SWAP2 KECCAK256 ADD DUP1 SLOAD PUSH1 0xFF SWAP3 SWAP1 SWAP3 AND PUSH1 0x1 PUSH1 0xA0 SHL MUL PUSH1 0xFF PUSH1 0xA0 SHL NOT SWAP1 SWAP3 AND SWAP2 SWAP1 SWAP2 OR SWAP1 SSTORE POP PUSH1 0x1 ADD PUSH2 0xD95 JUMP JUMPDEST POP PUSH1 0x2 DUP4 ADD DUP1 SLOAD PUSH8 0xFF00000000000000 NOT AND PUSH1 0x1 PUSH1 0x38 SHL OR SWAP1 SSTORE PUSH1 0x40 MLOAD PUSH2 0xEC2 SWAP1 DUP13 SWAP1 DUP13 SWAP1 PUSH2 0x1F2B JUMP JUMPDEST PUSH1 0x40 MLOAD SWAP1 DUP2 SWAP1 SUB DUP2 KECCAK256 SWAP1 PUSH32 0x421589E4CD20383EAFB22DF9D4CF58F97CF473DAC683D1194A2684012B343667 SWAP1 PUSH0 SWAP1 LOG2 POP POP POP POP POP POP POP POP POP POP POP JUMP JUMPDEST PUSH0 DUP4 DUP4 PUSH0 PUSH1 0x1 PUSH1 0x1 PUSH1 0xA0 SHL SUB AND PUSH0 DUP4 DUP4 PUSH1 0x40 MLOAD PUSH2 0xF1C SWAP3 SWAP2 SWAP1 PUSH2 0x1F2B JUMP JUMPDEST SWAP1 DUP2 MSTORE PUSH1 0x40 MLOAD SWAP1 DUP2 SWAP1 SUB PUSH1 0x20 ADD SWAP1 KECCAK256 SLOAD PUSH1 0x1 PUSH1 0x1 PUSH1 0xA0 SHL SUB AND SUB PUSH2 0xF53 JUMPI PUSH1 0x40 MLOAD PUSH4 0x5E3033B PUSH1 0xE1 SHL DUP2 MSTORE PUSH1 0x4 ADD PUSH1 0x40 MLOAD DUP1 SWAP2 SUB SWAP1 REVERT JUMPDEST PUSH0 DUP7 DUP7 PUSH1 0x40 MLOAD PUSH2 0xF64 SWAP3 SWAP2 SWAP1 PUSH2 0x1F2B JUMP JUMPDEST SWAP1 DUP2 MSTORE PUSH1 0x40 DUP1 MLOAD PUSH1 0x20 SWAP3 DUP2 SWAP1 SUB DUP4 ADD SWAP1 KECCAK256 PUSH1 0x1 PUSH1 0x1 PUSH1 0xA0 SHL SUB SWAP7 SWAP1 SWAP7 AND PUSH0 SWAP1 DUP2 MSTORE PUSH1 0x4 SWAP1 SWAP7 ADD SWAP1 SWAP2 MSTORE SWAP1 SWAP4 KECCAK256 SLOAD PUSH1 0xFF AND SWAP6 SWAP5 POP POP POP POP POP JUMP JUMPDEST PUSH0 PUSH1 0x1 PUSH1 0x1 PUSH1 0xA0 SHL SUB AND PUSH0 DUP7 DUP7 PUSH1 0x40 MLOAD PUSH2 0xFB8 SWAP3 SWAP2 SWAP1 PUSH2 0x1F2B JUMP JUMPDEST SWAP1 DUP2 MSTORE PUSH1 0x40 MLOAD SWAP1 DUP2 SWAP1 SUB PUSH1 0x20 ADD SWAP1 KECCAK256 SLOAD PUSH1 0x1 PUSH1 0x1 PUSH1 0xA0 SHL SUB AND EQ PUSH2 0xFEF JUMPI PUSH1 0x40 MLOAD PUSH4 0x36619919 PUSH1 0xE2 SHL DUP2 MSTORE PUSH1 0x4 ADD PUSH1 0x40 MLOAD DUP1 SWAP2 SUB SWAP1 REVERT JUMPDEST PUSH0 PUSH0 DUP7 DUP7 PUSH1 0x40 MLOAD PUSH2 0x1001 SWAP3 SWAP2 SWAP1 PUSH2 0x1F2B JUMP JUMPDEST SWAP1 DUP2 MSTORE PUSH1 0x40 DUP1 MLOAD PUSH1 0x20 SWAP3 DUP2 SWAP1 SUB DUP4 ADD SWAP1 KECCAK256 DUP1 SLOAD CALLER PUSH1 0x1 PUSH1 0x1 PUSH1 0xA0 SHL SUB NOT SWAP1 SWAP2 AND DUP2 OR DUP3 SSTORE PUSH1 0x1 DUP1 DUP4 ADD DUP9 SWAP1 SSTORE PUSH1 0x2 DUP4 ADD DUP1 SLOAD PUSH2 0x100 PUSH1 0xFF DUP13 AND PUSH6 0xFFFFFFFF00FF NOT SWAP1 SWAP3 AND SWAP2 SWAP1 SWAP2 OR PUSH3 0x10000 PUSH4 0xFFFFFFFF DUP12 AND MUL OR PUSH2 0xFF00 NOT AND OR SWAP1 SSTORE PUSH0 SWAP2 DUP3 MSTORE PUSH1 0x4 DUP4 ADD DUP6 MSTORE DUP4 DUP3 KECCAK256 DUP1 SLOAD PUSH1 0xFF NOT AND DUP3 OR SWAP1 SSTORE DUP1 DUP6 MSTORE SWAP3 DUP2 KECCAK256 DUP1 SLOAD SWAP4 DUP5 ADD DUP2 SSTORE DUP2 MSTORE SWAP3 SWAP1 SWAP3 KECCAK256 SWAP2 SWAP3 POP ADD PUSH2 0x1097 DUP7 DUP9 DUP4 PUSH2 0x2029 JUMP JUMPDEST POP PUSH1 0x40 MLOAD CALLER SWAP1 PUSH2 0x10AA SWAP1 DUP9 SWAP1 DUP9 SWAP1 PUSH2 0x1F2B JUMP JUMPDEST PUSH1 0x40 MLOAD SWAP1 DUP2 SWAP1 SUB DUP2 KECCAK256 SWAP1 PUSH32 0xDC9655BDFFA72541122A0C5C0863A88CD625F0215C7B168904E9D5A261728A12 SWAP1 PUSH0 SWAP1 LOG3 POP POP POP POP POP POP JUMP JUMPDEST PUSH1 0x60 DUP3 DUP3 PUSH0 PUSH1 0x1 PUSH1 0x1 PUSH1 0xA0 SHL SUB AND PUSH0 DUP4 DUP4 PUSH1 0x40 MLOAD PUSH2 0x1100 SWAP3 SWAP2 SWAP1 PUSH2 0x1F2B JUMP JUMPDEST SWAP1 DUP2 MSTORE PUSH1 0x40 MLOAD SWAP1 DUP2 SWAP1 SUB PUSH1 0x20 ADD SWAP1 KECCAK256 SLOAD PUSH1 0x1 PUSH1 0x1 PUSH1 0xA0 SHL SUB AND SUB PUSH2 0x1137 JUMPI PUSH1 0x40 MLOAD PUSH4 0x5E3033B PUSH1 0xE1 SHL DUP2 MSTORE PUSH1 0x4 ADD PUSH1 0x40 MLOAD DUP1 SWAP2 SUB SWAP1 REVERT JUMPDEST PUSH0 DUP6 DUP6 PUSH1 0x40 MLOAD PUSH2 0x1148 SWAP3 SWAP2 SWAP1 PUSH2 0x1F2B JUMP JUMPDEST SWAP1 DUP2 MSTORE PUSH1 0x20 ADD PUSH1 0x40 MLOAD DUP1 SWAP2 SUB SWAP1 KECCAK256 PUSH1 0x6 ADD DUP1 SLOAD DUP1 PUSH1 0x20 MUL PUSH1 0x20 ADD PUSH1 0x40 MLOAD SWAP1 DUP2 ADD PUSH1 0x40 MSTORE DUP1 SWAP3 SWAP2 SWAP1 DUP2 DUP2 MSTORE PUSH1 0x20 ADD PUSH0 SWAP1 JUMPDEST DUP3 DUP3 LT ISZERO PUSH2 0x7E3 JUMPI PUSH0 DUP5 DUP2 MSTORE PUSH1 0x20 SWAP1 DUP2 SWAP1 KECCAK256 PUSH1 0x40 DUP1 MLOAD PUSH1 0xC0 DUP2 ADD DUP3 MSTORE PUSH1 0x4 DUP7 MUL SWAP1 SWAP3 ADD DUP1 SLOAD PUSH1 0x1 PUSH1 0x1 PUSH1 0xA0 SHL SUB SWAP1 DUP2 AND DUP5 MSTORE PUSH1 0x1 DUP1 DUP4 ADD SLOAD SWAP1 SWAP2 AND DUP5 DUP7 ADD MSTORE PUSH1 0x2 DUP3 ADD SLOAD SWAP3 DUP5 ADD SWAP3 SWAP1 SWAP3 MSTORE PUSH1 0x3 ADD SLOAD PUSH4 0xFFFFFFFF DUP2 AND PUSH1 0x60 DUP5 ADD MSTORE PUSH1 0xFF PUSH5 0x100000000 DUP3 DIV DUP2 AND PUSH1 0x80 DUP6 ADD MSTORE PUSH6 0x10000000000 SWAP1 SWAP2 DIV AND ISZERO ISZERO PUSH1 0xA0 DUP4 ADD MSTORE SWAP1 DUP4 MSTORE SWAP1 SWAP3 ADD SWAP2 ADD PUSH2 0x1178 JUMP JUMPDEST DUP2 DUP2 PUSH0 PUSH1 0x1 PUSH1 0x1 PUSH1 0xA0 SHL SUB AND PUSH0 DUP4 DUP4 PUSH1 0x40 MLOAD PUSH2 0x1220 SWAP3 SWAP2 SWAP1 PUSH2 0x1F2B JUMP JUMPDEST SWAP1 DUP2 MSTORE PUSH1 0x40 MLOAD SWAP1 DUP2 SWAP1 SUB PUSH1 0x20 ADD SWAP1 KECCAK256 SLOAD PUSH1 0x1 PUSH1 0x1 PUSH1 0xA0 SHL SUB AND SUB PUSH2 0x1257 JUMPI PUSH1 0x40 MLOAD PUSH4 0x5E3033B PUSH1 0xE1 SHL DUP2 MSTORE PUSH1 0x4 ADD PUSH1 0x40 MLOAD DUP1 SWAP2 SUB SWAP1 REVERT JUMPDEST DUP4 DUP4 PUSH0 DUP3 DUP3 PUSH1 0x40 MLOAD PUSH2 0x126A SWAP3 SWAP2 SWAP1 PUSH2 0x1F2B JUMP JUMPDEST SWAP1 DUP2 MSTORE PUSH1 0x40 MLOAD SWAP1 DUP2 SWAP1 SUB PUSH1 0x20 ADD SWAP1 KECCAK256 PUSH1 0x2 ADD SLOAD PUSH1 0xFF PUSH1 0x1 PUSH1 0x30 SHL SWAP1 SWAP2 DIV AND ISZERO PUSH2 0x12A6 JUMPI PUSH1 0x40 MLOAD PUSH4 0x82D4E1DB PUSH1 0xE0 SHL DUP2 MSTORE PUSH1 0x4 ADD PUSH1 0x40 MLOAD DUP1 SWAP2 SUB SWAP1 REVERT JUMPDEST PUSH0 PUSH0 DUP8 DUP8 PUSH1 0x40 MLOAD PUSH2 0x12B8 SWAP3 SWAP2 SWAP1 PUSH2 0x1F2B JUMP JUMPDEST SWAP1 DUP2 MSTORE PUSH1 0x40 DUP1 MLOAD PUSH1 0x20 SWAP3 DUP2 SWAP1 SUB DUP4 ADD SWAP1 KECCAK256 CALLER PUSH0 SWAP1 DUP2 MSTORE PUSH1 0x4 DUP3 ADD SWAP1 SWAP4 MSTORE SWAP2 KECCAK256 SLOAD SWAP1 SWAP2 POP PUSH1 0xFF AND PUSH2 0x12FB JUMPI PUSH1 0x40 MLOAD PUSH4 0x7B41A587 PUSH1 0xE1 SHL DUP2 MSTORE PUSH1 0x4 ADD PUSH1 0x40 MLOAD DUP1 SWAP2 SUB SWAP1 REVERT JUMPDEST PUSH1 0x2 DUP2 ADD SLOAD PUSH1 0x5 DUP3 ADD SLOAD PUSH1 0xFF SWAP1 SWAP2 AND GT PUSH2 0x1328 JUMPI PUSH1 0x40 MLOAD PUSH4 0x9D05A93 PUSH1 0xE1 SHL DUP2 MSTORE PUSH1 0x4 ADD PUSH1 0x40 MLOAD DUP1 SWAP2 SUB SWAP1 REVERT JUMPDEST PUSH1 0x2 DUP2 ADD SLOAD PUSH1 0x1 PUSH1 0x38 SHL SWAP1 DIV PUSH1 0xFF AND ISZERO PUSH2 0x1355 JUMPI PUSH1 0x40 MLOAD PUSH4 0x4F992B6F PUSH1 0xE0 SHL DUP2 MSTORE PUSH1 0x4 ADD PUSH1 0x40 MLOAD DUP1 SWAP2 SUB SWAP1 REVERT JUMPDEST PUSH2 0x1360 DUP8 DUP8 CALLER PUSH2 0x1A2B JUMP JUMPDEST ISZERO PUSH2 0x137E JUMPI PUSH1 0x40 MLOAD PUSH4 0x95CC7033 PUSH1 0xE0 SHL DUP2 MSTORE PUSH1 0x4 ADD PUSH1 0x40 MLOAD DUP1 SWAP2 SUB SWAP1 REVERT JUMPDEST PUSH1 0x40 DUP1 MLOAD PUSH1 0x80 DUP2 ADD DUP3 MSTORE CALLER DUP1 DUP3 MSTORE PUSH0 PUSH1 0x20 DUP1 DUP5 ADD DUP3 DUP2 MSTORE DUP5 DUP7 ADD DUP4 DUP2 MSTORE PUSH1 0x60 DUP7 ADD DUP5 DUP2 MSTORE PUSH1 0x5 DUP10 ADD DUP1 SLOAD PUSH1 0x1 DUP1 DUP3 ADD DUP4 SSTORE SWAP2 DUP8 MSTORE DUP6 DUP8 KECCAK256 SWAP9 MLOAD SWAP9 ADD DUP1 SLOAD SWAP5 MLOAD SWAP4 MLOAD SWAP3 MLOAD ISZERO ISZERO PUSH1 0x1 PUSH1 0xB0 SHL MUL PUSH1 0xFF PUSH1 0xB0 SHL NOT SWAP4 ISZERO ISZERO PUSH1 0x1 PUSH1 0xA8 SHL MUL SWAP4 SWAP1 SWAP4 AND PUSH2 0xFFFF PUSH1 0xA8 SHL NOT PUSH1 0xFF SWAP1 SWAP6 AND PUSH1 0x1 PUSH1 0xA0 SHL MUL PUSH1 0x1 PUSH1 0x1 PUSH1 0xA8 SHL SUB NOT SWAP1 SWAP7 AND PUSH1 0x1 PUSH1 0x1 PUSH1 0xA0 SHL SUB SWAP1 SWAP11 AND SWAP10 SWAP1 SWAP10 OR SWAP5 SWAP1 SWAP5 OR SWAP3 SWAP1 SWAP3 AND SWAP7 SWAP1 SWAP7 OR SWAP6 SWAP1 SWAP6 OR SWAP1 SSTORE SWAP2 DUP2 MSTORE DUP3 DUP3 MSTORE SWAP3 DUP4 KECCAK256 DUP1 SLOAD SWAP3 DUP4 ADD DUP2 SSTORE DUP4 MSTORE SWAP1 SWAP2 KECCAK256 ADD PUSH2 0x143C DUP8 DUP10 DUP4 PUSH2 0x2029 JUMP JUMPDEST POP PUSH1 0x40 MLOAD CALLER SWAP1 PUSH2 0x144F SWAP1 DUP10 SWAP1 DUP10 SWAP1 PUSH2 0x1F2B JUMP JUMPDEST PUSH1 0x40 MLOAD SWAP1 DUP2 SWAP1 SUB DUP2 KECCAK256 SWAP1 PUSH32 0xFF26E55E4141A40652551F6DEB99AD6A479802FEA36B667695053604B4550461 SWAP1 PUSH0 SWAP1 LOG3 POP POP POP POP POP POP POP JUMP JUMPDEST PUSH0 DUP4 DUP4 PUSH0 PUSH1 0x1 PUSH1 0x1 PUSH1 0xA0 SHL SUB AND PUSH0 DUP4 DUP4 PUSH1 0x40 MLOAD PUSH2 0x14A5 SWAP3 SWAP2 SWAP1 PUSH2 0x1F2B JUMP JUMPDEST SWAP1 DUP2 MSTORE PUSH1 0x40 MLOAD SWAP1 DUP2 SWAP1 SUB PUSH1 0x20 ADD SWAP1 KECCAK256 SLOAD PUSH1 0x1 PUSH1 0x1 PUSH1 0xA0 SHL SUB AND SUB PUSH2 0x14DC JUMPI PUSH1 0x40 MLOAD PUSH4 0x5E3033B PUSH1 0xE1 SHL DUP2 MSTORE PUSH1 0x4 ADD PUSH1 0x40 MLOAD DUP1 SWAP2 SUB SWAP1 REVERT JUMPDEST PUSH0 DUP7 DUP7 PUSH1 0x40 MLOAD PUSH2 0x14ED SWAP3 SWAP2 SWAP1 PUSH2 0x1F2B JUMP JUMPDEST SWAP1 DUP2 MSTORE PUSH1 0x20 ADD PUSH1 0x40 MLOAD DUP1 SWAP2 SUB SWAP1 KECCAK256 PUSH1 0x7 ADD PUSH0 DUP6 PUSH1 0x1 PUSH1 0x1 PUSH1 0xA0 SHL SUB AND PUSH1 0x1 PUSH1 0x1 PUSH1 0xA0 SHL SUB AND DUP2 MSTORE PUSH1 0x20 ADD SWAP1 DUP2 MSTORE PUSH1 0x20 ADD PUSH0 KECCAK256 SLOAD SWAP3 POP POP POP SWAP4 SWAP3 POP POP POP JUMP JUMPDEST PUSH0 PUSH0 PUSH0 PUSH0 PUSH0 PUSH0 DUP8 DUP8 PUSH0 PUSH1 0x1 PUSH1 0x1 PUSH1 0xA0 SHL SUB AND PUSH0 DUP4 DUP4 PUSH1 0x40 MLOAD PUSH2 0x154E SWAP3 SWAP2 SWAP1 PUSH2 0x1F2B JUMP JUMPDEST SWAP1 DUP2 MSTORE PUSH1 0x40 MLOAD SWAP1 DUP2 SWAP1 SUB PUSH1 0x20 ADD SWAP1 KECCAK256 SLOAD PUSH1 0x1 PUSH1 0x1 PUSH1 0xA0 SHL SUB AND SUB PUSH2 0x1585 JUMPI PUSH1 0x40 MLOAD PUSH4 0x5E3033B PUSH1 0xE1 SHL DUP2 MSTORE PUSH1 0x4 ADD PUSH1 0x40 MLOAD DUP1 SWAP2 SUB SWAP1 REVERT JUMPDEST PUSH0 PUSH0 DUP12 DUP12 PUSH1 0x40 MLOAD PUSH2 0x1597 SWAP3 SWAP2 SWAP1 PUSH2 0x1F2B JUMP JUMPDEST SWAP1 DUP2 MSTORE PUSH1 0x40 MLOAD SWAP1 DUP2 SWAP1 SUB PUSH1 0x20 ADD SWAP1 KECCAK256 DUP1 SLOAD PUSH1 0x1 DUP3 ADD SLOAD PUSH1 0x2 SWAP1 SWAP3 ADD SLOAD PUSH1 0x1 PUSH1 0x1 PUSH1 0xA0 SHL SUB SWAP1 SWAP2 AND SWAP14 SWAP2 SWAP13 POP PUSH1 0xFF DUP1 DUP3 AND SWAP13 POP PUSH2 0x100 DUP3 DIV DUP2 AND SWAP12 POP PUSH1 0x1 PUSH1 0x30 SHL DUP3 DIV DUP2 AND SWAP11 POP PUSH1 0x1 PUSH1 0x38 SHL SWAP1 SWAP2 DIV AND SWAP8 POP SWAP6 POP POP POP POP POP POP JUMP JUMPDEST PUSH0 PUSH0 PUSH0 DUP6 DUP6 PUSH1 0x40 MLOAD PUSH2 0x1604 SWAP3 SWAP2 SWAP1 PUSH2 0x1F2B JUMP JUMPDEST SWAP1 DUP2 MSTORE PUSH1 0x40 MLOAD SWAP1 DUP2 SWAP1 SUB PUSH1 0x20 ADD SWAP1 KECCAK256 PUSH1 0x5 ADD SWAP1 POP PUSH0 JUMPDEST DUP2 SLOAD DUP2 LT ISZERO PUSH2 0x1669 JUMPI DUP4 PUSH1 0x1 PUSH1 0x1 PUSH1 0xA0 SHL SUB AND DUP3 DUP3 DUP2 SLOAD DUP2 LT PUSH2 0x163F JUMPI PUSH2 0x163F PUSH2 0x1F3A JUMP JUMPDEST PUSH0 SWAP2 DUP3 MSTORE PUSH1 0x20 SWAP1 SWAP2 KECCAK256 ADD SLOAD PUSH1 0x1 PUSH1 0x1 PUSH1 0xA0 SHL SUB AND SUB PUSH2 0x1661 JUMPI SWAP2 POP PUSH2 0x1683 SWAP1 POP JUMP JUMPDEST PUSH1 0x1 ADD PUSH2 0x161A JUMP JUMPDEST POP PUSH1 0x40 MLOAD PUSH4 0x7B41A587 PUSH1 0xE1 SHL DUP2 MSTORE PUSH1 0x4 ADD PUSH1 0x40 MLOAD DUP1 SWAP2 SUB SWAP1 REVERT JUMPDEST SWAP4 SWAP3 POP POP POP JUMP JUMPDEST PUSH0 PUSH0 PUSH0 DUP5 DUP5 PUSH1 0x40 MLOAD PUSH2 0x169D SWAP3 SWAP2 SWAP1 PUSH2 0x1F2B JUMP JUMPDEST SWAP1 DUP2 MSTORE PUSH1 0x40 MLOAD SWAP1 DUP2 SWAP1 SUB PUSH1 0x20 ADD SWAP1 KECCAK256 PUSH1 0x5 ADD SWAP1 POP PUSH0 JUMPDEST DUP2 SLOAD DUP2 LT ISZERO PUSH2 0x16F9 JUMPI DUP2 DUP2 DUP2 SLOAD DUP2 LT PUSH2 0x16CE JUMPI PUSH2 0x16CE PUSH2 0x1F3A JUMP JUMPDEST PUSH0 SWAP2 DUP3 MSTORE PUSH1 0x20 SWAP1 SWAP2 KECCAK256 ADD SLOAD PUSH1 0x1 PUSH1 0xB0 SHL SWAP1 DIV PUSH1 0xFF AND PUSH2 0x16F1 JUMPI PUSH0 SWAP3 POP POP POP PUSH2 0x1700 JUMP JUMPDEST PUSH1 0x1 ADD PUSH2 0x16B3 JUMP JUMPDEST POP PUSH1 0x1 SWAP2 POP POP JUMPDEST SWAP3 SWAP2 POP POP JUMP JUMPDEST PUSH0 PUSH0 DUP3 PUSH1 0x40 MLOAD PUSH2 0x1716 SWAP2 SWAP1 PUSH2 0x20E3 JUMP JUMPDEST SWAP1 DUP2 MSTORE PUSH1 0x40 MLOAD SWAP1 DUP2 SWAP1 SUB PUSH1 0x20 ADD SWAP1 KECCAK256 SWAP1 POP PUSH0 DUP1 DUP1 JUMPDEST PUSH1 0x5 DUP5 ADD SLOAD DUP2 LT ISZERO PUSH2 0x17B6 JUMPI DUP4 PUSH1 0x2 ADD PUSH1 0x1 SWAP1 SLOAD SWAP1 PUSH2 0x100 EXP SWAP1 DIV PUSH1 0xFF AND PUSH1 0xFF AND DUP5 PUSH1 0x5 ADD DUP3 DUP2 SLOAD DUP2 LT PUSH2 0x1761 JUMPI PUSH2 0x1761 PUSH2 0x1F3A JUMP JUMPDEST PUSH0 SWAP2 DUP3 MSTORE PUSH1 0x20 SWAP1 SWAP2 KECCAK256 ADD SLOAD PUSH1 0x1 PUSH1 0xA0 SHL SWAP1 DIV PUSH1 0xFF AND SUB PUSH2 0x17AE JUMPI DUP4 PUSH1 0x5 ADD DUP2 DUP2 SLOAD DUP2 LT PUSH2 0x1790 JUMPI PUSH2 0x1790 PUSH2 0x1F3A JUMP JUMPDEST PUSH0 SWAP2 DUP3 MSTORE PUSH1 0x20 SWAP1 SWAP2 KECCAK256 ADD SLOAD PUSH1 0x1 PUSH1 0x1 PUSH1 0xA0 SHL SUB AND SWAP3 POP SWAP1 POP DUP1 PUSH2 0x17B6 JUMP JUMPDEST PUSH1 0x1 ADD PUSH2 0x172B JUMP JUMPDEST POP DUP3 PUSH1 0x5 ADD DUP2 DUP2 SLOAD DUP2 LT PUSH2 0x17CC JUMPI PUSH2 0x17CC PUSH2 0x1F3A JUMP JUMPDEST PUSH0 SWAP2 DUP3 MSTORE PUSH1 0x20 SWAP1 SWAP2 KECCAK256 ADD SLOAD PUSH1 0x1 PUSH1 0xA8 SHL SWAP1 DIV PUSH1 0xFF AND ISZERO PUSH2 0x17FF JUMPI PUSH1 0x40 MLOAD PUSH4 0x482590E5 PUSH1 0xE0 SHL DUP2 MSTORE PUSH1 0x4 ADD PUSH1 0x40 MLOAD DUP1 SWAP2 SUB SWAP1 REVERT JUMPDEST PUSH0 DUP4 PUSH1 0x3 ADD SLOAD SWAP1 POP PUSH1 0x1 DUP5 PUSH1 0x5 ADD DUP4 DUP2 SLOAD DUP2 LT PUSH2 0x181E JUMPI PUSH2 0x181E PUSH2 0x1F3A JUMP JUMPDEST PUSH0 SWAP2 DUP3 MSTORE PUSH1 0x20 DUP1 DUP4 KECCAK256 SWAP1 SWAP2 ADD DUP1 SLOAD SWAP4 ISZERO ISZERO PUSH1 0x1 PUSH1 0xA8 SHL MUL PUSH1 0xFF PUSH1 0xA8 SHL NOT SWAP1 SWAP5 AND SWAP4 SWAP1 SWAP4 OR SWAP1 SWAP3 SSTORE PUSH1 0x3 DUP7 ADD DUP2 SWAP1 SSTORE PUSH1 0x1 PUSH1 0x1 PUSH1 0xA0 SHL SUB DUP6 AND DUP2 MSTORE PUSH1 0x7 DUP7 ADD SWAP1 SWAP2 MSTORE PUSH1 0x40 DUP2 KECCAK256 DUP1 SLOAD DUP4 SWAP3 SWAP1 PUSH2 0x1873 SWAP1 DUP5 SWAP1 PUSH2 0x1F9A JUMP JUMPDEST SWAP3 POP POP DUP2 SWAP1 SSTORE POP DUP4 PUSH1 0x6 ADD PUSH1 0x40 MLOAD DUP1 PUSH1 0xC0 ADD PUSH1 0x40 MSTORE DUP1 ADDRESS PUSH1 0x1 PUSH1 0x1 PUSH1 0xA0 SHL SUB AND DUP2 MSTORE PUSH1 0x20 ADD DUP6 PUSH1 0x1 PUSH1 0x1 PUSH1 0xA0 SHL SUB AND DUP2 MSTORE PUSH1 0x20 ADD DUP4 DUP2 MSTORE PUSH1 0x20 ADD TIMESTAMP PUSH4 0xFFFFFFFF AND DUP2 MSTORE PUSH1 0x20 ADD DUP7 PUSH1 0x2 ADD PUSH1 0x1 SWAP1 SLOAD SWAP1 PUSH2 0x100 EXP SWAP1 DIV PUSH1 0xFF AND PUSH1 0xFF AND DUP2 MSTORE PUSH1 0x20 ADD PUSH1 0x1 ISZERO ISZERO DUP2 MSTORE POP SWAP1 DUP1 PUSH1 0x1 DUP2 SLOAD ADD DUP1 DUP3 SSTORE DUP1 SWAP2 POP POP PUSH1 0x1 SWAP1 SUB SWAP1 PUSH0 MSTORE PUSH1 0x20 PUSH0 KECCAK256 SWAP1 PUSH1 0x4 MUL ADD PUSH0 SWAP1 SWAP2 SWAP1 SWAP2 SWAP1 SWAP2 POP PUSH0 DUP3 ADD MLOAD DUP2 PUSH0 ADD PUSH0 PUSH2 0x100 EXP DUP2 SLOAD DUP2 PUSH1 0x1 PUSH1 0x1 PUSH1 0xA0 SHL SUB MUL NOT AND SWAP1 DUP4 PUSH1 0x1 PUSH1 0x1 PUSH1 0xA0 SHL SUB AND MUL OR SWAP1 SSTORE POP PUSH1 0x20 DUP3 ADD MLOAD DUP2 PUSH1 0x1 ADD PUSH0 PUSH2 0x100 EXP DUP2 SLOAD DUP2 PUSH1 0x1 PUSH1 0x1 PUSH1 0xA0 SHL SUB MUL NOT AND SWAP1 DUP4 PUSH1 0x1 PUSH1 0x1 PUSH1 0xA0 SHL SUB AND MUL OR SWAP1 SSTORE POP PUSH1 0x40 DUP3 ADD MLOAD DUP2 PUSH1 0x2 ADD SSTORE PUSH1 0x60 DUP3 ADD MLOAD DUP2 PUSH1 0x3 ADD PUSH0 PUSH2 0x100 EXP DUP2 SLOAD DUP2 PUSH4 0xFFFFFFFF MUL NOT AND SWAP1 DUP4 PUSH4 0xFFFFFFFF AND MUL OR SWAP1 SSTORE POP PUSH1 0x80 DUP3 ADD MLOAD DUP2 PUSH1 0x3 ADD PUSH1 0x4 PUSH2 0x100 EXP DUP2 SLOAD DUP2 PUSH1 0xFF MUL NOT AND SWAP1 DUP4 PUSH1 0xFF AND MUL OR SWAP1 SSTORE POP PUSH1 0xA0 DUP3 ADD MLOAD DUP2 PUSH1 0x3 ADD PUSH1 0x5 PUSH2 0x100 EXP DUP2 SLOAD DUP2 PUSH1 0xFF MUL NOT AND SWAP1 DUP4 ISZERO ISZERO MUL OR SWAP1 SSTORE POP POP POP DUP3 PUSH1 0x1 PUSH1 0x1 PUSH1 0xA0 SHL SUB AND DUP6 PUSH1 0x40 MLOAD PUSH2 0x19E1 SWAP2 SWAP1 PUSH2 0x20E3 JUMP JUMPDEST PUSH1 0x40 MLOAD SWAP1 DUP2 SWAP1 SUB DUP2 KECCAK256 DUP4 DUP3 MSTORE SWAP1 PUSH32 0x218CED6C72C30727CFEF716340083E153116147CCB1A6E4C57A923DC87577AF5 SWAP1 PUSH1 0x20 ADD PUSH1 0x40 MLOAD DUP1 SWAP2 SUB SWAP1 LOG3 PUSH2 0x1A24 DUP6 PUSH2 0x1AB0 JUMP JUMPDEST POP POP POP POP POP JUMP JUMPDEST PUSH0 PUSH0 PUSH0 DUP6 DUP6 PUSH1 0x40 MLOAD PUSH2 0x1A3E SWAP3 SWAP2 SWAP1 PUSH2 0x1F2B JUMP JUMPDEST SWAP1 DUP2 MSTORE PUSH1 0x40 MLOAD SWAP1 DUP2 SWAP1 SUB PUSH1 0x20 ADD SWAP1 KECCAK256 PUSH1 0x5 ADD SWAP1 POP PUSH0 JUMPDEST DUP2 SLOAD DUP2 LT ISZERO PUSH2 0x1AA5 JUMPI DUP4 PUSH1 0x1 PUSH1 0x1 PUSH1 0xA0 SHL SUB AND DUP3 DUP3 DUP2 SLOAD DUP2 LT PUSH2 0x1A79 JUMPI PUSH2 0x1A79 PUSH2 0x1F3A JUMP JUMPDEST PUSH0 SWAP2 DUP3 MSTORE PUSH1 0x20 SWAP1 SWAP2 KECCAK256 ADD SLOAD PUSH1 0x1 PUSH1 0x1 PUSH1 0xA0 SHL SUB AND SUB PUSH2 0x1A9D JUMPI PUSH1 0x1 SWAP3 POP POP POP PUSH2 0x1683 JUMP JUMPDEST PUSH1 0x1 ADD PUSH2 0x1A54 JUMP JUMPDEST POP PUSH0 SWAP6 SWAP5 POP POP POP POP POP JUMP JUMPDEST PUSH0 PUSH0 DUP3 PUSH1 0x40 MLOAD PUSH2 0x1AC0 SWAP2 SWAP1 PUSH2 0x20E3 JUMP JUMPDEST SWAP1 DUP2 MSTORE PUSH1 0x40 MLOAD SWAP1 DUP2 SWAP1 SUB PUSH1 0x20 ADD SWAP1 KECCAK256 SWAP1 POP PUSH0 JUMPDEST PUSH1 0x5 DUP3 ADD SLOAD DUP2 LT ISZERO PUSH2 0x1B21 JUMPI PUSH0 DUP3 PUSH1 0x5 ADD DUP3 DUP2 SLOAD DUP2 LT PUSH2 0x1AF5 JUMPI PUSH2 0x1AF5 PUSH2 0x1F3A JUMP JUMPDEST PUSH0 SWAP2 DUP3 MSTORE PUSH1 0x20 SWAP1 SWAP2 KECCAK256 ADD DUP1 SLOAD SWAP2 ISZERO ISZERO PUSH1 0x1 PUSH1 0xB0 SHL MUL PUSH1 0xFF PUSH1 0xB0 SHL NOT SWAP1 SWAP3 AND SWAP2 SWAP1 SWAP2 OR SWAP1 SSTORE PUSH1 0x1 ADD PUSH2 0x1AD3 JUMP JUMPDEST POP PUSH1 0x2 DUP2 ADD SLOAD PUSH1 0xFF DUP1 DUP3 AND PUSH2 0x100 SWAP1 SWAP3 DIV AND LT PUSH2 0x1B54 JUMPI PUSH1 0x2 DUP2 ADD DUP1 SLOAD PUSH7 0xFF000000000000 NOT AND PUSH1 0x1 PUSH1 0x30 SHL OR SWAP1 SSTORE POP POP JUMP JUMPDEST PUSH1 0x2 DUP2 ADD DUP1 SLOAD PUSH2 0x100 SWAP1 DIV PUSH1 0xFF AND SWAP1 PUSH1 0x1 PUSH2 0x1B6E DUP4 PUSH2 0x20F9 JUMP JUMPDEST SWAP2 SWAP1 PUSH2 0x100 EXP DUP2 SLOAD DUP2 PUSH1 0xFF MUL NOT AND SWAP1 DUP4 PUSH1 0xFF AND MUL OR SWAP1 SSTORE POP POP POP POP JUMP JUMPDEST PUSH0 PUSH0 DUP4 PUSH1 0x1F DUP5 ADD SLT PUSH2 0x1B9B JUMPI PUSH0 PUSH0 REVERT JUMPDEST POP DUP2 CALLDATALOAD PUSH8 0xFFFFFFFFFFFFFFFF DUP2 GT ISZERO PUSH2 0x1BB2 JUMPI PUSH0 PUSH0 REVERT JUMPDEST PUSH1 0x20 DUP4 ADD SWAP2 POP DUP4 PUSH1 0x20 DUP3 DUP6 ADD ADD GT ISZERO PUSH2 0x1BC9 JUMPI PUSH0 PUSH0 REVERT JUMPDEST SWAP3 POP SWAP3 SWAP1 POP JUMP JUMPDEST PUSH0 PUSH0 PUSH0 PUSH0 PUSH1 0x40 DUP6 DUP8 SUB SLT ISZERO PUSH2 0x1BE3 JUMPI PUSH0 PUSH0 REVERT JUMPDEST DUP5 CALLDATALOAD PUSH8 0xFFFFFFFFFFFFFFFF DUP2 GT ISZERO PUSH2 0x1BF9 JUMPI PUSH0 PUSH0 REVERT JUMPDEST PUSH2 0x1C05 DUP8 DUP3 DUP9 ADD PUSH2 0x1B8B JUMP JUMPDEST SWAP1 SWAP6 POP SWAP4 POP POP PUSH1 0x20 DUP6 ADD CALLDATALOAD PUSH8 0xFFFFFFFFFFFFFFFF DUP2 GT ISZERO PUSH2 0x1C24 JUMPI PUSH0 PUSH0 REVERT JUMPDEST DUP6 ADD PUSH1 0x1F DUP2 ADD DUP8 SGT PUSH2 0x1C34 JUMPI PUSH0 PUSH0 REVERT JUMPDEST DUP1 CALLDATALOAD PUSH8 0xFFFFFFFFFFFFFFFF DUP2 GT ISZERO PUSH2 0x1C4A JUMPI PUSH0 PUSH0 REVERT JUMPDEST DUP8 PUSH1 0x20 DUP3 PUSH1 0x5 SHL DUP5 ADD ADD GT ISZERO PUSH2 0x1C5E JUMPI PUSH0 PUSH0 REVERT JUMPDEST SWAP5 SWAP8 SWAP4 SWAP7 POP PUSH1 0x20 ADD SWAP5 POP POP POP JUMP JUMPDEST DUP1 CALLDATALOAD PUSH1 0x1 PUSH1 0x1 PUSH1 0xA0 SHL SUB DUP2 AND DUP2 EQ PUSH2 0x1C82 JUMPI PUSH0 PUSH0 REVERT JUMPDEST SWAP2 SWAP1 POP JUMP JUMPDEST PUSH0 PUSH1 0x20 DUP3 DUP5 SUB SLT ISZERO PUSH2 0x1C97 JUMPI PUSH0 PUSH0 REVERT JUMPDEST PUSH2 0x1683 DUP3 PUSH2 0x1C6C JUMP JUMPDEST PUSH0 PUSH1 0x20 DUP3 ADD PUSH1 0x20 DUP4 MSTORE DUP1 DUP5 MLOAD DUP1 DUP4 MSTORE PUSH1 0x40 DUP6 ADD SWAP2 POP PUSH1 0x40 DUP2 PUSH1 0x5 SHL DUP7 ADD ADD SWAP3 POP PUSH1 0x20 DUP7 ADD PUSH0 JUMPDEST DUP3 DUP2 LT ISZERO PUSH2 0x1D18 JUMPI PUSH1 0x3F NOT DUP8 DUP7 SUB ADD DUP5 MSTORE DUP2 MLOAD DUP1 MLOAD DUP1 DUP8 MSTORE DUP1 PUSH1 0x20 DUP4 ADD PUSH1 0x20 DUP10 ADD MCOPY PUSH0 PUSH1 0x20 DUP3 DUP10 ADD ADD MSTORE PUSH1 0x20 PUSH1 0x1F NOT PUSH1 0x1F DUP4 ADD AND DUP9 ADD ADD SWAP7 POP POP POP PUSH1 0x20 DUP3 ADD SWAP2 POP PUSH1 0x20 DUP5 ADD SWAP4 POP PUSH1 0x1 DUP2 ADD SWAP1 POP PUSH2 0x1CC6 JUMP JUMPDEST POP SWAP3 SWAP7 SWAP6 POP POP POP POP POP POP JUMP JUMPDEST PUSH0 PUSH0 PUSH1 0x20 DUP4 DUP6 SUB SLT ISZERO PUSH2 0x1D35 JUMPI PUSH0 PUSH0 REVERT JUMPDEST DUP3 CALLDATALOAD PUSH8 0xFFFFFFFFFFFFFFFF DUP2 GT ISZERO PUSH2 0x1D4B JUMPI PUSH0 PUSH0 REVERT JUMPDEST PUSH2 0x1D57 DUP6 DUP3 DUP7 ADD PUSH2 0x1B8B JUMP JUMPDEST SWAP1 SWAP7 SWAP1 SWAP6 POP SWAP4 POP POP POP POP JUMP JUMPDEST PUSH1 0x20 DUP1 DUP3 MSTORE DUP3 MLOAD DUP3 DUP3 ADD DUP2 SWAP1 MSTORE PUSH0 SWAP2 DUP5 ADD SWAP1 PUSH1 0x40 DUP5 ADD SWAP1 DUP4 JUMPDEST DUP2 DUP2 LT ISZERO PUSH2 0x1DCD JUMPI DUP4 MLOAD DUP1 MLOAD PUSH1 0x1 PUSH1 0x1 PUSH1 0xA0 SHL SUB AND DUP5 MSTORE PUSH1 0x20 DUP1 DUP3 ADD MLOAD PUSH1 0xFF AND DUP2 DUP7 ADD MSTORE PUSH1 0x40 DUP1 DUP4 ADD MLOAD ISZERO ISZERO SWAP1 DUP7 ADD MSTORE PUSH1 0x60 SWAP2 DUP3 ADD MLOAD ISZERO ISZERO SWAP2 DUP6 ADD SWAP2 SWAP1 SWAP2 MSTORE SWAP1 SWAP4 ADD SWAP3 PUSH1 0x80 SWAP1 SWAP3 ADD SWAP2 PUSH1 0x1 ADD PUSH2 0x1D7C JUMP JUMPDEST POP SWAP1 SWAP6 SWAP5 POP POP POP POP POP JUMP JUMPDEST PUSH0 PUSH0 PUSH0 PUSH1 0x40 DUP5 DUP7 SUB SLT ISZERO PUSH2 0x1DEA JUMPI PUSH0 PUSH0 REVERT JUMPDEST DUP4 CALLDATALOAD PUSH8 0xFFFFFFFFFFFFFFFF DUP2 GT ISZERO PUSH2 0x1E00 JUMPI PUSH0 PUSH0 REVERT JUMPDEST PUSH2 0x1E0C DUP7 DUP3 DUP8 ADD PUSH2 0x1B8B JUMP JUMPDEST SWAP1 SWAP5 POP SWAP3 POP PUSH2 0x1E1F SWAP1 POP PUSH1 0x20 DUP6 ADD PUSH2 0x1C6C JUMP JUMPDEST SWAP1 POP SWAP3 POP SWAP3 POP SWAP3 JUMP JUMPDEST PUSH0 PUSH0 PUSH0 PUSH0 PUSH0 PUSH1 0x80 DUP7 DUP9 SUB SLT ISZERO PUSH2 0x1E3C JUMPI PUSH0 PUSH0 REVERT JUMPDEST DUP6 CALLDATALOAD PUSH8 0xFFFFFFFFFFFFFFFF DUP2 GT ISZERO PUSH2 0x1E52 JUMPI PUSH0 PUSH0 REVERT JUMPDEST PUSH2 0x1E5E DUP9 DUP3 DUP10 ADD PUSH2 0x1B8B JUMP JUMPDEST SWAP1 SWAP7 POP SWAP5 POP POP PUSH1 0x20 DUP7 ADD CALLDATALOAD PUSH1 0xFF DUP2 AND DUP2 EQ PUSH2 0x1E77 JUMPI PUSH0 PUSH0 REVERT JUMPDEST SWAP3 POP PUSH1 0x40 DUP7 ADD CALLDATALOAD SWAP2 POP PUSH1 0x60 DUP7 ADD CALLDATALOAD PUSH4 0xFFFFFFFF DUP2 AND DUP2 EQ PUSH2 0x1E96 JUMPI PUSH0 PUSH0 REVERT JUMPDEST DUP1 SWAP2 POP POP SWAP3 SWAP6 POP SWAP3 SWAP6 SWAP1 SWAP4 POP JUMP JUMPDEST PUSH1 0x20 DUP1 DUP3 MSTORE DUP3 MLOAD DUP3 DUP3 ADD DUP2 SWAP1 MSTORE PUSH0 SWAP2 DUP5 ADD SWAP1 PUSH1 0x40 DUP5 ADD SWAP1 DUP4 JUMPDEST DUP2 DUP2 LT ISZERO PUSH2 0x1DCD JUMPI DUP4 MLOAD DUP1 MLOAD PUSH1 0x1 PUSH1 0x1 PUSH1 0xA0 SHL SUB SWAP1 DUP2 AND DUP6 MSTORE PUSH1 0x20 DUP1 DUP4 ADD MLOAD SWAP1 SWAP2 AND DUP2 DUP7 ADD MSTORE PUSH1 0x40 DUP1 DUP4 ADD MLOAD SWAP1 DUP7 ADD MSTORE PUSH1 0x60 DUP1 DUP4 ADD MLOAD PUSH4 0xFFFFFFFF AND SWAP1 DUP7 ADD MSTORE PUSH1 0x80 DUP1 DUP4 ADD MLOAD PUSH1 0xFF AND SWAP1 DUP7 ADD MSTORE PUSH1 0xA0 SWAP2 DUP3 ADD MLOAD ISZERO ISZERO SWAP2 DUP6 ADD SWAP2 SWAP1 SWAP2 MSTORE SWAP1 SWAP4 ADD SWAP3 PUSH1 0xC0 SWAP1 SWAP3 ADD SWAP2 PUSH1 0x1 ADD PUSH2 0x1EBD JUMP JUMPDEST DUP2 DUP4 DUP3 CALLDATACOPY PUSH0 SWAP2 ADD SWAP1 DUP2 MSTORE SWAP2 SWAP1 POP JUMP JUMPDEST PUSH4 0x4E487B71 PUSH1 0xE0 SHL PUSH0 MSTORE PUSH1 0x32 PUSH1 0x4 MSTORE PUSH1 0x24 PUSH0 REVERT JUMPDEST PUSH1 0x1 DUP2 DUP2 SHR SWAP1 DUP3 AND DUP1 PUSH2 0x1F62 JUMPI PUSH1 0x7F DUP3 AND SWAP2 POP JUMPDEST PUSH1 0x20 DUP3 LT DUP2 SUB PUSH2 0x1F80 JUMPI PUSH4 0x4E487B71 PUSH1 0xE0 SHL PUSH0 MSTORE PUSH1 0x22 PUSH1 0x4 MSTORE PUSH1 0x24 PUSH0 REVERT JUMPDEST POP SWAP2 SWAP1 POP JUMP JUMPDEST PUSH4 0x4E487B71 PUSH1 0xE0 SHL PUSH0 MSTORE PUSH1 0x11 PUSH1 0x4 MSTORE PUSH1 0x24 PUSH0 REVERT JUMPDEST DUP1 DUP3 ADD DUP1 DUP3 GT ISZERO PUSH2 0x1700 JUMPI PUSH2 0x1700 PUSH2 0x1F86 JUMP JUMPDEST PUSH4 0x4E487B71 PUSH1 0xE0 SHL PUSH0 MSTORE PUSH1 0x41 PUSH1 0x4 MSTORE PUSH1 0x24 PUSH0 REVERT JUMPDEST PUSH0 DUP3 PUSH2 0x1FDB JUMPI PUSH4 0x4E487B71 PUSH1 0xE0 SHL PUSH0 MSTORE PUSH1 0x12 PUSH1 0x4 MSTORE PUSH1 0x24 PUSH0 REVERT JUMPDEST POP MOD SWAP1 JUMP JUMPDEST PUSH1 0x1F DUP3 GT ISZERO PUSH2 0x2024 JUMPI DUP1 PUSH0 MSTORE PUSH1 0x20 PUSH0 KECCAK256 PUSH1 0x1F DUP5 ADD PUSH1 0x5 SHR DUP2 ADD PUSH1 0x20 DUP6 LT ISZERO PUSH2 0x2005 JUMPI POP DUP1 JUMPDEST PUSH1 0x1F DUP5 ADD PUSH1 0x5 SHR DUP3 ADD SWAP2 POP JUMPDEST DUP2 DUP2 LT ISZERO PUSH2 0x1A24 JUMPI PUSH0 DUP2 SSTORE PUSH1 0x1 ADD PUSH2 0x2011 JUMP JUMPDEST POP POP POP JUMP JUMPDEST PUSH8 0xFFFFFFFFFFFFFFFF DUP4 GT ISZERO PUSH2 0x2041 JUMPI PUSH2 0x2041 PUSH2 0x1FAD JUMP JUMPDEST PUSH2 0x2055 DUP4 PUSH2 0x204F DUP4 SLOAD PUSH2 0x1F4E JUMP JUMPDEST DUP4 PUSH2 0x1FE0 JUMP JUMPDEST PUSH0 PUSH1 0x1F DUP5 GT PUSH1 0x1 DUP2 EQ PUSH2 0x2086 JUMPI PUSH0 DUP6 ISZERO PUSH2 0x206F JUMPI POP DUP4 DUP3 ADD CALLDATALOAD JUMPDEST PUSH0 NOT PUSH1 0x3 DUP8 SWAP1 SHL SHR NOT AND PUSH1 0x1 DUP7 SWAP1 SHL OR DUP4 SSTORE PUSH2 0x1A24 JUMP JUMPDEST PUSH0 DUP4 DUP2 MSTORE PUSH1 0x20 DUP2 KECCAK256 PUSH1 0x1F NOT DUP8 AND SWAP2 JUMPDEST DUP3 DUP2 LT ISZERO PUSH2 0x20B5 JUMPI DUP7 DUP6 ADD CALLDATALOAD DUP3 SSTORE PUSH1 0x20 SWAP5 DUP6 ADD SWAP5 PUSH1 0x1 SWAP1 SWAP3 ADD SWAP2 ADD PUSH2 0x2095 JUMP JUMPDEST POP DUP7 DUP3 LT ISZERO PUSH2 0x20D1 JUMPI PUSH0 NOT PUSH1 0xF8 DUP9 PUSH1 0x3 SHL AND SHR NOT DUP5 DUP8 ADD CALLDATALOAD AND DUP2 SSTORE JUMPDEST POP POP PUSH1 0x1 DUP6 PUSH1 0x1 SHL ADD DUP4 SSTORE POP POP POP POP POP JUMP JUMPDEST PUSH0 DUP3 MLOAD DUP1 PUSH1 0x20 DUP6 ADD DUP5 MCOPY PUSH0 SWAP3 ADD SWAP2 DUP3 MSTORE POP SWAP2 SWAP1 POP JUMP JUMPDEST PUSH0 PUSH1 0xFF DUP3 AND PUSH1 0xFF DUP2 SUB PUSH2 0x210E JUMPI PUSH2 0x210E PUSH2 0x1F86 JUMP JUMPDEST PUSH1 0x1 ADD SWAP3 SWAP2 POP POP JUMP INVALID LOG2 PUSH5 0x6970667358 0x22 SLT KECCAK256 PUSH5 0x5169C05020 RETURN STOP 0xC5 DUP7 CHAINID PUSH22 0x16E17DBD2446F32A347B05D867977BAC1DE6ABBC6473 PUSH16 0x6C634300081E00330000000000000000 "
				},
				"gasEstimates": {
					"creation": {
						"codeDepositCost": "1705000",
						"executionCost": "1790",
						"totalCost": "1706790"
					},
					"external": {
						"crearSala(string,uint8,uint256,uint32)": "infinite",
						"esInvitado(string,address)": "infinite",
						"invitarParticipantes(string,address[])": "infinite",
						"obtenerParticipantes(string)": "infinite",
						"obtenerPendienteRetiro(string,address)": "infinite",
						"obtenerSala(string)": "infinite",
						"obtenerSalasUsuario(address)": "infinite",
						"obtenerTransacciones(string)": "infinite",
						"obtenerTurnoUsuario(string,address)": "infinite",
						"realizarAporte(string)": "infinite",
						"realizarSorteo(string)": "infinite",
						"retirarFondos(string)": "infinite",
						"unirseASala(string)": "infinite"
					},
					"internal": {
						"_esParticipante(string calldata,address)": "infinite",
						"_obtenerIndiceParticipante(string calldata,address)": "infinite",
						"_prepararSiguienteRonda(string memory)": "infinite",
						"_procesarPago(string memory)": "infinite",
						"_todosHanAportado(string calldata)": "infinite"
					}
				},
				"methodIdentifiers": {
					"crearSala(string,uint8,uint256,uint32)": "8c7d0624",
					"esInvitado(string,address)": "7c5e107f",
					"invitarParticipantes(string,address[])": "071b3902",
					"obtenerParticipantes(string)": "2d74801d",
					"obtenerPendienteRetiro(string,address)": "bd89d4d8",
					"obtenerSala(string)": "cdb2000d",
					"obtenerSalasUsuario(address)": "28b89be7",
					"obtenerTransacciones(string)": "9267bfdc",
					"obtenerTurnoUsuario(string,address)": "4d0c1b98",
					"realizarAporte(string)": "2eac249c",
					"realizarSorteo(string)": "76dd1305",
					"retirarFondos(string)": "2b798c0f",
					"unirseASala(string)": "927c368d"
				}
			},
			"storageLayout": {
				"storage": [
					{
						"astId": 87,
						"contract": "contracts/Pasanaku.sol:Pasanaku",
						"label": "salas",
						"offset": 0,
						"slot": "0",
						"type": "t_mapping(t_string_memory_ptr,t_struct(Sala)82_storage)"
					},
					{
						"astId": 92,
						"contract": "contracts/Pasanaku.sol:Pasanaku",
						"label": "salasUsuario",
						"offset": 0,
						"slot": "1",
						"type": "t_mapping(t_address,t_array(t_string_storage)dyn_storage)"
					}
				],
				"types": {
					"t_address": {
						"encoding": "inplace",
						"label": "address",
						"numberOfBytes": "20"
					},
					"t_array(t_string_storage)dyn_storage": {
						"base": "t_string_storage",
						"encoding": "dynamic_array",
						"label": "string[]",
						"numberOfBytes": "32"
					},
					"t_array(t_struct(Participante)36_storage)dyn_storage": {
						"base": "t_struct(Participante)36_storage",
						"encoding": "dynamic_array",
						"label": "struct Pasanaku.Participante[]",
						"numberOfBytes": "32"
					},
					"t_array(t_struct(Transaccion)49_storage)dyn_storage": {
						"base": "t_struct(Transaccion)49_storage",
						"encoding": "dynamic_array",
						"label": "struct Pasanaku.Transaccion[]",
						"numberOfBytes": "32"
					},
					"t_bool": {
						"encoding": "inplace",
						"label": "bool",
						"numberOfBytes": "1"
					},
					"t_mapping(t_address,t_array(t_string_storage)dyn_storage)": {
						"encoding": "mapping",
						"key": "t_address",
						"label": "mapping(address => string[])",
						"numberOfBytes": "32",
						"value": "t_array(t_string_storage)dyn_storage"
					},
					"t_mapping(t_address,t_bool)": {
						"encoding": "mapping",
						"key": "t_address",
						"label": "mapping(address => bool)",
						"numberOfBytes": "32",
						"value": "t_bool"
					},
					"t_mapping(t_address,t_uint256)": {
						"encoding": "mapping",
						"key": "t_address",
						"label": "mapping(address => uint256)",
						"numberOfBytes": "32",
						"value": "t_uint256"
					},
					"t_mapping(t_string_memory_ptr,t_struct(Sala)82_storage)": {
						"encoding": "mapping",
						"key": "t_string_memory_ptr",
						"label": "mapping(string => struct Pasanaku.Sala)",
						"numberOfBytes": "32",
						"value": "t_struct(Sala)82_storage"
					},
					"t_string_memory_ptr": {
						"encoding": "bytes",
						"label": "string",
						"numberOfBytes": "32"
					},
					"t_string_storage": {
						"encoding": "bytes",
						"label": "string",
						"numberOfBytes": "32"
					},
					"t_struct(Participante)36_storage": {
						"encoding": "inplace",
						"label": "struct Pasanaku.Participante",
						"members": [
							{
								"astId": 29,
								"contract": "contracts/Pasanaku.sol:Pasanaku",
								"label": "wallet",
								"offset": 0,
								"slot": "0",
								"type": "t_address"
							},
							{
								"astId": 31,
								"contract": "contracts/Pasanaku.sol:Pasanaku",
								"label": "numTurno",
								"offset": 20,
								"slot": "0",
								"type": "t_uint8"
							},
							{
								"astId": 33,
								"contract": "contracts/Pasanaku.sol:Pasanaku",
								"label": "haRecibido",
								"offset": 21,
								"slot": "0",
								"type": "t_bool"
							},
							{
								"astId": 35,
								"contract": "contracts/Pasanaku.sol:Pasanaku",
								"label": "haAportadoRondaActual",
								"offset": 22,
								"slot": "0",
								"type": "t_bool"
							}
						],
						"numberOfBytes": "32"
					},
					"t_struct(Sala)82_storage": {
						"encoding": "inplace",
						"label": "struct Pasanaku.Sala",
						"members": [
							{
								"astId": 51,
								"contract": "contracts/Pasanaku.sol:Pasanaku",
								"label": "organizador",
								"offset": 0,
								"slot": "0",
								"type": "t_address"
							},
							{
								"astId": 53,
								"contract": "contracts/Pasanaku.sol:Pasanaku",
								"label": "montoAportar",
								"offset": 0,
								"slot": "1",
								"type": "t_uint256"
							},
							{
								"astId": 55,
								"contract": "contracts/Pasanaku.sol:Pasanaku",
								"label": "numeroParticipantes",
								"offset": 0,
								"slot": "2",
								"type": "t_uint8"
							},
							{
								"astId": 57,
								"contract": "contracts/Pasanaku.sol:Pasanaku",
								"label": "rondaActual",
								"offset": 1,
								"slot": "2",
								"type": "t_uint8"
							},
							{
								"astId": 59,
								"contract": "contracts/Pasanaku.sol:Pasanaku",
								"label": "fechaInicio",
								"offset": 2,
								"slot": "2",
								"type": "t_uint32"
							},
							{
								"astId": 61,
								"contract": "contracts/Pasanaku.sol:Pasanaku",
								"label": "salaFinalizada",
								"offset": 6,
								"slot": "2",
								"type": "t_bool"
							},
							{
								"astId": 63,
								"contract": "contracts/Pasanaku.sol:Pasanaku",
								"label": "sorteoRealizado",
								"offset": 7,
								"slot": "2",
								"type": "t_bool"
							},
							{
								"astId": 65,
								"contract": "contracts/Pasanaku.sol:Pasanaku",
								"label": "balanceRondaActual",
								"offset": 0,
								"slot": "3",
								"type": "t_uint256"
							},
							{
								"astId": 69,
								"contract": "contracts/Pasanaku.sol:Pasanaku",
								"label": "invitados",
								"offset": 0,
								"slot": "4",
								"type": "t_mapping(t_address,t_bool)"
							},
							{
								"astId": 73,
								"contract": "contracts/Pasanaku.sol:Pasanaku",
								"label": "participantes",
								"offset": 0,
								"slot": "5",
								"type": "t_array(t_struct(Participante)36_storage)dyn_storage"
							},
							{
								"astId": 77,
								"contract": "contracts/Pasanaku.sol:Pasanaku",
								"label": "transacciones",
								"offset": 0,
								"slot": "6",
								"type": "t_array(t_struct(Transaccion)49_storage)dyn_storage"
							},
							{
								"astId": 81,
								"contract": "contracts/Pasanaku.sol:Pasanaku",
								"label": "pendienteRetiro",
								"offset": 0,
								"slot": "7",
								"type": "t_mapping(t_address,t_uint256)"
							}
						],
						"numberOfBytes": "256"
					},
					"t_struct(Transaccion)49_storage": {
						"encoding": "inplace",
						"label": "struct Pasanaku.Transaccion",
						"members": [
							{
								"astId": 38,
								"contract": "contracts/Pasanaku.sol:Pasanaku",
								"label": "from",
								"offset": 0,
								"slot": "0",
								"type": "t_address"
							},
							{
								"astId": 40,
								"contract": "contracts/Pasanaku.sol:Pasanaku",
								"label": "to",
								"offset": 0,
								"slot": "1",
								"type": "t_address"
							},
							{
								"astId": 42,
								"contract": "contracts/Pasanaku.sol:Pasanaku",
								"label": "monto",
								"offset": 0,
								"slot": "2",
								"type": "t_uint256"
							},
							{
								"astId": 44,
								"contract": "contracts/Pasanaku.sol:Pasanaku",
								"label": "fecha",
								"offset": 0,
								"slot": "3",
								"type": "t_uint32"
							},
							{
								"astId": 46,
								"contract": "contracts/Pasanaku.sol:Pasanaku",
								"label": "ronda",
								"offset": 4,
								"slot": "3",
								"type": "t_uint8"
							},
							{
								"astId": 48,
								"contract": "contracts/Pasanaku.sol:Pasanaku",
								"label": "esPago",
								"offset": 5,
								"slot": "3",
								"type": "t_bool"
							}
						],
						"numberOfBytes": "128"
					},
					"t_uint256": {
						"encoding": "inplace",
						"label": "uint256",
						"numberOfBytes": "32"
					},
					"t_uint32": {
						"encoding": "inplace",
						"label": "uint32",
						"numberOfBytes": "4"
					},
					"t_uint8": {
						"encoding": "inplace",
						"label": "uint8",
						"numberOfBytes": "1"
					}
				}
			},
			"userdoc": {
				"kind": "user",
				"methods": {},
				"version": 1
			}
		}
	}
}