{
	"data": {
		"bytecode": {
			"linkReferences": {},
			"object": "6080604052348015600e575f5ffd5b5061214d8061001c5f395ff3fe6080604052600436106100bf575f3560e01c806376dd13051161007c5780639267bfdc116100575780639267bfdc14610215578063927c368d14610241578063bd89d4d814610260578063cdb2000d1461028d575f5ffd5b806376dd1305146101a85780637c5e107f146101c75780638c7d0624146101f6575f5ffd5b8063071b3902146100c357806328b89be7146100e45780632b798c0f146101195780632d74801d146101385780632eac249c146101645780634d0c1b9814610177575b5f5ffd5b3480156100ce575f5ffd5b506100e26100dd366004611bd0565b6102ee565b005b3480156100ef575f5ffd5b506101036100fe366004611c87565b6104ca565b6040516101109190611ca0565b60405180910390f35b348015610124575f5ffd5b506100e2610133366004611d24565b6105b4565b348015610143575f5ffd5b50610157610152366004611d24565b6106e2565b6040516101109190611d63565b6100e2610172366004611d24565b6107f1565b348015610182575f5ffd5b50610196610191366004611dd8565b610b3f565b60405160ff9091168152602001610110565b3480156101b3575f5ffd5b506100e26101c2366004611d24565b610bf5565b3480156101d2575f5ffd5b506101e66101e1366004611dd8565b610efe565b6040519015158152602001610110565b348015610201575f5ffd5b506100e2610210366004611e28565b610f9d565b348015610220575f5ffd5b5061023461022f366004611d24565b6110e1565b6040516101109190611ea4565b34801561024c575f5ffd5b506100e261025b366004611d24565b611203565b34801561026b575f5ffd5b5061027f61027a366004611dd8565b611487565b604051908152602001610110565b348015610298575f5ffd5b506102ac6102a7366004611d24565b61152b565b604080516001600160a01b039097168752602087019590955260ff938416948601949094529116606084015215156080830152151560a082015260c001610110565b83835f6001600160a01b03165f838360405161030b929190611f2b565b908152604051908190036020019020546001600160a01b031603610342576040516305e3033b60e11b815260040160405180910390fd5b85855f8282604051610355929190611f2b565b9081526040519081900360200190206002015460ff600160301b9091041615610391576040516382d4e1db60e01b815260040160405180910390fd5b8787336001600160a01b03165f83836040516103ae929190611f2b565b908152604051908190036020019020546001600160a01b0316146103e557604051633580c86560e01b815260040160405180910390fd5b5f8a8a6040516103f6929190611f2b565b9081526040519081900360200190206002015460ff600160381b909104161561043257604051634f992b6f60e01b815260040160405180910390fd5b5f5f8b8b604051610444929190611f2b565b90815260405190819003602001902090505f5b888110156104bc576001826004015f8c8c8581811061047857610478611f3a565b905060200201602081019061048d9190611c87565b6001600160a01b0316815260208101919091526040015f20805460ff1916911515919091179055600101610457565b505050505050505050505050565b6001600160a01b0381165f908152600160209081526040808320805482518185028101850190935280835260609492939192909184015b828210156105a9578382905f5260205f2001805461051e90611f4e565b80601f016020809104026020016040519081016040528092919081815260200182805461054a90611f4e565b80156105955780601f1061056c57610100808354040283529160200191610595565b820191905f5260205f20905b81548152906001019060200180831161057857829003601f168201915b505050505081526020019060010190610501565b505050509050919050565b81815f6001600160a01b03165f83836040516105d1929190611f2b565b908152604051908190036020019020546001600160a01b031603610608576040516305e3033b60e11b815260040160405180910390fd5b5f5f858560405161061a929190611f2b565b9081526040805160209281900383019020335f90815260078201909352908220549092509081900361064d5750506106dc565b335f8181526007840160205260408082208290555190919083908381818185875af1925050503d805f811461069d576040519150601f19603f3d011682016040523d82523d5f602084013e6106a2565b606091505b50509050806106d857335f908152600784016020526040908190208390558051638a6c667760e01b815290519081900360040190fd5b5050505b50505050565b606082825f6001600160a01b03165f8383604051610701929190611f2b565b908152604051908190036020019020546001600160a01b031603610738576040516305e3033b60e11b815260040160405180910390fd5b5f8585604051610749929190611f2b565b9081526020016040518091039020600501805480602002602001604051908101604052809291908181526020015f905b828210156107e3575f84815260209081902060408051608081018252918501546001600160a01b038116835260ff600160a01b8204811684860152600160a81b82048116151592840192909252600160b01b90041615156060820152825260019092019101610779565b505050509250505092915050565b81815f6001600160a01b03165f838360405161080e929190611f2b565b908152604051908190036020019020546001600160a01b031603610845576040516305e3033b60e11b815260040160405180910390fd5b83835f8282604051610858929190611f2b565b9081526040519081900360200190206002015460ff600160301b9091041615610894576040516382d4e1db60e01b815260040160405180910390fd5b5f5f87876040516108a6929190611f2b565b908152604051908190036020019020600281015490915060ff600160381b909104166108e55760405163037280ed60e31b815260040160405180910390fd5b806001015434146109095760405163683f014960e11b815260040160405180910390fd5b5f6109158888336115f1565b905081600501818154811061092c5761092c611f3a565b5f91825260209091200154600160b01b900460ff16156109625760405160016260800360e11b0319815260040160405180910390fd5b600182600501828154811061097957610979611f3a565b5f91825260208220018054921515600160b01b0260ff60b01b19909316929092179091556003830180543492906109b1908490611f9a565b90915550506040805160c081018252338082523060208084019182523484860190815263ffffffff428116606087019081526002808b015460ff610100909104811660808a019081525f60a08b0181815260068f01805460018181018355918452999092209b516004909902909b0180546001600160a01b03998a166001600160a01b0319918216178255995191810180549290991691909916179096559351908601555160039094018054935196511515650100000000000265ff000000000019979093166401000000000264ffffffffff1990941694909116939093179190911793909316929092179091559051610aae908a908a90611f2b565b604051908190038120348252907fc32ea7ed7629d43005f8151868025fa2572b1299c75f63049895fa7abf4681049060200160405180910390a3610af2888861168a565b15610b3557610b3588888080601f0160208091040260200160405190810160405280939291908181526020018383808284375f9201919091525061170692505050565b5050505050505050565b5f83835f6001600160a01b03165f8383604051610b5d929190611f2b565b908152604051908190036020019020546001600160a01b031603610b94576040516305e3033b60e11b815260040160405180910390fd5b5f610ba08787876115f1565b90505f8787604051610bb3929190611f2b565b90815260200160405180910390206005018181548110610bd557610bd5611f3a565b5f91825260209091200154600160a01b900460ff16979650505050505050565b81815f6001600160a01b03165f8383604051610c12929190611f2b565b908152604051908190036020019020546001600160a01b031603610c49576040516305e3033b60e11b815260040160405180910390fd5b83835f8282604051610c5c929190611f2b565b9081526040519081900360200190206002015460ff600160301b9091041615610c98576040516382d4e1db60e01b815260040160405180910390fd5b8585336001600160a01b03165f8383604051610cb5929190611f2b565b908152604051908190036020019020546001600160a01b031614610cec57604051633580c86560e01b815260040160405180910390fd5b5f5f8989604051610cfe929190611f2b565b908152604051908190036020019020600281015490915060ff600160381b9091041615610d3e57604051634f992b6f60e01b815260040160405180910390fd5b60058101545f610d4f826001611f9a565b67ffffffffffffffff811115610d6757610d67611fad565b604051908082528060200260200182016040528015610d90578160200160208202803683370190505b5090505f5b82811015610e98575f5b8342443385604051602001610ddf9493929190938452602084019290925260601b6bffffffffffffffffffffffff19166040830152605482015260740190565b604051602081830303815290604052805190602001205f1c610e019190611fc1565b610e0c906001611f9a565b9050828181518110610e2057610e20611f3a565b6020026020010151610d9f576001838281518110610e4057610e40611f3a565b60200260200101901515908115158152505080856005018381548110610e6857610e68611f3a565b5f918252602090912001805460ff92909216600160a01b0260ff60a01b1990921691909117905550600101610d95565b5060028301805467ff000000000000001916600160381b179055604051610ec2908c908c90611f2b565b604051908190038120907f421589e4cd20383eafb22df9d4cf58f97cf473dac683d1194a2684012b343667905f90a25050505050505050505050565b5f83835f6001600160a01b03165f8383604051610f1c929190611f2b565b908152604051908190036020019020546001600160a01b031603610f53576040516305e3033b60e11b815260040160405180910390fd5b5f8686604051610f64929190611f2b565b90815260408051602092819003830190206001600160a01b03969096165f90815260049096019091529093205460ff1695945050505050565b5f6001600160a01b03165f8686604051610fb8929190611f2b565b908152604051908190036020019020546001600160a01b031614610fef57604051633661991960e21b815260040160405180910390fd5b5f5f8686604051611001929190611f2b565b90815260408051602092819003830190208054336001600160a01b031990911681178255600180830188905560028301805461010060ff8c1665ffffffff00ff19909216919091176201000063ffffffff8b16021761ff0019161790555f918252600483018552838220805460ff1916821790558085529281208054938401815581529290922091925001611097868883612029565b5060405133906110aa9088908890611f2b565b604051908190038120907fdc9655bdffa72541122a0c5c0863a88cd625f0215c7b168904e9d5a261728a12905f90a3505050505050565b606082825f6001600160a01b03165f8383604051611100929190611f2b565b908152604051908190036020019020546001600160a01b031603611137576040516305e3033b60e11b815260040160405180910390fd5b5f8585604051611148929190611f2b565b9081526020016040518091039020600601805480602002602001604051908101604052809291908181526020015f905b828210156107e3575f8481526020908190206040805160c0810182526004860290920180546001600160a01b039081168452600180830154909116848601526002820154928401929092526003015463ffffffff8116606084015260ff6401000000008204811660808501526501000000000090910416151560a08301529083529092019101611178565b81815f6001600160a01b03165f8383604051611220929190611f2b565b908152604051908190036020019020546001600160a01b031603611257576040516305e3033b60e11b815260040160405180910390fd5b83835f828260405161126a929190611f2b565b9081526040519081900360200190206002015460ff600160301b90910416156112a6576040516382d4e1db60e01b815260040160405180910390fd5b5f5f87876040516112b8929190611f2b565b9081526040805160209281900383019020335f9081526004820190935291205490915060ff166112fb57604051637b41a58760e11b815260040160405180910390fd5b6002810154600582015460ff90911611611328576040516309d05a9360e11b815260040160405180910390fd5b6002810154600160381b900460ff161561135557604051634f992b6f60e01b815260040160405180910390fd5b611360878733611a2b565b1561137e576040516395cc703360e01b815260040160405180910390fd5b60408051608081018252338082525f602080840182815284860183815260608601848152600589018054600180820183559187528587209851980180549451935192511515600160b01b0260ff60b01b19931515600160a81b029390931661ffff60a81b1960ff909516600160a01b026001600160a81b03199096166001600160a01b03909a16999099179490941792909216969096179590951790559181528282529283208054928301815583529091200161143c878983612029565b50604051339061144f9089908990611f2b565b604051908190038120907fff26e55e4141a40652551f6deb99ad6a479802fea36b667695053604b4550461905f90a350505050505050565b5f83835f6001600160a01b03165f83836040516114a5929190611f2b565b908152604051908190036020019020546001600160a01b0316036114dc576040516305e3033b60e11b815260040160405180910390fd5b5f86866040516114ed929190611f2b565b90815260200160405180910390206007015f856001600160a01b03166001600160a01b031681526020019081526020015f2054925050509392505050565b5f5f5f5f5f5f87875f6001600160a01b03165f838360405161154e929190611f2b565b908152604051908190036020019020546001600160a01b031603611585576040516305e3033b60e11b815260040160405180910390fd5b5f5f8b8b604051611597929190611f2b565b908152604051908190036020019020805460018201546002909201546001600160a01b039091169d919c5060ff8082169c50610100820481169b50600160301b820481169a50600160381b90910416975095505050505050565b5f5f5f8585604051611604929190611f2b565b90815260405190819003602001902060050190505f5b815481101561166957836001600160a01b031682828154811061163f5761163f611f3a565b5f918252602090912001546001600160a01b0316036116615791506116839050565b60010161161a565b50604051637b41a58760e11b815260040160405180910390fd5b9392505050565b5f5f5f848460405161169d929190611f2b565b90815260405190819003602001902060050190505f5b81548110156116f9578181815481106116ce576116ce611f3a565b5f91825260209091200154600160b01b900460ff166116f1575f92505050611700565b6001016116b3565b5060019150505b92915050565b5f5f8260405161171691906120e3565b90815260405190819003602001902090505f80805b60058401548110156117b6578360020160019054906101000a900460ff1660ff1684600501828154811061176157611761611f3a565b5f91825260209091200154600160a01b900460ff16036117ae5783600501818154811061179057611790611f3a565b5f918252602090912001546001600160a01b031692509050806117b6565b60010161172b565b508260050181815481106117cc576117cc611f3a565b5f91825260209091200154600160a81b900460ff16156117ff5760405163482590e560e01b815260040160405180910390fd5b5f83600301549050600184600501838154811061181e5761181e611f3a565b5f91825260208083209091018054931515600160a81b0260ff60a81b1990941693909317909255600386018190556001600160a01b038516815260078601909152604081208054839290611873908490611f9a565b92505081905550836006016040518060c00160405280306001600160a01b03168152602001856001600160a01b031681526020018381526020014263ffffffff1681526020018660020160019054906101000a900460ff1660ff16815260200160011515815250908060018154018082558091505060019003905f5260205f2090600402015f909190919091505f820151815f015f6101000a8154816001600160a01b0302191690836001600160a01b031602179055506020820151816001015f6101000a8154816001600160a01b0302191690836001600160a01b03160217905550604082015181600201556060820151816003015f6101000a81548163ffffffff021916908363ffffffff16021790555060808201518160030160046101000a81548160ff021916908360ff16021790555060a08201518160030160056101000a81548160ff0219169083151502179055505050826001600160a01b0316856040516119e191906120e3565b604051908190038120838252907f218ced6c72c30727cfef716340083e153116147ccb1a6e4c57a923dc87577af59060200160405180910390a3611a2485611ab0565b5050505050565b5f5f5f8585604051611a3e929190611f2b565b90815260405190819003602001902060050190505f5b8154811015611aa557836001600160a01b0316828281548110611a7957611a79611f3a565b5f918252602090912001546001600160a01b031603611a9d57600192505050611683565b600101611a54565b505f95945050505050565b5f5f82604051611ac091906120e3565b90815260405190819003602001902090505f5b6005820154811015611b21575f826005018281548110611af557611af5611f3a565b5f9182526020909120018054911515600160b01b0260ff60b01b19909216919091179055600101611ad3565b50600281015460ff8082166101009092041610611b545760028101805466ff0000000000001916600160301b1790555050565b600281018054610100900460ff16906001611b6e836120f9565b91906101000a81548160ff021916908360ff160217905550505050565b5f5f83601f840112611b9b575f5ffd5b50813567ffffffffffffffff811115611bb2575f5ffd5b602083019150836020828501011115611bc9575f5ffd5b9250929050565b5f5f5f5f60408587031215611be3575f5ffd5b843567ffffffffffffffff811115611bf9575f5ffd5b611c0587828801611b8b565b909550935050602085013567ffffffffffffffff811115611c24575f5ffd5b8501601f81018713611c34575f5ffd5b803567ffffffffffffffff811115611c4a575f5ffd5b8760208260051b8401011115611c5e575f5ffd5b949793965060200194505050565b80356001600160a01b0381168114611c82575f5ffd5b919050565b5f60208284031215611c97575f5ffd5b61168382611c6c565b5f602082016020835280845180835260408501915060408160051b8601019250602086015f5b82811015611d1857603f19878603018452815180518087528060208301602089015e5f602082890101526020601f19601f83011688010196505050602082019150602084019350600181019050611cc6565b50929695505050505050565b5f5f60208385031215611d35575f5ffd5b823567ffffffffffffffff811115611d4b575f5ffd5b611d5785828601611b8b565b90969095509350505050565b602080825282518282018190525f918401906040840190835b81811015611dcd57835180516001600160a01b0316845260208082015160ff168186015260408083015115159086015260609182015115159185019190915290930192608090920191600101611d7c565b509095945050505050565b5f5f5f60408486031215611dea575f5ffd5b833567ffffffffffffffff811115611e00575f5ffd5b611e0c86828701611b8b565b9094509250611e1f905060208501611c6c565b90509250925092565b5f5f5f5f5f60808688031215611e3c575f5ffd5b853567ffffffffffffffff811115611e52575f5ffd5b611e5e88828901611b8b565b909650945050602086013560ff81168114611e77575f5ffd5b925060408601359150606086013563ffffffff81168114611e96575f5ffd5b809150509295509295909350565b602080825282518282018190525f918401906040840190835b81811015611dcd57835180516001600160a01b039081168552602080830151909116818601526040808301519086015260608083015163ffffffff169086015260808083015160ff169086015260a0918201511515918501919091529093019260c090920191600101611ebd565b818382375f9101908152919050565b634e487b7160e01b5f52603260045260245ffd5b600181811c90821680611f6257607f821691505b602082108103611f8057634e487b7160e01b5f52602260045260245ffd5b50919050565b634e487b7160e01b5f52601160045260245ffd5b8082018082111561170057611700611f86565b634e487b7160e01b5f52604160045260245ffd5b5f82611fdb57634e487b7160e01b5f52601260045260245ffd5b500690565b601f82111561202457805f5260205f20601f840160051c810160208510156120055750805b601f840160051c820191505b81811015611a24575f8155600101612011565b505050565b67ffffffffffffffff83111561204157612041611fad565b6120558361204f8354611f4e565b83611fe0565b5f601f841160018114612086575f851561206f5750838201355b5f19600387901b1c1916600186901b178355611a24565b5f83815260208120601f198716915b828110156120b55786850135825560209485019460019092019101612095565b50868210156120d1575f1960f88860031b161c19848701351681555b505060018560011b0183555050505050565b5f82518060208501845e5f920191825250919050565b5f60ff821660ff810361210e5761210e611f86565b6001019291505056fea2646970667358221220645169c05020f300c586467516e17dbd2446f32a347b05d867977bac1de6abbc64736f6c634300081e0033",
			"opcodes": "PUSH1 0x80 PUSH1 0x40 MSTORE CALLVALUE DUP1 ISZERO PUSH1 0xE JUMPI PUSH0 PUSH0 REVERT JUMPDEST POP PUSH2 0x214D DUP1 PUSH2 0x1C PUSH0 CODECOPY PUSH0 RETURN INVALID PUSH1 0x80 PUSH1 0x40 MSTORE PUSH1 0x4 CALLDATASIZE LT PUSH2 0xBF JUMPI PUSH0 CALLDATALOAD PUSH1 0xE0 SHR DUP1 PUSH4 0x76DD1305 GT PUSH2 0x7C JUMPI DUP1 PUSH4 0x9267BFDC GT PUSH2 0x57 JUMPI DUP1 PUSH4 0x9267BFDC EQ PUSH2 0x215 JUMPI DUP1 PUSH4 0x927C368D EQ PUSH2 0x241 JUMPI DUP1 PUSH4 0xBD89D4D8 EQ PUSH2 0x260 JUMPI DUP1 PUSH4 0xCDB2000D EQ PUSH2 0x28D JUMPI PUSH0 PUSH0 REVERT JUMPDEST DUP1 PUSH4 0x76DD1305 EQ PUSH2 0x1A8 JUMPI DUP1 PUSH4 0x7C5E107F EQ PUSH2 0x1C7 JUMPI DUP1 PUSH4 0x8C7D0624 EQ PUSH2 0x1F6 JUMPI PUSH0 PUSH0 REVERT JUMPDEST DUP1 PUSH4 0x71B3902 EQ PUSH2 0xC3 JUMPI DUP1 PUSH4 0x28B89BE7 EQ PUSH2 0xE4 JUMPI DUP1 PUSH4 0x2B798C0F EQ PUSH2 0x119 JUMPI DUP1 PUSH4 0x2D74801D EQ PUSH2 0x138 JUMPI DUP1 PUSH4 0x2EAC249C EQ PUSH2 0x164 JUMPI DUP1 PUSH4 0x4D0C1B98 EQ PUSH2 0x177 JUMPI JUMPDEST PUSH0 PUSH0 REVERT JUMPDEST CALLVALUE DUP1 ISZERO PUSH2 0xCE JUMPI PUSH0 PUSH0 REVERT JUMPDEST POP PUSH2 0xE2 PUSH2 0xDD CALLDATASIZE PUSH1 0x4 PUSH2 0x1BD0 JUMP JUMPDEST PUSH2 0x2EE JUMP JUMPDEST STOP JUMPDEST CALLVALUE DUP1 ISZERO PUSH2 0xEF JUMPI PUSH0 PUSH0 REVERT JUMPDEST POP PUSH2 0x103 PUSH2 0xFE CALLDATASIZE PUSH1 0x4 PUSH2 0x1C87 JUMP JUMPDEST PUSH2 0x4CA JUMP JUMPDEST PUSH1 0x40 MLOAD PUSH2 0x110 SWAP2 SWAP1 PUSH2 0x1CA0 JUMP JUMPDEST PUSH1 0x40 MLOAD DUP1 SWAP2 SUB SWAP1 RETURN JUMPDEST CALLVALUE DUP1 ISZERO PUSH2 0x124 JUMPI PUSH0 PUSH0 REVERT JUMPDEST POP PUSH2 0xE2 PUSH2 0x133 CALLDATASIZE PUSH1 0x4 PUSH2 0x1D24 JUMP JUMPDEST PUSH2 0x5B4 JUMP JUMPDEST CALLVALUE DUP1 ISZERO PUSH2 0x143 JUMPI PUSH0 PUSH0 REVERT JUMPDEST POP PUSH2 0x157 PUSH2 0x152 CALLDATASIZE PUSH1 0x4 PUSH2 0x1D24 JUMP JUMPDEST PUSH2 0x6E2 JUMP JUMPDEST PUSH1 0x40 MLOAD PUSH2 0x110 SWAP2 SWAP1 PUSH2 0x1D63 JUMP JUMPDEST PUSH2 0xE2 PUSH2 0x172 CALLDATASIZE PUSH1 0x4 PUSH2 0x1D24 JUMP JUMPDEST PUSH2 0x7F1 JUMP JUMPDEST CALLVALUE DUP1 ISZERO PUSH2 0x182 JUMPI PUSH0 PUSH0 REVERT JUMPDEST POP PUSH2 0x196 PUSH2 0x191 CALLDATASIZE PUSH1 0x4 PUSH2 0x1DD8 JUMP JUMPDEST PUSH2 0xB3F JUMP JUMPDEST PUSH1 0x40 MLOAD PUSH1 0xFF SWAP1 SWAP2 AND DUP2 MSTORE PUSH1 0x20 ADD PUSH2 0x110 JUMP JUMPDEST CALLVALUE DUP1 ISZERO PUSH2 0x1B3 JUMPI PUSH0 PUSH0 REVERT JUMPDEST POP PUSH2 0xE2 PUSH2 0x1C2 CALLDATASIZE PUSH1 0x4 PUSH2 0x1D24 JUMP JUMPDEST PUSH2 0xBF5 JUMP JUMPDEST CALLVALUE DUP1 ISZERO PUSH2 0x1D2 JUMPI PUSH0 PUSH0 REVERT JUMPDEST POP PUSH2 0x1E6 PUSH2 0x1E1 CALLDATASIZE PUSH1 0x4 PUSH2 0x1DD8 JUMP JUMPDEST PUSH2 0xEFE JUMP JUMPDEST PUSH1 0x40 MLOAD SWAP1 ISZERO ISZERO DUP2 MSTORE PUSH1 0x20 ADD PUSH2 0x110 JUMP JUMPDEST CALLVALUE DUP1 ISZERO PUSH2 0x201 JUMPI PUSH0 PUSH0 REVERT JUMPDEST POP PUSH2 0xE2 PUSH2 0x210 CALLDATASIZE PUSH1 0x4 PUSH2 0x1E28 JUMP JUMPDEST PUSH2 0xF9D JUMP JUMPDEST CALLVALUE DUP1 ISZERO PUSH2 0x220 JUMPI PUSH0 PUSH0 REVERT JUMPDEST POP PUSH2 0x234 PUSH2 0x22F CALLDATASIZE PUSH1 0x4 PUSH2 0x1D24 JUMP JUMPDEST PUSH2 0x10E1 JUMP JUMPDEST PUSH1 0x40 MLOAD PUSH2 0x110 SWAP2 SWAP1 PUSH2 0x1EA4 JUMP JUMPDEST CALLVALUE DUP1 ISZERO PUSH2 0x24C JUMPI PUSH0 PUSH0 REVERT JUMPDEST POP PUSH2 0xE2 PUSH2 0x25B CALLDATASIZE PUSH1 0x4 PUSH2 0x1D24 JUMP JUMPDEST PUSH2 0x1203 JUMP JUMPDEST CALLVALUE DUP1 ISZERO PUSH2 0x26B JUMPI PUSH0 PUSH0 REVERT JUMPDEST POP PUSH2 0x27F PUSH2 0x27A CALLDATASIZE PUSH1 0x4 PUSH2 0x1DD8 JUMP JUMPDEST PUSH2 0x1487 JUMP JUMPDEST PUSH1 0x40 MLOAD SWAP1 DUP2 MSTORE PUSH1 0x20 ADD PUSH2 0x110 JUMP JUMPDEST CALLVALUE DUP1 ISZERO PUSH2 0x298 JUMPI PUSH0 PUSH0 REVERT JUMPDEST POP PUSH2 0x2AC PUSH2 0x2A7 CALLDATASIZE PUSH1 0x4 PUSH2 0x1D24 JUMP JUMPDEST PUSH2 0x152B JUMP JUMPDEST PUSH1 0x40 DUP1 MLOAD PUSH1 0x1 PUSH1 0x1 PUSH1 0xA0 SHL SUB SWAP1 SWAP8 AND DUP8 MSTORE PUSH1 0x20 DUP8 ADD SWAP6 SWAP1 SWAP6 MSTORE PUSH1 0xFF SWAP4 DUP5 AND SWAP5 DUP7 ADD SWAP5 SWAP1 SWAP5 MSTORE SWAP2 AND PUSH1 0x60 DUP5 ADD MSTORE ISZERO ISZERO PUSH1 0x80 DUP4 ADD MSTORE ISZERO ISZERO PUSH1 0xA0 DUP3 ADD MSTORE PUSH1 0xC0 ADD PUSH2 0x110 JUMP JUMPDEST DUP4 DUP4 PUSH0 PUSH1 0x1 PUSH1 0x1 PUSH1 0xA0 SHL SUB AND PUSH0 DUP4 DUP4 PUSH1 0x40 MLOAD PUSH2 0x30B SWAP3 SWAP2 SWAP1 PUSH2 0x1F2B JUMP JUMPDEST SWAP1 DUP2 MSTORE PUSH1 0x40 MLOAD SWAP1 DUP2 SWAP1 SUB PUSH1 0x20 ADD SWAP1 KECCAK256 SLOAD PUSH1 0x1 PUSH1 0x1 PUSH1 0xA0 SHL SUB AND SUB PUSH2 0x342 JUMPI PUSH1 0x40 MLOAD PUSH4 0x5E3033B PUSH1 0xE1 SHL DUP2 MSTORE PUSH1 0x4 ADD PUSH1 0x40 MLOAD DUP1 SWAP2 SUB SWAP1 REVERT JUMPDEST DUP6 DUP6 PUSH0 DUP3 DUP3 PUSH1 0x40 MLOAD PUSH2 0x355 SWAP3 SWAP2 SWAP1 PUSH2 0x1F2B JUMP JUMPDEST SWAP1 DUP2 MSTORE PUSH1 0x40 MLOAD SWAP1 DUP2 SWAP1 SUB PUSH1 0x20 ADD SWAP1 KECCAK256 PUSH1 0x2 ADD SLOAD PUSH1 0xFF PUSH1 0x1 PUSH1 0x30 SHL SWAP1 SWAP2 DIV AND ISZERO PUSH2 0x391 JUMPI PUSH1 0x40 MLOAD PUSH4 0x82D4E1DB PUSH1 0xE0 SHL DUP2 MSTORE PUSH1 0x4 ADD PUSH1 0x40 MLOAD DUP1 SWAP2 SUB SWAP1 REVERT JUMPDEST DUP8 DUP8 CALLER PUSH1 0x1 PUSH1 0x1 PUSH1 0xA0 SHL SUB AND PUSH0 DUP4 DUP4 PUSH1 0x40 MLOAD PUSH2 0x3AE SWAP3 SWAP2 SWAP1 PUSH2 0x1F2B JUMP JUMPDEST SWAP1 DUP2 MSTORE PUSH1 0x40 MLOAD SWAP1 DUP2 SWAP1 SUB PUSH1 0x20 ADD SWAP1 KECCAK256 SLOAD PUSH1 0x1 PUSH1 0x1 PUSH1 0xA0 SHL SUB AND EQ PUSH2 0x3E5 JUMPI PUSH1 0x40 MLOAD PUSH4 0x3580C865 PUSH1 0xE0 SHL DUP2 MSTORE PUSH1 0x4 ADD PUSH1 0x40 MLOAD DUP1 SWAP2 SUB SWAP1 REVERT JUMPDEST PUSH0 DUP11 DUP11 PUSH1 0x40 MLOAD PUSH2 0x3F6 SWAP3 SWAP2 SWAP1 PUSH2 0x1F2B JUMP JUMPDEST SWAP1 DUP2 MSTORE PUSH1 0x40 MLOAD SWAP1 DUP2 SWAP1 SUB PUSH1 0x20 ADD SWAP1 KECCAK256 PUSH1 0x2 ADD SLOAD PUSH1 0xFF PUSH1 0x1 PUSH1 0x38 SHL SWAP1 SWAP2 DIV AND ISZERO PUSH2 0x432 JUMPI PUSH1 0x40 MLOAD PUSH4 0x4F992B6F PUSH1 0xE0 SHL DUP2 MSTORE PUSH1 0x4 ADD PUSH1 0x40 MLOAD DUP1 SWAP2 SUB SWAP1 REVERT JUMPDEST PUSH0 PUSH0 DUP12 DUP12 PUSH1 0x40 MLOAD PUSH2 0x444 SWAP3 SWAP2 SWAP1 PUSH2 0x1F2B JUMP JUMPDEST SWAP1 DUP2 MSTORE PUSH1 0x40 MLOAD SWAP1 DUP2 SWAP1 SUB PUSH1 0x20 ADD SWAP1 KECCAK256 SWAP1 POP PUSH0 JUMPDEST DUP9 DUP2 LT ISZERO PUSH2 0x4BC JUMPI PUSH1 0x1 DUP3 PUSH1 0x4 ADD PUSH0 DUP13 DUP13 DUP6 DUP2 DUP2 LT PUSH2 0x478 JUMPI PUSH2 0x478 PUSH2 0x1F3A JUMP JUMPDEST SWAP1 POP PUSH1 0x20 MUL ADD PUSH1 0x20 DUP2 ADD SWAP1 PUSH2 0x48D SWAP2 SWAP1 PUSH2 0x1C87 JUMP JUMPDEST PUSH1 0x1 PUSH1 0x1 PUSH1 0xA0 SHL SUB AND DUP2 MSTORE PUSH1 0x20 DUP2 ADD SWAP2 SWAP1 SWAP2 MSTORE PUSH1 0x40 ADD PUSH0 KECCAK256 DUP1 SLOAD PUSH1 0xFF NOT AND SWAP2 ISZERO ISZERO SWAP2 SWAP1 SWAP2 OR SWAP1 SSTORE PUSH1 0x1 ADD PUSH2 0x457 JUMP JUMPDEST POP POP POP POP POP POP POP POP POP POP POP POP JUMP JUMPDEST PUSH1 0x1 PUSH1 0x1 PUSH1 0xA0 SHL SUB DUP2 AND PUSH0 SWAP1 DUP2 MSTORE PUSH1 0x1 PUSH1 0x20 SWAP1 DUP2 MSTORE PUSH1 0x40 DUP1 DUP4 KECCAK256 DUP1 SLOAD DUP3 MLOAD DUP2 DUP6 MUL DUP2 ADD DUP6 ADD SWAP1 SWAP4 MSTORE DUP1 DUP4 MSTORE PUSH1 0x60 SWAP5 SWAP3 SWAP4 SWAP2 SWAP3 SWAP1 SWAP2 DUP5 ADD JUMPDEST DUP3 DUP3 LT ISZERO PUSH2 0x5A9 JUMPI DUP4 DUP3 SWAP1 PUSH0 MSTORE PUSH1 0x20 PUSH0 KECCAK256 ADD DUP1 SLOAD PUSH2 0x51E SWAP1 PUSH2 0x1F4E JUMP JUMPDEST DUP1 PUSH1 0x1F ADD PUSH1 0x20 DUP1 SWAP2 DIV MUL PUSH1 0x20 ADD PUSH1 0x40 MLOAD SWAP1 DUP2 ADD PUSH1 0x40 MSTORE DUP1 SWAP3 SWAP2 SWAP1 DUP2 DUP2 MSTORE PUSH1 0x20 ADD DUP3 DUP1 SLOAD PUSH2 0x54A SWAP1 PUSH2 0x1F4E JUMP JUMPDEST DUP1 ISZERO PUSH2 0x595 JUMPI DUP1 PUSH1 0x1F LT PUSH2 0x56C JUMPI PUSH2 0x100 DUP1 DUP4 SLOAD DIV MUL DUP4 MSTORE SWAP2 PUSH1 0x20 ADD SWAP2 PUSH2 0x595 JUMP JUMPDEST DUP3 ADD SWAP2 SWAP1 PUSH0 MSTORE PUSH1 0x20 PUSH0 KECCAK256 SWAP1 JUMPDEST DUP2 SLOAD DUP2 MSTORE SWAP1 PUSH1 0x1 ADD SWAP1 PUSH1 0x20 ADD DUP1 DUP4 GT PUSH2 0x578 JUMPI DUP3 SWAP1 SUB PUSH1 0x1F AND DUP3 ADD SWAP2 JUMPDEST POP POP POP POP POP DUP2 MSTORE PUSH1 0x20 ADD SWAP1 PUSH1 0x1 ADD SWAP1 PUSH2 0x501 JUMP JUMPDEST POP POP POP POP SWAP1 POP SWAP2 SWAP1 POP JUMP JUMPDEST DUP2 DUP2 PUSH0 PUSH1 0x1 PUSH1 0x1 PUSH1 0xA0 SHL SUB AND PUSH0 DUP4 DUP4 PUSH1 0x40 MLOAD PUSH2 0x5D1 SWAP3 SWAP2 SWAP1 PUSH2 0x1F2B JUMP JUMPDEST SWAP1 DUP2 MSTORE PUSH1 0x40 MLOAD SWAP1 DUP2 SWAP1 SUB PUSH1 0x20 ADD SWAP1 KECCAK256 SLOAD PUSH1 0x1 PUSH1 0x1 PUSH1 0xA0 SHL SUB AND SUB PUSH2 0x608 JUMPI PUSH1 0x40 MLOAD PUSH4 0x5E3033B PUSH1 0xE1 SHL DUP2 MSTORE PUSH1 0x4 ADD PUSH1 0x40 MLOAD DUP1 SWAP2 SUB SWAP1 REVERT JUMPDEST PUSH0 PUSH0 DUP6 DUP6 PUSH1 0x40 MLOAD PUSH2 0x61A SWAP3 SWAP2 SWAP1 PUSH2 0x1F2B JUMP JUMPDEST SWAP1 DUP2 MSTORE PUSH1 0x40 DUP1 MLOAD PUSH1 0x20 SWAP3 DUP2 SWAP1 SUB DUP4 ADD SWAP1 KECCAK256 CALLER PUSH0 SWAP1 DUP2 MSTORE PUSH1 0x7 DUP3 ADD SWAP1 SWAP4 MSTORE SWAP1 DUP3 KECCAK256 SLOAD SWAP1 SWAP3 POP SWAP1 DUP2 SWAP1 SUB PUSH2 0x64D JUMPI POP POP PUSH2 0x6DC JUMP JUMPDEST CALLER PUSH0 DUP2 DUP2 MSTORE PUSH1 0x7 DUP5 ADD PUSH1 0x20 MSTORE PUSH1 0x40 DUP1 DUP3 KECCAK256 DUP3 SWAP1 SSTORE MLOAD SWAP1 SWAP2 SWAP1 DUP4 SWAP1 DUP4 DUP2 DUP2 DUP2 DUP6 DUP8 GAS CALL SWAP3 POP POP POP RETURNDATASIZE DUP1 PUSH0 DUP2 EQ PUSH2 0x69D JUMPI PUSH1 0x40 MLOAD SWAP2 POP PUSH1 0x1F NOT PUSH1 0x3F RETURNDATASIZE ADD AND DUP3 ADD PUSH1 0x40 MSTORE RETURNDATASIZE DUP3 MSTORE RETURNDATASIZE PUSH0 PUSH1 0x20 DUP5 ADD RETURNDATACOPY PUSH2 0x6A2 JUMP JUMPDEST PUSH1 0x60 SWAP2 POP JUMPDEST POP POP SWAP1 POP DUP1 PUSH2 0x6D8 JUMPI CALLER PUSH0 SWAP1 DUP2 MSTORE PUSH1 0x7 DUP5 ADD PUSH1 0x20 MSTORE PUSH1 0x40 SWAP1 DUP2 SWAP1 KECCAK256 DUP4 SWAP1 SSTORE DUP1 MLOAD PUSH4 0x8A6C6677 PUSH1 0xE0 SHL DUP2 MSTORE SWAP1 MLOAD SWAP1 DUP2 SWAP1 SUB PUSH1 0x4 ADD SWAP1 REVERT JUMPDEST POP POP POP JUMPDEST POP POP POP POP JUMP JUMPDEST PUSH1 0x60 DUP3 DUP3 PUSH0 PUSH1 0x1 PUSH1 0x1 PUSH1 0xA0 SHL SUB AND PUSH0 DUP4 DUP4 PUSH1 0x40 MLOAD PUSH2 0x701 SWAP3 SWAP2 SWAP1 PUSH2 0x1F2B JUMP JUMPDEST SWAP1 DUP2 MSTORE PUSH1 0x40 MLOAD SWAP1 DUP2 SWAP1 SUB PUSH1 0x20 ADD SWAP1 KECCAK256 SLOAD PUSH1 0x1 PUSH1 0x1 PUSH1 0xA0 SHL SUB AND SUB PUSH2 0x738 JUMPI PUSH1 0x40 MLOAD PUSH4 0x5E3033B PUSH1 0xE1 SHL DUP2 MSTORE PUSH1 0x4 ADD PUSH1 0x40 MLOAD DUP1 SWAP2 SUB SWAP1 REVERT JUMPDEST PUSH0 DUP6 DUP6 PUSH1 0x40 MLOAD PUSH2 0x749 SWAP3 SWAP2 SWAP1 PUSH2 0x1F2B JUMP JUMPDEST SWAP1 DUP2 MSTORE PUSH1 0x20 ADD PUSH1 0x40 MLOAD DUP1 SWAP2 SUB SWAP1 KECCAK256 PUSH1 0x5 ADD DUP1 SLOAD DUP1 PUSH1 0x20 MUL PUSH1 0x20 ADD PUSH1 0x40 MLOAD SWAP1 DUP2 ADD PUSH1 0x40 MSTORE DUP1 SWAP3 SWAP2 SWAP1 DUP2 DUP2 MSTORE PUSH1 0x20 ADD PUSH0 SWAP1 JUMPDEST DUP3 DUP3 LT ISZERO PUSH2 0x7E3 JUMPI PUSH0 DUP5 DUP2 MSTORE PUSH1 0x20 SWAP1 DUP2 SWAP1 KECCAK256 PUSH1 0x40 DUP1 MLOAD PUSH1 0x80 DUP2 ADD DUP3 MSTORE SWAP2 DUP6 ADD SLOAD PUSH1 0x1 PUSH1 0x1 PUSH1 0xA0 SHL SUB DUP2 AND DUP4 MSTORE PUSH1 0xFF PUSH1 0x1 PUSH1 0xA0 SHL DUP3 DIV DUP2 AND DUP5 DUP7 ADD MSTORE PUSH1 0x1 PUSH1 0xA8 SHL DUP3 DIV DUP2 AND ISZERO ISZERO SWAP3 DUP5 ADD SWAP3 SWAP1 SWAP3 MSTORE PUSH1 0x1 PUSH1 0xB0 SHL SWAP1 DIV AND ISZERO ISZERO PUSH1 0x60 DUP3 ADD MSTORE DUP3 MSTORE PUSH1 0x1 SWAP1 SWAP3 ADD SWAP2 ADD PUSH2 0x779 JUMP JUMPDEST POP POP POP POP SWAP3 POP POP POP SWAP3 SWAP2 POP POP JUMP JUMPDEST DUP2 DUP2 PUSH0 PUSH1 0x1 PUSH1 0x1 PUSH1 0xA0 SHL SUB AND PUSH0 DUP4 DUP4 PUSH1 0x40 MLOAD PUSH2 0x80E SWAP3 SWAP2 SWAP1 PUSH2 0x1F2B JUMP JUMPDEST SWAP1 DUP2 MSTORE PUSH1 0x40 MLOAD SWAP1 DUP2 SWAP1 SUB PUSH1 0x20 ADD SWAP1 KECCAK256 SLOAD PUSH1 0x1 PUSH1 0x1 PUSH1 0xA0 SHL SUB AND SUB PUSH2 0x845 JUMPI PUSH1 0x40 MLOAD PUSH4 0x5E3033B PUSH1 0xE1 SHL DUP2 MSTORE PUSH1 0x4 ADD PUSH1 0x40 MLOAD DUP1 SWAP2 SUB SWAP1 REVERT JUMPDEST DUP4 DUP4 PUSH0 DUP3 DUP3 PUSH1 0x40 MLOAD PUSH2 0x858 SWAP3 SWAP2 SWAP1 PUSH2 0x1F2B JUMP JUMPDEST SWAP1 DUP2 MSTORE PUSH1 0x40 MLOAD SWAP1 DUP2 SWAP1 SUB PUSH1 0x20 ADD SWAP1 KECCAK256 PUSH1 0x2 ADD SLOAD PUSH1 0xFF PUSH1 0x1 PUSH1 0x30 SHL SWAP1 SWAP2 DIV AND ISZERO PUSH2 0x894 JUMPI PUSH1 0x40 MLOAD PUSH4 0x82D4E1DB PUSH1 0xE0 SHL DUP2 MSTORE PUSH1 0x4 ADD PUSH1 0x40 MLOAD DUP1 SWAP2 SUB SWAP1 REVERT JUMPDEST PUSH0 PUSH0 DUP8 DUP8 PUSH1 0x40 MLOAD PUSH2 0x8A6 SWAP3 SWAP2 SWAP1 PUSH2 0x1F2B JUMP JUMPDEST SWAP1 DUP2 MSTORE PUSH1 0x40 MLOAD SWAP1 DUP2 SWAP1 SUB PUSH1 0x20 ADD SWAP1 KECCAK256 PUSH1 0x2 DUP2 ADD SLOAD SWAP1 SWAP2 POP PUSH1 0xFF PUSH1 0x1 PUSH1 0x38 SHL SWAP1 SWAP2 DIV AND PUSH2 0x8E5 JUMPI PUSH1 0x40 MLOAD PUSH4 0x37280ED PUSH1 0xE3 SHL DUP2 MSTORE PUSH1 0x4 ADD PUSH1 0x40 MLOAD DUP1 SWAP2 SUB SWAP1 REVERT JUMPDEST DUP1 PUSH1 0x1 ADD SLOAD CALLVALUE EQ PUSH2 0x909 JUMPI PUSH1 0x40 MLOAD PUSH4 0x683F0149 PUSH1 0xE1 SHL DUP2 MSTORE PUSH1 0x4 ADD PUSH1 0x40 MLOAD DUP1 SWAP2 SUB SWAP1 REVERT JUMPDEST PUSH0 PUSH2 0x915 DUP9 DUP9 CALLER PUSH2 0x15F1 JUMP JUMPDEST SWAP1 POP DUP2 PUSH1 0x5 ADD DUP2 DUP2 SLOAD DUP2 LT PUSH2 0x92C JUMPI PUSH2 0x92C PUSH2 0x1F3A JUMP JUMPDEST PUSH0 SWAP2 DUP3 MSTORE PUSH1 0x20 SWAP1 SWAP2 KECCAK256 ADD SLOAD PUSH1 0x1 PUSH1 0xB0 SHL SWAP1 DIV PUSH1 0xFF AND ISZERO PUSH2 0x962 JUMPI PUSH1 0x40 MLOAD PUSH1 0x1 PUSH3 0x608003 PUSH1 0xE1 SHL SUB NOT DUP2 MSTORE PUSH1 0x4 ADD PUSH1 0x40 MLOAD DUP1 SWAP2 SUB SWAP1 REVERT JUMPDEST PUSH1 0x1 DUP3 PUSH1 0x5 ADD DUP3 DUP2 SLOAD DUP2 LT PUSH2 0x979 JUMPI PUSH2 0x979 PUSH2 0x1F3A JUMP JUMPDEST PUSH0 SWAP2 DUP3 MSTORE PUSH1 0x20 DUP3 KECCAK256 ADD DUP1 SLOAD SWAP3 ISZERO ISZERO PUSH1 0x1 PUSH1 0xB0 SHL MUL PUSH1 0xFF PUSH1 0xB0 SHL NOT SWAP1 SWAP4 AND SWAP3 SWAP1 SWAP3 OR SWAP1 SWAP2 SSTORE PUSH1 0x3 DUP4 ADD DUP1 SLOAD CALLVALUE SWAP3 SWAP1 PUSH2 0x9B1 SWAP1 DUP5 SWAP1 PUSH2 0x1F9A JUMP JUMPDEST SWAP1 SWAP2 SSTORE POP POP PUSH1 0x40 DUP1 MLOAD PUSH1 0xC0 DUP2 ADD DUP3 MSTORE CALLER DUP1 DUP3 MSTORE ADDRESS PUSH1 0x20 DUP1 DUP5 ADD SWAP2 DUP3 MSTORE CALLVALUE DUP5 DUP7 ADD SWAP1 DUP2 MSTORE PUSH4 0xFFFFFFFF TIMESTAMP DUP2 AND PUSH1 0x60 DUP8 ADD SWAP1 DUP2 MSTORE PUSH1 0x2 DUP1 DUP12 ADD SLOAD PUSH1 0xFF PUSH2 0x100 SWAP1 SWAP2 DIV DUP2 AND PUSH1 0x80 DUP11 ADD SWAP1 DUP2 MSTORE PUSH0 PUSH1 0xA0 DUP12 ADD DUP2 DUP2 MSTORE PUSH1 0x6 DUP16 ADD DUP1 SLOAD PUSH1 0x1 DUP2 DUP2 ADD DUP4 SSTORE SWAP2 DUP5 MSTORE SWAP10 SWAP1 SWAP3 KECCAK256 SWAP12 MLOAD PUSH1 0x4 SWAP1 SWAP10 MUL SWAP1 SWAP12 ADD DUP1 SLOAD PUSH1 0x1 PUSH1 0x1 PUSH1 0xA0 SHL SUB SWAP10 DUP11 AND PUSH1 0x1 PUSH1 0x1 PUSH1 0xA0 SHL SUB NOT SWAP2 DUP3 AND OR DUP3 SSTORE SWAP10 MLOAD SWAP2 DUP2 ADD DUP1 SLOAD SWAP3 SWAP1 SWAP10 AND SWAP2 SWAP1 SWAP10 AND OR SWAP1 SWAP7 SSTORE SWAP4 MLOAD SWAP1 DUP7 ADD SSTORE MLOAD PUSH1 0x3 SWAP1 SWAP5 ADD DUP1 SLOAD SWAP4 MLOAD SWAP7 MLOAD ISZERO ISZERO PUSH6 0x10000000000 MUL PUSH6 0xFF0000000000 NOT SWAP8 SWAP1 SWAP4 AND PUSH5 0x100000000 MUL PUSH5 0xFFFFFFFFFF NOT SWAP1 SWAP5 AND SWAP5 SWAP1 SWAP2 AND SWAP4 SWAP1 SWAP4 OR SWAP2 SWAP1 SWAP2 OR SWAP4 SWAP1 SWAP4 AND SWAP3 SWAP1 SWAP3 OR SWAP1 SWAP2 SSTORE SWAP1 MLOAD PUSH2 0xAAE SWAP1 DUP11 SWAP1 DUP11 SWAP1 PUSH2 0x1F2B JUMP JUMPDEST PUSH1 0x40 MLOAD SWAP1 DUP2 SWAP1 SUB DUP2 KECCAK256 CALLVALUE DUP3 MSTORE SWAP1 PUSH32 0xC32EA7ED7629D43005F8151868025FA2572B1299C75F63049895FA7ABF468104 SWAP1 PUSH1 0x20 ADD PUSH1 0x40 MLOAD DUP1 SWAP2 SUB SWAP1 LOG3 PUSH2 0xAF2 DUP9 DUP9 PUSH2 0x168A JUMP JUMPDEST ISZERO PUSH2 0xB35 JUMPI PUSH2 0xB35 DUP9 DUP9 DUP1 DUP1 PUSH1 0x1F ADD PUSH1 0x20 DUP1 SWAP2 DIV MUL PUSH1 0x20 ADD PUSH1 0x40 MLOAD SWAP1 DUP2 ADD PUSH1 0x40 MSTORE DUP1 SWAP4 SWAP3 SWAP2 SWAP1 DUP2 DUP2 MSTORE PUSH1 0x20 ADD DUP4 DUP4 DUP1 DUP3 DUP5 CALLDATACOPY PUSH0 SWAP3 ADD SWAP2 SWAP1 SWAP2 MSTORE POP PUSH2 0x1706 SWAP3 POP POP POP JUMP JUMPDEST POP POP POP POP POP POP POP POP JUMP JUMPDEST PUSH0 DUP4 DUP4 PUSH0 PUSH1 0x1 PUSH1 0x1 PUSH1 0xA0 SHL SUB AND PUSH0 DUP4 DUP4 PUSH1 0x40 MLOAD PUSH2 0xB5D SWAP3 SWAP2 SWAP1 PUSH2 0x1F2B JUMP JUMPDEST SWAP1 DUP2 MSTORE PUSH1 0x40 MLOAD SWAP1 DUP2 SWAP1 SUB PUSH1 0x20 ADD SWAP1 KECCAK256 SLOAD PUSH1 0x1 PUSH1 0x1 PUSH1 0xA0 SHL SUB AND SUB PUSH2 0xB94 JUMPI PUSH1 0x40 MLOAD PUSH4 0x5E3033B PUSH1 0xE1 SHL DUP2 MSTORE PUSH1 0x4 ADD PUSH1 0x40 MLOAD DUP1 SWAP2 SUB SWAP1 REVERT JUMPDEST PUSH0 PUSH2 0xBA0 DUP8 DUP8 DUP8 PUSH2 0x15F1 JUMP JUMPDEST SWAP1 POP PUSH0 DUP8 DUP8 PUSH1 0x40 MLOAD PUSH2 0xBB3 SWAP3 SWAP2 SWAP1 PUSH2 0x1F2B JUMP JUMPDEST SWAP1 DUP2 MSTORE PUSH1 0x20 ADD PUSH1 0x40 MLOAD DUP1 SWAP2 SUB SWAP1 KECCAK256 PUSH1 0x5 ADD DUP2 DUP2 SLOAD DUP2 LT PUSH2 0xBD5 JUMPI PUSH2 0xBD5 PUSH2 0x1F3A JUMP JUMPDEST PUSH0 SWAP2 DUP3 MSTORE PUSH1 0x20 SWAP1 SWAP2 KECCAK256 ADD SLOAD PUSH1 0x1 PUSH1 0xA0 SHL SWAP1 DIV PUSH1 0xFF AND SWAP8 SWAP7 POP POP POP POP POP POP POP JUMP JUMPDEST DUP2 DUP2 PUSH0 PUSH1 0x1 PUSH1 0x1 PUSH1 0xA0 SHL SUB AND PUSH0 DUP4 DUP4 PUSH1 0x40 MLOAD PUSH2 0xC12 SWAP3 SWAP2 SWAP1 PUSH2 0x1F2B JUMP JUMPDEST SWAP1 DUP2 MSTORE PUSH1 0x40 MLOAD SWAP1 DUP2 SWAP1 SUB PUSH1 0x20 ADD SWAP1 KECCAK256 SLOAD PUSH1 0x1 PUSH1 0x1 PUSH1 0xA0 SHL SUB AND SUB PUSH2 0xC49 JUMPI PUSH1 0x40 MLOAD PUSH4 0x5E3033B PUSH1 0xE1 SHL DUP2 MSTORE PUSH1 0x4 ADD PUSH1 0x40 MLOAD DUP1 SWAP2 SUB SWAP1 REVERT JUMPDEST DUP4 DUP4 PUSH0 DUP3 DUP3 PUSH1 0x40 MLOAD PUSH2 0xC5C SWAP3 SWAP2 SWAP1 PUSH2 0x1F2B JUMP JUMPDEST SWAP1 DUP2 MSTORE PUSH1 0x40 MLOAD SWAP1 DUP2 SWAP1 SUB PUSH1 0x20 ADD SWAP1 KECCAK256 PUSH1 0x2 ADD SLOAD PUSH1 0xFF PUSH1 0x1 PUSH1 0x30 SHL SWAP1 SWAP2 DIV AND ISZERO PUSH2 0xC98 JUMPI PUSH1 0x40 MLOAD PUSH4 0x82D4E1DB PUSH1 0xE0 SHL DUP2 MSTORE PUSH1 0x4 ADD PUSH1 0x40 MLOAD DUP1 SWAP2 SUB SWAP1 REVERT JUMPDEST DUP6 DUP6 CALLER PUSH1 0x1 PUSH1 0x1 PUSH1 0xA0 SHL SUB AND PUSH0 DUP4 DUP4 PUSH1 0x40 MLOAD PUSH2 0xCB5 SWAP3 SWAP2 SWAP1 PUSH2 0x1F2B JUMP JUMPDEST SWAP1 DUP2 MSTORE PUSH1 0x40 MLOAD SWAP1 DUP2 SWAP1 SUB PUSH1 0x20 ADD SWAP1 KECCAK256 SLOAD PUSH1 0x1 PUSH1 0x1 PUSH1 0xA0 SHL SUB AND EQ PUSH2 0xCEC JUMPI PUSH1 0x40 MLOAD PUSH4 0x3580C865 PUSH1 0xE0 SHL DUP2 MSTORE PUSH1 0x4 ADD PUSH1 0x40 MLOAD DUP1 SWAP2 SUB SWAP1 REVERT JUMPDEST PUSH0 PUSH0 DUP10 DUP10 PUSH1 0x40 MLOAD PUSH2 0xCFE SWAP3 SWAP2 SWAP1 PUSH2 0x1F2B JUMP JUMPDEST SWAP1 DUP2 MSTORE PUSH1 0x40 MLOAD SWAP1 DUP2 SWAP1 SUB PUSH1 0x20 ADD SWAP1 KECCAK256 PUSH1 0x2 DUP2 ADD SLOAD SWAP1 SWAP2 POP PUSH1 0xFF PUSH1 0x1 PUSH1 0x38 SHL SWAP1 SWAP2 DIV AND ISZERO PUSH2 0xD3E JUMPI PUSH1 0x40 MLOAD PUSH4 0x4F992B6F PUSH1 0xE0 SHL DUP2 MSTORE PUSH1 0x4 ADD PUSH1 0x40 MLOAD DUP1 SWAP2 SUB SWAP1 REVERT JUMPDEST PUSH1 0x5 DUP2 ADD SLOAD PUSH0 PUSH2 0xD4F DUP3 PUSH1 0x1 PUSH2 0x1F9A JUMP JUMPDEST PUSH8 0xFFFFFFFFFFFFFFFF DUP2 GT ISZERO PUSH2 0xD67 JUMPI PUSH2 0xD67 PUSH2 0x1FAD JUMP JUMPDEST PUSH1 0x40 MLOAD SWAP1 DUP1 DUP3 MSTORE DUP1 PUSH1 0x20 MUL PUSH1 0x20 ADD DUP3 ADD PUSH1 0x40 MSTORE DUP1 ISZERO PUSH2 0xD90 JUMPI DUP2 PUSH1 0x20 ADD PUSH1 0x20 DUP3 MUL DUP1 CALLDATASIZE DUP4 CALLDATACOPY ADD SWAP1 POP JUMPDEST POP SWAP1 POP PUSH0 JUMPDEST DUP3 DUP2 LT ISZERO PUSH2 0xE98 JUMPI PUSH0 JUMPDEST DUP4 TIMESTAMP PREVRANDAO CALLER DUP6 PUSH1 0x40 MLOAD PUSH1 0x20 ADD PUSH2 0xDDF SWAP5 SWAP4 SWAP3 SWAP2 SWAP1 SWAP4 DUP5 MSTORE PUSH1 0x20 DUP5 ADD SWAP3 SWAP1 SWAP3 MSTORE PUSH1 0x60 SHL PUSH12 0xFFFFFFFFFFFFFFFFFFFFFFFF NOT AND PUSH1 0x40 DUP4 ADD MSTORE PUSH1 0x54 DUP3 ADD MSTORE PUSH1 0x74 ADD SWAP1 JUMP JUMPDEST PUSH1 0x40 MLOAD PUSH1 0x20 DUP2 DUP4 SUB SUB DUP2 MSTORE SWAP1 PUSH1 0x40 MSTORE DUP1 MLOAD SWAP1 PUSH1 0x20 ADD KECCAK256 PUSH0 SHR PUSH2 0xE01 SWAP2 SWAP1 PUSH2 0x1FC1 JUMP JUMPDEST PUSH2 0xE0C SWAP1 PUSH1 0x1 PUSH2 0x1F9A JUMP JUMPDEST SWAP1 POP DUP3 DUP2 DUP2 MLOAD DUP2 LT PUSH2 0xE20 JUMPI PUSH2 0xE20 PUSH2 0x1F3A JUMP JUMPDEST PUSH1 0x20 MUL PUSH1 0x20 ADD ADD MLOAD PUSH2 0xD9F JUMPI PUSH1 0x1 DUP4 DUP3 DUP2 MLOAD DUP2 LT PUSH2 0xE40 JUMPI PUSH2 0xE40 PUSH2 0x1F3A JUMP JUMPDEST PUSH1 0x20 MUL PUSH1 0x20 ADD ADD SWAP1 ISZERO ISZERO SWAP1 DUP2 ISZERO ISZERO DUP2 MSTORE POP POP DUP1 DUP6 PUSH1 0x5 ADD DUP4 DUP2 SLOAD DUP2 LT PUSH2 0xE68 JUMPI PUSH2 0xE68 PUSH2 0x1F3A JUMP JUMPDEST PUSH0 SWAP2 DUP3 MSTORE PUSH1 0x20 SWAP1 SWAP2 KECCAK256 ADD DUP1 SLOAD PUSH1 0xFF SWAP3 SWAP1 SWAP3 AND PUSH1 0x1 PUSH1 0xA0 SHL MUL PUSH1 0xFF PUSH1 0xA0 SHL NOT SWAP1 SWAP3 AND SWAP2 SWAP1 SWAP2 OR SWAP1 SSTORE POP PUSH1 0x1 ADD PUSH2 0xD95 JUMP JUMPDEST POP PUSH1 0x2 DUP4 ADD DUP1 SLOAD PUSH8 0xFF00000000000000 NOT AND PUSH1 0x1 PUSH1 0x38 SHL OR SWAP1 SSTORE PUSH1 0x40 MLOAD PUSH2 0xEC2 SWAP1 DUP13 SWAP1 DUP13 SWAP1 PUSH2 0x1F2B JUMP JUMPDEST PUSH1 0x40 MLOAD SWAP1 DUP2 SWAP1 SUB DUP2 KECCAK256 SWAP1 PUSH32 0x421589E4CD20383EAFB22DF9D4CF58F97CF473DAC683D1194A2684012B343667 SWAP1 PUSH0 SWAP1 LOG2 POP POP POP POP POP POP POP POP POP POP POP JUMP JUMPDEST PUSH0 DUP4 DUP4 PUSH0 PUSH1 0x1 PUSH1 0x1 PUSH1 0xA0 SHL SUB AND PUSH0 DUP4 DUP4 PUSH1 0x40 MLOAD PUSH2 0xF1C SWAP3 SWAP2 SWAP1 PUSH2 0x1F2B JUMP JUMPDEST SWAP1 DUP2 MSTORE PUSH1 0x40 MLOAD SWAP1 DUP2 SWAP1 SUB PUSH1 0x20 ADD SWAP1 KECCAK256 SLOAD PUSH1 0x1 PUSH1 0x1 PUSH1 0xA0 SHL SUB AND SUB PUSH2 0xF53 JUMPI PUSH1 0x40 MLOAD PUSH4 0x5E3033B PUSH1 0xE1 SHL DUP2 MSTORE PUSH1 0x4 ADD PUSH1 0x40 MLOAD DUP1 SWAP2 SUB SWAP1 REVERT JUMPDEST PUSH0 DUP7 DUP7 PUSH1 0x40 MLOAD PUSH2 0xF64 SWAP3 SWAP2 SWAP1 PUSH2 0x1F2B JUMP JUMPDEST SWAP1 DUP2 MSTORE PUSH1 0x40 DUP1 MLOAD PUSH1 0x20 SWAP3 DUP2 SWAP1 SUB DUP4 ADD SWAP1 KECCAK256 PUSH1 0x1 PUSH1 0x1 PUSH1 0xA0 SHL SUB SWAP7 SWAP1 SWAP7 AND PUSH0 SWAP1 DUP2 MSTORE PUSH1 0x4 SWAP1 SWAP7 ADD SWAP1 SWAP2 MSTORE SWAP1 SWAP4 KECCAK256 SLOAD PUSH1 0xFF AND SWAP6 SWAP5 POP POP POP POP POP JUMP JUMPDEST PUSH0 PUSH1 0x1 PUSH1 0x1 PUSH1 0xA0 SHL SUB AND PUSH0 DUP7 DUP7 PUSH1 0x40 MLOAD PUSH2 0xFB8 SWAP3 SWAP2 SWAP1 PUSH2 0x1F2B JUMP JUMPDEST SWAP1 DUP2 MSTORE PUSH1 0x40 MLOAD SWAP1 DUP2 SWAP1 SUB PUSH1 0x20 ADD SWAP1 KECCAK256 SLOAD PUSH1 0x1 PUSH1 0x1 PUSH1 0xA0 SHL SUB AND EQ PUSH2 0xFEF JUMPI PUSH1 0x40 MLOAD PUSH4 0x36619919 PUSH1 0xE2 SHL DUP2 MSTORE PUSH1 0x4 ADD PUSH1 0x40 MLOAD DUP1 SWAP2 SUB SWAP1 REVERT JUMPDEST PUSH0 PUSH0 DUP7 DUP7 PUSH1 0x40 MLOAD PUSH2 0x1001 SWAP3 SWAP2 SWAP1 PUSH2 0x1F2B JUMP JUMPDEST SWAP1 DUP2 MSTORE PUSH1 0x40 DUP1 MLOAD PUSH1 0x20 SWAP3 DUP2 SWAP1 SUB DUP4 ADD SWAP1 KECCAK256 DUP1 SLOAD CALLER PUSH1 0x1 PUSH1 0x1 PUSH1 0xA0 SHL SUB NOT SWAP1 SWAP2 AND DUP2 OR DUP3 SSTORE PUSH1 0x1 DUP1 DUP4 ADD DUP9 SWAP1 SSTORE PUSH1 0x2 DUP4 ADD DUP1 SLOAD PUSH2 0x100 PUSH1 0xFF DUP13 AND PUSH6 0xFFFFFFFF00FF NOT SWAP1 SWAP3 AND SWAP2 SWAP1 SWAP2 OR PUSH3 0x10000 PUSH4 0xFFFFFFFF DUP12 AND MUL OR PUSH2 0xFF00 NOT AND OR SWAP1 SSTORE PUSH0 SWAP2 DUP3 MSTORE PUSH1 0x4 DUP4 ADD DUP6 MSTORE DUP4 DUP3 KECCAK256 DUP1 SLOAD PUSH1 0xFF NOT AND DUP3 OR SWAP1 SSTORE DUP1 DUP6 MSTORE SWAP3 DUP2 KECCAK256 DUP1 SLOAD SWAP4 DUP5 ADD DUP2 SSTORE DUP2 MSTORE SWAP3 SWAP1 SWAP3 KECCAK256 SWAP2 SWAP3 POP ADD PUSH2 0x1097 DUP7 DUP9 DUP4 PUSH2 0x2029 JUMP JUMPDEST POP PUSH1 0x40 MLOAD CALLER SWAP1 PUSH2 0x10AA SWAP1 DUP9 SWAP1 DUP9 SWAP1 PUSH2 0x1F2B JUMP JUMPDEST PUSH1 0x40 MLOAD SWAP1 DUP2 SWAP1 SUB DUP2 KECCAK256 SWAP1 PUSH32 0xDC9655BDFFA72541122A0C5C0863A88CD625F0215C7B168904E9D5A261728A12 SWAP1 PUSH0 SWAP1 LOG3 POP POP POP POP POP POP JUMP JUMPDEST PUSH1 0x60 DUP3 DUP3 PUSH0 PUSH1 0x1 PUSH1 0x1 PUSH1 0xA0 SHL SUB AND PUSH0 DUP4 DUP4 PUSH1 0x40 MLOAD PUSH2 0x1100 SWAP3 SWAP2 SWAP1 PUSH2 0x1F2B JUMP JUMPDEST SWAP1 DUP2 MSTORE PUSH1 0x40 MLOAD SWAP1 DUP2 SWAP1 SUB PUSH1 0x20 ADD SWAP1 KECCAK256 SLOAD PUSH1 0x1 PUSH1 0x1 PUSH1 0xA0 SHL SUB AND SUB PUSH2 0x1137 JUMPI PUSH1 0x40 MLOAD PUSH4 0x5E3033B PUSH1 0xE1 SHL DUP2 MSTORE PUSH1 0x4 ADD PUSH1 0x40 MLOAD DUP1 SWAP2 SUB SWAP1 REVERT JUMPDEST PUSH0 DUP6 DUP6 PUSH1 0x40 MLOAD PUSH2 0x1148 SWAP3 SWAP2 SWAP1 PUSH2 0x1F2B JUMP JUMPDEST SWAP1 DUP2 MSTORE PUSH1 0x20 ADD PUSH1 0x40 MLOAD DUP1 SWAP2 SUB SWAP1 KECCAK256 PUSH1 0x6 ADD DUP1 SLOAD DUP1 PUSH1 0x20 MUL PUSH1 0x20 ADD PUSH1 0x40 MLOAD SWAP1 DUP2 ADD PUSH1 0x40 MSTORE DUP1 SWAP3 SWAP2 SWAP1 DUP2 DUP2 MSTORE PUSH1 0x20 ADD PUSH0 SWAP1 JUMPDEST DUP3 DUP3 LT ISZERO PUSH2 0x7E3 JUMPI PUSH0 DUP5 DUP2 MSTORE PUSH1 0x20 SWAP1 DUP2 SWAP1 KECCAK256 PUSH1 0x40 DUP1 MLOAD PUSH1 0xC0 DUP2 ADD DUP3 MSTORE PUSH1 0x4 DUP7 MUL SWAP1 SWAP3 ADD DUP1 SLOAD PUSH1 0x1 PUSH1 0x1 PUSH1 0xA0 SHL SUB SWAP1 DUP2 AND DUP5 MSTORE PUSH1 0x1 DUP1 DUP4 ADD SLOAD SWAP1 SWAP2 AND DUP5 DUP7 ADD MSTORE PUSH1 0x2 DUP3 ADD SLOAD SWAP3 DUP5 ADD SWAP3 SWAP1 SWAP3 MSTORE PUSH1 0x3 ADD SLOAD PUSH4 0xFFFFFFFF DUP2 AND PUSH1 0x60 DUP5 ADD MSTORE PUSH1 0xFF PUSH5 0x100000000 DUP3 DIV DUP2 AND PUSH1 0x80 DUP6 ADD MSTORE PUSH6 0x10000000000 SWAP1 SWAP2 DIV AND ISZERO ISZERO PUSH1 0xA0 DUP4 ADD MSTORE SWAP1 DUP4 MSTORE SWAP1 SWAP3 ADD SWAP2 ADD PUSH2 0x1178 JUMP JUMPDEST DUP2 DUP2 PUSH0 PUSH1 0x1 PUSH1 0x1 PUSH1 0xA0 SHL SUB AND PUSH0 DUP4 DUP4 PUSH1 0x40 MLOAD PUSH2 0x1220 SWAP3 SWAP2 SWAP1 PUSH2 0x1F2B JUMP JUMPDEST SWAP1 DUP2 MSTORE PUSH1 0x40 MLOAD SWAP1 DUP2 SWAP1 SUB PUSH1 0x20 ADD SWAP1 KECCAK256 SLOAD PUSH1 0x1 PUSH1 0x1 PUSH1 0xA0 SHL SUB AND SUB PUSH2 0x1257 JUMPI PUSH1 0x40 MLOAD PUSH4 0x5E3033B PUSH1 0xE1 SHL DUP2 MSTORE PUSH1 0x4 ADD PUSH1 0x40 MLOAD DUP1 SWAP2 SUB SWAP1 REVERT JUMPDEST DUP4 DUP4 PUSH0 DUP3 DUP3 PUSH1 0x40 MLOAD PUSH2 0x126A SWAP3 SWAP2 SWAP1 PUSH2 0x1F2B JUMP JUMPDEST SWAP1 DUP2 MSTORE PUSH1 0x40 MLOAD SWAP1 DUP2 SWAP1 SUB PUSH1 0x20 ADD SWAP1 KECCAK256 PUSH1 0x2 ADD SLOAD PUSH1 0xFF PUSH1 0x1 PUSH1 0x30 SHL SWAP1 SWAP2 DIV AND ISZERO PUSH2 0x12A6 JUMPI PUSH1 0x40 MLOAD PUSH4 0x82D4E1DB PUSH1 0xE0 SHL DUP2 MSTORE PUSH1 0x4 ADD PUSH1 0x40 MLOAD DUP1 SWAP2 SUB SWAP1 REVERT JUMPDEST PUSH0 PUSH0 DUP8 DUP8 PUSH1 0x40 MLOAD PUSH2 0x12B8 SWAP3 SWAP2 SWAP1 PUSH2 0x1F2B JUMP JUMPDEST SWAP1 DUP2 MSTORE PUSH1 0x40 DUP1 MLOAD PUSH1 0x20 SWAP3 DUP2 SWAP1 SUB DUP4 ADD SWAP1 KECCAK256 CALLER PUSH0 SWAP1 DUP2 MSTORE PUSH1 0x4 DUP3 ADD SWAP1 SWAP4 MSTORE SWAP2 KECCAK256 SLOAD SWAP1 SWAP2 POP PUSH1 0xFF AND PUSH2 0x12FB JUMPI PUSH1 0x40 MLOAD PUSH4 0x7B41A587 PUSH1 0xE1 SHL DUP2 MSTORE PUSH1 0x4 ADD PUSH1 0x40 MLOAD DUP1 SWAP2 SUB SWAP1 REVERT JUMPDEST PUSH1 0x2 DUP2 ADD SLOAD PUSH1 0x5 DUP3 ADD SLOAD PUSH1 0xFF SWAP1 SWAP2 AND GT PUSH2 0x1328 JUMPI PUSH1 0x40 MLOAD PUSH4 0x9D05A93 PUSH1 0xE1 SHL DUP2 MSTORE PUSH1 0x4 ADD PUSH1 0x40 MLOAD DUP1 SWAP2 SUB SWAP1 REVERT JUMPDEST PUSH1 0x2 DUP2 ADD SLOAD PUSH1 0x1 PUSH1 0x38 SHL SWAP1 DIV PUSH1 0xFF AND ISZERO PUSH2 0x1355 JUMPI PUSH1 0x40 MLOAD PUSH4 0x4F992B6F PUSH1 0xE0 SHL DUP2 MSTORE PUSH1 0x4 ADD PUSH1 0x40 MLOAD DUP1 SWAP2 SUB SWAP1 REVERT JUMPDEST PUSH2 0x1360 DUP8 DUP8 CALLER PUSH2 0x1A2B JUMP JUMPDEST ISZERO PUSH2 0x137E JUMPI PUSH1 0x40 MLOAD PUSH4 0x95CC7033 PUSH1 0xE0 SHL DUP2 MSTORE PUSH1 0x4 ADD PUSH1 0x40 MLOAD DUP1 SWAP2 SUB SWAP1 REVERT JUMPDEST PUSH1 0x40 DUP1 MLOAD PUSH1 0x80 DUP2 ADD DUP3 MSTORE CALLER DUP1 DUP3 MSTORE PUSH0 PUSH1 0x20 DUP1 DUP5 ADD DUP3 DUP2 MSTORE DUP5 DUP7 ADD DUP4 DUP2 MSTORE PUSH1 0x60 DUP7 ADD DUP5 DUP2 MSTORE PUSH1 0x5 DUP10 ADD DUP1 SLOAD PUSH1 0x1 DUP1 DUP3 ADD DUP4 SSTORE SWAP2 DUP8 MSTORE DUP6 DUP8 KECCAK256 SWAP9 MLOAD SWAP9 ADD DUP1 SLOAD SWAP5 MLOAD SWAP4 MLOAD SWAP3 MLOAD ISZERO ISZERO PUSH1 0x1 PUSH1 0xB0 SHL MUL PUSH1 0xFF PUSH1 0xB0 SHL NOT SWAP4 ISZERO ISZERO PUSH1 0x1 PUSH1 0xA8 SHL MUL SWAP4 SWAP1 SWAP4 AND PUSH2 0xFFFF PUSH1 0xA8 SHL NOT PUSH1 0xFF SWAP1 SWAP6 AND PUSH1 0x1 PUSH1 0xA0 SHL MUL PUSH1 0x1 PUSH1 0x1 PUSH1 0xA8 SHL SUB NOT SWAP1 SWAP7 AND PUSH1 0x1 PUSH1 0x1 PUSH1 0xA0 SHL SUB SWAP1 SWAP11 AND SWAP10 SWAP1 SWAP10 OR SWAP5 SWAP1 SWAP5 OR SWAP3 SWAP1 SWAP3 AND SWAP7 SWAP1 SWAP7 OR SWAP6 SWAP1 SWAP6 OR SWAP1 SSTORE SWAP2 DUP2 MSTORE DUP3 DUP3 MSTORE SWAP3 DUP4 KECCAK256 DUP1 SLOAD SWAP3 DUP4 ADD DUP2 SSTORE DUP4 MSTORE SWAP1 SWAP2 KECCAK256 ADD PUSH2 0x143C DUP8 DUP10 DUP4 PUSH2 0x2029 JUMP JUMPDEST POP PUSH1 0x40 MLOAD CALLER SWAP1 PUSH2 0x144F SWAP1 DUP10 SWAP1 DUP10 SWAP1 PUSH2 0x1F2B JUMP JUMPDEST PUSH1 0x40 MLOAD SWAP1 DUP2 SWAP1 SUB DUP2 KECCAK256 SWAP1 PUSH32 0xFF26E55E4141A40652551F6DEB99AD6A479802FEA36B667695053604B4550461 SWAP1 PUSH0 SWAP1 LOG3 POP POP POP POP POP POP POP JUMP JUMPDEST PUSH0 DUP4 DUP4 PUSH0 PUSH1 0x1 PUSH1 0x1 PUSH1 0xA0 SHL SUB AND PUSH0 DUP4 DUP4 PUSH1 0x40 MLOAD PUSH2 0x14A5 SWAP3 SWAP2 SWAP1 PUSH2 0x1F2B JUMP JUMPDEST SWAP1 DUP2 MSTORE PUSH1 0x40 MLOAD SWAP1 DUP2 SWAP1 SUB PUSH1 0x20 ADD SWAP1 KECCAK256 SLOAD PUSH1 0x1 PUSH1 0x1 PUSH1 0xA0 SHL SUB AND SUB PUSH2 0x14DC JUMPI PUSH1 0x40 MLOAD PUSH4 0x5E3033B PUSH1 0xE1 SHL DUP2 MSTORE PUSH1 0x4 ADD PUSH1 0x40 MLOAD DUP1 SWAP2 SUB SWAP1 REVERT JUMPDEST PUSH0 DUP7 DUP7 PUSH1 0x40 MLOAD PUSH2 0x14ED SWAP3 SWAP2 SWAP1 PUSH2 0x1F2B JUMP JUMPDEST SWAP1 DUP2 MSTORE PUSH1 0x20 ADD PUSH1 0x40 MLOAD DUP1 SWAP2 SUB SWAP1 KECCAK256 PUSH1 0x7 ADD PUSH0 DUP6 PUSH1 0x1 PUSH1 0x1 PUSH1 0xA0 SHL SUB AND PUSH1 0x1 PUSH1 0x1 PUSH1 0xA0 SHL SUB AND DUP2 MSTORE PUSH1 0x20 ADD SWAP1 DUP2 MSTORE PUSH1 0x20 ADD PUSH0 KECCAK256 SLOAD SWAP3 POP POP POP SWAP4 SWAP3 POP POP POP JUMP JUMPDEST PUSH0 PUSH0 PUSH0 PUSH0 PUSH0 PUSH0 DUP8 DUP8 PUSH0 PUSH1 0x1 PUSH1 0x1 PUSH1 0xA0 SHL SUB AND PUSH0 DUP4 DUP4 PUSH1 0x40 MLOAD PUSH2 0x154E SWAP3 SWAP2 SWAP1 PUSH2 0x1F2B JUMP JUMPDEST SWAP1 DUP2 MSTORE PUSH1 0x40 MLOAD SWAP1 DUP2 SWAP1 SUB PUSH1 0x20 ADD SWAP1 KECCAK256 SLOAD PUSH1 0x1 PUSH1 0x1 PUSH1 0xA0 SHL SUB AND SUB PUSH2 0x1585 JUMPI PUSH1 0x40 MLOAD PUSH4 0x5E3033B PUSH1 0xE1 SHL DUP2 MSTORE PUSH1 0x4 ADD PUSH1 0x40 MLOAD DUP1 SWAP2 SUB SWAP1 REVERT JUMPDEST PUSH0 PUSH0 DUP12 DUP12 PUSH1 0x40 MLOAD PUSH2 0x1597 SWAP3 SWAP2 SWAP1 PUSH2 0x1F2B JUMP JUMPDEST SWAP1 DUP2 MSTORE PUSH1 0x40 MLOAD SWAP1 DUP2 SWAP1 SUB PUSH1 0x20 ADD SWAP1 KECCAK256 DUP1 SLOAD PUSH1 0x1 DUP3 ADD SLOAD PUSH1 0x2 SWAP1 SWAP3 ADD SLOAD PUSH1 0x1 PUSH1 0x1 PUSH1 0xA0 SHL SUB SWAP1 SWAP2 AND SWAP14 SWAP2 SWAP13 POP PUSH1 0xFF DUP1 DUP3 AND SWAP13 POP PUSH2 0x100 DUP3 DIV DUP2 AND SWAP12 POP PUSH1 0x1 PUSH1 0x30 SHL DUP3 DIV DUP2 AND SWAP11 POP PUSH1 0x1 PUSH1 0x38 SHL SWAP1 SWAP2 DIV AND SWAP8 POP SWAP6 POP POP POP POP POP POP JUMP JUMPDEST PUSH0 PUSH0 PUSH0 DUP6 DUP6 PUSH1 0x40 MLOAD PUSH2 0x1604 SWAP3 SWAP2 SWAP1 PUSH2 0x1F2B JUMP JUMPDEST SWAP1 DUP2 MSTORE PUSH1 0x40 MLOAD SWAP1 DUP2 SWAP1 SUB PUSH1 0x20 ADD SWAP1 KECCAK256 PUSH1 0x5 ADD SWAP1 POP PUSH0 JUMPDEST DUP2 SLOAD DUP2 LT ISZERO PUSH2 0x1669 JUMPI DUP4 PUSH1 0x1 PUSH1 0x1 PUSH1 0xA0 SHL SUB AND DUP3 DUP3 DUP2 SLOAD DUP2 LT PUSH2 0x163F JUMPI PUSH2 0x163F PUSH2 0x1F3A JUMP JUMPDEST PUSH0 SWAP2 DUP3 MSTORE PUSH1 0x20 SWAP1 SWAP2 KECCAK256 ADD SLOAD PUSH1 0x1 PUSH1 0x1 PUSH1 0xA0 SHL SUB AND SUB PUSH2 0x1661 JUMPI SWAP2 POP PUSH2 0x1683 SWAP1 POP JUMP JUMPDEST PUSH1 0x1 ADD PUSH2 0x161A JUMP JUMPDEST POP PUSH1 0x40 MLOAD PUSH4 0x7B41A587 PUSH1 0xE1 SHL DUP2 MSTORE PUSH1 0x4 ADD PUSH1 0x40 MLOAD DUP1 SWAP2 SUB SWAP1 REVERT JUMPDEST SWAP4 SWAP3 POP POP POP JUMP JUMPDEST PUSH0 PUSH0 PUSH0 DUP5 DUP5 PUSH1 0x40 MLOAD PUSH2 0x169D SWAP3 SWAP2 SWAP1 PUSH2 0x1F2B JUMP JUMPDEST SWAP1 DUP2 MSTORE PUSH1 0x40 MLOAD SWAP1 DUP2 SWAP1 SUB PUSH1 0x20 ADD SWAP1 KECCAK256 PUSH1 0x5 ADD SWAP1 POP PUSH0 JUMPDEST DUP2 SLOAD DUP2 LT ISZERO PUSH2 0x16F9 JUMPI DUP2 DUP2 DUP2 SLOAD DUP2 LT PUSH2 0x16CE JUMPI PUSH2 0x16CE PUSH2 0x1F3A JUMP JUMPDEST PUSH0 SWAP2 DUP3 MSTORE PUSH1 0x20 SWAP1 SWAP2 KECCAK256 ADD SLOAD PUSH1 0x1 PUSH1 0xB0 SHL SWAP1 DIV PUSH1 0xFF AND PUSH2 0x16F1 JUMPI PUSH0 SWAP3 POP POP POP PUSH2 0x1700 JUMP JUMPDEST PUSH1 0x1 ADD PUSH2 0x16B3 JUMP JUMPDEST POP PUSH1 0x1 SWAP2 POP POP JUMPDEST SWAP3 SWAP2 POP POP JUMP JUMPDEST PUSH0 PUSH0 DUP3 PUSH1 0x40 MLOAD PUSH2 0x1716 SWAP2 SWAP1 PUSH2 0x20E3 JUMP JUMPDEST SWAP1 DUP2 MSTORE PUSH1 0x40 MLOAD SWAP1 DUP2 SWAP1 SUB PUSH1 0x20 ADD SWAP1 KECCAK256 SWAP1 POP PUSH0 DUP1 DUP1 JUMPDEST PUSH1 0x5 DUP5 ADD SLOAD DUP2 LT ISZERO PUSH2 0x17B6 JUMPI DUP4 PUSH1 0x2 ADD PUSH1 0x1 SWAP1 SLOAD SWAP1 PUSH2 0x100 EXP SWAP1 DIV PUSH1 0xFF AND PUSH1 0xFF AND DUP5 PUSH1 0x5 ADD DUP3 DUP2 SLOAD DUP2 LT PUSH2 0x1761 JUMPI PUSH2 0x1761 PUSH2 0x1F3A JUMP JUMPDEST PUSH0 SWAP2 DUP3 MSTORE PUSH1 0x20 SWAP1 SWAP2 KECCAK256 ADD SLOAD PUSH1 0x1 PUSH1 0xA0 SHL SWAP1 DIV PUSH1 0xFF AND SUB PUSH2 0x17AE JUMPI DUP4 PUSH1 0x5 ADD DUP2 DUP2 SLOAD DUP2 LT PUSH2 0x1790 JUMPI PUSH2 0x1790 PUSH2 0x1F3A JUMP JUMPDEST PUSH0 SWAP2 DUP3 MSTORE PUSH1 0x20 SWAP1 SWAP2 KECCAK256 ADD SLOAD PUSH1 0x1 PUSH1 0x1 PUSH1 0xA0 SHL SUB AND SWAP3 POP SWAP1 POP DUP1 PUSH2 0x17B6 JUMP JUMPDEST PUSH1 0x1 ADD PUSH2 0x172B JUMP JUMPDEST POP DUP3 PUSH1 0x5 ADD DUP2 DUP2 SLOAD DUP2 LT PUSH2 0x17CC JUMPI PUSH2 0x17CC PUSH2 0x1F3A JUMP JUMPDEST PUSH0 SWAP2 DUP3 MSTORE PUSH1 0x20 SWAP1 SWAP2 KECCAK256 ADD SLOAD PUSH1 0x1 PUSH1 0xA8 SHL SWAP1 DIV PUSH1 0xFF AND ISZERO PUSH2 0x17FF JUMPI PUSH1 0x40 MLOAD PUSH4 0x482590E5 PUSH1 0xE0 SHL DUP2 MSTORE PUSH1 0x4 ADD PUSH1 0x40 MLOAD DUP1 SWAP2 SUB SWAP1 REVERT JUMPDEST PUSH0 DUP4 PUSH1 0x3 ADD SLOAD SWAP1 POP PUSH1 0x1 DUP5 PUSH1 0x5 ADD DUP4 DUP2 SLOAD DUP2 LT PUSH2 0x181E JUMPI PUSH2 0x181E PUSH2 0x1F3A JUMP JUMPDEST PUSH0 SWAP2 DUP3 MSTORE PUSH1 0x20 DUP1 DUP4 KECCAK256 SWAP1 SWAP2 ADD DUP1 SLOAD SWAP4 ISZERO ISZERO PUSH1 0x1 PUSH1 0xA8 SHL MUL PUSH1 0xFF PUSH1 0xA8 SHL NOT SWAP1 SWAP5 AND SWAP4 SWAP1 SWAP4 OR SWAP1 SWAP3 SSTORE PUSH1 0x3 DUP7 ADD DUP2 SWAP1 SSTORE PUSH1 0x1 PUSH1 0x1 PUSH1 0xA0 SHL SUB DUP6 AND DUP2 MSTORE PUSH1 0x7 DUP7 ADD SWAP1 SWAP2 MSTORE PUSH1 0x40 DUP2 KECCAK256 DUP1 SLOAD DUP4 SWAP3 SWAP1 PUSH2 0x1873 SWAP1 DUP5 SWAP1 PUSH2 0x1F9A JUMP JUMPDEST SWAP3 POP POP DUP2 SWAP1 SSTORE POP DUP4 PUSH1 0x6 ADD PUSH1 0x40 MLOAD DUP1 PUSH1 0xC0 ADD PUSH1 0x40 MSTORE DUP1 ADDRESS PUSH1 0x1 PUSH1 0x1 PUSH1 0xA0 SHL SUB AND DUP2 MSTORE PUSH1 0x20 ADD DUP6 PUSH1 0x1 PUSH1 0x1 PUSH1 0xA0 SHL SUB AND DUP2 MSTORE PUSH1 0x20 ADD DUP4 DUP2 MSTORE PUSH1 0x20 ADD TIMESTAMP PUSH4 0xFFFFFFFF AND DUP2 MSTORE PUSH1 0x20 ADD DUP7 PUSH1 0x2 ADD PUSH1 0x1 SWAP1 SLOAD SWAP1 PUSH2 0x100 EXP SWAP1 DIV PUSH1 0xFF AND PUSH1 0xFF AND DUP2 MSTORE PUSH1 0x20 ADD PUSH1 0x1 ISZERO ISZERO DUP2 MSTORE POP SWAP1 DUP1 PUSH1 0x1 DUP2 SLOAD ADD DUP1 DUP3 SSTORE DUP1 SWAP2 POP POP PUSH1 0x1 SWAP1 SUB SWAP1 PUSH0 MSTORE PUSH1 0x20 PUSH0 KECCAK256 SWAP1 PUSH1 0x4 MUL ADD PUSH0 SWAP1 SWAP2 SWAP1 SWAP2 SWAP1 SWAP2 POP PUSH0 DUP3 ADD MLOAD DUP2 PUSH0 ADD PUSH0 PUSH2 0x100 EXP DUP2 SLOAD DUP2 PUSH1 0x1 PUSH1 0x1 PUSH1 0xA0 SHL SUB MUL NOT AND SWAP1 DUP4 PUSH1 0x1 PUSH1 0x1 PUSH1 0xA0 SHL SUB AND MUL OR SWAP1 SSTORE POP PUSH1 0x20 DUP3 ADD MLOAD DUP2 PUSH1 0x1 ADD PUSH0 PUSH2 0x100 EXP DUP2 SLOAD DUP2 PUSH1 0x1 PUSH1 0x1 PUSH1 0xA0 SHL SUB MUL NOT AND SWAP1 DUP4 PUSH1 0x1 PUSH1 0x1 PUSH1 0xA0 SHL SUB AND MUL OR SWAP1 SSTORE POP PUSH1 0x40 DUP3 ADD MLOAD DUP2 PUSH1 0x2 ADD SSTORE PUSH1 0x60 DUP3 ADD MLOAD DUP2 PUSH1 0x3 ADD PUSH0 PUSH2 0x100 EXP DUP2 SLOAD DUP2 PUSH4 0xFFFFFFFF MUL NOT AND SWAP1 DUP4 PUSH4 0xFFFFFFFF AND MUL OR SWAP1 SSTORE POP PUSH1 0x80 DUP3 ADD MLOAD DUP2 PUSH1 0x3 ADD PUSH1 0x4 PUSH2 0x100 EXP DUP2 SLOAD DUP2 PUSH1 0xFF MUL NOT AND SWAP1 DUP4 PUSH1 0xFF AND MUL OR SWAP1 SSTORE POP PUSH1 0xA0 DUP3 ADD MLOAD DUP2 PUSH1 0x3 ADD PUSH1 0x5 PUSH2 0x100 EXP DUP2 SLOAD DUP2 PUSH1 0xFF MUL NOT AND SWAP1 DUP4 ISZERO ISZERO MUL OR SWAP1 SSTORE POP POP POP DUP3 PUSH1 0x1 PUSH1 0x1 PUSH1 0xA0 SHL SUB AND DUP6 PUSH1 0x40 MLOAD PUSH2 0x19E1 SWAP2 SWAP1 PUSH2 0x20E3 JUMP JUMPDEST PUSH1 0x40 MLOAD SWAP1 DUP2 SWAP1 SUB DUP2 KECCAK256 DUP4 DUP3 MSTORE SWAP1 PUSH32 0x218CED6C72C30727CFEF716340083E153116147CCB1A6E4C57A923DC87577AF5 SWAP1 PUSH1 0x20 ADD PUSH1 0x40 MLOAD DUP1 SWAP2 SUB SWAP1 LOG3 PUSH2 0x1A24 DUP6 PUSH2 0x1AB0 JUMP JUMPDEST POP POP POP POP POP JUMP JUMPDEST PUSH0 PUSH0 PUSH0 DUP6 DUP6 PUSH1 0x40 MLOAD PUSH2 0x1A3E SWAP3 SWAP2 SWAP1 PUSH2 0x1F2B JUMP JUMPDEST SWAP1 DUP2 MSTORE PUSH1 0x40 MLOAD SWAP1 DUP2 SWAP1 SUB PUSH1 0x20 ADD SWAP1 KECCAK256 PUSH1 0x5 ADD SWAP1 POP PUSH0 JUMPDEST DUP2 SLOAD DUP2 LT ISZERO PUSH2 0x1AA5 JUMPI DUP4 PUSH1 0x1 PUSH1 0x1 PUSH1 0xA0 SHL SUB AND DUP3 DUP3 DUP2 SLOAD DUP2 LT PUSH2 0x1A79 JUMPI PUSH2 0x1A79 PUSH2 0x1F3A JUMP JUMPDEST PUSH0 SWAP2 DUP3 MSTORE PUSH1 0x20 SWAP1 SWAP2 KECCAK256 ADD SLOAD PUSH1 0x1 PUSH1 0x1 PUSH1 0xA0 SHL SUB AND SUB PUSH2 0x1A9D JUMPI PUSH1 0x1 SWAP3 POP POP POP PUSH2 0x1683 JUMP JUMPDEST PUSH1 0x1 ADD PUSH2 0x1A54 JUMP JUMPDEST POP PUSH0 SWAP6 SWAP5 POP POP POP POP POP JUMP JUMPDEST PUSH0 PUSH0 DUP3 PUSH1 0x40 MLOAD PUSH2 0x1AC0 SWAP2 SWAP1 PUSH2 0x20E3 JUMP JUMPDEST SWAP1 DUP2 MSTORE PUSH1 0x40 MLOAD SWAP1 DUP2 SWAP1 SUB PUSH1 0x20 ADD SWAP1 KECCAK256 SWAP1 POP PUSH0 JUMPDEST PUSH1 0x5 DUP3 ADD SLOAD DUP2 LT ISZERO PUSH2 0x1B21 JUMPI PUSH0 DUP3 PUSH1 0x5 ADD DUP3 DUP2 SLOAD DUP2 LT PUSH2 0x1AF5 JUMPI PUSH2 0x1AF5 PUSH2 0x1F3A JUMP JUMPDEST PUSH0 SWAP2 DUP3 MSTORE PUSH1 0x20 SWAP1 SWAP2 KECCAK256 ADD DUP1 SLOAD SWAP2 ISZERO ISZERO PUSH1 0x1 PUSH1 0xB0 SHL MUL PUSH1 0xFF PUSH1 0xB0 SHL NOT SWAP1 SWAP3 AND SWAP2 SWAP1 SWAP2 OR SWAP1 SSTORE PUSH1 0x1 ADD PUSH2 0x1AD3 JUMP JUMPDEST POP PUSH1 0x2 DUP2 ADD SLOAD PUSH1 0xFF DUP1 DUP3 AND PUSH2 0x100 SWAP1 SWAP3 DIV AND LT PUSH2 0x1B54 JUMPI PUSH1 0x2 DUP2 ADD DUP1 SLOAD PUSH7 0xFF000000000000 NOT AND PUSH1 0x1 PUSH1 0x30 SHL OR SWAP1 SSTORE POP POP JUMP JUMPDEST PUSH1 0x2 DUP2 ADD DUP1 SLOAD PUSH2 0x100 SWAP1 DIV PUSH1 0xFF AND SWAP1 PUSH1 0x1 PUSH2 0x1B6E DUP4 PUSH2 0x20F9 JUMP JUMPDEST SWAP2 SWAP1 PUSH2 0x100 EXP DUP2 SLOAD DUP2 PUSH1 0xFF MUL NOT AND SWAP1 DUP4 PUSH1 0xFF AND MUL OR SWAP1 SSTORE POP POP POP POP JUMP JUMPDEST PUSH0 PUSH0 DUP4 PUSH1 0x1F DUP5 ADD SLT PUSH2 0x1B9B JUMPI PUSH0 PUSH0 REVERT JUMPDEST POP DUP2 CALLDATALOAD PUSH8 0xFFFFFFFFFFFFFFFF DUP2 GT ISZERO PUSH2 0x1BB2 JUMPI PUSH0 PUSH0 REVERT JUMPDEST PUSH1 0x20 DUP4 ADD SWAP2 POP DUP4 PUSH1 0x20 DUP3 DUP6 ADD ADD GT ISZERO PUSH2 0x1BC9 JUMPI PUSH0 PUSH0 REVERT JUMPDEST SWAP3 POP SWAP3 SWAP1 POP JUMP JUMPDEST PUSH0 PUSH0 PUSH0 PUSH0 PUSH1 0x40 DUP6 DUP8 SUB SLT ISZERO PUSH2 0x1BE3 JUMPI PUSH0 PUSH0 REVERT JUMPDEST DUP5 CALLDATALOAD PUSH8 0xFFFFFFFFFFFFFFFF DUP2 GT ISZERO PUSH2 0x1BF9 JUMPI PUSH0 PUSH0 REVERT JUMPDEST PUSH2 0x1C05 DUP8 DUP3 DUP9 ADD PUSH2 0x1B8B JUMP JUMPDEST SWAP1 SWAP6 POP SWAP4 POP POP PUSH1 0x20 DUP6 ADD CALLDATALOAD PUSH8 0xFFFFFFFFFFFFFFFF DUP2 GT ISZERO PUSH2 0x1C24 JUMPI PUSH0 PUSH0 REVERT JUMPDEST DUP6 ADD PUSH1 0x1F DUP2 ADD DUP8 SGT PUSH2 0x1C34 JUMPI PUSH0 PUSH0 REVERT JUMPDEST DUP1 CALLDATALOAD PUSH8 0xFFFFFFFFFFFFFFFF DUP2 GT ISZERO PUSH2 0x1C4A JUMPI PUSH0 PUSH0 REVERT JUMPDEST DUP8 PUSH1 0x20 DUP3 PUSH1 0x5 SHL DUP5 ADD ADD GT ISZERO PUSH2 0x1C5E JUMPI PUSH0 PUSH0 REVERT JUMPDEST SWAP5 SWAP8 SWAP4 SWAP7 POP PUSH1 0x20 ADD SWAP5 POP POP POP JUMP JUMPDEST DUP1 CALLDATALOAD PUSH1 0x1 PUSH1 0x1 PUSH1 0xA0 SHL SUB DUP2 AND DUP2 EQ PUSH2 0x1C82 JUMPI PUSH0 PUSH0 REVERT JUMPDEST SWAP2 SWAP1 POP JUMP JUMPDEST PUSH0 PUSH1 0x20 DUP3 DUP5 SUB SLT ISZERO PUSH2 0x1C97 JUMPI PUSH0 PUSH0 REVERT JUMPDEST PUSH2 0x1683 DUP3 PUSH2 0x1C6C JUMP JUMPDEST PUSH0 PUSH1 0x20 DUP3 ADD PUSH1 0x20 DUP4 MSTORE DUP1 DUP5 MLOAD DUP1 DUP4 MSTORE PUSH1 0x40 DUP6 ADD SWAP2 POP PUSH1 0x40 DUP2 PUSH1 0x5 SHL DUP7 ADD ADD SWAP3 POP PUSH1 0x20 DUP7 ADD PUSH0 JUMPDEST DUP3 DUP2 LT ISZERO PUSH2 0x1D18 JUMPI PUSH1 0x3F NOT DUP8 DUP7 SUB ADD DUP5 MSTORE DUP2 MLOAD DUP1 MLOAD DUP1 DUP8 MSTORE DUP1 PUSH1 0x20 DUP4 ADD PUSH1 0x20 DUP10 ADD MCOPY PUSH0 PUSH1 0x20 DUP3 DUP10 ADD ADD MSTORE PUSH1 0x20 PUSH1 0x1F NOT PUSH1 0x1F DUP4 ADD AND DUP9 ADD ADD SWAP7 POP POP POP PUSH1 0x20 DUP3 ADD SWAP2 POP PUSH1 0x20 DUP5 ADD SWAP4 POP PUSH1 0x1 DUP2 ADD SWAP1 POP PUSH2 0x1CC6 JUMP JUMPDEST POP SWAP3 SWAP7 SWAP6 POP POP POP POP POP POP JUMP JUMPDEST PUSH0 PUSH0 PUSH1 0x20 DUP4 DUP6 SUB SLT ISZERO PUSH2 0x1D35 JUMPI PUSH0 PUSH0 REVERT JUMPDEST DUP3 CALLDATALOAD PUSH8 0xFFFFFFFFFFFFFFFF DUP2 GT ISZERO PUSH2 0x1D4B JUMPI PUSH0 PUSH0 REVERT JUMPDEST PUSH2 0x1D57 DUP6 DUP3 DUP7 ADD PUSH2 0x1B8B JUMP JUMPDEST SWAP1 SWAP7 SWAP1 SWAP6 POP SWAP4 POP POP POP POP JUMP JUMPDEST PUSH1 0x20 DUP1 DUP3 MSTORE DUP3 MLOAD DUP3 DUP3 ADD DUP2 SWAP1 MSTORE PUSH0 SWAP2 DUP5 ADD SWAP1 PUSH1 0x40 DUP5 ADD SWAP1 DUP4 JUMPDEST DUP2 DUP2 LT ISZERO PUSH2 0x1DCD JUMPI DUP4 MLOAD DUP1 MLOAD PUSH1 0x1 PUSH1 0x1 PUSH1 0xA0 SHL SUB AND DUP5 MSTORE PUSH1 0x20 DUP1 DUP3 ADD MLOAD PUSH1 0xFF AND DUP2 DUP7 ADD MSTORE PUSH1 0x40 DUP1 DUP4 ADD MLOAD ISZERO ISZERO SWAP1 DUP7 ADD MSTORE PUSH1 0x60 SWAP2 DUP3 ADD MLOAD ISZERO ISZERO SWAP2 DUP6 ADD SWAP2 SWAP1 SWAP2 MSTORE SWAP1 SWAP4 ADD SWAP3 PUSH1 0x80 SWAP1 SWAP3 ADD SWAP2 PUSH1 0x1 ADD PUSH2 0x1D7C JUMP JUMPDEST POP SWAP1 SWAP6 SWAP5 POP POP POP POP POP JUMP JUMPDEST PUSH0 PUSH0 PUSH0 PUSH1 0x40 DUP5 DUP7 SUB SLT ISZERO PUSH2 0x1DEA JUMPI PUSH0 PUSH0 REVERT JUMPDEST DUP4 CALLDATALOAD PUSH8 0xFFFFFFFFFFFFFFFF DUP2 GT ISZERO PUSH2 0x1E00 JUMPI PUSH0 PUSH0 REVERT JUMPDEST PUSH2 0x1E0C DUP7 DUP3 DUP8 ADD PUSH2 0x1B8B JUMP JUMPDEST SWAP1 SWAP5 POP SWAP3 POP PUSH2 0x1E1F SWAP1 POP PUSH1 0x20 DUP6 ADD PUSH2 0x1C6C JUMP JUMPDEST SWAP1 POP SWAP3 POP SWAP3 POP SWAP3 JUMP JUMPDEST PUSH0 PUSH0 PUSH0 PUSH0 PUSH0 PUSH1 0x80 DUP7 DUP9 SUB SLT ISZERO PUSH2 0x1E3C JUMPI PUSH0 PUSH0 REVERT JUMPDEST DUP6 CALLDATALOAD PUSH8 0xFFFFFFFFFFFFFFFF DUP2 GT ISZERO PUSH2 0x1E52 JUMPI PUSH0 PUSH0 REVERT JUMPDEST PUSH2 0x1E5E DUP9 DUP3 DUP10 ADD PUSH2 0x1B8B JUMP JUMPDEST SWAP1 SWAP7 POP SWAP5 POP POP PUSH1 0x20 DUP7 ADD CALLDATALOAD PUSH1 0xFF DUP2 AND DUP2 EQ PUSH2 0x1E77 JUMPI PUSH0 PUSH0 REVERT JUMPDEST SWAP3 POP PUSH1 0x40 DUP7 ADD CALLDATALOAD SWAP2 POP PUSH1 0x60 DUP7 ADD CALLDATALOAD PUSH4 0xFFFFFFFF DUP2 AND DUP2 EQ PUSH2 0x1E96 JUMPI PUSH0 PUSH0 REVERT JUMPDEST DUP1 SWAP2 POP POP SWAP3 SWAP6 POP SWAP3 SWAP6 SWAP1 SWAP4 POP JUMP JUMPDEST PUSH1 0x20 DUP1 DUP3 MSTORE DUP3 MLOAD DUP3 DUP3 ADD DUP2 SWAP1 MSTORE PUSH0 SWAP2 DUP5 ADD SWAP1 PUSH1 0x40 DUP5 ADD SWAP1 DUP4 JUMPDEST DUP2 DUP2 LT ISZERO PUSH2 0x1DCD JUMPI DUP4 MLOAD DUP1 MLOAD PUSH1 0x1 PUSH1 0x1 PUSH1 0xA0 SHL SUB SWAP1 DUP2 AND DUP6 MSTORE PUSH1 0x20 DUP1 DUP4 ADD MLOAD SWAP1 SWAP2 AND DUP2 DUP7 ADD MSTORE PUSH1 0x40 DUP1 DUP4 ADD MLOAD SWAP1 DUP7 ADD MSTORE PUSH1 0x60 DUP1 DUP4 ADD MLOAD PUSH4 0xFFFFFFFF AND SWAP1 DUP7 ADD MSTORE PUSH1 0x80 DUP1 DUP4 ADD MLOAD PUSH1 0xFF AND SWAP1 DUP7 ADD MSTORE PUSH1 0xA0 SWAP2 DUP3 ADD MLOAD ISZERO ISZERO SWAP2 DUP6 ADD SWAP2 SWAP1 SWAP2 MSTORE SWAP1 SWAP4 ADD SWAP3 PUSH1 0xC0 SWAP1 SWAP3 ADD SWAP2 PUSH1 0x1 ADD PUSH2 0x1EBD JUMP JUMPDEST DUP2 DUP4 DUP3 CALLDATACOPY PUSH0 SWAP2 ADD SWAP1 DUP2 MSTORE SWAP2 SWAP1 POP JUMP JUMPDEST PUSH4 0x4E487B71 PUSH1 0xE0 SHL PUSH0 MSTORE PUSH1 0x32 PUSH1 0x4 MSTORE PUSH1 0x24 PUSH0 REVERT JUMPDEST PUSH1 0x1 DUP2 DUP2 SHR SWAP1 DUP3 AND DUP1 PUSH2 0x1F62 JUMPI PUSH1 0x7F DUP3 AND SWAP2 POP JUMPDEST PUSH1 0x20 DUP3 LT DUP2 SUB PUSH2 0x1F80 JUMPI PUSH4 0x4E487B71 PUSH1 0xE0 SHL PUSH0 MSTORE PUSH1 0x22 PUSH1 0x4 MSTORE PUSH1 0x24 PUSH0 REVERT JUMPDEST POP SWAP2 SWAP1 POP JUMP JUMPDEST PUSH4 0x4E487B71 PUSH1 0xE0 SHL PUSH0 MSTORE PUSH1 0x11 PUSH1 0x4 MSTORE PUSH1 0x24 PUSH0 REVERT JUMPDEST DUP1 DUP3 ADD DUP1 DUP3 GT ISZERO PUSH2 0x1700 JUMPI PUSH2 0x1700 PUSH2 0x1F86 JUMP JUMPDEST PUSH4 0x4E487B71 PUSH1 0xE0 SHL PUSH0 MSTORE PUSH1 0x41 PUSH1 0x4 MSTORE PUSH1 0x24 PUSH0 REVERT JUMPDEST PUSH0 DUP3 PUSH2 0x1FDB JUMPI PUSH4 0x4E487B71 PUSH1 0xE0 SHL PUSH0 MSTORE PUSH1 0x12 PUSH1 0x4 MSTORE PUSH1 0x24 PUSH0 REVERT JUMPDEST POP MOD SWAP1 JUMP JUMPDEST PUSH1 0x1F DUP3 GT ISZERO PUSH2 0x2024 JUMPI DUP1 PUSH0 MSTORE PUSH1 0x20 PUSH0 KECCAK256 PUSH1 0x1F DUP5 ADD PUSH1 0x5 SHR DUP2 ADD PUSH1 0x20 DUP6 LT ISZERO PUSH2 0x2005 JUMPI POP DUP1 JUMPDEST PUSH1 0x1F DUP5 ADD PUSH1 0x5 SHR DUP3 ADD SWAP2 POP JUMPDEST DUP2 DUP2 LT ISZERO PUSH2 0x1A24 JUMPI PUSH0 DUP2 SSTORE PUSH1 0x1 ADD PUSH2 0x2011 JUMP JUMPDEST POP POP POP JUMP JUMPDEST PUSH8 0xFFFFFFFFFFFFFFFF DUP4 GT ISZERO PUSH2 0x2041 JUMPI PUSH2 0x2041 PUSH2 0x1FAD JUMP JUMPDEST PUSH2 0x2055 DUP4 PUSH2 0x204F DUP4 SLOAD PUSH2 0x1F4E JUMP JUMPDEST DUP4 PUSH2 0x1FE0 JUMP JUMPDEST PUSH0 PUSH1 0x1F DUP5 GT PUSH1 0x1 DUP2 EQ PUSH2 0x2086 JUMPI PUSH0 DUP6 ISZERO PUSH2 0x206F JUMPI POP DUP4 DUP3 ADD CALLDATALOAD JUMPDEST PUSH0 NOT PUSH1 0x3 DUP8 SWAP1 SHL SHR NOT AND PUSH1 0x1 DUP7 SWAP1 SHL OR DUP4 SSTORE PUSH2 0x1A24 JUMP JUMPDEST PUSH0 DUP4 DUP2 MSTORE PUSH1 0x20 DUP2 KECCAK256 PUSH1 0x1F NOT DUP8 AND SWAP2 JUMPDEST DUP3 DUP2 LT ISZERO PUSH2 0x20B5 JUMPI DUP7 DUP6 ADD CALLDATALOAD DUP3 SSTORE PUSH1 0x20 SWAP5 DUP6 ADD SWAP5 PUSH1 0x1 SWAP1 SWAP3 ADD SWAP2 ADD PUSH2 0x2095 JUMP JUMPDEST POP DUP7 DUP3 LT ISZERO PUSH2 0x20D1 JUMPI PUSH0 NOT PUSH1 0xF8 DUP9 PUSH1 0x3 SHL AND SHR NOT DUP5 DUP8 ADD CALLDATALOAD AND DUP2 SSTORE JUMPDEST POP POP PUSH1 0x1 DUP6 PUSH1 0x1 SHL ADD DUP4 SSTORE POP POP POP POP POP JUMP JUMPDEST PUSH0 DUP3 MLOAD DUP1 PUSH1 0x20 DUP6 ADD DUP5 MCOPY PUSH0 SWAP3 ADD SWAP2 DUP3 MSTORE POP SWAP2 SWAP1 POP JUMP JUMPDEST PUSH0 PUSH1 0xFF DUP3 AND PUSH1 0xFF DUP2 SUB PUSH2 0x210E JUMPI PUSH2 0x210E PUSH2 0x1F86 JUMP JUMPDEST PUSH1 0x1 ADD SWAP3 SWAP2 POP POP JUMP INVALID LOG2 PUSH5 0x6970667358 0x22 SLT KECCAK256 PUSH5 0x5169C05020 RETURN STOP 0xC5 DUP7 CHAINID PUSH22 0x16E17DBD2446F32A347B05D867977BAC1DE6ABBC6473 PUSH16 0x6C634300081E00330000000000000000 "
		},
		"gasEstimates": {
			"creation": {
				"codeDepositCost": "1705000",
				"executionCost": "1790",
				"totalCost": "1706790"
			},
			"external": {
				"crearSala(string,uint8,uint256,uint32)": "infinite",
				"esInvitado(string,address)": "infinite",
				"invitarParticipantes(string,address[])": "infinite",
				"obtenerParticipantes(string)": "infinite",
				"obtenerPendienteRetiro(string,address)": "infinite",
				"obtenerSala(string)": "infinite",
				"obtenerSalasUsuario(address)": "infinite",
				"obtenerTransacciones(string)": "infinite",
				"obtenerTurnoUsuario(string,address)": "infinite",
				"realizarAporte(string)": "infinite",
				"realizarSorteo(string)": "infinite",
				"retirarFondos(string)": "infinite",
				"unirseASala(string)": "infinite"
			},
			"internal": {
				"_esParticipante(string calldata,address)": "infinite",
				"_obtenerIndiceParticipante(string calldata,address)": "infinite",
				"_prepararSiguienteRonda(string memory)": "infinite",
				"_procesarPago(string memory)": "infinite",
				"_todosHanAportado(string calldata)": "infinite"
			}
		},
		"methodIdentifiers": {
			"crearSala(string,uint8,uint256,uint32)": "8c7d0624",
			"esInvitado(string,address)": "7c5e107f",
			"invitarParticipantes(string,address[])": "071b3902",
			"obtenerParticipantes(string)": "2d74801d",
			"obtenerPendienteRetiro(string,address)": "bd89d4d8",
			"obtenerSala(string)": "cdb2000d",
			"obtenerSalasUsuario(address)": "28b89be7",
			"obtenerTransacciones(string)": "9267bfdc",
			"obtenerTurnoUsuario(string,address)": "4d0c1b98",
			"realizarAporte(string)": "2eac249c",
			"realizarSorteo(string)": "76dd1305",
			"retirarFondos(string)": "2b798c0f",
			"unirseASala(string)": "927c368d"
		}
	},
	"abi": [
		{
			"inputs": [],
			"name": "MontoIncorrecto",
			"type": "error"
		},
		{
			"inputs": [],
			"name": "NoInvitado",
			"type": "error"
		},
		{
			"inputs": [],
			"name": "SalaFinalizada",
			"type": "error"
		},
		{
			"inputs": [],
			"name": "SalaLlena",
			"type": "error"
		},
		{
			"inputs": [],
			"name": "SalaNoExiste",
			"type": "error"
		},
		{
			"inputs": [],
			"name": "SalaYaExiste",
			"type": "error"
		},
		{
			"inputs": [],
			"name": "SoloOrganizador",
			"type": "error"
		},
		{
			"inputs": [],
			"name": "SorteoNoRealizado",
			"type": "error"
		},
		{
			"inputs": [],
			"name": "SorteoYaRealizado",
			"type": "error"
		},
		{
			"inputs": [],
			"name": "TransferenciaFallida",
			"type": "error"
		},
		{
			"inputs": [],
			"name": "YaAporto",
			"type": "error"
		},
		{
			"inputs": [],
			"name": "YaEsParticipante",
			"type": "error"
		},
		{
			"inputs": [],
			"name": "YaRecibio",
			"type": "error"
		},
		{
			"anonymous": false,
			"inputs": [
				{
					"indexed": true,
					"internalType": "string",
					"name": "hashId",
					"type": "string"
				},
				{
					"indexed": true,
					"internalType": "address",
					"name": "participante",
					"type": "address"
				},
				{
					"indexed": false,
					"internalType": "uint256",
					"name": "monto",
					"type": "uint256"
				}
			],
			"name": "AporteRealizado",
			"type": "event"
		},
		{
			"anonymous": false,
			"inputs": [
				{
					"indexed": true,
					"internalType": "string",
					"name": "hashId",
					"type": "string"
				},
				{
					"indexed": true,
					"internalType": "address",
					"name": "beneficiario",
					"type": "address"
				},
				{
					"indexed": false,
					"internalType": "uint256",
					"name": "monto",
					"type": "uint256"
				}
			],
			"name": "PagoDisponible",
			"type": "event"
		},
		{
			"anonymous": false,
			"inputs": [
				{
					"indexed": true,
					"internalType": "string",
					"name": "hashId",
					"type": "string"
				},
				{
					"indexed": true,
					"internalType": "address",
					"name": "participante",
					"type": "address"
				}
			],
			"name": "ParticipanteUnido",
			"type": "event"
		},
		{
			"anonymous": false,
			"inputs": [
				{
					"indexed": true,
					"internalType": "string",
					"name": "hashId",
					"type": "string"
				},
				{
					"indexed": true,
					"internalType": "address",
					"name": "organizador",
					"type": "address"
				}
			],
			"name": "SalaCreada",
			"type": "event"
		},
		{
			"anonymous": false,
			"inputs": [
				{
					"indexed": true,
					"internalType": "string",
					"name": "hashId",
					"type": "string"
				}
			],
			"name": "SorteoRealizado",
			"type": "event"
		},
		{
			"inputs": [
				{
					"internalType": "string",
					"name": "hashId",
					"type": "string"
				},
				{
					"internalType": "uint8",
					"name": "numeroParticipantes",
					"type": "uint8"
				},
				{
					"internalType": "uint256",
					"name": "montoAportar",
					"type": "uint256"
				},
				{
					"internalType": "uint32",
					"name": "fechaInicio",
					"type": "uint32"
				}
			],
			"name": "crearSala",
			"outputs": [],
			"stateMutability": "nonpayable",
			"type": "function"
		},
		{
			"inputs": [
				{
					"internalType": "string",
					"name": "hashId",
					"type": "string"
				},
				{
					"internalType": "address",
					"name": "usuario",
					"type": "address"
				}
			],
			"name": "esInvitado",
			"outputs": [
				{
					"internalType": "bool",
					"name": "",
					"type": "bool"
				}
			],
			"stateMutability": "view",
			"type": "function"
		},
		{
			"inputs": [
				{
					"internalType": "string",
					"name": "hashId",
					"type": "string"
				},
				{
					"internalType": "address[]",
					"name": "participantesInvitados",
					"type": "address[]"
				}
			],
			"name": "invitarParticipantes",
			"outputs": [],
			"stateMutability": "nonpayable",
			"type": "function"
		},
		{
			"inputs": [
				{
					"internalType": "string",
					"name": "hashId",
					"type": "string"
				}
			],
			"name": "obtenerParticipantes",
			"outputs": [
				{
					"components": [
						{
							"internalType": "address",
							"name": "wallet",
							"type": "address"
						},
						{
							"internalType": "uint8",
							"name": "numTurno",
							"type": "uint8"
						},
						{
							"internalType": "bool",
							"name": "haRecibido",
							"type": "bool"
						},
						{
							"internalType": "bool",
							"name": "haAportadoRondaActual",
							"type": "bool"
						}
					],
					"internalType": "struct Pasanaku.Participante[]",
					"name": "",
					"type": "tuple[]"
				}
			],
			"stateMutability": "view",
			"type": "function"
		},
		{
			"inputs": [
				{
					"internalType": "string",
					"name": "hashId",
					"type": "string"
				},
				{
					"internalType": "address",
					"name": "usuario",
					"type": "address"
				}
			],
			"name": "obtenerPendienteRetiro",
			"outputs": [
				{
					"internalType": "uint256",
					"name": "",
					"type": "uint256"
				}
			],
			"stateMutability": "view",
			"type": "function"
		},
		{
			"inputs": [
				{
					"internalType": "string",
					"name": "hashId",
					"type": "string"
				}
			],
			"name": "obtenerSala",
			"outputs": [
				{
					"internalType": "address",
					"name": "",
					"type": "address"
				},
				{
					"internalType": "uint256",
					"name": "",
					"type": "uint256"
				},
				{
					"internalType": "uint8",
					"name": "",
					"type": "uint8"
				},
				{
					"internalType": "uint8",
					"name": "",
					"type": "uint8"
				},
				{
					"internalType": "bool",
					"name": "",
					"type": "bool"
				},
				{
					"internalType": "bool",
					"name": "",
					"type": "bool"
				}
			],
			"stateMutability": "view",
			"type": "function"
		},
		{
			"inputs": [
				{
					"internalType": "address",
					"name": "usuario",
					"type": "address"
				}
			],
			"name": "obtenerSalasUsuario",
			"outputs": [
				{
					"internalType": "string[]",
					"name": "",
					"type": "string[]"
				}
			],
			"stateMutability": "view",
			"type": "function"
		},
		{
			"inputs": [
				{
					"internalType": "string",
					"name": "hashId",
					"type": "string"
				}
			],
			"name": "obtenerTransacciones",
			"outputs": [
				{
					"components": [
						{
							"internalType": "address",
							"name": "from",
							"type": "address"
						},
						{
							"internalType": "address",
							"name": "to",
							"type": "address"
						},
						{
							"internalType": "uint256",
							"name": "monto",
							"type": "uint256"
						},
						{
							"internalType": "uint32",
							"name": "fecha",
							"type": "uint32"
						},
						{
							"internalType": "uint8",
							"name": "ronda",
							"type": "uint8"
						},
						{
							"internalType": "bool",
							"name": "esPago",
							"type": "bool"
						}
					],
					"internalType": "struct Pasanaku.Transaccion[]",
					"name": "",
					"type": "tuple[]"
				}
			],
			"stateMutability": "view",
			"type": "function"
		},
		{
			"inputs": [
				{
					"internalType": "string",
					"name": "hashId",
					"type": "string"
				},
				{
					"internalType": "address",
					"name": "usuario",
					"type": "address"
				}
			],
			"name": "obtenerTurnoUsuario",
			"outputs": [
				{
					"internalType": "uint8",
					"name": "",
					"type": "uint8"
				}
			],
			"stateMutability": "view",
			"type": "function"
		},
		{
			"inputs": [
				{
					"internalType": "string",
					"name": "hashId",
					"type": "string"
				}
			],
			"name": "realizarAporte",
			"outputs": [],
			"stateMutability": "payable",
			"type": "function"
		},
		{
			"inputs": [
				{
					"internalType": "string",
					"name": "hashId",
					"type": "string"
				}
			],
			"name": "realizarSorteo",
			"outputs": [],
			"stateMutability": "nonpayable",
			"type": "function"
		},
		{
			"inputs": [
				{
					"internalType": "string",
					"name": "hashId",
					"type": "string"
				}
			],
			"name": "retirarFondos",
			"outputs": [],
			"stateMutability": "nonpayable",
			"type": "function"
		},
		{
			"inputs": [
				{
					"internalType": "string",
					"name": "hashId",
					"type": "string"
				}
			],
			"name": "unirseASala",
			"outputs": [],
			"stateMutability": "nonpayable",
			"type": "function"
		}
	]
}